:020000040800F2
:1000000048090020450100084D1B0008E5130008C1
:10001000491B000829020008F13F00080000000009
:10002000000000000000000000000000E5340008AF
:100030005D10000800000000A11D0008753D0008CB
:100040005F0100085F0100085F0100085F01000810
:100050005F0100085F0100085F0100085F01000800
:100060005F0100085F0100085F0100085F010008F0
:100070005F0100085F0100085F0100085F010008E0
:100080005F0100085F0100085F010008753E00087D
:100090004D3F00085F0100085F0100085F01000894
:1000A0005F0100085F0100085F0100085F010008B0
:1000B0005F0100085F0100085F0100085F010008A0
:1000C0005F0100085F0100085F0100085F01000890
:1000D0005F0100085F0100085F0100085F01000880
:1000E0005F0100085F0100085F0100085F01000870
:1000F0005F0100085F0100085F0100085F01000860
:100100005F0100085F0100085F0100085F0100084F
:100110005F0100085F0100085F0100085F0100083F
:100120005F0100085F0100085F0100085F0100082F
:10013000DFF80CD000F018F8004800478D410008A7
:10014000480900200648804706480047FEE7FEE7CA
:10015000FEE7FEE7FEE7FEE7FEE7FEE7FEE7FEE777
:10016000793D000831010008064C074D06E0E068C3
:1001700040F0010394E8070098471034AC42F6D3EE
:10018000FFF7DAFF684200088842000870B501EB0B
:10019000020410F8015B15F0070301D110F8013BD0
:1001A0002A1106D110F8012B03E010F8016B01F8B9
:1001B000016B5B1EF9D12B0705D40023521E0FD40F
:1001C00001F8013BFAE710F8013B02F10202A1EB52
:1001D000030303E013F8015B01F8015B521EF9D53C
:1001E000A142D6D3002070BD10B5044624B1012C25
:1001F00007D0022C15D10AE01021012003F03CFAAF
:1002000010E04FF48051022003F0DAF90AE01021E7
:10021000012003F031FA4FF48051022003F0D0F9AD
:1002200000E000BF00BF10BD00BFFEE70146CAB23C
:100230000B1243EA0220704710B5002404E0A748DF
:10024000005DA7490855641CA64800888442F6D37F
:10025000A3484068A4494860A14880688860A148D4
:1002600000881F280FD00220FFF7BEFF00209C4906
:100270000860487B1A22052103F0B8FA002101200A
:1002800003F096FA10BD9648C07B282803D0944806
:10029000C07B2A2816D19248407C01069048807C79
:1002A00041EA00418E48C07C41EA00208C49097D2A
:1002B00008438E4908608A48C17D807D41EA00205C
:1002C0008B490860864800688A4988426FD1844813
:1002D000407B89490968884207D88148807B01288A
:1002E00003DB7F48807B10280DDD0220FFF77CFFB9
:1002F0007B49487B2422052103F078FA0021012064
:1003000003F056FAE8E07648C07B25285FD01BDC76
:1003100015286FD00EDC08286DD006DC00285BD0D5
:10032000032830D0042867D176E00A2873D0122839
:10033000F9D12DE01A380A285ED2DFE800F0392E14
:10034000B17D33B1B1B1B1438A286FD00EDC5528ED
:1003500067D006DC282844D02A284ED02F28E2D1A6
:1003600054E05A2829D08828DDD176E0A8286DD01D
:1003700004DC8F286FD09E28D5D173E0AA287BD0CB
:10038000AF28D0D182E05649487B01F099FF95E033
:100390005349487B01F06CFE90E05149487B01F0E5
:1003A000A3FF8BE04E49487B01F09EFF86E086E08C
:1003B0004B49487B01F0ACFE80E04949487B01F0A5
:1003C0009DFE7BE04649487B01F036FF76E04449DC
:1003D000487B01F0E3FE71E04149487B01F08CFF6E
:1003E0006CE03F49487B42490A684049096801F08E
:1003F00099FE63E01BE024E052E03949487B3C4928
:100400000A683A49096801F0B3FF57E03449487B6C
:1004100001F08EFF52E02AE03149487B01F010FEE6
:100420004CE02F49487B01F047FE47E029E02C498A
:10043000487B01F041FE41E02949487B01F03CFE48
:100440003CE02749487B01F037FE37E02449487BF0
:1004500001F032FE32E01EE00EE02149487B01F05F
:100460002BFE2BE01E49487B01F026FE26E01C49AE
:10047000487B01F021FE21E01949487B01F01CFE78
:100480001CE01749487B01F017FE17E01449487B30
:1004900001F012FE12E01249487B01F00DFE0DE062
:1004A0000220FFF7A1FE0E49487B2022052103F020
:1004B0009DF90021012003F07BF900BF0CE0022030
:1004C000FFF792FE0649487B2022052103F08EF9B2
:1004D0000021012003F06CF900BFD3E608040020DE
:1004E00048040020BA01002068040020BC0100205C
:1004F000C0010020555342435C00002010B5002489
:100500004AE047F6FF70294908602948008800F052
:100510000F002849087008460078274901EB800041
:10052000D0F8000C84B214F4004F19D021480078A0
:1005300001EB8000D0F8000CC0F30E0048F68F717C
:1005400008401C4909781C4A02EB8101C1F8000CE3
:1005500018490978491E194A52F8210080471BE0C2
:1005600014F0800F18D013480078134901EB800075
:10057000D0F8000C80B248F60F7108400D49097898
:100580000D4A02EB8101C1F8000C0A490978491EA5
:100590000B4A52F8210080470448006880B20449A1
:1005A000088010F4004FACD110BD0000445C004046
:1005B00058000020F0010020005000403C000020C6
:1005C0002000002010B5002423E19748008800F0A7
:1005D0000F00964908700846007800287ED194489C
:1005E0000068944908800846008800F0300092496D
:1005F00008809048008800F440508E4908808F4958
:10060000D1F8001C89B24BF6BF7201EA020080F4F7
:10061000005080F0200040F4004141F08001874A02
:10062000C2F8001C8048008810F0100F36D18048B6
:10063000006880B248F60F7100EA01001146C1F867
:10064000000C00F0D1FE7A49096889B24BF6BF72FE
:1006500001EA02007749098811F4805F01D080F433
:1006600080507449098811F4005F01D080F4005073
:100670007149098811F0100F01D080F010006E4907
:10068000098811F0200F01D080F0200081B241F4E0
:10069000004141F08001664A116010BD6448006865
:1006A00084B214F4006F39D061480068C0F30E00C2
:1006B00048F68F7100EA01006049C1F8000C03F0B0
:1006C000AFF85B49096889B24BF6BF7201EA0200D4
:1006D0005849098811F4805F03D000E059E080F4A4
:1006E00080505449098811F4005F01D080F4005013
:1006F0005149098811F0100F01D080F010004E49C7
:10070000098811F0200F01D080F0200081B241F45F
:10071000004141F08001464A1160BEE714F4004FE9
:1007200077D043480068C0F30E0048F68F7100EAA6
:1007300001004249C1F8000C01F0F8FA3C4909688F
:1007400089B24BF6BF7201EA02003A49098811F4F6
:10075000805F01D080F480503649098811F4005F31
:1007600001D080F400503449098811F0100F01D0F5
:1007700080F010003049098811F0200F01D080F07E
:10078000200081B241F4004141F08001284A11600B
:1007900083E726480078294901EB8000D0F8000C57
:1007A00084B214F4004F18D02048007801EB800088
:1007B000D0F8000CC0F30E0048F68F7108401B49BA
:1007C00009781E4A02EB8101C1F8000C174909782B
:1007D000491E1B4A52F82100804714F0800F18D0A0
:1007E00012480078154901EB8000D0F8000C80B267
:1007F00048F60F7108400D490978104A02EB810153
:10080000C1F8000C09490978491E0E4A52F8210026
:1008100080470D48006880B20349088010F4004FFB
:100820007FF4D3AE00BF38E758000020F00100206D
:10083000005C00400402002006020020005000403E
:100840003C00002020000020445C00400C4901EBEB
:100850008001D1F8001C11F4804F10D0084901EB41
:100860008001D1F8001C89B248F68F7211404CF219
:1008700080021143024A02EB8002C2F8001C70475A
:10088000005000400C4901EB8001D1F8001C11F030
:10089000400F10D0084901EB8001D1F8001C89B24B
:1008A00048F68F72114048F2C0021143024A02EB2F
:1008B0008002C2F8001C704700500040084901EB5C
:1008C0008001D1F8001C89B248F68F62114048F2CD
:1008D00080021143024A02EB8002C2F8001C7047FA
:1008E0000050004070B52A254FF4803400E0641EAB
:1008F00024B1802001F04AFE0028F8D014B9032565
:10090000284670BD40F2FF5001F0FEFD2846F8E792
:100910002DE9F04106462A274748456B01E0464845
:10092000456B15F0450FFAD015F0040F06D00327DC
:10093000042001F0E9FD3846BDE8F08115F0010F13
:1009400005D00127012001F0DFFD3846F4E701F072
:1009500017FEB04202D010273846EDE740F2FF50B4
:1009600001F0D2FD002001F025FE04463348044288
:1009700001D13846E0E714F0004F01D01C20DBE73E
:1009800014F0804F01D00920D6E714F0005F01D0A9
:100990000A20D1E714F0805F01D00B20CCE714F0DF
:1009A000006F01D00C20C7E714F0806F01D00D203C
:1009B000C2E714F0807F01D00E20BDE714F4000FD1
:1009C00001D00F20B8E714F4800F01D01020B3E756
:1009D00014F4001F01D01120AEE714F4801F01D0E1
:1009E0001220A9E714F4002F01D01320A4E714F477
:1009F000802F01D014209FE714F4003F01D0152070
:100A00009AE714F4803F01D0162095E714F4004FC4
:100A100001D0172090E714F4804F01D018208BE705
:100A200014F4005F01D0192086E714F0080F01D0FC
:100A30001A2081E738467FE70080014008E0FFFD8B
:100A400070B52A250F48446B01E00E48446B14F042
:100A5000450FFAD014F0040F05D00325042001F04F
:100A600053FD284670BD14F0010F05D0012501206B
:100A700001F04AFD2846F5E740F2FF5001F044FD41
:100A80002846EFE70080014070B52A250B48446BEB
:100A900001E00A48446B14F0450FFAD014F0040F3B
:100AA00005D00325042001F02FFD284670BD40F23B
:100AB000FF5001F029FD2846F8E7000000800140C2
:100AC0002DE9F04106460F464FF02A082248456BB3
:100AD00001E02148456B15F0450FFAD015F0040FE1
:100AE00007D04FF00308042001F00EFD4046BDE89A
:100AF000F08115F0010F06D04FF00108012001F040
:100B000003FD4046F3E701F03BFDB04203D04FF058
:100B100010084046EBE740F2FF5001F0F5FC0020E2
:100B200001F048FD044614F4604F03D1200C3880D6
:100B30004046DCE714F4005F01D01320D7E714F43B
:100B4000804F01D01020D2E714F4004F01D00F20C5
:100B5000CDE74046CBE700000080014070B52A2673
:100B60004FF480350F48446B02E06D1E0D48446B16
:100B700014F0450F01D1002DF7D115B114F0040F79
:100B800005D00326042001F0BFFC304670BD14F0F0
:100B9000400F05D02A26402001F0B6FC3046F5E78C
:100BA0003046F3E70080014010F0805F02D0034937
:100BB000086001E0024948607047000004040240F8
:100BC0000000024021B1026842F00102026004E02C
:100BD00002684FF6FE731A4002607047014600201B
:100BE000002211F0805F02D0054B1A6801E0054B2E
:100BF0001A680A4201D0012000E00020704700007E
:100C0000000402400000024010B50022026847F6CE
:100C1000F0739A430C6A8B6823430C6923434C6935
:100C200023438C692343CC6923434C6A23438C6A56
:100C300023431A430260CB6843600B6883604B68B0
:100C4000C36010BD2DE9F0472948006800F1100588
:100C50002E8827480068077AEEB9042F1BD1254853
:100C60000078012812D100212348006880B200F1E9
:100C70000200224A42F810104FF03000204908804C
:100C800000BF4FF000001B49087003E00727102049
:100C90001B49088027E0AC88A64201D8042000E068
:100CA00002200746B44200D93446A0B2A96888475A
:100CB0008046002000F05AFB8146A2B20146404621
:100CC00003F098F9A1B2002002F0C6FC2888001BAE
:100CD0002880688820446880302009490880000204
:100CE0000849088000BF024909680F72BDE8F08713
:100CF000F4010020EC010020505C00400060004046
:100D000006020020040200202DE9F0412948006875
:100D100000F110042688A068C0B1BEB1A588B54214
:100D200000D93546A8B2A168884707462088401BED
:100D30002080608828446080002000F0F3FA80461C
:100D4000AAB20146384601F019F800BF208850B118
:100D50004FF44050184908800021084602F07CFCFE
:100D60003020164908802088A188884204DB0320AF
:100D70001049096808721AE02088002804DD05205F
:100D80000C490968087212E0208880B906200949D8
:100D90000968087200210A48006880B200F1020068
:100DA000084A42F810104FF0300004490880BDE8AE
:100DB000F0810000F401002004020020060200205F
:100DC000505C0040006000402DE9F05F9A480068E8
:100DD00045780027BA46062D1AD197480068007852
:100DE00010F07F0F13D1944909688878012803D146
:100DF00092490968CF690AE0022803D18F4909683E
:100E00000F6A04E0032802D18C4909684F6A94E014
:100E1000002D64D188480068408800285FD186484A
:100E20000068C08802285AD18348006800790028E9
:100E300055D181480068007810F07F0F05D17E48B9
:100E40000068808808B97E4F77E07B4800680078AA
:100E500000F07F00012810D1774909684879774967
:100E600009688A6900219047002866D172480068A5
:100E7000807A002861D0724F5FE06F480068007888
:100E800000F07F00022858D16B480068407900F0DC
:100E90000F0669480068407900F0700966480068EC
:100EA000407910F0800F07D0664800EB8600D0F83C
:100EB000000C00F0300806E0624800EB8600D0F835
:100EC000000C00F4405860480078B04235D9B9F1C0
:100ED000000F32D1B8F1000F2FD0594F2DE0082D5F
:100EE00007D155480068007810F07F0F25D1574F83
:100EF00023E00A2D21D150480068007800F07F00DF
:100F000001281AD14C480068807AB0B14A4800687C
:100F1000408890B948480068007970B94648006830
:100F2000C088012809D144490968487943490968BA
:100F30008A690021904700B9454F57B13E48006883
:100F4000A0F812A03C48006887610020B847002440
:100F50000FE0394A12685078384A12681169884798
:100F60000446032C05D10920334909680872BDE8FD
:100F7000F09F31480068008AA0F57F41FF3904D115
:100F800009202D4909680872F1E7022C03D02A488C
:100F90000068008A20B90820274909680872E6E736
:100FA00025480068007810F0800F3BD02248006888
:100FB000B0F806B020480068008A584504D91E4998
:100FC0000968A1F810B023E01B480068008A1A499C
:100FD0000968C98888421BDA17480068008A1749DF
:100FE000096891F82C10884203DA0020194908702A
:100FF0000EE011480068008A1049096891F82C1029
:1010000090FBF1F201FB120010B9012011490870A8
:101010000A48006890F82C10074800688182FFF7A2
:1010200011FE06E0032004490968087200030A491A
:10103000088000BF9BE70000F4010020F8010020B9
:10104000C53A00080050004060000020493A0008FE
:10105000993A0008EC01002004020020704710B506
:1010600000F0D2FC10BD10B500F008FD10BD00006E
:101070002DE9FC4107460D4600262A240020009059
:10108000019008205B49086010204860402088607B
:101090000020C8604FF480600861084601F0C0FA83
:1010A0001020FFF735FC04462A2C02D02046BDE86C
:1010B000FC815148006800044E49086037204860B0
:1010C000402088600020C8604FF4806008610846B6
:1010D00001F0A6FA3720FFF71BFC04462A2C01D0AA
:1010E0002046E4E74548464908600820486030202B
:1010F00088600220C860002008610120486108461D
:1011000001F014FA00203B49086033204860402079
:1011100088600020C8604FF480600861084601F0D4
:101120007FFA3320FFF7F4FB04462A2C01D0204637
:10113000BDE709E04FF4001001F028FA20B101F0FA
:1011400069FA4DF82600761C2E48406B40F22A6161
:101150000842EFD0082001F019FA28B1082001F068
:10116000D3F904242046A2E7022001F00FFA28B1A7
:10117000022001F0C9F90224204698E7202001F05E
:1011800005FA28B1202001F0BFF9062420468EE799
:101190004FF4007001F0FAF930B14FF4007001F033
:1011A000B3F90724204682E740F2FF5001F0ACF982
:1011B00000980006009901F47F4140EA012000995F
:1011C00001F47F0140EA1120009940EA1160686053
:1011D00001980006019901F47F4140EA012001993C
:1011E00001F47F0140EA1120019940EA1160286072
:1011F00020465CE700050020C8010020FFFF0F002B
:1012000014050020008001402DE9F0410246002530
:101210000026002000230024002791F803C00CF0D2
:101220000F0591F803C01CF0100F03D091F802C015
:101230004CEA0505B1F800C01CF0FF0F31D014686E
:1012400000202BE04FF0010C0CFA00F3B1F800C0C5
:101250000CEA03069E4220D183004FF00F0C0CFADB
:1012600003F7BC4305FA03FC4CEA040491F803C0FD
:10127000BCF1280F06D14FF0010C0CFA00FCC2F8AB
:1012800014C00AE091F803C0BCF1480F05D14FF03B
:10129000010C0CFA00FCC2F810C0401C0828D1D385
:1012A0001460B1F800C0BCF1FF0F34DD54680020B9
:1012B0002EE000F1080C4FF0010808FA0CF3B1F829
:1012C00000C00CEA03069E4221D183004FF00F0CB0
:1012D0000CFA03F7BC4305FA03FC4CEA040491F84A
:1012E00003C0BCF1280F05D100F1080C08FA0CF876
:1012F000C2F8148091F803C0BCF1480F07D100F187
:10130000080C4FF0010808FA0CF8C2F81080401CD5
:101310000828CED35460BDE8F08141617047016177
:101320007047000001460648006880B200EBC1002B
:1013300000F10400034A52F8100080B27047000028
:10134000505C00400060004001460648006880B2E2
:1013500000EBC10000F10600034A52F81000C0F390
:1013600009007047505C004000600040014605489D
:10137000006880B200EBC100034A52F8100080B24E
:1013800070470000505C004000600040014629B9F1
:101390000120034A12681082002070470148FCE7D0
:1013A000F40100205C00002070B50A4804680A4877
:1013B000D0F8EC5709480668344454B1082208496B
:1013C000204600F049F8042205491031284600F073
:1013D00043F870BDE8F7FF1F00F0FF1FF0F7FF1F95
:1013E0000200002000BFFEE710B518480068047A2C
:1013F000022C01D0042C05D1FFF724FC134800680F
:10140000047A1CE0062C19D11048006840780528A1
:101410000ED10E480068007810F07F0F08D10B49FC
:101420000968C87802F068F809490968086A8047BD
:101430000849096888688047082400E008240349AF
:1014400009680C7200F0AEFC10BD0000F401002031
:1014500000020020F801002030B50B46002100BF3B
:1014600016E00A24B4EB107F05D9302404EB107485
:1014700003F8114005E0412404EB10740A3C03F822
:101480001140000100254C00641C1D554C1CE1B2AC
:101490009142E6DB30BD00002DE9F04106462A27E7
:1014A00000240025524800680004524908600D20BD
:1014B0004860402088600020C8604FF48060086168
:1014C000084601F0ADF84C48456B01E04A48456BD1
:1014D00015F0450FFAD015F0040F06D003270420AD
:1014E00001F012F83846BDE8F08115F0010F05D083
:1014F0000127012001F008F83846F4E701F040F830
:1015000005460D2D02D010273846ECE740F2FF507B
:1015100000F0FAFF002001F04DF80446C4F3432028
:1015200030703648044201D13846DCE714F0004FF1
:1015300001D01C20D7E714F0804F01D00920D2E75A
:1015400014F0005F01D00A20CDE714F0805F01D0D5
:101550000B20C8E714F0006F01D00C20C3E714F093
:10156000806F01D00D20BEE714F0807F01D00E20E7
:10157000B9E714F4000F01D00F20B4E714F4800F82
:1015800001D01020AFE714F4001F01D01120AAE70A
:1015900014F4801F01D01220A5E714F4002F01D00D
:1015A0001320A0E714F4802F01D014209BE714F43B
:1015B000003F01D0152096E714F4803F01D016209B
:1015C00091E714F4004F01D017208CE714F4804FFA
:1015D00001D0182087E714F4005F01D0192082E7BA
:1015E00014F0080F01D01A207DE738467BE7000091
:1015F000C8010020000500200080014008E0FFFD38
:1016000008B50121802000F039FC4FF47070ADF86E
:10161000000003208DF8020010208DF803006946B9
:101620000148FFF7F1FD08BD001C014010B5402145
:101630000148FFF772FE10BD001C014010B54021AB
:101640000148FFF76CFE10BD001C014010B50020E2
:1016500000F054F810BD000070B5044600250026C7
:10166000002C3ED101F0E0F92A283AD11E48007E34
:10167000851C1D4890F84E00022806D11A480069C2
:10168000401C80021949086012E017490A7A0121BA
:1016900001FA02F0C11700EBD1514E121248006955
:1016A000401C0121A9404843710888400F49086047
:1016B0004FF400700E4908600E4800682A2801D0D7
:1016C000012070BD0B4800682A2801D00120F8E7EE
:1016D0000648006806490968484307490860002031
:1016E000EFE70120EDE70000980400200C01002046
:1016F00004010020F8000020FC00002070B5044622
:10170000002514B1012C06D104E001F08DF9044943
:10171000086002E001E0012070BD00BF2846FBE741
:10172000F80000202DE9F04104460F4615461E46FC
:1017300014B1012C10D10EE032463946284601F092
:10174000B5FB08490860084600682A2802D0012035
:10175000BDE8F08102E001E00120F9E700BF0020D0
:10176000F6E70000F80000202DE9F04104460F469E
:1017700015461E4614B1012C10D10EE032463946F2
:10178000284601F0F9FC08490860084600682A2844
:1017900002D00120BDE8F08102E001E00120F9E77C
:1017A00000BF0020F6E70000F800002070B50546F5
:1017B000002414480068007800F07F00212810D130
:1017C000FE2D0ED10F480068408850B90D480068C2
:1017D000808830B90B480068C088012801D10A4CC4
:1017E00001E0022070BD0CB90220FBE7054800684B
:1017F000846100210348006841820020A047002046
:10180000F0E70000F40100208D13000810B5044635
:101810000249204602F02EF910BD0000C000002051
:1018200010B504460249204602F024F910BD00001C
:10183000B800002070B5054606480068C478052C3D
:1018400001DD002070BD044800EBC401284602F011
:1018500011F9F7E7F4010020C80000200246002932
:1018600001DD02207047002A01DD0220FAE7002096
:10187000F8E7000010B5044611480068007800F051
:101880007F0021281AD1FF2C18D10D48006840880C
:10189000A0B90B480068808880B909480068C088F2
:1018A00060B90120FEF7EEFF0220FEF7CFFF0548EA
:1018B0000549086000200549087010BD0220FCE7BA
:1018C000F40100205553424348040020B801002091
:1018D00010B50020324988723248C079324909680F
:1018E0004872002001F000FE4FF40071002001F06A
:1018F000E5FE2021002001F0BFFE1821002001F0AC
:1019000025FE2A4890F82C10002001F031FE5821C5
:10191000002001F091FE0020FEF7D0FF002001F032
:1019200071FE0021012001F0C9FE9821012001F083
:1019300083FE2021012001F09FFE0021012001F003
:101940003FFE0021022001F0B9FED821022001F063
:10195000FDFD164890F82C10022001F009FE4FF40E
:101960004051022001F02CFE0021022001F084FEF3
:101970000E4890F82C10002001F0FAFD002001F034
:1019800041FE002001F0B8FD012009490860094826
:101990000949086000200949087002F0DBFA10BD0F
:1019A0002C050020CA410008F4010020640000203A
:1019B000F00000205553424348040020B8010020A5
:1019C0007047704710B5FFF7EFFC00200549096824
:1019D000887200F00BFA02F0C7FA00200249086092
:1019E00010BD0000F4010020F000002010B50448F4
:1019F00000680449884202D00220FEF7F5FB10BDC2
:101A0000480400205553424310B518480078022876
:101A100010D003281DD0042802D0052823D100E0CF
:101A200000BF0020114908704FF44051022001F01E
:101A3000C7FD19E00E48C07B282808D10C49487B17
:101A40000C490A680C49096800F06CFB00BF00BF34
:101A50000AE00121002001F0ABFE4FF440510220CA
:101A600001F0AEFD00E000BF00BF10BDB8010020D6
:101A700048040020C0010020BC01002010B51D4812
:101A8000C47B1D49022002F085FA1C4908801C48CD
:101A9000007810B101281CD102E0FEF7CDFB26E052
:101AA0002A2C08D11349487B16490A681649096847
:101AB00000F05EFC1BE00120FEF796FB0D49487B21
:101AC0002422052101F092FE0021022001F070FE87
:101AD0000DE00220FEF788FB0649487B2422052101
:101AE00001F084FE0021022001F062FE00BF00BF71
:101AF00010BD00004804002008040020BA010020A6
:101B0000B8010020C0010020BC01002010B5084829
:101B10000068807A58B10520064908600120FEF768
:101B2000B1FE0220FEF792FE00200349087010BDAE
:101B3000F4010020F0000020B80100200420014939
:101B400008607047F000002000BFFEE77047704754
:101B500070B5002100230F22C4784CB31A4C2468BE
:101B600004F4E064C4F5E0644FEA1421C1F1040315
:101B700022FA01F2447804FA03F1847804EA0204B8
:101B800044EA01014FEA0111104C0678A15504788E
:101B900004F01F054FF0010404FA05F405784FEA3C
:101BA00065154FF0E02606EB8505C5F8004109E014
:101BB000047804F01F050124AC40054D0678761129
:101BC00045F8264070BD00000CED00E000E400E0A8
:101BD00080E100E002490143024A116070470000C1
:101BE0000000FA050CED00E070B502264A480068D6
:101BF000447849480068007810F07F0F4AD1092CDA
:101C000003D101F0DFFF064665E0052C14D1424800
:101C10000068C0787F280BDC3F480068807838B9BE
:101C20003D480068808818B93B480068807A08B150
:101C300008256DE000264EE0032C14D136480068DC
:101C4000C07801280DD134480068808848B93248EE
:101C50000068407A10F0200F03D001F0D7FF06464D
:101C600039E0022637E0012C35D12B480068C078D6
:101C700001280DD128480068808848B926480068A6
:101C8000407A10F0200F03D001F026FE064622E035
:101C9000022620E020480068007800F07F0001283C
:101CA00005D10B2C17D102F02FF8064613E01A4885
:101CB0000068007800F07F0002280BD1012C03D1CE
:101CC00001F00AFE064606E0032C04D101F0B2FF43
:101CD000064600E002264EB1104800684169E0B2B5
:101CE00088470646032E01D1092511E00EB10825CB
:101CF0000EE0062500210A48006880B200F10200CB
:101D0000084A42F810104FF030000749088000BF21
:101D1000014909680D7270BDF4010020F80100202E
:101D2000505C0040006000400602002010B51148E1
:101D30000068047A022C01D0042C01D1082412E09E
:101D4000032C01D0052C05D1FEF7DEFF0948006801
:101D5000047A08E0072C05D107490968C86880475C
:101D6000082400E00824034909680C7200F01AF8FE
:101D700010BD0000F4010020F8010020F0B5561C51
:101D80007510064E06EB41042B4604E080CC20F88B
:101D9000017B401C5B1E002BF8D1F0BD00600040B1
:101DA0007047000010B50D4890F82C10002001F08D
:101DB000DFFB0B480068007A082805D1400209497A
:101DC000088010200849088005480068007A092822
:101DD00001D1012000E00020C0B210BD640000204D
:101DE000F4010020040200200602002010B50120AA
:101DF00002F00EF801240D4804604FF000000C4979
:101E00000880084600880B49C1F8400C4FF00000DC
:101E1000094908604FF4E0500549088008460088E9
:101E20000449C1F8400C4FF0000010BD405C004078
:101E3000FE01002000500040445C004029B1064AE9
:101E400052690243044B5A6104E0034A52698243D7
:101E5000014B5A61704700000010024029B1064A48
:101E6000D2690243044BDA6104E0034AD269824337
:101E7000014BDA61704700000010024029B1064AA8
:101E800092690243044B9A6104E0034A92698243D7
:101E9000014B9A6170470000001002400149086040
:101EA00070470000D800424270B504460D46164601
:101EB0003748007870B9374850F8240068433649ED
:101EC0000860344850F82400704334490860012009
:101ED0002F4908702E480078012846D13048006804
:101EE000C0B92C4850F8240083B22E4A2A48016811
:101EF0002046FFF717FC40222A49812002F061F8B2
:101F0000244850F8240040382549086040202649DC
:101F1000086011E02348244A126881184022812079
:101F200002F04FF81E48006840381D4908601E48FE
:101F3000006840301C4908604021012001F08CFB02
:101F40003021012001F098FB13480068403012490D
:101F500008601248006840381049086013488068DB
:101F6000403812498860FFF769FB0C48006870B977
:101F700000200B4908600C490860074908600320ED
:101F80000B490870002002490870FFF74FFB70BD35
:101F90001C01002004010020200100202401002059
:101FA00014010020080200203001002068040020F5
:101FB000B80100202DE9F04104460D4617461E46A3
:101FC000B8191C4951F82410884213D92A2D02D17E
:101FD0000220FEF709F90020FEF706F9212205216B
:101FE000204601F003FC0021012001F0E1FB00206C
:101FF000BDE8F08110488168104850F82400704313
:10200000814214D02A2D03D10220FEF7EDF802E020
:102010000020FEF7E9F80849487B2422052101F059
:10202000E5FB0021012001F0C3FB0020E0E70120D7
:10203000DEE700000C01002048040020040100201D
:1020400010B504462046FFF707FB68B10749487BF7
:102050003A22022101F0CAFB0121084601F0A8FB47
:102060000020FEF7C1F810BD00BFFCE748040020C7
:1020700070B506460C48007C10F0010F02D00B4CE6
:102080002A250BE00EB90A4C00E00A4C0648C07C39
:10209000242802DC0448C57C00E02425294620468B
:1020A00001F09AFE70BD00004804002038010020B5
:1020B0003D0100206001002010B504460E488068F4
:1020C00018B90020FEF790F80BE00B48007B10F0E9
:1020D000800F03D00020FEF787F802E00220FEF711
:1020E00083F80549487B2022052101F07FFB002170
:1020F000012001F05DFB10BD4804002010B504462E
:102100000821024801F068FE10BD0000880100208F
:1021100010B504460421024801F05EFE10BD000027
:102120008401002070B506460C4615461948007813
:1021300020BB1949487B2B4622462821FFF73AFF4E
:1021400000B970BD1448007B10F0800F08D0022049
:10215000104908702A4621463046FFF7A5FE0CE0DC
:102160000220FEF741F80C49487B2422052101F0AA
:102170003DFB0121084601F01BFBE2E70548007822
:10218000022804D12A4621463046FFF78DFE00BFC3
:10219000D7E70000B80100204804002010B504462D
:1021A0002046FFF759FA68B11F49487B3A220221BD
:1021B00001F01CFB0121084601F0FAFA0020FEF7AD
:1021C00013F810BD194850F82400401E000E18499D
:1021D0000870164850F82400401E000C4870134840
:1021E00050F82400401E000A8870104850F824005F
:1021F000401EC8700F4850F82400000E08710D48AA
:1022000050F82400000C48710A4850F82400000AD5
:102210008871084850F82400C8710821044801F06A
:10222000DBFD00BFCDE70000480400200C010020CA
:10223000A20100200401002010B504462046FFF74B
:102240000BFA68B11A49487B3A22022101F0CEFA12
:102250000121084601F0ACFA0020FDF7C5FF10BDD2
:10226000144850F82400000E13490871114850F822
:102270002400000C48710F4850F82400000A8871AF
:102280000C4850F82400C8710C4850F82400000C89
:1022900048720A4850F82400000A8872074850F82B
:1022A0002400C8720C21044801F096FD00BFD6E757
:1022B000480400200C010020AA0100200401002095
:1022C00070B505460648C07C122802DC0448C47C70
:1022D00000E012242146034801F07EFD70BD00009D
:1022E000480400209001002010B504460121002080
:1022F00001F05EFA10BD000010B504462046FFF75D
:10230000ABF968B10949487B3A22022101F06EFA23
:102310000121084601F04CFA0020FDF765FF10BDD1
:102320000121002001F044FA00BFF8E74804002032
:1023300010B504460D48806848B90C48007C10F080
:10234000040F04D10121002001F032FA0CE0022038
:10235000FDF74AFF0549487B2422052101F046FA92
:102360000021012001F024FA10BD000048040020E3
:1023700070B506460C4615461948007820BB194929
:10238000487B2B4622462A21FFF714FE00B970BD78
:102390001448007B10F0800F08D10120104908700C
:1023A0004FF44051022001F00BF90CE00020FDF742
:1023B0001BFF0C49487B2422052101F017FA00215C
:1023C000012001F0F5F9E2E705480078012804D181
:1023D0002A462146304601F029FE00BFD7E700001B
:1023E000B8010020480400207CB505462A240020BE
:1023F0000090019000F0DEF810F0007F02D00E2473
:1024000020467CBD69463E48006880B2FEF730FE3B
:1024100004462A2C01D02046F3E7012D37D101983C
:1024200010F4802F30D03648006800043549086029
:1024300037204860402088600020C860A8020861FA
:10244000084600F0EDF83720FEF762FA04462A2C21
:1024500001D02046D5E702202A49086006204860BE
:10246000402088600020C8604FF480600861084602
:1024700000F0D6F80620FEF74BFA04462A2C01D0CD
:102480002046BEE72046BCE725242046B9E7019850
:1024900010F4803F31D01A480068000419490860E0
:1024A00037204860402088600020C8604FF480607A
:1024B0000861084600F0B4F83720FEF729FA044610
:1024C0002A2C01D020469CE700200E4908600620F7
:1024D0004860402088600020C8604FF48060086138
:1024E000084600F09DF80620FEF712FA04462A2C52
:1024F00001D0204685E7204683E72524204680E753
:10250000C8010020000500200149886370470000D1
:10251000008001400149086070470000A00030427F
:1025200001490860704700008C05304200210A4BC9
:1025300002685A6242689A621A46D16A21F0F7012B
:10254000D0E902231A4303691A4343691A4311432A
:10255000014AD16270470000008001400020064916
:10256000086048608860C86048628862C862034842
:1025700088630020C863704700800140FF07C000E7
:1025800001480069C0B27047008001400146002048
:10259000034A526B0A4201D0012000E0002070473C
:1025A000008001400248006800F00300704700000E
:1025B000008001400146002201480A181068704757
:1025C0001480014029B1064AD26B0243044BDA63FE
:1025D00004E0034AD26B8243014BDA637047000088
:1025E0000080014000210A4A516847F6FF6291438A
:1025F000027D83681A4343681A43C3681A43036819
:102600001A4303691A431143014A5160704700009D
:102610000080014001480068704700008080014050
:102620000021094B02689A601A46D1686FF30A01CB
:10263000D0E901231A43C3681A4303691A431143BB
:10264000014AD160704700000080014005490968D7
:1026500021F00301034A116011460968014311602A
:102660007047000000800140014908607047000089
:102670008080014010B50248FEF7B0FA10BD00009E
:102680000020001070B504462A252248006803285F
:1026900002D12725284670BD1E48006838B11D4864
:1026A0000068012803D01B480068022830D1B4F527
:1026B000805F02D127252846EDE7B4F5006F15D1DC
:1026C0000120FFF791FE05462A2D21D10120124954
:1026D000087500200860486088604FF40060C8609A
:1026E000002008610846FFF77DFF11E00020FFF79A
:1026F0007BFE05462A2D0BD10120074908750020D5
:10270000086048608860C86008610846FFF76AFF93
:102710002846C0E7C4010020E804002030B5014687
:102720002A200022BC4B1B6881F84E30BB4B1B6833
:10273000A1F84C30BA4B1B681A0E93090B70C2F308
:1027400083034B7002F003038B70B54B1B68C3F31C
:102750000742CA70B24B1B68C3F307220A71B04B21
:102760001B68DAB24A71AE4B5B681A0E1301CB805C
:10277000AB4B5B68C3F30742CB8843EA1213CB80B1
:1027800002F00F030B72A64B5B68C3F30722D30959
:102790004B72C2F380138B72C2F34013CB72C2F33D
:1027A00000130B7300234B739B4B1B681BB19A4B9D
:1027B0001B68012B3DD193071B0D0B61984B5B6888
:1027C000DAB20B6943EA82030B61954B9B681A0EE0
:1027D0000B6943EA92130B61C2F3C2030B7502F05B
:1027E00007034B758E4B9B68C3F3074253098B75E8
:1027F000C2F38203CB7593075B0F0B76884B9B6804
:10280000C3F307220B7E43EAD2130B760B695B1CE2
:102810004B640C7E4B6CA41C0125A5406B434B64A0
:102820000C7A0123A3408B64D1E9113463434B64D8
:1028300022E0794B1B68022B1ED1794B5B68DAB220
:1028400093069B0A0B61764B9B681A0E0B6943EA51
:1028500002230B61724B9B68C3F307420B6913435E
:102860000B616F4B9B68C3F307220B695B1CDB0496
:102870004B644FF400738B64C2F3801301F8193F6B
:1028800093065B0E4B70664B9B68DAB24B7843EA5B
:10289000D2134B7002F07F038B70614BDB681A0E12
:1028A000D309CB70C2F341130B71C2F382034B7196
:1028B00093071B0F8B715A4BDB68C3F307428B796D
:1028C00043EA92138B71C2F34013CB7100230B7256
:1028D00002F001034B72524BDB68C3F30722D309AA
:1028E0008B72C2F38013CB72C2F340130B73C2F32B
:1028F00000134B73C2F381038B7302F00303CB739A
:10290000474BDB68DAB253080B7401234B74454B19
:102910001B681A0ECA74A1F11901424B1B68C3F35C
:1029200007424FEA0223CB853E4B1B68C3F30722C5
:10293000CB8D43EA0203CB853A4B1B68DAB24FEAF0
:1029400002640C63374B5B684FEA13620B6B43EA1C
:1029500002440C63334B5B68C3F307420B6B43EADF
:1029600002240C632F4B5B68C3F307220B6B43EA13
:1029700002030B632B4B5B68DAB24FF034035A54FB
:10298000284B9B684FEA13624FF035035A54254B8E
:102990009B68C3F307424FEA02648C63214B9B6838
:1029A000C3F307228B6B43EA02448C631D4B9B6885
:1029B000DAB28B6B43EA02248C631A4BDB684FEA72
:1029C00013628B6B43EA02038B63164BDB68C3F322
:1029D00007424FF03C035B5C43EA12134FF03C04A8
:1029E00063544FEA02734FEA1353CB870D4BDB68F6
:1029F000C3F30722CB8F43EA0203CB87094BDB6883
:102A0000DAB24FEA52034FF0400463544FF001042E
:102A10004FF041035C5430BDC4010020C8010020C8
:102A2000780400208804002010B52A2400F042F920
:102A3000FFF794FD00F072F904462A2C01D02046DD
:102A400010BD00F033F804462A2C01D02046F7E7E9
:102A50000120144908750020086048608860C8603B
:102A600008610846FFF7BEFD2A2C03D10E48FFF788
:102A700055FE04462A2C06D10B49B1F84C10080427
:102A800000F052FB04462A2C04D14FF40060FFF7FB
:102A9000F9FD04462A2C03D1002000F05FFB044618
:102AA0002046CDE7E80400209804002038B52A2409
:102AB00001200090FFF776FD10B92524204638BD8F
:102AC00045480068042829D00020444908600220B5
:102AD0004860C02088600020C8604FF480600861B2
:102AE0000846FFF79DFDFDF7ABFF04462A2C01D0F9
:102AF0002046E4E70020FFF75DFD39490860042027
:102B0000FFF758FD364948600820FFF753FD344968
:102B100088600C20FFF74EFD3149C8602E480068E0
:102B200058B12D480068012807D02B4800680628B6
:102B300003D029480068022817D1002027490860DF
:102B400003204860402088600020C8604FF4806007
:102B500008610846FFF764FD69460320FDF7B0FFF2
:102B600004462A2C01D02046A9E71B480068042807
:102B70002FD0BDF800001B490860BDF8000000041C
:102B80001649086009204860C02088600020C8609D
:102B90004FF4806008610846FFF742FDFDF750FFE3
:102BA00004462A2C01D0204689E70020FFF702FDC9
:102BB0000D4908600420FFF7FDFC0B494860082020
:102BC000FFF7F8FC084988600C20FFF7F3FC064982
:102BD000C8602A24204672E7C401002000050020B6
:102BE00088040020C80100207804002030B58BB094
:102BF00005460C461348FDF7D7FF00211248FDF7A4
:102C0000E1FF12480090019500200290A008039077
:102C1000002004908020059080000690800007909E
:102C2000002008904FF40050099000200A90694657
:102C30000548FDF7E9FF01210348FDF7C3FF0BB08D
:102C400030BD000000F000104404024080800140CC
:102C500030B58BB005460C461348FDF7A5FF0021A3
:102C60001248FDF7AFFF1248009001951020029026
:102C7000A00803900020049080200590800006901A
:102C800080000790002008904FF400500990002029
:102C90000A9069460548FDF7B7FF01210348FDF793
:102CA00091FF0BB030BD000000F000104404024062
:102CB0008080014008B50121B020FFF7DFF84FF414
:102CC000F850ADF8000003208DF8020018208DF8B0
:102CD000030069460E48FEF797FA0420ADF800009D
:102CE00069460C48FEF790FA4FF48060ADF800009A
:102CF00048208DF8030069460748FEF785FA012150
:102D00008802FFF79BF801210220FFF797F808BD22
:102D10000010014000140140001C01402DE9F04169
:102D20002A240026002500274FF00008B2205B4926
:102D300008750020086048608860C860086108461F
:102D4000FFF750FC0320FFF781FC0120FFF7E2FBB7
:102D500000205349086048608860C8604FF4806074
:102D600008610846FFF75CFCFDF7BCFD04462A2C11
:102D700002D02046BDE8F0814FF4D5704849086084
:102D800008204860402088600020C8604FF48060C0
:102D900008610846FFF744FCFDF7E0FE04462A2CD4
:102DA00005D101203F4908604FF0804812E0002023
:102DB0003B49086037204860402088600020C86098
:102DC0004FF4806008610846FFF72AFC3720FDF7C2
:102DD0009FFD0446002032490860372048604020AB
:102DE00088600020C8604FF4806008610846FFF7E3
:102DF00017FC3720FDF78CFD04462A2C4CD138E017
:102E00000020274908603720486040208860002063
:102E1000C8604FF4806008610846FFF701FC372066
:102E2000FDF776FD04462A2C01D02046A2E71E4875
:102E300048EA00001A49086029204860402088605C
:102E40000020C8604FF4806008610846FFF7E8FB87
:102E5000FDF71AFE04462A2C01D020468AE70020FE
:102E6000FFF7A8FB0646012080EAD67080F0010734
:102E70006D1C1FB94FF6FF708542C1D34FF6FF702E
:102E8000854202D31B24204674E706F080400600EA
:102E900002D002200349086020466BE7E8040020C6
:102EA00000050020C4010020000010802DE9F0473B
:102EB00006460F4614464FF02A084FF000093546E3
:102EC0004FF0000A26B94FF026084046BDE8F087CB
:102ED0002A208A49087000208949086089490860C9
:102EE00089488A490860002048608860C860086195
:102EF00048610846FFF71AFB0020FFF711FB00208E
:102F0000FFF758FB10F0007F03D04FF00E0840464B
:102F1000DCE77F480068022801D104027F0A002C08
:102F200021DDB4F5006F1EDC601E20421BD120465F
:102F300001F023F982467748046010207549486003
:102F4000402088600020C8604FF480600861084617
:102F5000FFF766FB1020FDF7DBFC8046B8F12A0F77
:102F600005D04046B2E74FF026084046AEE7664837
:102F700066490860084644604FEA0A1088600220EB
:102F8000C86000200861012048610846FFF7CEFABA
:102F90005C480460002060490860604806605D4845
:102FA000076011205B494860402088600020C860AD
:102FB0004FF4806008610846FFF732FB1120FDF7EF
:102FC000A7FC8046B8F12A0F01D040467EE754485E
:102FD0000068022856D111E04FF40040FFF7D6FAFE
:102FE00060B14FF0000905E0FFF714FB45F8290038
:102FF00009F10109B9F1080FF6D320354948406BB2
:1030000040F22A610842E7D00820FFF7BFFA30B14A
:103010000820FFF779FA4FF00408404656E70220EF
:10302000FFF7B4FA30B10220FFF76EFA4FF0020852
:1030300040464BE72020FFF7A9FA30B12020FFF7E8
:1030400063FA4FF00608404640E74FF40070FFF780
:103050009DFA38B14FF40070FFF756FA4FF00708A9
:10306000404633E703E0FFF7D5FA28602D1D4FF403
:103070000010FFF78BFA0028F5D140F2FF50FFF760
:1030800043FA38E026480068012813D1012148F2AC
:103090002A30FFF797FA00BF1948006818B9174897
:1030A00000782A28F8D0154800782A2823D0134819
:1030B00000780BE71A480068E8B9012140F22A308D
:1030C000FFF780FA0120FFF72BFA21463046FFF781
:1030D0008DFD00BFFFF7CEFA30B90948006818B976
:1030E000064800782A28F5D0044800782A2802D01B
:1030F00002480078EAE64046E8E60000D8010020F1
:10310000DC010020D0010020FFFF0F00140500208B
:10311000C401002000050020D4010020E8010020A7
:10312000CC0100200080014070B504462A250A48E1
:103130000460072008494860402088600020C8607B
:103140004FF4806008610846FFF76AFA0720FDF730
:10315000DFFB0546284670BD0005002001462A20F9
:1031600019B1012901D0022902D1024A116000E0FF
:1031700026207047CC0100202DE9FF5F81468A465A
:1031800014462A25002003900290834600260190D1
:1031900000270090C846B9F1000F04D12625284623
:1031A00004B0BDE8F09F2A20C24908700020C2493F
:1031B0000860C2490860C248C249086000204860EF
:1031C0008860C860086148610846FFF7AFF90020D1
:1031D000FFF7A6F90020FFF7EDF910F0007F02D00D
:1031E0000E252846DCE7B8480068022802D1040210
:1031F0004FEA5A2A002C20DDB4F5006F1DDC601E5A
:1032000020421AD1204600F0B8FF0390AF48046076
:103210001020AE494860402088600020C8604FF40C
:10322000806008610846FFF7FBF91020FDF770FB8E
:1032300005462A2D04D02846B2E726252846AFE7C2
:10324000A34800680004A14908600D2048604020A0
:1032500088600020C8604FF4806008610846FFF76E
:10326000DFF90D20FDF754FB05462A2D01D0284635
:1032700096E70020FFF79EF90190DFF844B21EE0C8
:10328000ABF1010B924800680004904908600D20E2
:103290004860402088600020C8604FF4806008616A
:1032A0000846FFF7BDF90D20FDF732FB05462A2D34
:1032B00001D0284674E70020FFF77CF901900198BF
:1032C00010F4807F02D1BBF1000FD9D1BBF1000F08
:1032D00001D1292064E77D48C0F800A018207B496F
:1032E0004860402088600020C8604FF4806008611A
:1032F0000846FFF795F91820FDF70AFB05462A2D29
:1033000001D028464CE76D480460002071490860F0
:103310007148C0F800906A486A49086008464460ED
:103320000398000188600020C8600861012048619E
:103330000846FFF7FBF869480068022865D134E0C9
:103340004FF48040FFF722F978B35C480068801B97
:1033500020281ED259480068801B10F0030F04D1AA
:1033600056480068801B800804E054480068801BB1
:103370008008401C0090002707E0D8F80000FFF705
:1033800073F97F1C08F10408361D009887420CD29F
:10339000F3E7002704E058F82700FFF765F97F1CE2
:1033A000082FF8D308F1200820364D48406B40F232
:1033B0001A610842C4D00820FFF7E8F828B10820B5
:1033C000FFF7A2F804252846EAE60220FFF7DEF818
:1033D00028B10220FFF798F802252846E0E61020E1
:1033E000FFF7D4F828B11020FFF78EF805252846FE
:1033F000D6E64FF40070FFF7C9F8F0B34FF4007051
:10340000FFF782F807252846CAE6344800680128F5
:1034100013D1012144F21A30FFF7D4F800BF264837
:10342000006818B9234800782A28F8D02148007885
:103430002A2825D01F480078B2E628480068E0B95D
:10344000012140F21A30FFF7BDF821464846FFF748
:10345000FFFB0120FFF764F800BFFFF70BF930B95D
:103460001548006818B9134800782A28F5D0114883
:1034700000782A2804D00F4800E001E000788FE6A9
:1034800040F2FF50FFF740F802A8FEF705F80546A6
:1034900003E002A8FEF700F805462A2D07D19DF8A3
:1034A00008000728F5D09DF808000628F1D0284626
:1034B00076E60000D8010020DC010020D0010020C9
:1034C000FFFF0F0014050020C401002000050020AC
:1034D000C8010020D4010020E4010020CC0100201C
:1034E00000800140704700004FF6F8710140014A2A
:1034F00011607047505C004030B50146104B1A789F
:10350000002015E003060F4C04EB9353D3F8003C66
:103510009BB248F68F74234048F280042343C4B220
:1035200023430406074D05EB9454C4F8003C401CAB
:103530009042E7D341F08003034C236030BD00008C
:1035400060000020005000404C5C004010B54A1064
:103550005300054A126892B202EBC00202F1040263
:10356000024C44F8123010BD505C00400060004036
:1035700010B502461048006880B200EBC20000F1AE
:1035800006000E4C04EB40033E290BDD481111F000
:103590001F0F01D1441EA0B24FF4004444EA80241E
:1035A0001C6007E0481011F0010F01D0441CA0B2CC
:1035B00084021C6010BD0000505C004000600040B0
:1035C00010B50F4B03EB8003D3F8003C9BB24BF6D6
:1035D0008F7403EA040211F4805F01D082F48052F8
:1035E00011F4005F01D082F4005242F4004343F032
:1035F0008003034C04EB8004C4F8003C10BD0000C1
:10360000005000400B4A02EB8002D2F8002C92B22C
:103610004BF68F7302EA030181F4805181F400516B
:1036200041F4004242F08002024B03EB8003C3F8F6
:10363000002C70470050004010B54A105300044A57
:10364000126892B202EBC002024C44F8123010BD74
:10365000505C004000600040054A126892B202EBE4
:10366000C00202F10202034B43F81210704700003F
:10367000505C00400060004010B50F4B03EB80032E
:10368000D3F8003C9BB248F6BF7403EA040211F081
:10369000100F01D082F0100211F0200F01D082F043
:1036A000200242F4004343F08003034C04EB800407
:1036B000C4F8003C10BD000000500040074A02EB77
:1036C0008002D2F8002C92B248F68F131A400A43B7
:1036D000024B03EB8003C3F8002C704700500040FE
:1036E00010B500F001F810BD002100202E4A12682C
:1036F00042F480322C4B1A6000BF2B4A126802F44D
:103700000030491C10B9B1F5A06FF6D1264A1268F5
:1037100012F4003F01D0012000E00020012842D136
:10372000224A126842F01002204B1A601A461268B0
:1037300022F003021A601A46126842F002021A606E
:10374000194A5268184B5A601A4652685A601A460B
:10375000526842F480625A601A46526822F47C121F
:103760005A601A46526842F4E8125A601A461268C1
:1037700042F080721A6000BF0B4A126812F0007F9C
:10378000FAD0094A526822F00302074B5A601A46DF
:10379000526842F002025A6000BF034A526802F0C7
:1037A0000C02082AF9D170470010024000200240A4
:1037B00070B505460C460A480A4908600846057374
:1037C0000D22812000F0FDFB0520074908702CB177
:1037D0000420087030210120FFF74EFF70BD00006B
:1037E0005553425368040020B8010020014B9970E2
:1037F0001A7370479001002010B500F0BDFA00F078
:1038000023FBFDF7FDFEFDF721FF10BD10B50020E5
:10381000FEF744FB0121C805FEF720FB10BD0000A8
:1038200038B501242948006880B200F10400284915
:1038300051F8100080B201EB40000090254800686C
:10384000007A092832D00098007822490968087067
:103850000098401C0090009800781E490968487044
:103860000098401C0090009800EB440000900099E4
:1038700031F8020B0091FCF7D9FC16490968488021
:10388000009800EB44000090009931F8020B009181
:10389000FCF7CCFC0F4909688880009800EB4400D5
:1038A0000090009800880B490968C88001200949E8
:1038B0000968087207480068C08810B9FEF794F9D3
:1038C00001E0FDF781FAFEF76DFA38BD505C00406B
:1038D00000600040F40100202DE9F04755480068E1
:1038E000007800F07F08B8F1000F0AD15148006855
:1038F000407A00F0DF004F49096848720020BDE8B7
:10390000F087B8F1020F7ED14A480068408818B9A4
:1039100048480068007908B10220F0E7DFF8189104
:1039200044480068477927F080052C4641480068E4
:10393000407910F0800F07D0404800EB8400D0F8A9
:10394000000C00F0300606E03C4800EB8400D0F8A4
:10395000000C00F4405699F80000A84204D91EB1AA
:1039600034480068807A08B90220C8E717F0800F51
:1039700010D0324800EB8400D0F8000C00F030008A
:1039800010284DD1E0B2FCF77DFF3021E0B2FFF707
:1039900073FE45E0294800EB8400D0F8000C00F4E9
:1039A0004050B0F5805F3BD1ECB9254890F82C1021
:1039B000E0B2FFF7DDFD214901EB8401D1F8001CE5
:1039C00089B24BF68F7201EA020080F4805080F4D5
:1039D000005040F4004141F08001184A02EB84029B
:1039E000C2F8001C1CE0E0B2FCF730FF134901EB09
:1039F0008401D1F8001C89B24BF68F7201EA0200F3
:103A000080F4805000E011E080F4005040F4004168
:103A100041F08001094A02EB8402C2F8001C00BF99
:103A20000849096848698047002068E700BF02200C
:103A300065E70000F4010020600000200050004015
:103A4000640000200002002010B504462CB90120BB
:103A5000064909680882002010BD05490968086800
:103A60008047024800680A30F6E70000F4010020B1
:103A70000002002010B5024606480068438A32B9A9
:103A80008888C01A034C24682082002010BD086872
:103A90001844FBE7F401002010B504462CB90120BE
:103AA000064909680882002010BD05490968886830
:103AB0008047024800680C30F6E70000F40100205F
:103AC0000002002010B504462CB9022039490968CB
:103AD0000882002010BD0020374908803548006862
:103AE000007810F07F0F23D132490968487A10F02E
:103AF000200F06D03049097841F002012E4A11709A
:103B000005E02D49097801F0FD012B4A117010F0F4
:103B1000400F06D02849097841F00101264A11706A
:103B200005E02549097801F0FE01234A11703AE0C9
:103B300020480068007800F07F00012801D11E486D
:103B4000C8E71C480068007800F07F00022828D1F0
:103B5000184A1268517901F00F0011F0800F0FD050
:103B6000164A02EB8002D2F8002C02F03002102A32
:103B700016D1114A127842F001020F4B1A700FE071
:103B80000E4A02EB8002D2F8002C02F44052B2F549
:103B9000805F05D1084A127842F00102064B1A7084
:103BA00001E0002096E70649096808698047024855
:103BB00090E70000F4010020EE01002000500040DA
:103BC0000002002010B50E480068C0780D49497801
:103BD000884213DC0A480068807878B90848006891
:103BE000808858B906480068C07805490968887215
:103BF0000549096848688047002010BD0220FCE79D
:103C0000F4010020600000200002002010B50748E9
:103C10000068407A40F0200004490968487204496D
:103C20000968C8698047002010BD0000F401002029
:103C3000000200202DE9F0412F480068467926F067
:103C400080073C462C480068407910F0800F07D070
:103C50002A4800EB8400D0F8000C00F0300506E0A4
:103C6000264800EB8400D0F8000C00F440552448AE
:103C70000078A04208D920480068408820B91DB1CA
:103C80001D480068807A10B90220BDE8F08116F066
:103C9000800F15D0194901EB8401D1F8001C89B2BD
:103CA00048F6BF7201EA020080F0100040F40041C3
:103CB00041F08001114A02EB8402C2F8001C15E0B9
:103CC0000E4901EB8401D1F8001C89B24BF68F72CA
:103CD00001EA020080F4805040F4004141F080018C
:103CE000064A02EB8402C2F8001C00BF05490968BD
:103CF000886980470020C8E7F40100200050004098
:103D0000600000200002002010B5174B1B68D97816
:103D1000154B1B685879154B1B689A6990470446E8
:103D200011480068807AE8B13CB90F480068007912
:103D300018B90D480068807808B1022010BD8CB910
:103D40000B490968C86880470748006840790649F8
:103D50000968C87204480068C07803490968087394
:103D60000020EBE70220E9E7F4010020F801002041
:103D7000000200207047000010B51348006840F0B2
:103D800001001149086008464068104908400E4982
:103D90004860084600680E4908400B49086008461C
:103DA000006820F4802008600846406820F4FE0087
:103DB00048604FF41F008860FFF792FC4FF00060EE
:103DC0000449086010BD0000001002400000FFF828
:103DD000FFFFF6FE08ED00E070B505460C462246F2
:103DE0002946812000F0EDF830210120FFF744FC46
:103DF00003200549087005488068001B0349886056
:103E00000020087370BD0000B80100206804002085
:103E100010B504462CB14FF400610548FDF77DFA5A
:103E200004E04FF400610248FDF779FA10BD00008C
:103E3000001C014010B54FF400710248FDF76FFA05
:103E400010BD0000001C014008B501218020FEF7D4
:103E500015F84FF40060ADF8000003208DF8020063
:103E600014208DF8030069460148FDF7CDF908BD1F
:103E7000001C014010B5FCF741FB10BD10B508480F
:103E80000849086002200968087207480749086065
:103E9000074808490860054909680868804710BD57
:103EA0002C050020F401002064000020F80100200F
:103EB000940000200002002008B54FF4C060FDF718
:103EC00089FE14208DF8000001208DF801008DF886
:103ED00002008DF803006846FDF73AFE13208DF8C6
:103EE000000001208DF8010000208DF80200012063
:103EF0008DF803006846FDF72BFE08BD10B50F488E
:103F000000680F4908800846008800F400400D4909
:103F10000988084201D0FCF755FB0948008800F4E5
:103F2000806008490988084206D04FF6FF300349EF
:103F3000086005494868804710BD0000445C0040A7
:103F400058000020FE0100206400002010B5FFF79B
:103F5000D5FF10BD10B54FF400710248FDF7DDF933
:103F600010BD0000001C01400020074908604FF40C
:103F7000044006490880084600880549C1F8400CFD
:103F80004FF0000070470000445C0040FE0100203C
:103F9000005000402DE9F04104460E46002504F093
:103FA0007F00FDF7D1F9054604F07F00FDF7BAF96F
:103FB00007462A4601463046FDF7E0FE2846BDE8A2
:103FC000F0812DE9F04104460E46154604F07F00CD
:103FD000FDF7CCF90746AAB20146304600F00AF8D0
:103FE00004F07F00A9B2FFF737FB0020BDE8F081A5
:103FF00000BFFEE7F0B5144604F1010C4FEA6C0770
:10400000DFF824C00CEB41033D460AE00678401C73
:1040100090F800C046EA0C2223F8022B9B1C401C9F
:104020006D1E002DF2D1F0BD006000402DE9F04181
:1040300004460D4616463E48006800F140073D48DC
:10404000007870B93C4850F8240068433B49086048
:10405000394850F824007043394908600120354937
:1040600008703448007801284ED100203549086096
:1040700010E0344801680068401C324A1060324841
:10408000415C32482A4A1268815429480068401C21
:104090002749086026480068B842EAD327480068E4
:1040A0002B490988084425490860254800682849A3
:1040B0000988401A224908601F4850F824000968FE
:1040C000B1FBF0F200FB121080B900201849086023
:1040D000194850F8240083B2174850F82400174AB2
:1040E0001268111A194A2046FDF73EFB19488068EC
:1040F00017490988401A174988604FF44051022037
:10410000FFF75EFAFDF79AFA0D48006818B11248F9
:10411000007804280AD10020054908600121FFF732
:1041200047FB002003490870FDF780FABDE8F081E5
:10413000180100201C01002004010020280100209B
:104140002C01002034010020080400200802002077
:10415000BA01002068040020B801002002E008C86D
:10416000121F08C1002AFAD170477047002001E0F1
:1041700001C1121F002AFBD170470146002002E056
:104180004910421CD0B20129FAD17047FFF734FB25
:10419000FFF73CFBFDF734FAFFF78EFEFFF76EFEEC
:1041A00000BF044800680528FBD1FFF743FE00BFAD
:1041B000FEE70000F00000201201000200000040B5
:1041C00083042057000201020301090220000101BB
:1041D00000C03209040000020806500407058102ED
:1041E0004000000705020240000004030904220306
:1041F0005700570057002E0050006F0077006500F1
:1042000072004D00430055002E0043004F004D004A
:1042100046034D0075006C007400690020004D00DD
:1042200065006400690061002000440065007600BC
:1042300065006C006F0070006D0065006E0074001A
:10424000200042006F0061007200640020005600F0
:1042500031002E00300010035300540020004D00A8
:104260006100730073000000884200080000002015
:10427000080200008C0100084843000808020020E2
:10428000400700006C410008141A03531254124DE9
:10429000123312321231021130135F100C18084F12
:1042A0001B040A1567208123030113C5191408D1C3
:1042B000181B08C1081AC30413AD171B0875101A80
:1042C0005D041A21041A0D041A35044132402940B4
:1042D000DA0D501AED38690C1A3D0413B841330851
:1042E000121ACA0832201AEA0832041AEE083222D8
:1042F00013104263084633201A1A5610721019938D
:1043000001472C8002027D681C48592D536D617253
:1043100074534420466C617368204469736B202099
:10432000312E3020232D53544D2001BC4E414E25BB
:10433000292442036206627002150A420802190229
:08434000A91A022F2A00000057
:0400000508000131BD
:00000001FF
