:020000040800F2
:100000000004002045010008130500080B05000846
:100010000F0500088D010008B1070008000000006E
:100020000000000000000000000000007906000849
:100030009101000800000000550600084D07000867
:100040005F0100085F0100085F0100085F01000810
:100050005F0100085F010008AF0100085F010008B0
:100060005F0100085F0100085F0100085F010008F0
:100070005F0100085F0100085F0100085F010008E0
:100080005F0100085F0100085F0100085F010008D0
:100090005F0100085F0100085F010008DF01000840
:1000A0005F0100085F0100085F0100085F010008B0
:1000B0005F0100085F0100085F0100085F010008A0
:1000C0005F0100085F0100085F0100085F01000890
:1000D0005F0100085F0100085F0100085F01000880
:1000E000C50100085F0100085F0100085F0100080A
:1000F0005F0100085F0100085F0100085F01000860
:100100005F0100085F0100085F0100085F0100084F
:100110005F0100085F0100085F0100085F0100083F
:100120005F0100085F0100085F0100085F0100082F
:10013000DFF80CD000F018F800480047D507000899
:10014000000400200648804706480047FEE7FEE717
:10015000FEE7FEE7FEE7FEE7FEE7FEE7FEE7FEE777
:100160005107000831010008064C074D06E0E06821
:1001700040F0010394E8070098471034AC42F6D3EE
:10018000FFF7DAFFA00A0008B00A000800BFFEE788
:100190007047002108E0002201E0531C9AB2B2F53A
:1001A0007A7FFADB4B1C99B28142F4DB704710B5C1
:1001B000012000F05BF820B1012000F01DF800F0F4
:1001C000C7FA10BD10B54FF4005000F04FF828B139
:1001D0004FF4005000F010F800F0BAFA10BD10B55E
:1001E0004FF4807000F042F828B14FF4807000F0B6
:1001F00003F800F0ADFA10BD014908607047000037
:10020000140401401CB50121084600F025FA002124
:10021000084600F0CDF80821002000F0C9F80D21B3
:10022000022000F0C5F80120FFF7E6FF4FF48070D0
:10023000FFF7E2FF4FF40050FFF7DEFF00208DF8DC
:1002400004000C208DF805004FF4045000900120AC
:100250008DF80600684600F01FF808208DF80500AC
:1002600001200090684600F017F81CBD01460020F0
:100270000022074B1B6803EA0102064BD3F8143433
:100280000B4202D00AB1012000E0002070470000BC
:100290000004014000000140002127498279002A22
:1002A00043D0264AD2F8002403689A43234BC3F86C
:1002B00000241A46D2F8042403689A4301F1040387
:1002C0001A60027911440A68036842EA03020A606C
:1002D0001A4AD2F80824036822EA0302174BC3F82B
:1002E00008241A46D2F80C24036822EA0302144BAD
:1002F0001A604279102A10D1104AD2F808240368F3
:100300001A430E4BC3F808241A46D2F80C2403688B
:100310001A430A4BC3F80C240DE0074942791144F3
:100320000A6803681A430A6005E0027911440A6802
:1003300003689A430A6070470004014000000140CE
:100340000C04014008B50121942000F085F940F229
:100350000110ADF8000003208DF8020004208DF894
:10036000030069460F4800F043F84FF40050ADF821
:10037000000003208DF8020004208DF80300694678
:10038000094800F035F84FF47070ADF80000032014
:100390008DF8020010208DF803006946034800F034
:1003A00027F808BD0008014000100140001C014072
:1003B00030B500228B071C0F0F2303FA04F20B4BFE
:1003C0008C1053F824309343084C8D1044F825309A
:1003D00023468C1053F824308C07240F00FA04F4C1
:1003E0002343024C8D1044F8253030BD08000140F5
:1003F0002DE9F041024600250026002000230024BC
:10040000002791F803C00CF00F0591F803C01CF011
:10041000100F03D091F802C04CEA0505B1F800C0F6
:100420001CF0FF0F31D0146800202BE04FF0010CBE
:100430000CFA00F3B1F800C00CEA03069E4220D18A
:1004400083004FF00F0C0CFA03F7BC4305FA03FCD2
:100450004CEA040491F803C0BCF1280F06D14FF018
:10046000010C0CFA00FCC2F814C00AE091F803C0B9
:10047000BCF1480F05D14FF0010C0CFA00FCC2F89A
:1004800010C0401C0828D1D31460B1F800C0BCF1E2
:10049000FF0F34DD546800202EE000F1080C4FF00F
:1004A000010808FA0CF3B1F800C00CEA03069E42FA
:1004B00021D183004FF00F0C0CFA03F7BC4305FA6F
:1004C00003FC4CEA040491F803C0BCF1280F05D1E9
:1004D00000F1080C08FA0CF8C2F8148091F803C077
:1004E000BCF1480F07D100F1080C4FF0010808FAE1
:1004F0000CF8C2F81080401C0828CED35460BDE828
:10050000F081416170470161704700BFFEE700BFA5
:10051000FEE7704708B54FF4E06000F06DF8062084
:100520008DF8000000208DF801008DF802000120F8
:100530008DF80300684600F01DF817208DF80000C4
:1005400001208DF8010000208DF8020001208DF8B7
:100550000300684600F00EF828208DF80000012006
:100560008DF801008DF802008DF80300684600F058
:1005700001F808BD70B5002100230F22C4784CB3E8
:100580001A4C246804F4E064C4F5E0644FEA1421D2
:10059000C1F1040322FA01F2447804FA03F18478E9
:1005A00004EA020444EA01014FEA0111104C067802
:1005B000A155047804F01F054FF0010404FA05F476
:1005C00005784FEA65154FF0E02606EB8505C5F87E
:1005D000004109E0047804F01F050124AC40054DFA
:1005E0000678761145F8264070BD00000CED00E05D
:1005F00000E400E080E100E002490143024A1160AA
:10060000704700000000FA050CED00E010B502464E
:1006100000200E4B186820F00300104318600C4BAC
:100620001B6843F004034FF0E024C4F8103D012997
:1006300001D130BF00E020BF054B1B6823F004034D
:100640004FF0E024C4F8103D10BD000000700040E1
:1006500010ED00E07047000029B1064A926902439C
:10066000044B9A6104E0034A92698243014B9A6108
:100670007047000000100240704710B500F002F80B
:1006800010BD0000002100202E4A126842F4803282
:100690002C4B1A6000BF2B4A126802F40030491C30
:1006A00010B9B1F5A06FF6D1264A126812F4003FD6
:1006B00001D0012000E00020012842D1224A126826
:1006C00042F01002204B1A601A46126822F0030210
:1006D0001A601A46126842F002021A60194A5268F9
:1006E000184B5A601A4652685A601A46526842F4C9
:1006F00080625A601A46526822F47C125A601A4686
:10070000526842F4E8125A601A46126842F0807247
:100710001A6000BF0B4A126812F0007FFAD0094A33
:10072000526822F00302074B5A601A46526842F0A0
:1007300002025A6000BF034A526802F00C02082A03
:10074000F9D17047001002400020024070470000BD
:1007500010B51348006840F00100114908600846D0
:100760004068104908400E494860084600680E4934
:1007700008400B4908600846006820F480200860A3
:100780000846406820F4FE0048604FF41F0088606F
:10079000FFF773FF4FF000600449086010BD0000D0
:1007A000001002400000FFF8FFFFF6FE08ED00E039
:1007B00000BFFEE702E008C8121F08C1002AFAD1F4
:1007C00070477047002001E001C1121F002AFBD1D1
:1007D00070470000FFF79EFEFFF7B4FDFFF712FD24
:1007E0005BE14021AD48FFF78EFE8021AB48FFF76B
:1007F0008AFE4FF48071A948FFF785FE4FF400711F
:10080000A648FFF780FE4FF47A70FFF7C2FC402144
:10081000A248FFF776FE8021A048FFF772FE4FF452
:1008200080719E48FFF76DFE4FF400719B48FFF703
:1008300068FE4FF47A70FFF7ACFC40219748FFF751
:1008400062FE80219548FFF75EFE4FF48071934869
:10085000FFF759FE4FF400719048FFF754FE4FF434
:100860007A70FFF796FC40218C48FFF74AFE802102
:100870008A48FFF746FE4FF480718848FFF741FE33
:100880004FF400718548FFF73CFE4FF47A70FFF794
:1008900080FC40218148FFF736FE80217F48FFF72A
:1008A00032FE4FF480717D48FFF72DFE4FF400714A
:1008B0007A48FFF728FE4FF47A70FFF76AFC402170
:1008C0007648FFF71EFE80217448FFF71AFE4FF4AA
:1008D00080717248FFF715FE4FF400716F48FFF703
:1008E00010FE4FF47A70FFF754FC40216B48FFF77D
:1008F0000AFE80216948FFF706FE4FF480716748C1
:10090000FFF701FE4FF400716448FFF7FCFD4FF460
:100910007A70FFF73EFC40216048FFF7F2FD80212E
:100920005E48FFF7EEFD4FF480715C48FFF7E9FD8C
:100930004FF400715948FFF7E4FD01210846FFF725
:1009400065FE40215548FFF7DEFD80215348FFF743
:10095000DAFD4FF480715148FFF7D5FD4FF4007177
:100960004E48FFF7D0FD4FF47A70FFF712FC40219C
:100970004A48FFF7C6FD80214848FFF7C2FD4FF403
:1009800080714648FFF7BDFD4FF400714348FFF703
:10099000B8FD4FF47A70FFF7FCFB40213F48FFF7AA
:1009A000B2FD80213D48FFF7AEFD4FF480713B481A
:1009B000FFF7A9FD4FF400713848FFF7A4FD4FF48D
:1009C0007A70FFF7E6FB40213448FFF79AFD80215B
:1009D0003248FFF796FD4FF480713048FFF791FDE4
:1009E0004FF400712D48FFF78CFD4FF47A70FFF73C
:1009F000D0FB40212948FFF786FD80212748FFF7DB
:100A000082FD4FF480712548FFF77DFD4FF40071A2
:100A10002248FFF778FD4FF47A70FFF7BAFB4021C8
:100A20001E48FFF76EFD80211C48FFF76AFD4FF45A
:100A300080711A48FFF765FD4FF400711748FFF702
:100A400060FD4FF47A70FFF7A4FB40211348FFF7D5
:100A50005AFD80211148FFF756FD4FF480710F4871
:100A6000FFF751FD4FF400710C48FFF74CFD4FF4B8
:100A70007A70FFF78EFB40210848FFF742FD802186
:100A80000648FFF73EFD4FF480710448FFF739FD3B
:100A90004FF400710148FFF734FDA2E6001C01404D
:100AA000B00A00080000002000040000C40700088D
:0400000508000131BD
:00000001FF
