:1004580050617373776F72643A004F4B20004552B6
:02046800520040
:10018C001204447BFF7A0479587D017F011203BB72
:10019C001200038F1CE51C60F7D3940A5041C3E591
:1001AC00199404E51894005028AE1AAF1B7C007DFE
:1001BC000A1202768E1A8F1BE51C75F00A84E5F084
:1001CC00251BF51BE4351AF51A0519E519700205FE
:1001DC0018750C04AB1BAA1A7D017F021203FCE5F7
:1001EC001C640B7036E51BB4290DE51AB409087BA9
:1001FC00FF7A04796280067BFF7A0479667D0E7F34
:10020C00011203BBE4F51AF51BF518F519750C046E
:10021C00AB1BAA1A7D017F021203FCE51C640C6067
:10022C000302019CF51AF51BF518F519750C04ABB6
:0D023C001BAA1A7D017F021203FC02019C27
:10042F00EF1FAC0670011E4C600A7D027CEFDCFEF4
:04043F00DDFC80EC74
:010443002296
:06046A00C2A58F80D2A79D
:080470007F027EEFDEFEDFFCDF
:010478002261
:0A048500C2A612046AC2A7020470A6
:1003DE00CFCDCFCECCCE1202887C007D0A12028801
:0403EE00ED2430FFCB
:0A03F200D2A612046AC2A70204702A
:10041900AE07BE0104ED148006BE0209ED243F4477
:0604290080FF1204852291
:100444007F381204857F0C1204857F061204857F91
:040454000102048518
:0A048F00AC03120419AF040203F2DB
:0603BB008B088A09890A83
:1003C100120419E4FDAB08AA09A90A8D82758300FC
:0C03D100120249FF60061203F20D80E9E1
:0103DD0022FD
:0C0388007F0AEA24FFFDE434FFFC7E0045
:080394008E0D8F0E8C0F8D10F1
:10039C007F017E00E4FBEBC39510E50F6480F874DD
:0E03AC008098500AAC0DAD0E1202760B80E860
:0103BA002220
:0403FC008A0A8B0BD3
:10040000120419AA0CEAD39400400D120388AC0A16
:08041000AD0B1203DE1A80EDB2
:0104180022C1
:1002DD00120419C3EA64809480400B7F2B1203F241
:1002ED008A168B17800E7F2D1203F2C3E49BF51730
:1002FD00E49AF516AA15EAD39400400D120388ACC2
:09030D0016AD171203DE1A80ED93
:0103160022C4
:040317008A1F8B208E
:10031B00120419AA21EAD3940040297F1012038AF0
:10032B00AC1FAD20CFCDCFCECCCE120288EF540F69
:10033B00FEC3940AEE5004243080022437FF1203CC
:04034B00F21A80D151
:01034F00228B
:040350008A248B254B
:10035400120419AA26EAD394004028EA24FFFDE4F3
:1003640034FFFC7F027E00120394AC24AD25CFCD74
:10037400CFCECCCE120288EF54012430FF1203F208
:030384001A80D20A
:010387002253
:10000300E4F5087590FFC2932097137F14FE120442
:100013002F3097FD7F147E0012042F750801209660
:10002300147F147E0012042F3096FD7F147E00127D
:10003300042F7508052095147F147E0012042F30B9
:1000430095FD7F147E0012042F7508092094147FF8
:10005300147E0012042F3094FD7F147E0012042FAF
:1000630075080D7590FFC2922097147F147E0012BD
:10007300042F3097FD7F147E0012042F7508022091
:1000830096147F147E0012042F3096FD7F147E0099
:1000930012042F7508062095147F147E0012042F76
:1000A3003095FD7F147E0012042F75080A209414E6
:1000B3007F147E0012042F3094FD7F147E001204FF
:1000C3002F75080E7590FFC2912097147F147E0040
:1000D30012042F3097FD7F147E0012042F7508033E
:1000E3002096147F147E0012042F3096FD7F147E19
:1000F3000012042F7508072095147F147E00120444
:100103002F3095FD7F147E0012042F75080B209469
:10011300147F147E0012042F3094FD7F147E00128E
:10012300042F75080F7590FFC2902097147F147EDB
:100133000012042F3097FD7F147E0012042F7508E0
:10014300042096147F147E0012042F3096FD7F1432
:100153007E0012042F7508082095147F147E001268
:10016300042F3095FD7F147E0012042F75080C2098
:1001730094147F147E0012042F3094FD7F147E00AC
:0801830012042F750810AF08EB
:01018B002251
:030000000204797E
:0C047900787FE4F6D8FD75812602018C26
:10024900BB010CE58229F582E5833AF583E022506A
:1002590006E92582F8E622BBFE06E92582F8E222B4
:0D026900E58229F582E5833AF583E49322CE
:10027600EF8DF0A4A8F0CF8CF0A428CE8DF0A42E9C
:02028600FE2256
:10028800BC000BBE0029EF8DF084FFADF022E4CC5A
:10029800F875F008EF2FFFEE33FEEC33FCEE9DEC23
:1002A800984005FCEE9DFE0FD5F0E9E4CEFD22ED69
:1002B800F8F5F0EE8420D21CFEADF075F008EF2FB3
:1002C800FFED33FD4007985006D5F0F222C398FDA4
:0502D8000FD5F0EA2241
:00000001FF
