:020000040800F2
:10000000486F002045010008A1A00008F5890008FC
:100010001F9F0008E510000869D8000800000000D4
:10002000000000000000000000000000E9D100080E
:100030002512000800000000AB01000811D30008E1
:100040005F0100085F0100085F0100085F01000810
:100050005F0100085F0100085F0100085F01000800
:100060005F0100085F0100085F0100085F010008F0
:100070005F0100085F0100085F0100085F010008E0
:100080005F0100085F0100085F0100085F010008D0
:100090005F0100085F0100085F0100085F010008C0
:1000A0005F0100085F0100085F0100085F010008B0
:1000B0005F0100085F0100085F0100085F010008A0
:1000C0005F0100085F0100085F0100085F01000890
:1000D0005F010008E5D500085F0100085F01000826
:1000E0005F0100085F0100085F0100085F01000870
:1000F0005F0100085F0100085F0100085F01000860
:100100005F0100085F0100085F0100085F0100084F
:100110005F0100085F0100085F0100085F0100083F
:100120005F0100085F0100085F0100085F0100082F
:10013000DFF80CD000F03CFD00480047257A0108AC
:10014000486F00200648804706480047FEE7FEE764
:10015000FEE7FEE7FEE7FEE7FEE7FEE7FEE7FEE777
:1001600039D3000831010008EFF3108072B67047F0
:1001700080F3108870471D484FF0FF010170002088
:1001800080F309881A48012101701A484FF0805104
:10019000016062B6FEE717484FF08051016070477A
:1001A00014484FF080510160704772B6EFF3098038
:1001B00028B1203880E8F00F0F490968086000B5C1
:1001C0000E4880475DF804EB0D480E490A7802702E
:1001D00009480D490A680260106890E8F00F203065
:1001E00080F309884EF0040E62B6704722ED00E0FD
:1001F000BE00002004ED00E0C400002091AC000827
:10020000B3000020B4000020CC00002072B670477C
:1002100062B67047EFF3108072B6704780F31088B3
:100220007047B0FA80F0704790FAA0F0704730BF86
:10023000704720BF704700000649074A08685043CE
:1002400043F23902104408604008704701490860D1
:1002500070470000AC0400206D4EC64110B5431A33
:10026000934209D28318881803E010F8011D03F89F
:10027000011D521EF9D210BD40EA01039B0703D0B5
:1002800009E008C9121F08C0042AFAD203E011F8D5
:10029000013B00F8013B521EF9D210BDD2B201E081
:1002A00000F8012B491EFBD270470022F6E710B57B
:1002B00004460846114602462046FFF7EFFF204657
:1002C00010BD034600E0401C0278002AFBD111F863
:1002D000012B00F8012B002AF9D11846704701467E
:1002E000002000E0401C0A5C002AFBD1704730B5BA
:1002F00004460020034600E05B1C934203D2E05C0E
:10030000CD5C401BF8D030BD034611F8012B00F83E
:10031000012B002AF9D118467047F0B480EA010297
:10032000D20F4300B3EB410F02D2034608461946F1
:100330004B0042D0C30DDDB2C1F3C7542C1B202C9F
:1003400035DAC1F3160141F4000502B16D42C4F182
:10035000200605FA06F125412844B3EBD05F23D0EF
:10036000C2B1012CA0EBC35009DCF0BC4FF000423D
:1003700002EAC35200F50000DBB200F021BB4000EE
:1003800000F1807000EBC350A0F1807040EAD170A2
:10039000490009E0490841EAC071A0EBC35000F5EB
:1003A0000000400800EBC350F0BC00F000BB51421D
:1003B000012303EB4101801AF6E7F0BC704781F09E
:1003C0000041AAE780F00040A7E780EA010210B5EB
:1003D00002F00042400026D04B0023D04FEA1061CB
:1003E00001EB1361C0F35600C3F3560340F4000061
:1003F00043F40003A0FB0330A1F17F014FEA00406A
:100400001C0401D000F1010050EA134001D4400067
:10041000491EC3B20C0604EBD010401C4008802BD0
:1004200002D003E0002010BD20F00100002900DA16
:100430000020104310BD80EA010202F0004330B4F6
:1004400030F0004221F0004015D0A0B1C0F3C755F4
:10045000C2F3C754C2F31601C0F31600651B41F482
:10046000000140F400007D35814201D36D1C00E0A5
:100470004900002D02DA30BC002070474FF4000222
:100480000024814201D3091A144352084FEA410162
:10049000F7D151B1814202D14FF0004105E002D2C3
:1004A0004FF0010101E06FF0010104EBC55030BCD9
:1004B000184400F07CBA2DE9FE4F074681EA03009C
:1004C000C00F0E46019021F0004123F00044B81AFD
:1004D000A14105D23846314617461E460B46024614
:1004E00023F00040104304D13846314603B0BDE844
:1004F000F08F350DC5F30A00C3F30A510290401A7C
:100500000090402867DAC3F3130040F4801B019881
:10051000924620B10023D2EB030A63EB0B0B009849
:100520005946C0F14002504600F010FA80460C4691
:1005300050465946009A00F028FAC0197141EF1749
:1005400085EA11533B433FD0019A4AB3009A012AEE
:1005500011DC0022801A61EB05514FF0004303EAE1
:100560000555CDE90025801841F580114246234606
:1005700000F062FABAE72E050025401B61EB060188
:10058000401941F58012001852412818A6F50013B1
:1005900043EB020140EAD47018EB0808644113E011
:1005A00064084FEA38084FF0000244EAC0744FEA8A
:1005B0000553801A61EB0301801841F58011490849
:1005C0004FEA3000801859414246234603B0BDE847
:1005D000F04F00F024BA0198012240000023D0EB34
:1005E000020263EBE07301984FEAE074381A66EB9D
:1005F0000401EBE783F000435DE781F000415AE737
:100600002DE9FE4F81EA030421F0004504F0004487
:1006100023F000414FF0000A009450EA050302D095
:1006200052EA010304D10020014603B0BDE8F08F77
:10063000C1F30A53C5F30A542344A3F2F3330193DD
:10064000A0FB02B3C5F3130545F4801CC1F31301ED
:1006500041F480180CFB023300FB083E810A930A28
:1006600041EA8C5143EA8853A1FB03474FEA9C259A
:1006700005FB03734FEA982601FB06373D05260567
:1006800045EA1435BBEB06016EEB0503850E920EB1
:1006900045EA8C1542EA8812A5FB0206261E67EB86
:1006A00000070C0D44EA0334A61947EB1350C1F3BD
:1006B00013044FF000031946E5FB02014FEA03352E
:1006C00045EA1455019B4FEA0432009CA3F10C0348
:1006D000CDE900A445EA060502932B4600F0ACF9EB
:1006E000A3E72DE9F04D81EA030404F0004B21F06B
:1006F000004714464FF0000A23F0004150EA070279
:1007000020D054EA01021DD0C1F30A550246C1F3BC
:100710001300C7F30A56C7F3130340F4801143F4E0
:100720008013A6EB0508101BD64608F2FD3873EBC4
:10073000010002D308F1010801E092185B41B8F111
:10074000000F03DA00200146BDE8F08D00204FF4D1
:100750008015064607460EE0B2EB040C73EB010C65
:1007600004D3121B064363EB01032F436D084FEACA
:10077000300092185B4150EA050CEDD152EA0300BB
:1007800012D082EA040083EA0105284303D1002243
:100790004FF0004308E0101B8B4102D201220023DE
:1007A00002E06FF0010253101AEB060047EB08510C
:1007B00010EB0A0041EB0B01BDE8F04D00F02FB942
:1007C000C10F80EAE0700844CA079623002100F0B8
:1007D000F7B80EB5C10F80EAE0700844CA070021DF
:1007E00040F233438DE80E000A460B4600F024F930
:1007F00003B000BD0EB5002240F23343CDE9002224
:1008000002931346114600F017F903B000BD00F043
:10081000004220F00040C10DC0F3160040F400007B
:100820007F2901DA00207047962903DCC1F1960187
:10083000C84001E096398840002AF4D04042704711
:1008400070B5C1F30A5201F000450024C1F3130151
:1008500040F2FF3341F480119A4201DA002070BD6A
:1008600040F233439A42A2F2334203DC524200F098
:100870007CF800E090402C43F1D0404270BD00F085
:10088000004230F000400DD0C10D01F5607142EA28
:1008900001510022C0F31600520742EAD00240077D
:1008A00011437047002001467047000030B5002911
:1008B00004DB4FF00044404264EB0101002B04DBF9
:1008C0004FF00044524264EB03038B4208BF824264
:1008D00030BD000001F0004230B421F0004150EA88
:1008E000010306D00B0DA3F56073C1F31301002BB8
:1008F00002DC30BC00207047440F44EAC104C10050
:10090000A01830BC00EBC35000F051B8002801DB48
:10091000C0F10040002901DBC1F100418142704774
:1009200030B50B46014600202022012409E021FABF
:1009300002F59D4205D303FA02F5491B04FA02F5BC
:100940002844151EA2F10102F1DC30BD202A04DB8F
:10095000203A00FA02F1002070479140C2F12003D2
:1009600020FA03F3194390407047202A04DB203A11
:1009700021FA02F00021704721FA02F3D040C2F1BF
:1009800020029140084319467047202A06DBCB1706
:10099000203A41FA02F043EAE07306E041FA02F33A
:1009A000D040C2F120029140084319467047002907
:1009B000A8BF7047401C490008BF20F001007047E5
:1009C00010B4B0FA80FC00FA0CF050EA010404BF45
:1009D00010BC704749B1CCF1200421FA04F411FA9B
:1009E0000CF118BF012121430843A3EB0C01CB1DDF
:1009F0004FEA00614FEA102048BF0020BCBF10BC86
:100A0000704700EBC35010440029A4BF10BC7047CE
:100A1000401C490008BF20F0010010BC704710B511
:100A2000002B08DA401C41F1000192185B411A4387
:100A300001D120F0010010BD2DE9FF4D934611B109
:100A4000B1FA81F202E0B0FA80F220329246FFF76A
:100A50007DFF039A0746884640EA0B0011435B4638
:100A6000084304D13846414604B0BDE8F08D114634
:100A700053EA020016D0CAF140025846FFF775FF4C
:100A800004460D464FF00106584652460399FFF7BB
:100A90005DFF084300D10026344345EAE67527434D
:100AA00045EA08080E984FF00005A0EB0A014FEA4E
:100AB000D7200A314FEA47532A4640EA48504FEAC6
:100AC000D82402D500200146CEE7281844EB015176
:100AD000DDE90C45001904B06941BDE8F04D9EE721
:100AE00070B521F0004303430CD0C1F30A54002633
:100AF000D4EB060566EB0603D417AD1AA34102DB5F
:100B00000020014670BD001C41EB025170BD2DE973
:100B1000F04D00231A461B1A8A4103DB00200146D0
:100B2000BDE8F08DC1F30A52C1F3130141F4801501
:100B30004FF0000BD10702D100186D41521E002763
:100B400040F2FF11044601EB620A3E463846B846C1
:100B5000024600204FF48011FFF707FFC0197141D2
:100B60003B1846EB0102B4EB030C75EB020C04D30B
:100B7000E41A65EB020507460E46241908F1010048
:100B80006D4180463428E3DDF81946EB06014FF04D
:100B9000FF32001B1346A94101D3002213461BEB71
:100BA000070046EB0A51BDE8F04DFFF738BF0000E3
:100BB000064C074D06E0E06840F0010394E80700AA
:100BC00098471034AC42F6D3FFF7B6FA18AF0308D3
:100BD00038AF030870B501EB020410F8015B15F0A3
:100BE000070301D110F8013B2A1106D110F8012B9F
:100BF00003E010F8016B01F8016B5B1EF9D12B07C4
:100C000005D40023521E0FD401F8013BFAE710F877
:100C1000013B02F10202A1EB030303E013F8015BC5
:100C200001F8015B521EF9D5A142D6D3002070BD58
:100C300000B585B0012188030BF040FE0021144867
:100C40000CF048FA0020ADF800004FF48270ADF8C7
:100C500002000020ADF80400ADF80600ADF8080071
:100C60004FF40070ADF80A002820ADF80C00002009
:100C7000ADF80E000720ADF81000694604480CF0EE
:100C800043FA012102480CF025FA05B000BD00002E
:100C90000038004001B569460248006809F050FC80
:100CA00008BD00000000002000B587B09DF81800C6
:100CB00006904FF4E1300AF043FC11480AF034FE8C
:100CC0000AF09EFD002009F087FB0E49086003230F
:100CD00000224FF480710C48CDE90323CDE90101D6
:100CE000392300F57F7200210848009309F020FEA7
:100CF000069006AA06A1392009F084FE07B000BDBF
:100D0000950C000800000020B4170020E97D0108C0
:100D10005461736B204F5356696577205465726D2B
:100D2000696E616C00000000704710B5FFF7BCFFF2
:100D300000F020F810BD10B5044620460AF0D4FD9E
:100D400010BD70470BF000F809F072FDFFF7EDFFE2
:100D500000BF00231A460121184609F0DDFFF8E71D
:100D6000704710B50AF0C8FD10BD10B50AF0E2FDDD
:100D700010BD000008B59DF8000000900623184A39
:100D80000021184809F080FD00906A4616A106204F
:100D900009F038FE0423174A0021174809F074FDB2
:100DA00000906A4615A1042009F02CFE3B231A4A44
:100DB00000211A4809F068FD00906A4618A13B20FE
:100DC00009F020FE05231A4A00211A4809F05CFDAB
:100DD00000906A4618A1052009F014FE08BD000025
:100DE000B00D0020F57E01085461736B2055434718
:100DF00055490000B0110020DD7E01085441534BDD
:100E000020546F75636850616E656C204D65737317
:100E10006167657300000000B0130020757D010854
:100E20005461736B204C454420426C696E6B00002A
:100E3000B0170020E17D01085461736B204D6F7580
:100E40007365000070B50446B4F90450284604F0F8
:100E500087FE0646214628460CF052FD00B970BDBB
:100E600020680B280FD00C2802D00F280FD105E0E6
:100E700022463146284613F042FFF0E72946304625
:100E800014F09DF8EBE730460FF020FA00BF00BFEA
:100E900020460DF0BBF800BFE1E72DE9FF4704460F
:100EA0000D4616461F46DDE90C890022CDE90029D2
:100EB0003B46CDE9022832462946204600F01CF880
:100EC00004B0BDE8F0872DE9FF4704460D461646FD
:100ED0001F46DDE90D9ADDF8308000223B46CDE962
:100EE000008ACDE9022932462946204600F004F85E
:100EF00004B0BDE8F08700002DE9FF5F06460F460D
:100F000090469946DDE90FAB00BF06F02BF8302381
:100F1000114A1FFA8AF10E988DE80F004B4642469F
:100F2000394630460CF0CEFF04467CB1204604F032
:100F300017FE05461022284611990CF02DFF20229D
:100F4000064905F12800FFF789F900BF07F046F9C7
:100F5000204604B0BDE8F09F450E0008A003002025
:100F60002DE9FF4704460D4616461F46DDF8308042
:100F700000BFB4F90830628A0021CDE90051CDE903
:100F80000223B4F91030B4F90E20B4F90CC00CEB04
:100F90000701B4F90AC00CEB0600FFF7ADFF81466C
:100FA0004846616800F067F8484604B0BDE8F0873D
:100FB0002DE9F04105460C4616468DB1022C0FD89E
:100FC00005F0D0FF284604F0CBFD074607F12800C6
:100FD00040F8246028460DF013FC07F0FFF800BF2E
:100FE000BDE8F08170B505460C4624B110212846B5
:100FF0000CF003FD03E0102128460CF05FFC70BDEF
:1010000070B504460D4664B105F0ACFF204604F00F
:10101000A7FD0646356420460DF0F2FB07F0DEF82A
:1010200000BF70BDF8B504460D4616460023324693
:1010300029462046009300F001F8F8BD2DE9F0475D
:1010400006460F4614461D46DDF8208042462946D6
:10105000204605F021F9814602463946304600F027
:1010600021F8BDE8F08770B504460D4629462046B4
:101070000CF0EAFC70BD70B504460D468CB105F06D
:1010800071FF204604F06CFD0646294606F1480033
:1010900007F079FB10B120460DF0B2FB07F09EF887
:1010A00000BF70BD2DE9F04105460C461646BDB1A6
:1010B00005F058FF284604F053FD0746032C0CD8D2
:1010C00007F14A0101EB440004F0B5FC07F14A00C6
:1010D00020F8146028460DF093FB07F07FF800BF5E
:1010E000BDE8F08100BFFEE71CB504462448408CF3
:1010F0002349096C084400B2214948840846808C81
:10110000496C084400B21E498884204605F006FE5A
:101110001B49498CADF800100844401E00B2ADF8E0
:10112000040005F03BFE1649898CADF80210084416
:10113000401E00B2ADF8060068460EF023F838B144
:1011400000BF204601F04EFE0DF096FF0028F8D1BA
:101150000A2C05D0BDF80400401C00B208494884A0
:101160000748408C0649096C401A00B2044948847B
:101170000846808C496C401A00B2014988841CBD25
:101180000C67002014488088134991F85C1048438C
:1011900000B2124908801048C0880F4991F85C10CD
:1011A000484300B20D4948800B480089401C0A4959
:1011B00091F85C104843401E00B2084988800648F8
:1011C0004089401C044991F85C104843401E00B21D
:1011D0000249C880704700000C670020FC02002014
:1011E000024641EA022070472DE9FE4307460C46BD
:1011F00015461E46DDF828804FF0100914F0800FC8
:1012000001D04FF0900904F00F0100234A46384600
:101210008DE8600116F076FE10B10120BDE8FE8376
:101220000020FBE7704710B5002108E00C2200BF4A
:101230001300A2F10104E2B2FAD14A1C91B2814238
:10124000F4D310BD2DE9F04105460E4617461C4665
:101250003119E819184B9B6D5A6890473119E81BF2
:10126000154B9B6D5A689047F1192819124B9B6DCD
:101270005A689047F11B28190F4B9B6D5A6890478D
:10128000BCB1311BE8190C4B9B6D5A689047311B60
:10129000E81B094B9B6D5A689047F119281B064BB8
:1012A0009B6D5A689047F11B281B034B9B6D5A6836
:1012B0009047BDE8F08100000C6700202DE9F04167
:1012C00004460F4615461E461148007B10F0020FDB
:1012D0000BD107E02A88B9B2A0B208F0BDFA761E99
:1012E000641CAD1C002EF5DC0FE00CE0B5F80080AE
:1012F000B8F1000F04D04246B9B2A0B208F0ACFA7F
:10130000761E641CAD1C002EF0DCBDE8F0810000F0
:101310000C6700202DE9F84F04460F469046994689
:10132000DDE90A5ABAF800000090BAF802B098F85D
:101330000060D548007B10F0030004D0012828D0BD
:10134000022839D112E009F0070008280DD2DFE8A1
:1013500000F00405060708090A0BA4E0B3E0C3E0A7
:10136000D3E0E3E0F3E003E113E125E009F0070057
:1013700008280DD2DFE800F00405060708090A0B6B
:101380001CE029E036E043E050E05DE06AE077E011
:1013900012E009F0070008280DD2DFE800F004058C
:1013A000060708090A0B0AE115E120E12BE136E105
:1013B00041E14CE157E100BF00BF00BF16F0800FD4
:1013C00004D05A46B9B2A0B208F046FA681E050029
:1013D00001D1BDE8F88F00BF16F0400F05D05A4686
:1013E000B9B2601C80B208F037FA681E050000D15F
:1013F000EFE700BF16F0200F05D05A46B9B2A01C87
:1014000080B208F029FA681E050000D1E1E700BFAC
:1014100016F0100F05D05A46B9B2E01C80B208F0A1
:101420001BFA681E050000D1D3E700BF16F0080FB5
:1014300005D05A46B9B2201D80B208F00DFA681ED8
:10144000050000D1C5E700BF16F0040F05D05A46CD
:10145000B9B2601D80B208F0FFF9681E050000D126
:10146000B7E700BF16F0020F05D05A46B9B2A01D6B
:1014700080B208F0F1F9681E050000D1A9E700BFAD
:1014800016F0010F05D05A46B9B2E01D80B208F03F
:10149000E3F9681E050000D19BE7083408F101005C
:1014A000804606788AE716F0800F01D0584600E0A3
:1014B000009882B2B9B2A0B208F0CEF9681E050059
:1014C00000D186E700BF16F0400F01D0584600E07B
:1014D000009882B2B9B2601C80B208F0BDF9681EF3
:1014E000050000D175E700BF16F0200F01D0584667
:1014F00000E0009882B2B9B2A01C80B208F0ACF94A
:10150000681E050000D164E700BF16F0100F01D07F
:10151000584600E0009882B2B9B2E01C80B208F0F0
:101520009BF9681E050000D153E700BF16F0080FB5
:1015300001D0584600E0009882B2B9B2201D80B2B6
:1015400008F08AF9681E050000D142E700BF16F0D6
:10155000040F01D0584600E0009882B2B9B2601D75
:1015600080B208F079F9681E050000D131E700BFAC
:1015700016F0020F01D0584600E0009882B2B9B2CE
:10158000A01D80B208F068F9681E050000D120E7B0
:1015900000BF16F0010F01D0584600E0009882B25B
:1015A000B9B2E01D80B208F057F9681E050000D1FD
:1015B0000FE7083408F101008046067873E716F05B
:1015C000800F03D03946204608F007F8681E050052
:1015D00000D1FEE600BF16F0400F03D03946601C74
:1015E00007F0FBFF681E050000D1F2E600BF16F011
:1015F000200F03D03946A01C07F0EFFF681E05003E
:1016000000D1E6E600BF16F0100F03D03946E01C0B
:1016100007F0E3FF681E050000D1DAE600BF16F010
:10162000080F03D03946201D07F0D7FF681E0500BC
:1016300000D1CEE600BF16F0040F03D03946601D7E
:1016400007F0CBFF681E050000D1C2E600BF16F010
:10165000020F03D03946A01D07F0BFFF681E05002A
:1016600000D1B6E600BF16F0010F03D03946E01DE9
:1016700007F0B3FF681E050000D1AAE6083408F1A0
:101680000100804606789AE70C6700202DE9F047B4
:1016900004460E4691469A46DDE9087899F80050CE
:1016A000B8F1000F7AD09C48007B10F0020F0BD0ED
:1016B0001AF0030004D0012803D0022803D101E06E
:1016C0004CE05AE06CE07DE01AF0030004D0012801
:1016D00003D0022803D101E002E00EE01CE02AE082
:1016E000A81138F81020B1B2A0B208F0B5F8781EF1
:1016F000070001D1BDE8F08700BF032000EA2510F4
:1017000038F81020B1B2601C80B208F0A5F8781E3D
:10171000070000D1EEE700BF032000EAA50038F87B
:101720001020B1B2A01C80B208F096F8781E070015
:1017300000D1DFE700BF05F0030038F81020B1B298
:10174000E01C80B208F088F8781E070000D1D1E7CD
:1017500009F1010081460578241DC1E715F0C00F8D
:1017600006D0A81138F81020B1B2A0B208F074F871
:10177000781E070000D1BDE700BF15F0300F09D07B
:10178000032000EA251038F81020B1B2601C80B2A6
:1017900008F062F8781E070001D1ABE728E000BF2F
:1017A00015F00C0F09D0032000EAA50038F810202E
:1017B000B1B2A01C80B208F04FF8781E070000D12B
:1017C00098E700BF15F0030F08D005F0030038F8C4
:1017D0001020B1B2E01C80B208F03EF8781E07007D
:1017E00000D187E709F1010081460578241DB5E79E
:1017F0004948007B10F0020F0BD01AF0030004D010
:10180000012803D0022803D101E043E04FE05EE06D
:101810006DE01AF0030004D0012803D0022803D1A0
:1018200001E002E00BE017E023E0AA11B1B2A0B2A0
:1018300008F012F8781E070000D15BE700BF032014
:1018400000EA2512B1B2601C80B208F005F8781EDB
:10185000070000D14EE700BF032000EAA502B1B2A5
:10186000A01C80B207F0F8FF781E070000D141E706
:1018700000BF05F00302B1B2E01C80B207F0ECFF3C
:10188000781E070000D135E709F10100814605788F
:10189000241DCAE715F0C00F04D0AA11B1B2A0B23E
:1018A00007F0DAFF781E070000D123E700BF15F02C
:1018B000300F07D0032000EA2512B1B2601C80B2BD
:1018C00007F0CAFF781E070000D113E700BF15F02C
:1018D0000C0F07D0032000EAA502B1B2A01C80B211
:1018E00007F0BAFF781E070000D103E700BF15F02C
:1018F000030F06D005F00302B1B2E01C80B207F07E
:10190000ABFF781E070000D1F4E609F10100814623
:101910000578241DBEE700000C6700202DE9F04784
:1019200004460E4690469946DDE9087A98F800503C
:10193000BAF1000F52D04E48007B10F0020F04D0D5
:1019400019F0010F00D125E032E019F0010F00D1AC
:1019500000E00CE028113AF81020B1B2A0B207F074
:101960007BFF781E070001D1BDE8F08700BF05F0BE
:101970000F003AF81020B1B2601C80B207F06CFF83
:10198000781E070000D1EFE7A41C08F10100804693
:101990000578DFE7281106D028113AF81020B1B2F7
:1019A000A0B207F059FF781E070000D1DCE700BFA6
:1019B00015F00F0F08D005F00F003AF81020B1B263
:1019C000601C80B207F048FF781E070000D1CBE70B
:1019D000A41C08F1010080460578DBE72448007B61
:1019E00010F0020F04D019F0010F00D120E02BE01D
:1019F00019F0010F00D100E009E02A11B1B2A0B244
:101A000007F02AFF781E070000D1ADE700BF05F000
:101A10000F02B1B2601C80B207F01EFF781E0700F3
:101A200000D1A1E7A41C08F1010080460578E4E795
:101A3000281104D02A11B1B2A0B207F00DFF781E10
:101A4000070000D190E700BF15F00F0F06D005F09A
:101A50000F02B1B2601C80B207F0FEFE781E0700D4
:101A600000D181E7A41C08F1010080460578DFE77A
:101A70000C6700202DE9F0470446884615461E46AF
:101A8000DDF820902348007B10F0020F1ED1B9F141
:101A9000000F0ED00AE02F7839F817201FFA88F1CE
:101AA000A0B207F0D9FE761E641C6D1C002EF2DC7D
:101AB0002DE008E02A781FFA88F1A0B207F0CCFEEA
:101AC000761E641C6D1C002EF4DC20E0B9F1000FC2
:101AD0000FD00BE02F7837B139F817201FFA88F1B3
:101AE000A0B207F0B9FE761E641C6D1C002EF1DC5E
:101AF0000DE00AE02F782FB13A461FFA88F1A0B224
:101B000007F0AAFE761E641C6D1C002EF2DCBDE8F8
:101B1000F08700000C6700202DE9F04107460D46D4
:101B2000002F71D005F01EFA384604F019F804466B
:101B3000002C6AD0E06C20B129463846E26C904710
:101B400094E0122D4AD008DC082D53D00D2D75D00D
:101B5000102D49D0112D73D108E0132D22D01B2D4B
:101B60006DD01D2D57D01E2D6AD14FE0208DC0B1F4
:101B7000B4F9280003F0F4FF06463046216C06F065
:101B8000D7F90644304606F095F98046B8F17F0F44
:101B900006DA08F101003070052138460CF0B3FE7A
:101BA00000BF62E0208DC0B1B4F9280003F0D8FF77
:101BB00006463046216C06F0BBF90644304606F076
:101BC00079F98046B8F1200F06DDA8F101003070E8
:101BD000052138460CF097FE00BF46E0206C411C02
:101BE000204600F003FB40E0206C411E204600F040
:101BF000FDFA3AE0206C411E204600F0F7FA21463B
:101C000038460EF096FB30E036E032E021463846AA
:101C10000EF08FFB29E094F84800012803D1002042
:101C200084F8480006E0012084F848002046216C32
:101C300000F0DCFA19E001E002E000E000BF14E08F
:101C4000202D11DB94F8480018B1214638460EF0DB
:101C500070FBAAB22146384612F0DEF920B1206CA2
:101C6000411C204600F0C2FA00BF00BF38460CF00D
:101C7000C7FD06F0B3FA00BFBDE8F0812DE9F047DB
:101C800086B004460D4616461F46DDE90F9ADDF87C
:101C900038800021CDE901A13B463246CDE90389D8
:101CA00000912946204600F003F806B0BDE8F08711
:101CB0002DE9FF4F85B0074688469146DDF858B0BC
:101CC000DDE9135A00BF45F4805550231F4AA8B2DE
:101CD00040F0020112988DE80F004A46414638460E
:101CE000089B0CF0EFF8064666B305F03BF930466A
:101CF00003F036FF04461022204615990CF04CF8EC
:101D00001C22134904F15400FEF7A8FA012084F8BC
:101D10004900BBF1000F01D1082000E0584600B295
:101D200060850020A0852085B4F92A00411C20464A
:101D300012F010F918B930460CF09CF9002606F0A4
:101D40004DFA00BF304609B0BDE8F08F63210008AE
:101D5000C00300202DE9F04385B004460D46164629
:101D60001F46DDF8309000BFB4F90820618A0020DA
:101D70006369CDE9005002A80EC0B4F91030B4F97F
:101D80000E20B4F90CC00CEB0701B4F90AC00CEB3F
:101D90000600FFF78DFF8046B8F1000F03D0618A7F
:101DA000404600F0A5F9404605B0BDE8F0830000CC
:101DB0002DE9F0470746884691461E4605F0D2F8C1
:101DC00057B3384603F0CCFE04461548E064154886
:101DD0002065C4F83C8000202064B4F92A50002D0E
:101DE00003DC304611F092FE0546202D00DD202553
:101DF000B4F92A00A84203D02946384600F0E2F898
:101E0000C4F830906663012084F84800384614F026
:101E1000BFFA38460CF0F4FC06F0E0F9BDE8F087B4
:101E20006BFA0008916301082DE9F34F83B00C466B
:101E30000398002871D005F095F8039803F090FE00
:101E40000546288D002865D0B5F9280003F088FEE6
:101E50000190E86D05F078FE029003980CF030FBDD
:101E60008346019804F0ACFF8046686D00F00300E3
:101E7000012809D002280ED1ABEB0801481C00EB69
:101E8000D071A4EB61040DE0ABEB0801A86D401C20
:101E9000081A241A06E0A86D401C296A49690844FA
:101EA000241A00BF00BF019806F0DAFB0646002C9A
:101EB00004DA0021284600F099F924E0444504DDC5
:101EC0003146284600F092F91DE04FF00009CA465D
:101ED0000FE001A806F018F80090009804F01EFF2B
:101EE00007460AEB0700A04200DD06E0BA4409F10C
:101EF0000109B14501DAA245EBDB00BF494628469E
:101F000000F074F900BF029805F01EFE03980CF073
:101F100077FC00BF06F062F900BF05B0BDE8F08FA6
:101F200070B505460E4605B970BD05F01BF828468C
:101F300003F016FE04461CB1E66528460CF060FC72
:101F400006F04CF900BFEFE72DE9F0470746884659
:101F500091461E4605F006F85FB3384603F000FED2
:101F600004461648E06416482065C4F83C8000200A
:101F70002064B4F92A50002D03DC304611F0CEFD68
:101F80000546082D00DD0825B4F92A00A84203D033
:101F90002946384600F016F8C4F8309066630120F0
:101FA00084F84800384614F005FA38460CF028FC4E
:101FB00000BF06F013F9BDE8F08700000BFB000836
:101FC000B56301082DE9F04706460D4696B304F0C7
:101FD000C9FF304603F0C4FD0446B4F92A00A84204
:101FE00025D0B4F92A00A84216DD208DA0B1B4F99D
:101FF000280003F0B5FD0746384606F031FB804661
:10200000A84508DD2946384605F092FF81460020A4
:1020100007F8090000BF00BFA08D281A411C204608
:1020200011F098FF28B2608530460CF0E9FB06F00D
:10203000D5F800BFBDE8F0872DE9F04780460F4690
:10204000B8F1000F52D004F08DFF404603F088FD38
:102050000446002F3DD04FF00009208D50B1B4F957
:10206000280003F07DFD82465046FEF738F900F166
:10207000010900BF384606F0F3FA0646B4F92A1003
:10208000B14201DAB4F92A603146384605F050FF12
:10209000451CA5EB0901204612F0B3F8C0B1B4F914
:1020A000280003F05DFD82462A4639465046FEF779
:1020B000D5F8681E2064B4F92A10206C884206D135
:1020C00094F84800012802D1206C401E206400BF13
:1020D00006E004F1280003F0AEFC0020A085206497
:1020E00040460CF08DFB06F079F800BFBDE8F087A4
:1020F00070B505460E4605B970BD04F033FF28469D
:1021000003F02EFD04461CB1666528460CF078FBF2
:1021100006F064F800BFEFE770B506460D46FEB165
:1021200004F020FF304603F01BFD0446206BA8425C
:1021300000DD256B606BA84200DA656BE06BA8429E
:102140000CD0E563206D10B13046216D88473046D4
:102150000CF056FB052130460CF0D5FB06F03EF89E
:1021600070BD2DE9F0410446B4F90450284603F04F
:10217000F7FC804628460DF017F907462146284609
:102180000BF0BEFB08B9BDE8F08120680B2811D028
:102190000C2804D00E2811D00F2821D105E02246AA
:1021A0004146284612F0CFFD1AE02946404612F07B
:1021B00093FFE8E740460EF098F811E07FB1A06881
:1021C000406800280BDDA0680668092E00D104E0F5
:1021D00031462846FFF7A0FCD5E700BF00BF00BF8F
:1021E00000BF20460BF012FF00BFCCE72DE9F04105
:1021F00004460D46208D20B3B4F9280003F0B0FC4E
:102200008046404606F02CFA064694F8480008B18D
:10221000012000E000200746002D00DA0025B5422D
:1022200000DD3546B4F92A00C01BA84202DAB4F931
:102230002A00C51B206CA84200D0256400206064E1
:1022400000BFBDE8F081000038B5044600254020FD
:102250004A498882012C01D10BF0A7FA022015F01F
:102260007AFB47484749086003460093122300223F
:102270000121284606F033FB08B9002038BD41484B
:102280000068C079C4EB041101EB41013B4A1144E1
:10229000888220460AF0A9FF08B90020EEE725460B
:1022A000374B384800930068037800220121284604
:1022B00006F015FB08B90020E0E732480068008905
:1022C000C4EB041101EB41012C4A114408802D4854
:1022D00000684089C4EB041101EB410111444880BE
:1022E00028480068807BC4EB041101EB41011144D4
:1022F000887124480068C07BC4EB041101EB4101E4
:102300001144C8711E482049086003460093082301
:1023100000220221284606F0E2FA08B90020ADE7C3
:10232000174B194800930068438800220221284671
:1023300006F0D5FA08B90020A0E711480930134982
:102340000860084600684079C4EB041101EB4101C4
:102350000A4A114408710D4800680079052803DC19
:102360000A480068007900E00520C4EB041101EB85
:102370004101024A1144487101207FE7C41C00203A
:10238000B41B002020000020240000202800002092
:102390002DE9F04F8BB00446894615469A464FF01A
:1023A000000B94B3204600F035F90646204600F0B5
:1023B00020F9049004F0D6FD204603F0D1FB0A90EA
:1023C00005A90A9800F0D6F919F0010F07D0BDF958
:1023D0002410701E081AA0EB0508822704E0BDF93E
:1023E000200000EB0508022733463246CDE901A75D
:1023F000009440460499FEF766FD83460021584646
:10240000FEF7F0FD05F0EAFE00BF58460BB0BDE850
:10241000F08F00002DE9F04104460D4616460723D3
:10242000324629462046FFF7B3FF0746054A0021FA
:102430003846FEF7F7FD044938460CF07BFB38467A
:10244000BDE8F08121130108717201082DE9F04106
:1024500004460D4616460823324629462046FFF715
:1024600097FF0746054A00213846FEF7DBFD044981
:1024700038460CF05FFB3846BDE8F0814F13010889
:10248000AB7201082DE9F04786B004460D461646AA
:102490001F46DDE90F9ADDF8388000210291CDE971
:1024A000031453464A46CDE9001605954146384681
:1024B00000F004F806B0BDE8F08700002DE9FF4FFA
:1024C00089B0074688469346DDF86CA0DDE91759C8
:1024D00045F480554823304AA9B216988DE80F007C
:1024E0005A46414638460C9B0BF0ECFC0646002E43
:1024F0004ED004F037FD304603F032FB0446302264
:10250000204619990BF048FC2022244904F12800A8
:10251000FDF7A4FE002004F148046082C4F800A086
:10252000A4F81490E082E080E061A4F1480404A9DA
:10253000204600F01FF90023194A41F28271CDE9CB
:102540000061CDE90223BDF91AE0BDF916C0AEEB7A
:102550000C0C0CF10103BDF918C0BDF914E0ACEB93
:102560000E0C0CF10102BDF9161070460BF0AAFC1E
:10257000A4F84C0042F20400054202D130460BF0B0
:10258000DFFD30461A9900F0DEF805F027FE00BFA7
:1025900030460DB0BDE8F08F492D0108DC03002066
:1025A000112A00082DE9F04387B004460D4616466F
:1025B0001F46DDF83880B4F90810608A626800238D
:1025C000CDE90428CDE90053CDE90201B4F910307A
:1025D000B4F90E20B4F90CC00CEB0701B4F90AC031
:1025E0000CEB0600FFF76AFF8146484607B0BDE8DE
:1025F000F08370B50446002554B104F0B3FC2046C6
:1026000003F0AEFA0646B6F9425005F0E7FD00BF0A
:10261000284670BD70B586B0044600258CB104F024
:10262000A1FC204603F09CFA064601A9304600F0C2
:10263000A1F8B6F940500DB9BDF9045005F0CEFD32
:1026400000BF284606B070BD70B5044664B104F002
:1026500089FC204603F084FA05462946204612F0FC
:1026600037F805F0BBFD00BF70BD70B5044664B11E
:1026700004F078FC204603F073FA0546294620460C
:1026800012F07CF805F0AAFD00BF70BD70B50446DD
:1026900084B104F067FC204603F062FA054629463F
:1026A000204613F0C8F92946204613F091F905F0A9
:1026B00095FD00BF70BD70B504460D463CB104F0F9
:1026C00051FC2946204613F0DEFA05F087FD70BD67
:1026D0002DE9F04104460D4604F044FC9CB120462F
:1026E00003F03EFA0646304600F0CAF80746B562E7
:1026F000304600F054F93946304600F0D1F8204613
:102700000CF07EF800BF05F069FDBDE8F08170B502
:1027100005460E46B5B104F025FC284603F020FA24
:10272000044636B1B4F85C0040F01000A4F85C0038
:1027300005E0B4F85C0020F01000A4F85C0005F09F
:102740004DFD00BF70BD70B504460D468CB104F060
:1027500009FC204603F004FA0646294606F150001B
:1027600006F011F810B120460CF04AF805F036FDDD
:1027700000BF70BD2DE9F04F85B005460C46002026
:1027800004900390B5F9426028460CF0EAFC0290F0
:1027900028460CF0EEFC0190E88C10F0200F02D0DF
:1027A000B5F944000390284600F06AF88046B5F871
:1027B0004E0020B1B5F94E000BF096FE04900FFAD2
:1027C00088F02080049800B2608030B2A080029827
:1027D000801B401E01B221810398304400EB0801A8
:1027E0000498084401B2E1800198801B401E01B2A8
:1027F000618130B2A0810298801B401E01B221820B
:1028000031B2E18106EB0800401E01B26182B5F9E8
:1028100018902FE0484603F0A3F90746B7F90000E7
:10282000B5F90010A0EB010AB7F90400B5F90010E2
:10283000A0EB010BB7F90200B5F90210401A0090A5
:102840000098B04214D1B88B10F0800F08D0B4F9C2
:10285000100050450CDBAAF1010001B2218207E013
:10286000B4F90C00584503DC0BF1010000B2A08163
:10287000B7F91A90B9F1000FCCD105B0BDE8F08FCF
:1028800070B504460025E08C10F0200F06D0B4F996
:1028900040501DB9A06A04F0E0FA851C284670BDBE
:1028A0002DE9F04F85B0044688462046FFF7E8FF43
:1028B00004900498A0EB0805002D6DD04FF0000B9C
:1028C00000BF00208246814640F6FF7001904042E2
:1028D0000090B4F9186037E0304603F041F907463C
:1028E000D7E90001CDE90201B4F902004242B4F98E
:1028F0000000414202A804F0ECFFBDF90A10B4F94F
:10290000420081421ED1BDF90E00BDF90A10401AE5
:10291000401C404516D1B88B10F0800F09D0BDF98E
:102920000C10009881420DDDB246BDF90800009000
:1029300008E0BDF908100198814203DAB146BDF9FB
:1029400008000190B7F91A60002EC5D1B9F1000F47
:102950000AD02A46294648460CF008F80BFB05F138
:10296000002248460BF0C1FFBAF1000F0BD02A46F7
:10297000294650460BF0FAFF0BFB05F041420022BE
:1029800050460BF0B2FF0BF1010BB9F1000F98D1DB
:10299000BAF1000F95D100BF05B0BDE8F08F30B59A
:1029A00085B00446B4F84C0010B9B4F84E0068B3D2
:1029B00069462046FFF7DEFEB4F84C00B8B1BDF919
:1029C0000620BDF90410B4F94C000BF054FFBDF91A
:1029D0000A50BDF90630EB1A5A1CBDF90830BDF992
:1029E00004505B1B591CB4F94C000CF0EAF9B4F824
:1029F0004E0050B1BDF90630BDF902505A1BBDF969
:102A00000410B4F94E000BF036FF00BF05B030BD26
:102A10002DE9FE430446B4F90470B4F904000BF048
:102A2000FFFC8046404603F09BF80546AE6C2068EC
:102A3000172858D008DC0E283ED00F280BD01428B9
:102A40004FD0152853D14DE01F281AD020282ED062
:102A500022284CD142E06FF07041E86B884204D0EC
:102A6000E86B06F01BFE03F05DFB46B194E807003F
:102A70008DE80700ADF804706846B04700BFBDE8B8
:102A8000FE83A06890B1B5F85E0040B1B5F95E0074
:102A9000B84204D0B5F95E000CF0F8F804E038460E
:102AA0000CF04CF9A5F85E000020A060E7E7214695
:102AB00040460AF025FFE2E7A068406800280CDDE8
:102AC000A068D0F80090B9F1090F05D138460CF094
:102AD00035F9A5F85E00D2E700BF08E0E86BA0601A
:102AE000CDE700BF00BF20460BF090FAC7E700BF5C
:102AF00026B1A4F804802046B04702E020460BF03F
:102B000085FA00BFBBE7000000B597B001210802BD
:102B100009F0C4FE012140F2E11009F0DFFE4CF2A1
:102B20000300ADF8000003208DF8020018208DF896
:102B300003006946304800F031FC4FF4F060ADF816
:102B4000000069462D4800F029FC6020ADF8000027
:102B500069462A4800F022FC0120ADF800006946D1
:102B6000274800F01BFC3020ADF8000069462248E1
:102B700000F014FC4FF4A050ADF800006946214865
:102B800000F00CFC0A200190002002900A20039023
:102B900000200490059006900790062008900020E1
:102BA00009900A9010200B9000200C900E900F902E
:102BB00010904FF480501190002012900D901390BF
:102BC000149001A8159008A800F038F8052001908D
:102BD00000200290052003900020049005900690AC
:102BE000079001A8169008A800F028F801210620F7
:102BF00000F00AF817B000BD0014014000180140B1
:102C0000001C01400020014051B14FF0204252F819
:102C1000202042F001024FF0204343F8202009E039
:102C20004FF0204252F82020034B1A404FF020432F
:102C300043F8202070470000FEFF0F00D0E901128A
:102C40001143C26811430269114342691143826909
:102C50001143C2691143026A1143426A1143826AF5
:102C60001143C26A1143026B11434FF020430268C3
:102C700043F822108168082908D11A46016852F8E1
:102C8000211041F04001026843F82210416B0968AD
:102C9000426B526841EA0211426B926841EA02219A
:102CA000426BD26841EA0241426B126941EA025129
:102CB000426B526941EA0261426B926911430268B8
:102CC000521C4FF0204343F82210C16AB1F5804FE7
:102CD0001AD1816B0968826B526841EA0211826BDA
:102CE000926841EA0221826B126941EA0251826BC9
:102CF000526941EA0261826B92691143026803EBF7
:102D00008202C2F8041108E06FF070414FF02043D6
:102D1000026803EB8202C2F8041170472DE9F84FF4
:102D2000074688461446204604EBD471491004FB3C
:102D300004110091A8EB040908EB040A2848006973
:102D400098B127480069B0F90600504503DA2448D5
:102D50000069B0F906A022480069B0F902004845B0
:102D600003DD1F480069B0F902900026254616E0F1
:102D7000A8EB060BCB4511DBD3450FDC00E06D1E45
:102D800006FB06F005FB050100988142F7DC7A1985
:102D9000781B1349896D0B6859469847761CA642E3
:102DA000E6DB0026254616E008EB060BCB4511DBDB
:102DB000D3450FDC00E06D1E06FB06F005FB0501A8
:102DC00000988142F7DC7A19781B0549896D0B68F8
:102DD00059469847761CA642E6DBBDE8F88F00000E
:102DE0000C67002010B504460A2C02D103F038FB12
:102DF00011E00D2C0FD004F0B5F807488069016888
:102E0000204688470548006818B1204603490968EC
:102E1000884705F0E3F910BD0C670020600300202F
:102E20002DE9F04387B004460E461746D4F80C80CF
:102E3000002004F07DFE0546B8F1000F05D098F89B
:102E4000041011B145F0020101E025F0020108462D
:102E500004F06EFE206970B10123D4E902018DE80F
:102E60000B0003936388228820693946D0F800C09C
:102E70003046E0471EE0E06806F072F98146B9F19D
:102E8000000F06D1E088012801D0002000E00C48A6
:102E90008146A188E088A26801230093CDE9042936
:102EA000CDE901300391638822883946304605F028
:102EB0002DFE00BF284604F03BFE07B0BDE8F083BE
:102EC0000C6700202DE9FF4F8FB004460D4600200F
:102ED0000E9001907B48B0F9060006907948B0F951
:102EE0000A00059020880B9060880A901D980028A1
:102EF00002DA1D98404200E01D9808901D980028B5
:102F000004DA12990B98401A401E00E012980899B2
:102F100048434FF47A7190FBF1F02D1A1C99494205
:102F20001E9A01FB02F04FF47A7105F03AFB1199F9
:102F300000EB010B0BF1010004901E98002802DA4F
:102F40004FF0FF3000E001200390E06820B1E0681E
:102F5000007908B1012001904FF00009AAE05E4617
:102F600009F101011C9A891A1E9A01FB02F04FF423
:102F70007A7105F016FB119900EB010B049886425B
:102F80007ED0049600BF069886427EDB0598864276
:102F90007BDC4FF0FF3A4FF00008002007900290D2
:102FA0000C9061E0DDE90701084407900798B0F54F
:102FB0007A7F56DB1D98002801DD0C9803E0DDE9DF
:102FC0000B01401A401E09904A462046099903F019
:102FD00042FE87B20E98874202D11AF1010035D124
:102FE00077B9019860B1029878B305EB08014A1EE1
:102FF00005EB0A00314605F0A9FE0020029024E00E
:10300000029850B11AF1010007D005EB08014A1EE1
:1030100005EB0A00314605F099FEC24601200290F8
:10302000206928B120694168384688470D9004E03E
:10303000E068806850F827000D902248806C016895
:103040000D988847009006F073FB0E9700BF08F1BB
:1030500001080798A0F57A7007900798B0F57A7F75
:10306000F5DA0C98401C0C90DDE90B10884299DBD6
:10307000029830B105EB08014A1E05EB0A0001E099
:1030800016E002E0314605F061FE039806441E9802
:10309000002805DA5E4501DD012006E0002004E09D
:1030A0005E4501DA012000E0002000287FF46BAFCC
:1030B00009F101090A988145FFF651AF13B0BDE847
:1030C000F08F00000C6700202DE9F0470746884686
:1030D000144640F2C32060434FF47A7190FBF1F044
:1030E00000F1010904EBD471491004FB041A2646CF
:1030F0000023224641463846FEF7A4F8012513E096
:1031000005FB05F006FB0600504506DD33462A4662
:1031100041463846FEF796F8761E33462A46414623
:103120003846FEF78FF86D1C4D45E9DDBDE8F087A8
:103130002DE9F04705468846164640F2C320704305
:103140004FF47A7190FBF1F000F1010906EBD671B2
:10315000491006FB061A3446AA19A81B2649896D90
:103160000B6841469847012741E007FB07F004FB45
:103170000400504524DD4C4521DD05EB070CACF186
:10318000010208EB0401A5EB070C0CF10100DFF8CC
:1031900068C0DCF858C0DCF80030984705EB070C35
:1031A000ACF10102A8EB0401A5EB070C0CF1010046
:1031B000DFF844C0DCF858C0DCF800309847641EE3
:1031C0002A1908EB0701281BDFF82CC0DCF858C0CF
:1031D000DCF8003098472A19A8EB0701281BDFF814
:1031E00018C0DCF858C0DCF8003098477F1C4F4509
:1031F000BBDDBDE8F08700000C67002070B5044619
:103200000E4615466119601B02F0A2FB2A463146A4
:103210002046FFF783FD02F0C5FA70BD2DE9F04F9F
:1032200087B00646894692461F4640F6FF700690D4
:103230004042059000250CE006EB8500B0F9024005
:103240000698844200DA06940598844200DD0594CD
:103250006D1C4D45F0DB41480069D8B13F4800691D
:10326000B0F90600C11B0598814205DA3B480069A8
:10327000B0F90600C01B059038480069B0F902009B
:10328000C11B0698814205DD34480069B0F902008F
:10329000C01B0690069C5BE010F088FE002550E005
:1032A000A9F10100A84201DD681C00E000200490A3
:1032B00006EB8500B0F902B0049806EB8000B0F987
:1032C0000280A34524D1A0450CD1049B36F92330BC
:1032D00003EB0A02E11936F9253003EB0A000EF080
:1032E0003FFF2DE023464A462946304610F07BFC3E
:1032F00003900398A0420AD0A8EB0403CDE900A7ED
:1033000003990A1B36F9250021460CF041FC17E011
:10331000A04515D0A04501DBA34503DDA3450FDB88
:10332000A0450DDC049806EB800306EB850203A99B
:1033300020460CF0DFFE10B103980CF019FB00BF23
:103340006D1C4D45ACDBE119504610F0F1F8641CE2
:1033500005988442A0DD07B0BDE8F08F0C6700201F
:1033600010B5002004F0B7FB6FF07F4004F0BDFB08
:10337000012004F007FC002004F012FC002004F0FF
:103380001FFC002004F0D4FB034804F0DDFB002008
:1033900004F0EAFB10BD00009C4D02082DE9F0414D
:1033A000024600250026002000230024002791F873
:1033B00003C00CF00F0591F803C01CF0100F03D0F0
:1033C00091F802C04CEA0505B1F800C01CF0FF0FEF
:1033D00031D0146800202BE04FF0010C0CFA00F300
:1033E000B1F800C00CEA03069E4220D183004FF0E2
:1033F0000F0C0CFA03F7BC4305FA03FC4CEA040477
:1034000091F803C0BCF1280F06D14FF0010C0CFA63
:1034100000FCC2F814C00AE091F803C0BCF1480FE8
:1034200005D14FF0010C0CFA00FCC2F810C0401C92
:103430000828D1D31460B1F800C0BCF1FF0F34DD0F
:10344000546800202EE000F1080C4FF0010808FA43
:103450000CF3B1F800C00CEA03069E4221D18300B0
:103460004FF00F0C0CFA03F7BC4305FA03FC4CEACF
:10347000040491F803C0BCF1280F05D100F1080C39
:1034800008FA0CF8C2F8148091F803C0BCF1480F98
:1034900007D100F1080C4FF0010808FA0CF8C2F847
:1034A0001080401C0828CED35460BDE8F08102464D
:1034B000002093680B4201D0012000E000207047FB
:1034C00041617047016170472DE9F04F9DB05DA1EA
:1034D00066A001F03FFB01F099F8002004F0FBFA30
:1034E00002F020FE02F056F9032002F045FA002413
:1034F00007E004EBC40101AA02EB410003F084FEE3
:10350000641C022CF5DB03F066FC0746DFF870B1A3
:10351000CDF870B0002675E0404610F0F5F8594936
:103520000090FCF752FF129058461299FDF7EEF901
:103530001BD0DDF848B003F04EFC8246052252490C
:103540000DF12A00129B04F043FA0AAB4F4A0AA974
:1035500001A803F03FFF03F03EFCA0EB0A05322D6B
:1035600003DAC5F1320002F0CCFE404610F016F945
:1035700044490090FCF729FF1B90DDE91B10FDF783
:10358000C5F916D01B981C9003F025FC8246042236
:103590003F490DF14E001B9B04F01AFA13AB3D4A54
:1035A00013A90DF1160003F015FF03F014FCA0EBB6
:1035B0000A09142096FBF0F100FB116008BB6FF0C4
:1035C0007F4004F092FA002004F0FAFA324804F046
:1035D000BBFA0A22114631A003F01CF8334804F06C
:1035E000B3FA0A2003F03EFC0321284602F0D8FE7D
:1035F00002F036FF0A2003F035FC0321484602F0B2
:10360000CFFE761C03F0E7FBA0EB070847F2305033
:10361000804504DA00F038FA00283FF47DAF4FF41B
:103620007A7000F023FB002407E004EBC40101AA38
:1036300002EB410003F048FE641C022CF5DB1DB0D8
:10364000BDE8F08F0A4578616D706C657320666F18
:1036500072207468650A6175746F6D6F7469766540
:1036600020696E6475737472696500004175746FCA
:103670006D6F746976652073616D706C65730000A1
:10368000000080BF35FA8E3C14BD0108592701089F
:1036900028BD0108CD270108F05302086D7365634A
:1036A0002F706963747572653A0A00009C4D0208B8
:1036B0002DE9F04F89B005F04EFD804605F04EFD36
:1036C0008146B9A1C6A001F045FA4FF47F0004F08D
:1036D00002FA02F027FD0AF0DFFD04460AF043FD7E
:1036E00032221421C04803F001F8C04804F02CFA3B
:1036F0000A221146BEA002F08DFF01F044FD02F047
:1037000011FD0A221146C0A002F084FF32221421CA
:10371000C24802F0EBFF4FF47A6000F0A7FA00F025
:1037200075FF002415E000250BE0BC48408800FB35
:1037300005F2BA48008800FB04F1B84802F0D6FF51
:103740006D1CB648408899FBF0F0401CA842ECDCA8
:10375000641CB248008898FBF0F0401CA042E2DCF8
:103760004FF4FA6000F082FA00F050FFACA001F0D4
:1037700027F9022004F024FAB44804F0E5F94FF0E8
:10378000C80B40E003F027FB8246A448CDE9058939
:1037900000880790A1484088089000EBD070411045
:1037A000CDE9001BCDF808B0079800EBD0704310AE
:1037B000DDF8189009EBD9704210DDF8148008EBA1
:1037C000D8704110954802F0C3FF08EBD870411043
:1037D00064229FA0CDF8208002F03CFF03F097F90F
:1037E00000BF03F0F8FA0AF10A01884203DA00F098
:1037F0004BF90028F5D003F0EEFAA0EB0A0000EB3D
:1038000040000BEB400B40F6B830834503DA00F084
:103810003BF90028B6D04FF4FA6000F027FA00F028
:10382000F5FE02F07FFC7D48CDF8208040884844BA
:10383000052303EB600208EBD87041108BA002F067
:1038400009FF0024254677E003F0C5FA82462046AA
:10385000294614F01BF80022884BCDE90601FCF73D
:10386000CFFE06460F46DFF8B4C1BCF802C0CC4418
:103870004FEA6C03DFF8A4C1BCF800C0C4444FEAAF
:103880006C02DFF898C1BCF802C0A9EB0C0C4FEA3F
:103890006C01DFF888C1BCF800C0A8EB0C0C4FEA43
:1038A0006C0002F04DFC30463946FCF7C9FFCDE90B
:1038B00005890490594800880790584840884FF47B
:1038C0007A73089000EBD0704110049A8DE80E00D6
:1038D000079800EBD0704310DDF8189009EBD97011
:1038E0004210DDF8148008EBD87041104B4802F00C
:1038F0002FFF03F00CF900BF03F06DFA0AF10A0183
:10390000884203DA00F0C0F80028F5D003F063FA2B
:10391000A0EB0A000390FCF753FF59490490FCF711
:103920008AFD0590FCF7ABFF22462B46CDE9060148
:10393000FCF7C1FD04460D464FF0C042514B2046F6
:103940002946FCF7B3FF04D200F09EF800283FF4AC
:103950007BAF3248CDE90589008807902F48408821
:103960004FF47A73089000EBD0704110CDE900134A
:103970000293079800EBD0704310DDF8189009EB24
:10398000D9704210DDF8148008EBD870411023483C
:1039900002F0DEFE01F0F7FB0AF07EFC04460AF0BE
:1039A000CFFB09B0BDE8F08F53686F77696E670A87
:1039B000646966666572656E74206269746D6170B3
:1039C0007320776974680A616E6420776974686F20
:1039D000757420636F6D7072657373696F6E00002C
:1039E0004269746D6170730060D001085C950208D3
:1039F000524C4520436F6D7072657373656420622D
:103A000069746D6170730000312F322F342F3820AC
:103A1000627070206269746D61707300A8C80108DB
:103A20004269746D617073206D617920616C736F90
:103A30002062650A6D61676E696669656420616E02
:103A40006420726F7461746564000000F0C3020842
:103A50004269746D6170732063616E206265206DD0
:103A600061676E69666965642E2E2E002E2E2E61AA
:103A70006E6420726F74617465642E0000408F4024
:103A800000007A43FB21294010B503F091F9044668
:103A90000AF07BFB6E2C01D04E2C02D101200C4988
:103AA0000870732C01D0532C0ED14FF4FA7002F031
:103AB00028FC00BF0A2002F024FC0AF066FB03F099
:103AC00077F90446002CF5D00148007810BD0000BD
:103AD000B80100202DE9F04105F03DFB044605F05A
:103AE0003DFB054625A12DA001F034F802F01AFB9C
:103AF0002C4804F029F86FF07F4003F0F6FF002215
:103B0000114629A002F086FD27462E4605EBD57208
:103B1000511004EBD4725010322203F015F801F06A
:103B200032FB012004F004F805EBD572511004EBD0
:103B3000D47250103C2203F007F8002003F0F8FF85
:103B400001F021FB1AA000F03BFF02F0EBFA6FF04E
:103B50007F4003F0CAFF002211461CA002F05AFD6C
:103B600005EBD572511004EBD47250102F2201F0E6
:103B700027FE01F008FBBDE8F08100000A417262F7
:103B800069747261727920636972636C65730A612A
:103B90006E6420617263732E0000000043697263DB
:103BA0006C6573005C7E0208436972636C6500009B
:103BB000436972636C657320776974680A416E7437
:103BC00069616C696173696E67000000416E7469B8
:103BD000616C69617365640A636972636C65000096
:103BE00010B5002414A11DA000F0B4FF4FF47F0015
:103BF00003F071FF02F096FA0DF014F94FF4FA6039
:103C000000F034F800F002FD02F05AFA00BF05E0BF
:103C1000144951F8240010F0EFFD641C042C03D269
:103C2000FFF732FF0028F3D00021084602F020F908
:103C30000D4802F0C7F810BD0A75432F47554920BB
:103C4000737570706F7274730A736F6674776172D4
:103C50006520637572736F720000000043757273A4
:103C60006F720000C0010020E84202082DE9FE4307
:103C700004464FF000081E49B1F900000AF0F2F8BE
:103C8000642C0DDD0E2300221A48B0F902108DE8D5
:103C90000E0007233C220A21084608F092FC00E0AF
:103CA000002007B222460021384608F015FD03F037
:103CB00092F8054600BF03F08EF8461B31463846A1
:103CC00008F077FD0AF061FA0A2002F01AFBA6421A
:103CD00003DAFFF7D9FE0028EDD038460AF0CAF91A
:103CE00012F08EFB0AF051FA4046BDE8FE83000058
:103CF00098010020A80100202DE9F04F87B005F0C1
:103D00002AFA834605F02AFA0690454805900021D4
:103D100044A000F01FFFFF2000F088FC04900498EE
:103D20000AF096FF04900A274FF04B08ABEB070010
:103D3000A0F10A090698A0EB0800A0F10A0AB9F15F
:103D40008C0F01DD4FF08C09BAF1780F01DD4FF0D7
:103D5000780A3B460222002138A08DE80007FEF7D2
:103D600091FB054601212846FEF7A5FC01212846C6
:103D7000FEF7CDFC002201212846FEF74BFB012275
:103D800011462846FEF762FB30492846FEF7A0FCA4
:103D900028460AF073FA40F2827300220092CDE9BD
:103DA0000123039013460146294805F0EBFD064622
:103DB00030460AF06BFF3046059905F07DFF01F0B3
:103DC000E2F9002406E0304605F078FEFA20FFF71D
:103DD0004DFF641C0A2C03DAFFF756FE0028F2D0D0
:103DE000002406E0304605F04BFEFA20FFF73EFFC8
:103DF000641C0A2C03DAFFF747FE0028F2D04FF4C8
:103E0000FA70FFF733FF30460AF034F928460AF01B
:103E100031F904980AF01CFF07B0BDE8F08F0000EC
:103E2000543E03084672616D652057696E646F7772
:103E30002026204C697374626F78000053656C65AE
:103E40006374206C616E6775616765007C9D020814
:103E500008D801087047000070B505F07CF90646E7
:103E600000EBD070441005F079F9064600EBD070F5
:103E700045101FA125A000F06DFE6FF07F4003F0FC
:103E800034FE274803F060FE0022114625A002F010
:103E9000C1FBA4F1320205F128030721264802F0F4
:103EA00073FE05F1280304F132020721224802F0D3
:103EB0006BFE4FF47F4003F018FE05F13C032246F1
:103EC00003211E4802F060FE6FF07F4003F00DFEFC
:103ED00001F060FCA5F1280000EB400304EB440274
:103EE0000421174801F0B0FC01F04DF970BD00004D
:103EF0000A5374616E6461726420616E6420616E45
:103F00007469616C69617365640000004172626983
:103F1000747261727920506F6C79676F6E730000F4
:103F20004C4C03084172626974726172790A506F75
:103F30006C79676F6E730000102902082C29020843
:103F4000880200202DE9F04387B005F004F981468E
:103F500000EBD070451005F001F9814600EBD07000
:103F60004610854903C9CDE905018349083103C9D4
:103F7000CDE903014FF0020880A188A000F0EAFD1E
:103F800002F0D0F86FF07F4003F0AFFD854803F0FA
:103F9000DBFDA6F12802294683A002F05BFB022389
:103FA0000093DDF8149009EBD97CA5EB6C004A4630
:103FB000A6F10F01039B08F0EEFAADF8080002230A
:103FC0000093DDF8189009EBD971A5EB61004A4622
:103FD00006F11401049B08F0DEFAADF80A00BDF901
:103FE00008000AF0C0F8BDF90A000AF0BCF84FF466
:103FF0007A70FFF73BFEBDF90A004FF4FA72002118
:1040000008F06AFB00279DE0BDF90800654908F04B
:1040100052FBBDF908004FF47F42002108F032FB4B
:10402000BDF90800FF22012108F02CFB00240DE05F
:10403000BDF90800214608F0BCFBBDF90A00214685
:1040400008F0B7FB052002F05CF9641C642C03DC6B
:10405000FFF71AFD0028EBD0BDF9080056A108F0C3
:1040600058FB0EE0BDF90800214608F0A2FBC4F1A0
:10407000C801BDF90A0008F09CFB052002F041F9D7
:10408000641E002C03DBFFF7FFFC0028EAD0BDF91B
:1040900008004CA108F03DFBBDF90800002108F024
:1040A00075FB0EE0BDF90800214608F082FB04F123
:1040B000C801BDF90A0008F07CFB052002F021F9D7
:1040C000641C642C03DCFFF7DFFC0028EAD00EE060
:1040D000BDF90800214608F06CFBC4F5C871BDF9B4
:1040E0000A0008F066FB052002F00BF9641E002CA4
:1040F00003DBFFF7C9FC0028EAD0BDF90800354909
:1041000008F0D9FABDF9080033A108F002FB0EE06F
:10411000BDF90800214608F04CFB04F5C871BDF953
:104120000A0008F046FB052002F0EBF8641C642C42
:1041300003DCFFF7A9FC0028EAD04FF47A70FFF700
:1041400095FD7F1C4745FFF65FAF4FF47A70FFF790
:104150008DFDBDF9080009F08DFFBDF90A0009F0D9
:1041600089FF4FF47A70FFF781FD1F4803F0ECFCE4
:1041700007B0BDE8F0830000382902080A50726FCA
:1041800067726573736261727320696E0A616C6C29
:1041900020766172696174696F6E73005769646734
:1041A000657473005C7E020850726F67726573738A
:1041B000206261720000000054616E6B20656D70BA
:1041C00074790000416E792074657874202E2E2E4B
:1041D00000000000543E0308416E7920666F6E7443
:1041E000202E2E2E00000000F48C02082DE9FC4148
:1041F00034A13DA000F0AEFC00F0BCF8FF200AF0B6
:1042000027FD0646002300933B4A0E213B480193BD
:1042100002F007F8054600240CE0394901EBC4011F
:104220004868FFF723FD364911F83400012103F0F7
:1042300045FC641C0C2CF0D34FF47A70FFF716FD8C
:10424000002410E028460AF00AFB40B14FF49871B0
:1042500028460AF027F80746214608F01BFF64208D
:10426000FFF704FD0A34642CECDD4FF44870FFF7CF
:10427000FDFC28460AF0F3FA40B114221146284604
:104280000AF025FB4FF4FA70FFF7F0FC28460AF01D
:10429000E6FA40B114223C2128460AF018FB4FF4FC
:1042A0004870FFF7E3FC28460AF0D9FA10B1284617
:1042B00009F0E0FE00F0AAF930460AF0C9FCBDE8BA
:1042C000FC8100000A4469616C6F6720626F786549
:1042D000730A63616E20656173696C792062652081
:1042E00063726561746564004469616C6F67206224
:1042F0006F78657300000000056F0108D4D00108D5
:10430000D001002010B509A115A000F023FC01F098
:1043100009FF10F04FF80CF0C5FA00F077F90CF037
:104320000FFD00F073F90CF079FA10BD0A4F7074AC
:10433000696D697A65642064726177696E6720725D
:104340006F7574696E6520666F720A647261776951
:104350006E6720677261706820646174610000009C
:1043600044726177696E67206120677261706800CE
:104370007047000010B50349B1F900000AF086F952
:1043800010BD00009C010020F0B58DB004F0E3FEEC
:10439000064600EBD070451034224C496846FBF7C6
:1043A0005DFF02F01DFD064601466846FBF789FFEA
:1043B0004FF47F0003F08FFB454803F096FB01F0BC
:1043C000B1FE444803F0C0FB0F20044602462946D4
:1043D00041A002F03FF96FF07F4003F086FB4048B8
:1043E00003F0B2FB04F11E000446024629463DA03C
:1043F00002F030F9364803F078FB484803F0A4FB9C
:1044000004F1280004460246294645A002F022F99C
:104410004C4803F099FB04F1190004460246294672
:1044200049A002F017F9504803F08EFB6FF07F406F
:1044300003F05BFB04F1150004460246294668467A
:1044400002F008F9494803F07FFBFF2003F04DFB21
:1044500004F084FEA0F1280704F07DFE064600EB80
:10446000D07041103A4642A002F0F4F804F073FE16
:1044700044490988461A06EBD670411096224148F5
:1044800002F034F96FF07F4003F02FFB2D4803F06A
:104490005BFBD22200213CA002F0BCF8012001F01D
:1044A0009DFFDC2200213BA002F0B4F842F2107024
:1044B00001F094FFE62200213BA002F0ABF841F2AC
:1044C0008830FFF7D3FB0DB0F0BD000038D80108ED
:1044D000FF808000681A0308B5432F475549000044
:1044E00030AF0208556E6976657273616C20677231
:1044F000617068696320736F6674776172650A66BC
:104500006F7220656D626564646564206170706CB3
:1045100069636174696F6E73000000008CCE0208DD
:10452000416E7920435055202D20416E79204C4317
:1045300044202D20416E79204170706C6963617454
:10454000696F6E00F48C0208436F6D70696C65646E
:104550002041707220313520323031312031323AF1
:1045600034363A3036000000B4B80208543E03082E
:104570007777772E506F7765724D43552E636F6D49
:1045800000000000804202084755495F4F533A201F
:10459000000000004755495F414C4C4F435F534971
:1045A0005A453A2000000000436F6D70696C6572D7
:1045B0003A5265616C566965774D444B20332E3411
:1045C0003000000010B503A10BA000F0C3FA11F0F9
:1045D000E9FC10BD0A53616D706C657320757365DD
:1045E0006420696E0A4E617669676174696F6E2036
:1045F00073797374656D73004E6176696761746970
:104600006F6E2073797374656D00000010B5002023
:104610000449087011F0F4FE03480068401C024988
:10462000086010BDB8010020B401002070B5054637
:10463000FF2001F0EAFD08B12C4600E000242046EE
:1046400003F049FA204670BD2DE9FC5F4FF00D0BD9
:1046500004F084FD82464624AAEB0400BAF5A07F4C
:1046600001DA002100E03C21401A90FBFBF54FF0FD
:104670003C08002004F0F8FC0190012004F0F4FC58
:104680008146A9EB0809A549A5A000F063FA6FF0DF
:104690007F4003F02AFA002003F01DFA01F042FDEA
:1046A000A24803F051FAA2A001F010FFA34803F0C2
:1046B0004BFAA3A001F00AFF42F21D3001F08EFE7A
:1046C000A4A001F003FF102001F088FEA2A001F0D9
:1046D000FDFEA3A001F0FAFE019801F07FFEA1A06B
:1046E00001F0F4FEA2A001F0F1FE40F2352001F04D
:1046F00075FEA34803F028FA6FF07F4003F0F5F948
:10470000621900219FA001F085FF032000FB0542F4
:1047100000219DA001F07EFF052000FB0542002145
:104720009BA001F077FF062000FB054200219AA024
:1047300001F070FF082000FB0542002198A001F065
:1047400069FF0A2000FB0542002197A001F062FFEB
:104750000C2000FB0542002195A001F05BFF002723
:10476000D0E0C7EB0720B0FBF9F086B208EB0700FA
:1047700080B20090304603F0B8F96019421E21461D
:10478000009802F087F9C6F1FF0101EB0121FF2239
:1047900002EB012003F0A9F9022000FB0540421EB4
:1047A0006119009802F076F9300203F09EF90320B7
:1047B00000FB0540421E022000FB0541009802F06C
:1047C00069F9C6F1FF0101EB014101F57F4003F0FA
:1047D0008CF9042000FB0540421E032000FB05412C
:1047E000009802F057F9300403F07FF9052000FB30
:1047F0000540421E042000FB0541009802F04AF9E2
:10480000C6F1FF0101EB012101F57F0003F06DF915
:10481000062000FB0540421E052000FB05410098D4
:1048200002F038F906EB062101EB064003F05DF9D2
:10483000072000FB0540421E062000FB05410098B2
:1048400002F028F906EB062003F04FF9082000FBE0
:104850000540421E072000FB0541009802F01AF9AE
:10486000C6F1FF014FF6FF7202EB014003F03DF984
:10487000092000FB0540421E082000FB054100986E
:1048800002F008F906EB0621080203F02EF90A20CF
:1048900000FB0540421E092000FB0541009802F084
:1048A000F9F8C6F1FF01444A881803F01EF90B20FD
:1048B00000FB0540421E0A2000FB0541009802F063
:1048C000E9F806EB064003F010F90C2000FB054068
:1048D000421E0B2000FB0541009802F0DBF8C6F1F8
:1048E000FF014FF0FF1202EB012003F0FEF80D2054
:1048F00000FB0540421E0C2000FB0541009802F021
:10490000C9F87F1C4F4504DAFFF7BEF800283FF4D2
:1049100028AF00F038FCBDE8FC9F000074D001080F
:10492000436F6C6F72206261720000005C7E02084F
:10493000436F6C6F7220626172730A000C5A020836
:104940000A4C43445F434F4E54524F4C4C45523AED
:10495000200000000A0000002062707000000000CB
:104960002C20000020636F6C6F72730A000000003F
:1049700046697865642070616C657474653A2000DE
:104980002061020852656400477265656E00000090
:10499000426C7565000000004772657900000000F8
:1049A00059656C6C6F7700004379616E0000000000
:1049B0004D6167656E74610000FFFF007047000085
:1049C00010B504460248046011F024FD10BD00003B
:1049D000BC01002010B511A120A000F0BBF811F01F
:1049E000A7FA0D22224923A011F046FA10222B49E2
:1049F0002BA011F041FA2F4A2FA13CA011F073FA1D
:104A00003F4A40A148A011F06EFA4C4A4CA14FA079
:104A100011F069FAFFF7FAFD10BD000075432F474A
:104A2000554920737570706F72747320554E4943E9
:104A30004F44450A28616C6C20636861726163743D
:104A400065727329616E640A5368696674204A4905
:104A50005320284A6170616E29000000496E746518
:104A6000726E6174696F6E616C20666F6E74730034
:104A70005C95020841534349492063686172616350
:104A8000746572730A26204575726F7065616E0ACF
:104A9000657874656E73696F6E7300002CE90208A7
:104AA0004869726167616E6120260A4B6174616BAF
:104AB000616E610030020020466F6E74436F6E7647
:104AC000657274657220617661696C61626C6520E3
:104AD000746F2063726561746520796F7572206FE1
:104AE000776E20666F6E74732E2E2E0050726F706C
:104AF0006F7274696F6E616C0A466F6E747300003A
:104B00004C020020466F6E747320776974682066CB
:104B10006978656420636861726163746572207787
:104B2000696474682E2E2E004D6F6E6F7370616312
:104B300065640A466F6E747300000000680200200E
:104B40000A2B2D20302E313233340000446967693E
:104B5000747300002DE9F04198B004460D46684694
:104B600002F096FF2E4804602E48056002F0D8FF40
:104B7000FFF700FC4FF47F0002F0ADFF6FF07F40C5
:104B800002F0B3FF01F0CEFA274802F0DDFF04F097
:104B9000E5FA032190FBF1F0A0F10A0704F0DBFA3B
:104BA000064600EBD07041103A46204601F052FD17
:104BB0001C480068A8B11D4802F0C6FF04F0CEFAF8
:104BC000064600EBD0704010A0F10A0804F0C3FACA
:104BD000074600EBD070411042461248006801F0D1
:104BE00039FD1049096811B14FF4FA6101E04FF441
:104BF0007A610846FFF73AF811F00CFC11F000FC5E
:104C0000684602F0DBFE09F0C0FAFFF7FFFCFF2068
:104C100002F061FF01F086FA18B0BDE8F0810000F3
:104C2000AC010020BC0100204C4C03080C5A0208C7
:104C30002DE9F0418AB03DA148A0FFF78BFFFFF7B7
:104C4000E5FC4FF47F4002F046FF01F06BFA06A846
:104C500002F074F8FF2001F0D8FA08B1FF2000E05C
:104C600000200746384602F036FF01F05BFA02F0FA
:104C7000B2F8064600242FE0322095FBF0F05A30BF
:104C8000089002F0EFF98046404602F031FA002029
:104C9000099008A80CF05AFA06A9404602F010FA4A
:104CA000404602F0FFF9DDE90601CDE9020124B139
:104CB00004AA06A906A802F0C7FDDDE90201CDE9B4
:104CC00004010120099001230093002308AA274929
:104CD00006A802F0FBFA641C02F07DF8851BB5F50E
:104CE000FA5F04DAFEF7D0FE08B9012000E00020E8
:104CF0000028C1D11E4802F027FF6FF07F4002F06C
:104D0000F4FEC8220A211BA001F084FC24B195FB0B
:104D1000F4F8404601F062FB4FF47A70FEF7A6FF0C
:104D200001F000FA0AB0BDE8F0810000466F722081
:104D3000666C69636B6572206672656520616E6979
:104D40006D6174696F6E0A616E64206F746865725C
:104D500020707572706F7365730000004D656D6F24
:104D60007279206465766963657300004D110108EE
:104D7000287703086D732F5570646174653A2000BD
:104D80002DE9F04786B002F026F80746002404F02B
:104D9000E2F9054604F0E2F90646A0465EA16AA0E3
:104DA000FFF7D8FE00BF08E06A4951F8240001F07F
:104DB00010FA02A921F81400641C082CF4DB00246A
:104DC0006FE004F0070102AA32F8110002F098FE29
:104DD000FBF732FA90FBF5F105FB1100A94605EB54
:104DE000D571A0EB610000B2ADF80000FBF724FA2A
:104DF00090FBF6F106FB1100B14606EBD671A0EB75
:104E0000610000B2ADF80200FBF716FA90FBF5F175
:104E100005FB1100BDF80010084400B2ADF8040015
:104E2000FBF70AFA90FBF6F106FB1100BDF8021041
:104E3000084400B2ADF80600BDF90630BDF9042003
:104E4000BDF90210BDF9000001F0C2FEBDF9040079
:104E5000A84203DB681E00B2ADF80400BDF90600ED
:104E6000B04203DB701E00B2ADF80600BDF90000D1
:104E7000002802DA0020ADF80000BDF90600002885
:104E800002DA0020ADF80600BDF90400BDF90010FB
:104E9000401ABDF90610BDF90220891A00FB0188ED
:104EA000641C01F098FF07F5FA51081A002803DD89
:104EB000FEF7EAFD002884D001F08DFFC01B6421BD
:104EC00090FBF1F701F02EF9FFF7A0FB224802F06A
:104ED0003BFE6FF07F4002F008FE04F03FF982468F
:104EE00001F05CFFAAEB000909EBD97042100A211E
:104EF0001AA001F08FFB07B97F1C98FBF7F000EBBD
:104F000080004FEA4009484601F068FA00F03BF99A
:104F100006B0BDE8F08700004D756C7469206C61C7
:104F200079657220636C697070696E670A48696799
:104F3000686C79206F7074696D697A656420647239
:104F40006976657273000000486967682073706550
:104F500065640000482902082877030850697865CD
:104F60006C732F7365633A20000000002DE9F04751
:104F700086B004F0F0F8054604F0F0F881462846C3
:104F800005EBD5714F10484609EBD9714FEA61081E
:104F9000FFF73CFBFFF7EEF900BF0020ADF8100073
:104FA0003220ADF8120028B2ADF814005A20ADF846
:104FB00016004FF47F0002F08EFD01F0B3F8681E7A
:104FC00044490988A0EB010A0AEBDA7041100F226C
:104FD000404801F08BFB404802F0B6FD0E2204A9C8
:104FE0003EA001F051FB02230322A8F11E01A7F10C
:104FF0003200CDE9002332236422FBF74EFFADF8E7
:10500000080002230122A7F15A00CDE900231E2344
:10501000502208F11E01FBF740FFADF80A00022301
:10502000009301931E23502208F11E0107F10A008C
:10503000FBF733FFADF80C00BDF908002EA1FCF71B
:105040001AF8BDF90800FF220021FBF7B1FFBDF9F6
:105050000A002CA1FCF70FF8BDF90C002CA1FCF7FD
:105060000AF8BDF908002F49FBF7CAFF00F093F8D2
:1050700004464CB90124BDF90A002102FBF7F3FFF5
:105080004FF4FA70FEF7F2FD002605E002A931F9AF
:10509000160008F0EFFF761C032EF7D3012C04D086
:1050A000022C09D0032C0AD103E00DF05FFD044669
:1050B00005E00DF035FC02E011F096F800BF00BFEE
:1050C00024B16E2C02D04E2C7FF467AF06B0BDE841
:1050D000F08700008042020814F40208B5432F470D
:1050E000554920546F7563682073637265656E203F
:1050F00064656D6F0000000043616C6962726174E9
:10510000650000004B6579626F6172640000000009
:10511000546573742063616C6962726174696F6E47
:10512000000000004C4C030810B5FFF76FFA002098
:1051300002F0D1FC00F0F6FF042009F077FD09F041
:10514000ABF8044609F00FF8FFF714F90BF0D0FDA7
:105150000BF04CF90BF092F90BF08CFA0BF02CF9E8
:105160000BF0ACFA0BF00CF90BF002FB0BF034FA7D
:105170000BF0F8F90BF0F2FB0BF0E4FC0BF05EFD2A
:105180000BF0ACF910BD10B54FF47A60FEF76EFD70
:10519000FFF73CFA10BD2DE9F843002501F01BFE96
:1051A00000F57A6603F0DAFFA0F1280803F0D3FFD8
:1051B000A0F14609022300930523502241464846A8
:1051C00007F0E9F9074604E001F0F2FD050000D020
:1051D0000CE001F000FE341A002C04DDFEF754FC54
:1051E00008B9012000E000200028EDD100BF3846BA
:1051F00008F040FF08F0C9FF2846BDE8F88300002A
:105200002DE9F04798B000F05BFF00F08BFF042021
:1052100009F00CFD1E2061490860142060490860F7
:1052200003F09CFFA0F13C0903F095FFA0F1500AA8
:105230003C235022CDE90092029353460A220021DA
:1052400058A0FDF71FF959494880B1F9020009F04B
:1052500039F881460023564A0A218DE80F001A4684
:105260001946184608F02EFE524948800E23532254
:105270000846B0F902104A488DE80E000368474816
:10528000142102680420FBF71EFE4B4908800E2300
:105290004E224848B0F9021041488DE80E000368DC
:1052A0003E48142102682820FBF70DFE4249488041
:1052B000B1F9000041A1FBF7DEFE3F49B1F9020060
:1052C00040A1FBF7D8FE11F09BF808F05EFFFFF756
:1052D0005BF803F040FF814600EBD070451041269B
:1052E00003F039FF471B4FF000083B46082200211E
:1052F00036A0CDE900850296FDF7C4F82B49088059
:10530000B1F9000008F0DEFF814600230A218DE894
:105310000B001A4619461846039308F0D3FD254999
:10532000088008F032FF00202B49086018E068462A
:1053300002F0AEFB00202949086011F061F828490D
:10534000254A126851F8220080470020254908703C
:10535000684602F033FB20480068401C1E49086084
:105360001F481D49096850F821000028DFD100249A
:1053700005E00E4931F9140008F07CFE641C022C93
:10538000F7D3002405E00B4931F9140008F072FE50
:10539000641C022CF7D318B0BDE8F087A0010020F0
:1053A000A4010020436F6E74726F6C009C0100209A
:1053B000E9700108A80100209801002053746F7063
:1053C000000000004E65787400000000B5432F47D0
:1053D00055492044656D6F00B0010020B4010020E4
:1053E00048010020B80100202DE9F04F8BB00546A0
:1053F0005C48B0F922000A905A48B0F924A08069AC
:105400008469B4F80C80454509DBE089A84206DBD5
:10541000D4F80090A5EB08064FF0FF371DE0A06818
:10542000D4F80490A8B1B0F8008045450DDB418860
:10543000A9420ADB0288AA1A95B2416801EB8501EC
:10544000B1F90060B1F9027006E04FF0FF3637465F
:1054500002E04FF0FF36374600BF701C77D041485E
:105460008069007DA17C48430990207C08903D48DC
:105470008069007D07903B48B0F92AB0584604F097
:1054800063F9C0B20690374B099806FB0092A17CE5
:105490000120CDE90423CDE9020118468069C37DCE
:1054A00030488069827DCDE900235146DDE907322D
:1054B0000A9803F02BFB781C1BD04BF0020004F081
:1054C00043F9284B099807FB0092A17C0120CDE904
:1054D0000423CDE9020118468069C37D2148806913
:1054E000827DCDE900235146DDE907320A9803F0B9
:1054F0000DFB1C488069407D1A498969097D8842F5
:1055000021DDBBF1020F1ED08BF0040004F01CF96A
:1055100014488069007DDFF84CC0DCF818C09CF8A6
:1055200015C000FB0CA10F488069407D00EB0A0309
:105530000C48806990F816E0DDF820C00A980CFB52
:105540000E0203F04BFD069804F0FEF800BF05487C
:10555000408C617C084400B2024948840BB0BDE82D
:10556000F08F00000C6700200146034880698269C3
:1055700000BF507C704700000C67002000BF022273
:105580000A80704730B50446A2699589A94204DBB8
:10559000D089884201DB012030BD93683BB1188877
:1055A000884204DC5888884201DB0120F4E700BF10
:1055B0000020F1E72DE9F04F87B005464348B0F9E8
:1055C0002A80014689698869294600F081F80646E3
:1055D000002E77D03188691A706800EBC104A77873
:1055E000404604F0B1F80690384B01206268CDE9DE
:1055F00003720593029018468069C37D3348806921
:10560000827DDFF8C8C0CDE90023DCF818C09CF823
:1056100014302278DFF8B4C0BCF92410BCF92200A1
:1056200003F074FA29488069407D28498969097D19
:10563000884237DD2548806990F8179023488069B3
:10564000407D00FB09FA21488069007D00FB09FBD1
:10565000B8F1020F25D001F07AFB059001F050FB64
:10566000049002F042FADFF864C0BCF922C094F85A
:1056700000E00CEB0E02DFF854C0BCF924C00CEBC8
:105680000A03DFF848C0BCF924C00CEB0B01DFF8BB
:105690003CC0BCF9220003F0A1FC059802F025FAF9
:1056A00000BF00BF069804F04FF80848B0F9220088
:1056B0006178064A9269927D01FB020000B20349BB
:1056C000488400BF07B0BDE8F08F00000C670020E1
:1056D00007E002888A4203DC42888A4200DB02E05B
:1056E00080680028F5D100BF7047000070B50446FF
:1056F0000949896988692146FFF7EAFF05464DB1E6
:105700002988611A686810F8310003498969897D20
:10571000484370BD0020FCE70C67002000BF012259
:105720000A80704770B504460D462946A069FFF708
:10573000CFFF06460EB1012000E00020C0B270BDD0
:1057400010B5002414E004EBC40101EB04110A4A73
:1057500002EB8101081D60220849FAF77FFD002055
:1057600004EBC40101EB0411034A42F82100641C5C
:10577000042CE8DB10BD0000AC6700200C670020A3
:1057800010B54FF0FF300249086002F057FD10BD20
:10579000680400200120024981F85D007047000084
:1057A0000C67002010B50DF0E9FE034800680349BE
:1057B0008865081D086110BD0C0300200C670020DF
:1057C0007CB505460E46144601F0CCFB09F096FC6C
:1057D000054409F09FFC06441A4890F85D0058B94A
:1057E000184890F85C004543164890F85C00464322
:1057F000144890F85C004443281B00F057F8ADF8BB
:105800000000281900F052F8ADF80400301B00F039
:105810004DF8ADF80200301900F048F8ADF8060078
:10582000684609F0AFFC48B100BF22463146284621
:10583000FDF7E4FC09F020FC0028F6D102F0CEFCD4
:105840007CBD00000C6700202DE9F04106460F46A4
:1058500014461D4601F086FB09F050FC044409F093
:1058600059FC0544002009F08DFCC0B100BF0E4872
:10587000806C406B48B10C48806C2B462246394600
:10588000D0F834C03046E04705E02B462246394682
:1058900030460DF027FB09F0EFFB0028E7D102F0BE
:1058A0009DFCBDE8F08100000C6700200146064821
:1058B00090F85C0028B1044890F85C0091FBF0F08F
:1058C00000E0084600B270470C67002070B504463F
:1058D0000D460026002C00DA0024281BB0F5A07F1E
:1058E00001DB04F23F15A54201DA254601260F48E7
:1058F000826D0F4806CA06C00C48806D0D490860CD
:105900000D480B4908600846084988650B480C4952
:1059100008600C4804600C4805600AF047FCFBF77F
:1059200031FC0A4801490861304670BD0C6700200F
:10593000040300200C030020E11F0108A434002010
:10594000E4020020E8020020EC020020FC0200201B
:1059500070B504460D46074890F85C0094FBF0F4DF
:10596000044890F85C0095FBF0F529462046FFF7C7
:10597000ADFF70BD0C67002010B50446024981F8E8
:105980005C40FBF7FFFB10BD0C6700202DE9F041E8
:1059900005460C4601F0E6FA14B90020BDE8F08196
:1059A000204600F017F8064686B1304600F0D8F8D9
:1059B00007462DB1224629463846FAF74FFC04E047
:1059C00022460021384602F006FF00BF02F006FC26
:1059D0003046E3E770B504460CB9002070BD01F015
:1059E000C1FA20460AF026F9054602F0F7FB2846E0
:1059F000F4E770B5044601F0B5FA2046FFF7EAFF78
:105A000005463DB1284600F0ABF806462246002187
:105A100002F0E1FE02F0E2FB284670BD10B504463C
:105A200004B910BD01F09EFA20460DF011FE02F0FF
:105A3000D5FB00BFF5E710B5044601F093FAB4F9C1
:105A40000000FFF7EBFF0020208002F0C7FB10BD35
:105A50002DE9F041002701F085FA0AF041FB00250D
:105A600010E0154830F83500134901EBC5014988AD
:105A70000844114931F83610081A04B2BC4200DD5E
:105A8000274635460C4800EBC5008688002EE8D135
:105A9000094830F83500084901EBC5014988084438
:105AA00042F21071081A04B2BC4200DD274602F02F
:105AB00095FB3846BDE8F081285D002010B504460E
:105AC0000CB9002010BD20460EF03CF9FAE70000AA
:105AD00040F2391009494860886042F21070C8816C
