:030000000201AA50
:0C01AA00787FE4F6D8FD75810D02019409
:10013300750B00750A1075090E750800E4FCFDAB1C
:100143000BAA0AA909A808120003E47BE87A03F9B9
:10015300F812008E8F0B8E0A8D098C08C3E4950B61
:10016300F50BE4950AF50A74019509F509E4950878
:10017300F508AF0BAE0AAD09FC78081201208F0C0D
:10018300850B0D758901850C8C850D8AC28DD28CEA
:010193002249
:100194007F107E27120133308DFDC28D850C8C8536
:0601A4000D8AB2A080F1FB
:10000300E88FF0A4CC8BF0A42CFCE98EF0A42CFC9C
:100013008AF0EDA42CFCEA8EF0A4CDA8F08BF0A41A
:100023002DCC3825F0FDE98FF0A42CCD35F0FCEB79
:100033008EF0A4FEA9F0EB8FF0A4CFC5F02ECD393E
:0F004300FEE43CFCEAA42DCE35F0FDE43CFC22AB
:1000520075F008758200EF2FFFEE33FECD33CDCC65
:1000620033CCC58233C5829BED9AEC99E5829840E8
:100072000CF582EE9BFEED9AFDEC99FC0FD5F0D6C5
:10008200E4CEFBE4CDFAE4CCF9A88222B800C1B9EF
:100092000059BA002DEC8BF084CFCECDFCE5F0CB2D
:1000A200F97818EF2FFFEE33FEED33FDEC33FCEB66
:1000B20033FB10D703994004EB99FB0FD8E5E4F921
:1000C200FA227818EF2FFFEE33FEED33FDEC33FC0E
:1000D200C933C910D7059BE99A4007EC9BFCE99A02
:1000E200F90FD8E0E4C9FAE4CCFB2275F010EF2F47
:1000F200FFEE33FEED33FDCC33CCC833C810D70747
:100102009BEC9AE899400AED9BFDEC9AFCE899F881
:0E0112000FD5F0DAE4CDFBE4CCFAE4C8F92214
:10012000E8600FECC313FCED13FDEE13FEEF13FFBD
:03013000D8F122E1
:00000001FF
