:03000000020003F8
:0C000300787FE4F6D8FD75811702004AF2
:10016B0010083F065B4F666D7D077F6F777C395EAE
:02017B00797198
:07014F0012008F7F027E0009
:10015600EF1FAC0670011E4C600A7D027CC7DCFEF8
:04016600DDFC80EC50
:01016A002272
:10008F00EF14B4080050549000A475F003A4C58376
:10009F0025F0C583730200BC0200C00200C8020035
:1000AF00CC0200D40200D80200E00200E4C2A28019
:1000BF0002D2A2C2A3C2A48022C2A28002D2A2D222
:1000CF00A3C2A48016C2A28002D2A2C2A3D2A480CD
:1000DF000AC2A28002D2A2D2A3D2A474082DF8E63B
:0D00EF00F5807F017E00120156E4F58022AD
:1000FC0020B1251201527D027C007F0812008FE492
:10010C00FDFC7F0712008FE4FDFC7F0612008F7D43
:10011C00037C007F0512014F20B0D51201527D01E6
:10012C007C007F0412008F7D017C007F0312008F06
:10013C007D037C007F0212008FE4FDFC7F01120125
:03014C004F80AD34
:10000F000200FCE493A3F8E493A34003F68001F20B
:10001F0008DFF48029E493A3F85407240CC8C333F2
:10002F00C4540F4420C8834004F456800146F6DFC1
:10003F00E4800B010204081020408090016BE47EE5
:10004F00019360BCA3FF543F30E509541FFEE493B6
:10005F00A360010ECF54C025E060A840B8E493A37D
:10006F00FAE493A3F8E493A3C8C582C8CAC583CAA8
:10007F00F0A3C8C582C8CAC583CADFE9DEE780BE60
:01017D000081
:00000001FF
