:020000040800F2
:10000000201E00204501000809050008D30400084F
:1000100005050008B3030008FF2E000800000000DB
:10002000000000000000000000000000112B00088C
:10003000B703000800000000AB010008E52B000832
:100040005F0100085F0100085F0100085F01000810
:100050005F0100085F0100085F0100085F01000800
:100060005F0100085F0100085F0100085F010008F0
:100070005F0100085F0100085F0100085F010008E0
:100080005F0100085F0100085F0100085F010008D0
:100090005F0100085F0100085F0100085F010008C0
:1000A0005F0100085F0100085F0100085F010008B0
:1000B0005F0100085F0100085F0100085F010008A0
:1000C0005F0100085F0100085F0100085F01000890
:1000D0005F010008392D00085F0100085F0100087A
:1000E0005F0100085F0100085F0100085F01000870
:1000F0005F0100085F0100085F0100085F01000860
:100100005F0100085F0100085F0100085F0100084F
:100110005F0100085F0100085F0100085F0100083F
:100120005F0100085F0100085F0100085F0100082F
:10013000DFF80CD000F09EF800480047A13200081C
:10014000201E00200648804706480047FEE7FEE7DD
:10015000FEE7FEE7FEE7FEE7FEE7FEE7FEE7FEE777
:100160000D2C000831010008EFF3108072B67047C3
:1001700080F3108870471D484FF0FF010170002088
:1001800080F309881A48012101701A484FF0805104
:10019000016062B6FEE717484FF08051016070477A
:1001A00014484FF080510160704772B6EFF3098038
:1001B00028B1203880E8F00F0F490968086000B5C1
:1001C0000E4880475DF804EB0D480E490A7802702E
:1001D00009480D490A680260106890E8F00F203065
:1001E00080F309884EF0040E62B6704722ED00E0FD
:1001F0005600002004ED00E05C000020F91000082B
:100200004B0000204C0000206400002072B67047B4
:1002100062B67047EFF3108072B6704780F31088B3
:100220007047B0FA80F0704790FAA0F0704730BF86
:10023000704720BF7047034611F8012B00F8012BCF
:10024000002AF9D11846704730B50B460146002008
:100250002022012409E021FA02F59D4205D303FA88
:1002600002F5491B04FA02F52844151EA2F1010209
:10027000F1DC30BD064C074D06E0E06840F00103BC
:1002800094E8070098471034AC42F6D3FFF754FFC8
:10029000D0350008F035000801B56946024800680D
:1002A00000F082FB08BD00000000002008B59DF8AA
:1002B000000000903B23064A0021064800F018FD8C
:1002C00000906A4604A13B2000F0D0FD08BD00006C
:1002D000C0030020FD3200085461736B204C45447C
:1002E00020426C696E6B000000B587B09DF8180065
:1002F00006904FF4E13001F057FB114801F046FD44
:1003000001F0B0FC002000F09BFA0E4908600323C6
:10031000002280210C48CDE90323CDE901013923D6
:1003200000F5FE7200210948009300F035FD0690AB
:1003300006AA07A1392000F099FD07B000BD000012
:100340009902000800000020C4030020693300085F
:100350005461736B204F5356696577205465726DF5
:10036000696E616C00000000704710B5FFF7BCFFBC
:10037000FFF79CFF10BD10B50446204601F0E6FCD7
:1003800010BD704701F012FF00F086FCFFF7EDFF93
:1003900000BF00231A460121184600F0F1FEF8E7DD
:1003A000704710B501F0DAFC10BD10B501F0F4FC97
:1003B00010BD00BFFEE770472DE9F0410246002561
:1003C0000026002000230024002791F803C00CF031
:1003D0000F0591F803C01CF0100F03D091F802C074
:1003E0004CEA0505B1F800C01CF0FF0F31D01468CD
:1003F00000202BE04FF0010C0CFA00F3B1F800C024
:100400000CEA03069E4220D183004FF00F0C0CFA39
:1004100003F7BC4305FA03FC4CEA040491F803C05B
:10042000BCF1280F06D14FF0010C0CFA00FCC2F809
:1004300014C00AE091F803C0BCF1480F05D14FF099
:10044000010C0CFA00FCC2F810C0401C0828D1D3E3
:100450001460B1F800C0BCF1FF0F34DD5468002017
:100460002EE000F1080C4FF0010808FA0CF3B1F887
:1004700000C00CEA03069E4221D183004FF00F0C0E
:100480000CFA03F7BC4305FA03FC4CEA040491F8A8
:1004900003C0BCF1280F05D100F1080C08FA0CF8D4
:1004A000C2F8148091F803C0BCF1480F07D100F1E5
:1004B000080C4FF0010808FA0CF8C2F81080401C34
:1004C0000828CED35460BDE8F081416170470161D6
:1004D000704700BFFEE7000008B50121802002F050
:1004E0009DFA4FF47070ADF8000003208DF8020003
:1004F00010208DF8030069460148FFF75DFF08BD35
:10050000001C014000BFFEE77047000070B50021ED
:1005100000230F22C4784CB31A4C246804F4E0641E
:10052000C4F5E0644FEA1421C1F1040322FA01F298
:10053000447804FA03F1847804EA020444EA0101ED
:100540004FEA0111104C0678A155047804F01F05FC
:100550004FF0010404FA05F405784FEA65154FF0F1
:10056000E02606EB8505C5F8004109E0047804F0B3
:100570001F050124AC40054D0678761145F826404C
:1005800070BD00000CED00E000E400E080E100E060
:1005900002490143024A1160704700000000FA0559
:1005A0000CED00E01D481E481E481F481F4820480B
:1005B00020482148214822482248234823482448EB
:1005C00024482548254826482648274827482848BB
:1005D0002848294829482A482A482B482B482C488B
:1005E0002C482D482D482E482E482F482F4830485B
:1005F000304831483148324832483348334834482B
:1006000034483548354836483648374837483848FA
:1006100038483948394800BF704700005C3400084A
:100620006034000866340008683400086434000848
:100630006A3400086C3400086E3400087034000816
:1006400072340008743400087634000878340008E6
:100650007A3400087C3400087E34000880340008B6
:100660008234000884340008863400088834000886
:100670008A3400088C3400088E3400089034000856
:100680009234000894340008963400089834000826
:100690009A3400089C3400089E340008A0340008F6
:1006A000A2340008A4340008A6340008A8340008C6
:1006B000AA340008AC340008AE340008B234000894
:1006C000B4340008B6340008B8340008DC12002046
:1006D0005C160020BC340008BE340008C03400089A
:1006E000C2340008C4340008C6340008C834000806
:1006F000CA340008CC340008BA340008CE340008EC
:100700002DE9F04105460E46144600271DB9042088
:100710002070BDE8F08116B90C202070F9E711486F
:10072000007810B112202070F3E72878012808D053
:10073000022807D0032802D0042804D100E000BF1B
:1007400000BF00BF02E001202070E2E700BFFFF71A
:100750000BFD07466E613846FFF70AFD002020704A
:1007600000BFD6E74900002010B500F019F801F0ED
:100770008BFE01F0B3FE01F0D3FE01F055FE01F057
:1007800027FE01F067FF01F091FF01F009FF01F082
:100790002FFF00F0DDFD00F009F8FFF703FF10BDAB
:1007A00000200149088070472C000020704700009D
:1007B00010B500241A480078012830D1FFF7D4FC86
:1007C00004461848007820B116480078401E1549A4
:1007D000087014480078F8B913480078E0B901F0BF
:1007E000C7FF12481249097850F8210011490860E2
:1007F0000F4800781049097888420DD00D480068EC
:10080000C06B401C0B490968C8630C480068401C59
:100810000A490860FFF7C4FC2046FFF7A9FC10BD99
:1008200056000020490000204A00002074090020E2
:100830004C000020640000204B000020300000200D
:1008400070B5054600261048007808B1002070BD3C
:10085000FFF78AFC06460D480468006820B10B4883
:1008600000684068094908603046FFF781FC4CB1D8
:100870000120207000202081656005A06061204675
:1008800001F098FD2046E2E74900002034000020F6
:100890003F0000002DE9F04105460F4614464FF099
:1008A000000825B9042020700020BDE8F0812878D8
:1008B000012803D0012020700020F6E73748007897
:1008C00018B1022020700020EFE73548007818B1F9
:1008D0000D2020700020E8E7FFF746FC80466E6898
:1008E00046B1002068604046FFF742FC00202070BF
:1008F0003046DAE72B48006890F8340040F00200F8
:100900002849096881F8340000202649096881F8DF
:100910003500244800680763284601F009FD404679
:10092000FFF726FC01F0EAFEFFF71EFC80461D489B
:10093000006890F8350020B101280DD002280AD1B6
:1009400005E018480068466A002020700DE0002687
:100950000E20207009E000BF29461248006801F00F
:10096000A5FC00260A20207000BF00BF00200D4912
:10097000096881F834000B49096881F83500094994
:100980000968C86107490968086206490968486238
:100990004046FFF7EDFB304687E7000049000020A6
:1009A0004A0000205C00002070B504460D46002679
:1009B0000CB9042070BD0DB90320FBE72078012895
:1009C00001D00120F6E7FFF7CFFB0646A07A60B121
:1009D000002302222946204601F01AFC3046FFF788
:1009E000C7FB01F08BFE0020E4E7606820B13046D1
:1009F000FFF7BEFB1420DDE765603046FFF7B8FB6C
:100A00000020D7E710B500240B480078012811D149
:100A1000FFF7AAFB04460948007840B90848007867
:100A2000FF2804D206480078401C0549087020467B
:100A3000FFF79EFB10BD000056000020490000207B
:100A40004A00002010B5002413480078012821D165
:100A5000FFF78AFB044611480078C0B10F480078C0
:100A6000401E0E4908700846007860B90C480078AE
:100A700028B92046FFF77CFB01F040FE0AE0204643
:100A8000FFF776FB06E02046FFF772FB02E0204608
:100A9000FFF76EFB10BD0000560000204A0000204A
:100AA0004900002070B5054600261048007808B1BE
:100AB000002070BDFFF758FB06460D48046800682B
:100AC00020B10B4800684068094908603046FFF7CC
:100AD0004FFB4CB10320207025810020606005A0F1
:100AE0006061204601F066FC2046E2E749000020F4
:100AF000340000203F0000002DE9F04105460E467D
:100B0000144600271DB904202070BDE8F081287824
:100B1000032802D001202070F7E73248007810B196
:100B200002202070F1E73048007810B10D202070CD
:100B3000EBE7FFF719FB0746288940B12889401EDB
:100B400028813846FFF714FB00202070DDE7274896
:100B5000006890F8340040F001002449096881F8E9
:100B6000340000202149096881F835001F480068D9
:100B70000663284601F0DCFB3846FFF7F9FA01F07E
:100B8000BDFDFFF7F1FA07461848006890F83500F8
:100B900020B1012809D0022806D102E000202070EF
:100BA0000BE00E20207008E000BF29460F480068C7
:100BB00001F07CFB0A20207000BF00BF00200B4921
:100BC000096881F834000949096881F83500074946
:100BD0000968C8610549096808623846FFF7C8FA1C
:100BE00000BF92E7490000204A0000205C0000207E
:100BF00070B5044600250CB9042070BD2078032888
:100C000001D00120F9E7FFF7AFFA0546A07A60B1FD
:100C1000002301221946204601F0FAFA2846FFF780
:100C2000A7FA01F06BFD0020E7E720894FF6FF717E
:100C3000884207D22089401C20812846FFF798FA75
:100C40000020DAE72846FFF793FA3320D5E70000C3
:100C500010B50B48007890B901F08AFD094800787A
:100C60000949087009480749097850F821000849DE
:100C700008600846006807490860FFF77CFA10BD65
:100C8000560000204C0000204B000020740900207A
:100C9000640000205C00002010B50024022000F059
:100CA0002FFAFFF761FA044600200B49086020463E
:100CB000FFF75EFA0A2000F023FAFFF755FA044620
:100CC000054800680549086001200549087020466C
:100CD000FFF74EFA10BD0000580000204000002031
:100CE0004800002010B504462046FFF73DFB10BD2C
:100CF0002DE9FE4F06460F4690461C464FF0000970
:100D00003F2C02D92A20BDE8FE8FFFF72DFA81463D
:100D10001E48007820B14846FFF72AFA3C20F2E747
:100D20001B4850F8240058BB0120194941F8240001
:100D30004846FFF71DFA002342463946304600F088
:100D40002BF982460023009301931A465146204610
:100D5000029301F02DFD054635B90E4800780128B3
:100D60000CD101F0CBFC09E0FFF7FEF98146002031
:100D7000074941F824004846FFF7FAF92846C2E738
:100D80004846FFF7F5F92820BDE70000490000209C
:100D900074090020560000202DE9F04F85B08046F0
:100DA000894692461C46DDE90EB6129F002003904C
:100DB0003F2C03D92A2005B0BDE8F08FFFF7D4F906
:100DC00003902248007820B10398FFF7D1F93C2026
:100DD000F1E71F4850F8240088BB01201C4941F866
:100DE00024000398FFF7C4F93A463046109901F001
:100DF000F7FD3B4652464946404600F0CDF8049088
:100E0000DDE910125B468DE88600324620460499E3
:100E100001F0CEFC054635B90E48007801280CD10A
:100E200001F06CFC09E0FFF79FF9039000200849EE
:100E300041F824000398FFF79BF92846BBE7FFE73A
:100E40000398FFF795F92820B5E700004900002036
:100E5000740900205600002010B504462046FFF714
:100E60008AFA10BD10B5FFF78CFA10BD2DE9F041DC
:100E700005460F4614464FF000083F2D05D9FF2DBB
:100E800003D02A202070BDE8F08117B90C20207013
:100E9000F9E71448007810B112202070F3E7FFF74B
:100EA00063F98046FF2D03D10F48006890F8365053
:100EB0000E4850F825602EB94046FFF759F94320F7
:100EC0002070E0E7012E05D14046FFF751F943209D
:100ED0002070D8E737654046FFF74AF900202070B8
:100EE00000BFD0E7490000205C000020740900200A
:100EF00010B5FFF755FA10BD2DE9F04706460C4630
:100F00004FF0000A3F2E04D9FF2E02D02A20BDE860
:100F1000F0870CB90920FAE7002020606060FFF735
:100F200023F98246FF2E03D11948006890F83660F5
:100F3000184850F8265025B95046FFF719F94320B4
:100F4000E5E7012D04D15046FFF712F94320DEE713
:100F5000288A10F0010F04D15046FFF709F9452007
:100F6000D5E70027D5F80C90D5F808805046FFF754
:100F7000FFF800E07F1C58F8041B0029FAD0B800E5
:100F80002060A9EB0700800060600020BFE7000040
:100F90005C0000207409002070B5044610464FF034
:100FA00080750560051F28462C606FF00106051F3F
:100FB00028462E604FF01236051F28462E604FF04F
:100FC0000336051F28462E604FF00236051F2846BF
:100FD0002E607610051F28462E60051F28462960C2
:100FE0004FF01136051F28462E604FF01036051FB2
:100FF00028462E604FF00936051F28462E604FF018
:101000000836051F28462E604FF00736051F284674
:101010002E604FF00636051F28462E604FF005362D
:10102000051F28462E604FF00436051F28462E6007
:1010300070BD00002DE9F04105464FF000083F2D3E
:1010400002D14720BDE8F0813F2D03D3FF2D01D011
:101050002A20F7E7FFF788F88046FF2D05D12248C0
:10106000006890F83650012608E01F48006890F8A4
:101070003600A84201D1012600E000261B4850F8A6
:10108000254024B94046FFF773F84820DAE7012CE1
:1010900004D14046FFF76CF84320D3E794F838704A
:1010A0001348C05D94F83910C943C9B208401049CB
:1010B000C8550846C05D40B994F83A00C043C0B274
:1010C0000C49097808400B49087094F8340040F046
:1010D000080084F834004046FFF74AF8012E01D199
:1010E00001F00CFB0020ADE75C000020740900203B
:1010F0004E0000204D00002010B5FFF752F910BD42
:1011000070B5054600261948007800B170BD184832
:10111000007800B1FAE73DB3FFF726F80646154818
:10112000006890F838401448005D1249096891F849
:101130003910C943C9B208400F4908550846005D37
:1011400050B90C48006890F83A00C043C0B20B494F
:101150000978084009490870064800680563304668
:10116000FFF706F801F0CAFA00BFCFE749000020F8
:101170004A0000205C0000204E0000204D000020AE
:101180002DE9F04107460C4615461E461B480078DF
:1011900010B15520BDE8F0811948007808B132201F
:1011A000F8E727B91CB915B90EB95420F2E73B2C62
:1011B00001D95120EEE73B2D01D95220EAE7B6F5DF
:1011C0007A7F01D35320E5E7701D642148434FF433
:1011D0007A71B0FBF1F14FF461607843C4EB041213
:1011E00000EB8200284400EBC00202EB001001EB90
:1011F00080084046FFF784FF0020CBE7490000202D
:101200004A00002070B50025FEF7AEFF05460348F2
:1012100004682846FEF7ACFF204670BD7800002029
:1012200070B5002600F076F8FEF79EFF06463348BC
:101230000068401C314908603046FEF799FF30488D
:101240000078012857D12F48007820B1012804D018
:10125000022809D103E001250BE0002509E0012562
:1012600001202849087004E0012500202549087064
:1012700000BF00BF05B970BD2348046837E0FEF722
:1012800073FF0646206B70B3206B401E2063206BFB
:1012900048BB94F8340010F0370F09D014F8340F1D
:1012A00000F0C800207001206070A4F1340402E056
:1012B000002084F8350094F8340010F0080F12D1A3
:1012C00004F13804A0781149097840EA01000F4977
:1012D000087020780E49085C617840EA010014F833
:1012E00038190B4A505464693046FEF741FF94F8B0
:1012F00036003F28C3D100BFBDE7000078000020C2
:10130000560000206C000020680000204D000020E6
:101310004E00002010B5FFF748F807480088401C31
:1013200005490880084600880A2803D30020088061
:1013300000F004F810BD00002C00002010B5034898
:101340000068FFF755FC0446204610BD88000020C9
:10135000F8B54FF42071284801F072F94021274870
:1013600001F06EF9002514E0681C86B205EB8500DB
:10137000214901EBC00406EB860001EBC0076420A5
:101380002070002084F82500E7601DA02062681C02
:1013900085B20F2DE8D305EB8500174901EBC0049A
:1013A00064202070002084F82500E06014A02062F2
:1013B000002014490860144908801020134908804F
:1013C0000D48134908600120FFF76CFB11490860C4
:1013D0000020FFF767FB104908606A460FA10D481F
:1013E0000068FFF78DF96A4611A10B480068FFF706
:1013F00087F900F027F8F8BDDC1200205C16002009
:101400003F000000800000207E0000207C000020C3
:101410008C000020840000208800002075432F4F9E
:10142000532D494920546D724C6F636B00000000CE
:1014300075432F4F532D494920546D725369676E80
:10144000616C000000B587B00323002240210B48E7
:10145000CDE90323CDE901014FF6FD7300933D2350
:1014600000F1FC0200210648FFF796FC06AA05A140
:101470003D20FFF7FBFC07B000BD00005C1500201D
:101480000115000875432F4F532D494920546D72A3
:101490000000000070B50C46032580F82550012C93
:1014A00005D1154EC5693668354445610CE085693E
:1014B0002DB9114EC56936683544456104E00E4EBC
:1014C0008569366835444561456905F007030B4D6C
:1014D00005EBC3010D682DB908600025C560012525
:1014E0008D8006E00A680860C26010618D886D1CFE
:1014F0008D800025056170BD800000205C160020F5
:1015000008B500BF00BF6A4600211A480068FFF70F
:10151000F3FAFFF777FA18480068401C164908608C
:101520000846006800F00706144800EBC608D8F823
:1015300000401AE0E768104960690968884213D1E1
:10154000204600F01DF894F82400022804D101215F
:101550002046FFF79FFF02E0022084F8250065681F
:1015600015B12046A168A8473C46002CE2D1FFF700
:1015700069FAC8E788000020800000205C1600207F
:1015800030B5456905F007040D4D05EBC4031D6832
:10159000854205D1C168196039B100250D6104E0AB
:1015A0000169C268CA6002B11161012580F8255045
:1015B0000025C56005619D886D1E9D8030BD0000C1
:1015C0005C160020F0B589B0FFF71CFE07463846D0
:1015D00000F069FD1348006800F080FD40F2231020
:1015E00000F058FD012000F067FD002404E0002019
:1015F00001A90855601CC4B21E2CF8DB01A800F03C
:10160000A3F901A800F074FD00F0CAF905462846C8
:1016100000F049FD00F0C6F90646304600F043FDF3
:1016200009B0F0BD5C0000202DE9F04100F088FA1F
:10163000044600F0B5FB0546284600F034FD002CBA
:1016400033D0012C31D01E480068844205D1D4E942
:101650001001691A084420646564206D00F048FD9B
:1016600094F8360000F028FD204600F057F80746B1
:10167000384600F021FDE06900F015FD206B00F018
:1016800012FD206C00F00FFDE06B00F00CFDA06C73
:1016900000F009FDE168880000F005FDE06C00F055
:1016A00002FD206800F0FFFC01E000F00BF8FFF7FE
:1016B000A9FD86B2304600F0EDFCBDE8F0810000E7
:1016C0005C00002010B511A000F012FD002000F019
:1016D000F3FC002000F0F0FC002000F0E4FC00200F
:1016E00000F0E1FC002000F0DEFC002000F0DBFC5C
:1016F000002000F0D8FC002000F0D5FC002000F015
:10170000D2FC002000F0CFFC10BD0000494E564135
:101710004C4944205441534B21000000014691F8AC
:10172000342012B191F8340005E00A6B0AB1F020C0
:1017300001E091F83400704770B5742000F0BCFCF3
:1017400000250AE0064850F8254024B1012C02D0BB
:10175000204600F0A8FC681CC5B23F2DF2D970BD30
:101760007409002070B500F0EBF9044600F0F2F9BE
:10177000054603E0208800F08DFCA41C2800A5F19C
:101780000101CDB2F6D170BD70B500F0D9F90446B3
:1017900000F0E0F9054603E0206800F084FC241D19
:1017A0002800A5F10101CDB2F6D170BD70B500F0F1
:1017B000C7F9044600F0CEF9054603E0207800F0B2
:1017C0007BFC641C2800A5F10101CDB2F6D170BDEF
:1017D00010B500F0B5F9044600F0A8F9208010BD5E
:1017E00010B500F0ADF9044600F0AAF9206010BD74
:1017F00010B500F0A5F9044600F0ACF9207010BD5A
:1018000010B500F0A7F90446432C05D100F072F89A
:1018100000203749088010BD35480088002801DDC8
:101820000020F8E7542C32D00CDC322C4DD004DCF4
:10183000002C3ED0312C54D141E0342C4BD0532CD1
:101840004FD11EE0732C0AD004DC622C25D06C2C06
:1018500047D110E0742C08D0772C42D123E02046E9
:1018600000F02AFCFFF7AEFE3CE0204600F024FC2E
:10187000FFF7DAFE36E0204600F01EFCFFF75CFFC3
:1018800030E0204600F018FC00F042F82AE0204644
:1018900000F012FC00F056F824E0204600F00CFCAA
:1018A000FFF784FF1EE0204600F006FCFFF75AFF1A
:1018B00018E0204600F000FCFFF766FF12E020462B
:1018C00000F0FAFBFFF794FF0CE0204600F0F4FB79
:1018D000FFF77EFF06E0204600F0EEFBFFF780FFFB
:1018E00000E000BF00BF02480088C0B293E70000DC
:1018F000AA00002010B500F02DF904460348006846
:1019000018B1204601490968884710BDBC00002075
:1019100010B500F01FF9044624B1012C06D0022CAA
:101920000CD107E001200649087007E000200449B7
:10193000087003E002200249087000BF00BF10BD1C
:101940006C0000207047000030B585B00446684642
:1019500001F074F80C490098B0FBF1F0C5B20BA18E
:101960002046FEF768FC0A2095FBF0F03030A074AA
:101970000A2095FBF0F100FB11503030E07400209C
:10198000207505B030BD000040420F0053544D3368
:10199000324631307820287878204D487A29000066
:1019A000002070470020704710B5044600200C4905
:1019B00008700C4908600C4908700C4908700C4903
:1019C00008800C4908800C49087000F0DFF90020FD
:1019D0000A49088000F014F8204600F04BF810BDCA
:1019E0006C0000209000002096000020A70000203E
:1019F000A2000020B6000020A800002094000020D3
:101A000000B587B00020FFF74DF80F49086006AA1F
:101A10000EA10D480068FEF773FE0323002280210B
:101A20000F48CDE90323CDE901013C2300F5FE7207
:101A300000210C480093FFF7AFF906AA0AA13C2049
:101A4000FFF714FA07B000BDC000002075432F4F08
:101A5000532D56696577205369676E616C000000ED
:101A60001C180020111D000875432F4F532D566977
:101A70006577000010B586B0044600F0B1F9012189
:101A8000880300F0CBFF0121042000F0C7FF4FF4D2
:101A90000070ADF8140003208DF8160018208DF8A2
:101AA000170005A91A48FEF787FC4FF48060ADF8CF
:101AB000140004208DF8170005A91548FEF77CFCDA
:101AC00001940020ADF80800ADF80A00ADF80C0054
:101AD000ADF810000C20ADF80E0001A90D4801F082
:101AE00099F901210B4801F03AF94FF4C060FEF773
:101AF0004FFD25208DF8000000208DF80200012008
:101B00008DF803006846FEF701FD06B010BD000029
:101B100000080140003801400020024908700249D5
:101B200008707047990000209A00002070B500F0FE
:101B300011F8054600F00EF8044644EA052070BD91
:101B400070B5FFF7F3FF0446FFF7F0FF054645EADF
:101B5000044070BD044801780078401C024A1070AF
:101B60000248405C704700009A0000209C1600204C
:101B700010B5044636480068401C354908603548B1
:101B8000007806285ED2DFE800F0030B152C4050E9
:101B9000ED2C04D101202F490870FFF7BDFF55E05F
:101BA0008C2C03D102202B49087002E00020294927
:101BB00008704BE00CB9012000E00020802C01D916
:101BC000012100E00021084303D0002021490870D2
:101BD00006E0214804702148047003201D49087064
:101BE00034E0204600F050F81B48007820441A49A1
:101BF00008701A480078401E10F0FF00174908705E
:101C000002D104201349087020E0134800782044D2
:101C1000114908700846007818B905200D49087068
:101C200002E000200B49087010E08D2C06D10C4812
:101C30000088401C0A49088000F01EF80020054971
:101C4000087003E000200349087000BF00BF10BD0A
:101C50009C000020960000209800002097000020A3
:101C6000A000002010B5012240F22551014801F0EA
:101C7000ACF810BD0038014010B502480068FEF70E
:101C8000B7FF10BDC000002006490978802907D29F
:101C900004490A780978491C024B19700249885492
:101CA00070470000990000209C16002070B5FEF7D8
:101CB000B1FA054614480078401C134908702846BC
:101CC000FEF7ACFA40F22551104801F054F858B133
:101CD0000E4801F00BF9C4B22046FFF749FF40F26D
:101CE00025510A4801F02CF840F22771074801F00D
:101CF00042F830B100F0AAF840F22771034801F031
:101D00001FF8FEF755FD70BD490000200038014066
:101D100008B5002514E06A4600210A480068FEF76D
:101D2000EBFEFFF76DFD0446002C09DDFEF71CFA03
:101D30000546054804802846FEF71AFA00F098F98F
:101D4000E9E70000C0000020A200002010B5044612
:101D500000F026F860640020206410BD10B500F08B
:101D60001FF8044607480068006C06490968496C7A
:101D7000611A084403490968086403480068446418
:101D800010BD00005C0000206400002001490860D4
:101D900070470000BC00002010B500F001F810BD35
:101DA0002DE9F0410027FEF7DFF9074600F03CF887
:101DB00084B209480088201A86B207480480074880
:101DC0000068304405490860084605683846FEF753
:101DD000CFF92846BDE8F081940000209000002053
:101DE0000EB50121022000F009FE4FF6FF70ADF89C
:101DF00004000020ADF80000ADF80600ADF80200C8
:101E00006946084800F046FF0021064800F040FF00
:101E100001221102034800F038FF0121014800F0BF
:101E200025FF0EBD0004004010B5024800F02AFF57
:101E300010BD00000004004010B5044621460248D1
:101E400001F059F810BD00000038014010B573488A
:101E5000007809286FD2DFE800F00525394BB6C3BA
:101E60006F8394006E480088002803DC6D4800886A
:101E7000002810DD8C20FFF7DFFF6B480068401C56
:101E800069490860012069490870644908700020A8
:101E90006749088005E000206449087000F0D4F824
:101EA000B9E0B8E0ED20FFF7C7FF5F480068401CCD
:101EB0005D4908605A480088002803DD0220574920
:101EC000087002E0062055490870A4E054480088D4
:101ED000C0B2FFF7B1FF54480068401C5249086087
:101EE00003204E4908704E4800885249087092E01D
:101EF00051484F490988445C2046FFF79DFF4A48F6
:101F00000068401C484908604A4800782044494914
:101F1000087047480088401C4549088008460088EA
:101F20003F490988884205DB04203C4908700020AD
:101F30003B4908806FE066E03A480088401CC0B228
:101F4000FFF77AFF38480068401C374908600720CF
:101F50003249087033480088401C364908705AE0FE
:101F60004320FFF769FF30480068401C2E49086095
:101F700008202A4908702F48007843302D490870FE
:101F800049E02E482A490988445C2046FFF754FF5F
:101F900025480068401C24490860264800782044F1
:101FA0002449087022480088401C80B220490880DB
:101FB0001C490988884205DB042018490870002064
:101FC0001849088027E01B480078FFF735FF1648BE
:101FD0000068401C144908600520104908701AE088
:101FE0008D20FFF729FF10480068401C0E4908604B
:101FF00000200A4908701249088012480088401CD5
:102000001049088007E0002004490870074908705B
:1020100000F01AF800BF00BF10BD0000A7000020AC
:10202000A2000020B6000020B0000020A800002080
:10203000A4000020A60000201C1700209C170020F0
:10204000AA000020B400002010B5002240F2277141
:10205000014800F0BAFE10BD0038014010B5012261
:1020600040F22771014800F0B0FE10BD0038014079
:1020700010B50024FEF778F804460548007818B932
:10208000FFF7E4FEFFF7EAFF2046FEF771F810BD08
:10209000A800002010B50446201200F00DF8E0B2B0
:1020A00000F00AF810BD10B50446200CFFF7F2FF4F
:1020B000A0B2FFF7EFFF10BD06490988802907D2BB
:1020C00004490A880988491C024B1980024988542E
:1020D00070470000AA0000201C17002070B50446BD
:1020E0002546280CFFF7D6FFA8B2FFF7D3FF70BD37
:1020F0002DE9F041054600272C4634B102E0641C6E
:10210000781CC7B220780028F9D13846FFF7D4FFF1
:102110002C46002605E02078FFF7CEFF641C701CDB
:10212000C6B2BE42F7DBBDE8F081000070B50546DF
:102130000E46284600F032FB0446802C02D37F2452
:10214000002028551648008800281BDD002E25DDBC
:1021500007E014480088401C124908803046FEF70A
:10216000CFFF0F4800880028F3DC0D480480294683
:102170000D48FEF760F80A48008800280EDDFFF7DA
:1021800077FF0BE00648048029460748FEF753F81E
:1021900003480088002801DDFFF76AFF70BD0000DA
:1021A000B6000020B80000209C17002015490968DF
:1021B0006422B1FBF2F0B0F1807F01D301211CE079
:1021C00020F07F41491E4FF0E022516100BF5117BE
:1021D000002905DA0F2109010B4A0B23D15404E031
:1021E0000F210901094A5317D15400BF00214FF0B4
:1021F000E022916107211161002109B100BFFEE7D2
:10220000704700001800002018ED00E000E400E036
:102210002DE9F04F05460F4690469946A87A1F498A
:102220000E5C05F10B00805D11F800B00BEBC600F1
:1022300000F0FF0A1A4850F82A40002004F1240454
:10224000E0602760207C6FEA0801C9B200EA010063
:10225000207484F81190207CA4F1240410F0080F5D
:102260000DD194F83A000F49097808430D490870D8
:102270000D48805D94F8391008430B49885529466C
:10228000204600F013F8206A20B12046216A00F0B1
:1022900026F8E5615046BDE8F08F0000D034000814
:1022A000740900204D0000204E00002010B590F869
:1022B000382001F10B039B5C90F83940E443E4B211
:1022C000234001F10B04A35423469B5C33B98B7A62
:1022D00090F83A40E443E4B223408B7210BDF0B56D
:1022E000024612F8384F95785678A2F138020B461C
:1022F000186819E000F10B073F5D6FEA060C0CF05F
:10230000FF0C07EA0C0700F10B0C0CF80470674691
:102310003F5D3FB9877A6FEA050C0CF0FF0C07EAC6
:102320000C0787721B1D18680028E3D1F0BD000060
:1023300010B51D4A1268D0611B4A126892F83830F5
:1023400000F10B02D25C184B1B6893F839301A432A
:10235000154B1B6893F8384000F10B031A55827A2D
:10236000114B1B6893F83A301A4382720E4A126876
:1023700092F838100D4A525C0B4B1B6893F83930B9
:10238000DB43DBB21A40094B5A541A46525C52B92D
:10239000054A126892F83A20D243D2B2044B1B7815
:1023A0001A40034B1A7010BD5C0000204E00002044
:1023B0004D000020014600228A72002005E0002323
:1023C00001F10B021354421CD0B20828F7D3704716
:1023D0002DE9F0415021114800F032F900250DE0BF
:1023E000681C86B20D4800EB051400EB06170020B0
:1023F000207067600AA0E060681C85B2042DEFD3EE
:10240000064800EB051400202070606004A0E06026
:10241000024804490860BDE8F0810000A4070020DC
:102420003F0000003800002070B54FF4F0711348F1
:1024300000F006F9002411E0601C85B204EB4400B2
:102440000E4901EBC00305EB450001EBC00600207F
:1024500018705E600AA05861601C84B2132CEBD324
:1024600004EB4400054901EBC003002018705860DC
:1024700003A0586108460349086070BDC4050020E8
:102480003F0000003400002000200A4908600A498B
:1024900008700A4908700A4908700A4908700A4910
:1024A00008600A4908600A4908600A4908600A4940
:1024B0000870704778000020490000204A00002082
:1024C0005700002056000020300000205800002057
:1024D00044000020400000204800002000210A4A5B
:1024E0001170002004E00021084A1154411CC8B2B8
:1024F0000828F8D30021064A1170064A1170064ACE
:102500001160064A116070474D0000204E00002007
:102510004B0000204C000020640000205C000020E4
:1025200070B54FF4F261194800F08AF84FF48071E9
:10253000174800F085F8002413E0601CC5B204EBD6
:10254000440000EBC400114901EBC00305EB45005A
:1025500000EBC50001EBC0065E610EA01865601CB3
:10256000C4B2152CE9D304EB440000EBC4000749C6
:1025700001EBC0030020586106A018650020064941
:10258000086002480549086070BD0000740A002018
:10259000740900203F000000680000206000002057
:1025A00000B587B00323002220210B48CDE9032387
:1025B000CDE901014FF6FF7300933F2300F17C0248
:1025C00000210648FEF7E8FB06AA05A13F20FEF71A
:1025D0004DFC07B000BD0000F4080020F5280008FD
:1025E00075432F4F532D49492049646C6500000005
:1025F00000B587B00323002240210B48CDE9032317
:10260000CDE901014FF6FE7300933E2300F1FC0279
:1026100000210648FEF7C0FB06AA05A13E20FEF7F2
:1026200025FC07B000BD0000F40700201D290008AC
:1026300075432F4F532D4949205374617400000096
:1026400004E0002200F8012B4A1E91B20029F8D1C3
:102650007047000070B578211148FFF7F1FF0024A2
:102660000EE004EB44000E4901EBC005601C00EBDA
:10267000400001EBC00068600AA06861601C84B281
:10268000042CEED304EB4400054901EBC005002007
:10269000686004A0686108460349086070BD0000D6
:1026A000041200203F000000700000202DE9F041DE
:1026B00060211048FFF7C4FF00240DE0601C86B2C3
:1026C00004EB44000B4901EBC00506EB460001EBAF
:1026D000C0072F60601C84B2032CEFD304EB4400CE
:1026E000044901EBC0050020286008460249086043
:1026F000BDE8F0817C1200207400002010B5002499
:10270000FDF732FD044613480078F8B91248007806
:10271000E0B900F02DF811481149097850F821006E
:10272000104908600E4800780F49097888420DD09A
:102730000C480068C06B401C0A490968C8630B4814
:102740000068401C09490860FDF725FD2046FDF79B
:102750000FFD10BD490000204A0000207409002030
:102760004C000020640000204B00002030000020BE
:102770000649074A1278885C0649095C034A515C9D
:1027800001EBC001044A117070470000D03400080A
:102790004D0000204E0000204C000020014600208B
:1027A00002E0491C421CD0B20A78002AF9D17047D5
:1027B0002DE9F84F05460F4690469946DDE90AABEC
:1027C00000200090FDF7D0FC009043480468002CE6
:1027D0007CD004F11C0454F8080C3F4908600098B0
:1027E000FDF7C6FC44F81C7CA576002020766076B8
:1027F000606144F818BC44F810AC44F8148C0C9890
:1028000024F80C0C24F80A9C0020E077E8102077CC
:1028100005F00700E076217F01208840A077E17E67
:10282000012088406077002020606060E060A06048
:102830002062A0626062E062206328A06063A4F16D
:102840001C044FF0000606E0002104F1540040F89B
:102850002610701CC6B2002EF6D02046FEF742FAB3
:102860002046FEF7F9FAFDF77FFC00901C4840F87F
:1028700025401C48006860610020A061194800687C
:1028800010B11848006884611648046004F13804E7
:10289000A0781549097840EA0100134908702078AA
:1028A0001249085C617840EA010014F838190F4AAF
:1028B00050540F48007800F101000D49087000984D
:1028C000FDF756FC0020BDE8F88FFFE70098FDF704
:1028D0004FFC4220F7E70000600000203F000000AE
:1028E00074090020680000204D0000204E000020E8
:1028F00057000020002400BF00BFFDF735FC044650
:1029000005480068401C044908602046FDF730FC7B
:10291000FEF7A8FAF1E7000058000020002400BFED
:1029200002E01420FEF7ECFB194800780028F8D0EC
:10293000184800686421B0FBF1F0164908600846A9
:10294000006828B9002014490870FF20FEF772FBC8
:1029500000BFFDF709FC04461048006810490860F4
:1029600000200E4908602046FDF702FC0C48006874
:1029700008490968B0FBF1F0C0F16400064908702D
:10298000FEF7B6FA00F00EF80A20FEF7B9FBE0E712
:1029900048000020400000203C000020580000209B
:1029A000440000207CB5002514E069462846FEF767
:1029B000A3FA064666B9094850F8254044B1012CEF
:1029C00006D0D4E9020100EB8100A0640198E06424
:1029D000681CC5B23F2DE8D97CBD000074090020F9
:1029E00012F0010F08D012F0020F05D002E0491ECC
:1029F000002308C00029FAD17047000029B1064A17
:102A0000D2690243044BDA6104E0034AD26982438B
:102A1000014BDA61704700000010024029B1064AFC
:102A200092690243044B9A6104E0034A926982432B
:102A3000014B9A61704700000010024030B5002140
:102A40000022002400232D4D6D6805F00C0121B1FA
:102A5000042905D0082923D105E0294D056022E08D
:102A6000274D05601FE0254D6D6805F47012234D5C
:102A70006D6805F48034022505EB92421CB9214DA6
:102A8000554305600BE01D4D6D6815F4003F03D004
:102A90001C4D5543056002E0194D5543056002E0A9
:102AA000174D056000BF00BF144D6D6805F0F001C3
:102AB0000909154D6B5C0568DD4045600F4D6D687B
:102AC00005F4E061090A104D6B5C4568DD408560E6
:102AD0000A4D6D6805F46051C90A0B4D6B5C456881
:102AE000DD40C560054D6D6805F44041890B074D1B
:102AF0006B5CC568B5FBF3F5056130BD00100240A5
:102B000000127A0000093D0004000020140000209B
:102B1000704710B500F002F810BD00000021002041
:102B20002E4A126842F480322C4B1A6000BF2B4AA6
:102B3000126802F40030491C10B9B1F5A06FF6D14B
:102B4000264A126812F4003F01D0012000E0002064
:102B5000012842D1224A126842F01002204B1A602A
:102B60001A46126822F003021A601A46126842F0EE
:102B700002021A60194A5268184B5A601A46526883
:102B80005A601A46526842F480625A601A46526885
:102B900022F47C125A601A46526842F4E8125A60D3
:102BA0001A46126842F080721A6000BF0B4A12681F
:102BB00012F0007FFAD0094A526822F00302074B54
:102BC0005A601A46526842F002025A6000BF034A35
:102BD000526802F00C02082AF9D170470010024036
:102BE0000020024010B5FDF7BFFA04460648007801
:102BF000401C054908702046FDF7BAFAFEF710FBA5
:102C0000FDF7D6FD10BD00004900002010B51348A7
:102C1000006840F00100114908600846406810490A
:102C200008400E494860084600680E4908400B49B4
:102C300008600846006820F4802008600846406864
:102C400020F4FE0048604FF41F008860FFF761FF2A
:102C50004FF000600449086010BD00000010024001
:102C60000000FFF8FFFFF6FE08ED00E021B102884A
:102C700042F00102028004E002884FF6FE731A401F
:102C8000028070470146888C7047018582827047B8
:102C900081847047002202881D4B98420ED01D4B44
:102CA00098420BD0B0F1804F08D01B4B984205D012
:102CB0001A4B984202D01A4B984204D14FF68F73A8
:102CC0001A404B881A43174B984207D0164B98422C
:102CD00004D04FF6FF431A40CB881A4302808B88FA
:102CE00083850B8803850A4B98420BD0094B984289
:102CF00008D00E4B984205D00D4B984202D00D4B98
:102D0000984201D10B7A0386012383827047000029
:102D1000002C014000340140000400400008004045
:102D2000000C004000100040001400400040014032
:102D3000004401400048014010B5FEF7B7FF10BD48
:102D400010B500220023A1F510646A3C00D100BF39
:102D50000A1201249440A3B2DC43048010BD21B1C7
:102D6000828942F40052828104E082894DF6FF7329
:102D70001A408281704770B5024600240023002566
:102D80000020A1F510666A3E00D100BFC1F34215D4
:102D900001F01F03012606FA03F3012D02D19689E3
:102DA000334006E0022D02D1168A334001E0968AB4
:102DB00033400C12012606FA04F41688344013B18D
:102DC0000CB1012000E0002070BDF0B503460024E6
:102DD000002600250020A1F510676A3F00D100BF42
:102DE0001846C1F3421401F01F06012707FA06F541
:102DF000012C01D10C3004E0022C01D1103000E094
:102E000014301AB107682F43076002E00768AF4328
:102E10000760F0BD2DE9F04786B005460E46002458
:102E2000A24600BFA1460027B08900B100BF2F46CF
:102E30002C8A4CF6FF700440F08804432C82AC8945
:102E40004EF6F3100440B088318908437189084375
:102E50000443AC81AC8A4FF6FF400440B089044380
:102E6000AC8201A8FFF7EAFD1F48874202D1DDF8D6
:102E700010A001E0DDF80CA0A88910F4004F08D0E4
:102E80000AEBCA0000EB0A1031684900B0FBF1F808
:102E900007E00AEBCA0000EB0A1031688900B0FBBA
:102EA000F1F86420B8FBF0F004012009642101FB73
:102EB0001089A88910F4004F08D0322000EBC90017
:102EC000B0FBF1F000F00700044308E0322000EB13
:102ED00009106421B0FBF1F000F00F0004432C81D5
:102EE00006B0BDE8F0870000003801400146888840
:102EF000C0F308007047C1F308028280704700BF2A
:102F0000FEE700000FB4084B10B504A902AA03980D
:102F100000F01CF8044602A9002000F0BBF920468E
:102F200010BC5DF814FB00009532000802E008C8F0
:102F3000121F08C1002AFAD170477047002001E033
:102F400001C1121F002AFBD1704700002DE9FF4F7D
:102F50008DB005468846002667E125287AD10024F1
:102F60006D1CB64AA146A34601212B78203B01FAED
:102F700003F0104202D004436D1CF6E728782A289B
:102F800010D06FF02F022878A0F13001092915D850
:102F900009EB890102EB410144F0020400EB010955
:102FA0006D1CF0E758F8049BB9F1000103DA44F412
:102FB0000054C1F1000944F002046D1C28782E2849
:102FC00017D115F8010F44F004042A280ED06FF031
:102FD0002F022878A0F1300109290AD80BEB8B01C8
:102FE00002EB410100EB010B6D1CF2E758F804BB4A
:102FF0006D1C28786C280FD006DC4C2817D0682868
:103000000DD06A2814D104E0742810D07A280FD18A
:103010000DE044F400140AE044F4801401E044F4A8
:1030200040146978814202D16D1C04F580146D1C36
:103030002878692866D007DC002875D0632828D056
:10304000642807D15EE005E06E2808D073282AD0F6
:1030500075287AD0DDE90F129047761CE4E0C4F3BE
:103060000250022809D003280DD0D8F800100428F7
:103070000DD00E6008F10408D6E0D8F80010F21761
:10308000C1E90062F6E7D8F800100E80F2E70E7092
:10309000F0E758F8041B8DF8001000208DF80100AF
:1030A000EA46012003E058F804AB4FF0FF30610717
:1030B0004FF0000701D40AE07F1C5F450DDA87421C
:1030C000FADB1AF807100029F6D106E07F1C8742C8
:1030D000FCDB1AF807100029F8D1DDE90F23A9EB72
:1030E00007008146214600F0BEF83044C61904E0CE
:1030F000DDE90F121AF8010B90477F1EF8D2214626
:1031000048468CE00A2758F8040BC4F302510329FF
:1031100000D100B2042900D140B2002806DAC0F183
:1031200000004FF02D0104E083E00EE0210504D5FE
:103130002B218DF82C10012103E0E10710D0202174
:10314000F7E70DF1200A099113E00A2758F8040B5C
:10315000C4F30251032900D180B2042900D1C0B2C6
:103160000021EEE73946FDF76FF801F130020AF869
:10317000012D0028F6D1ADEB0A0000F120000890E7
:10318000600702D524F4803401E04FF0010B089A67
:1031900000205946934501DDA1EB0200834600EB78
:1031A000020109980144A9EB01000A90E00306D44A
:1031B000DDE90F2321460A9800F055F80644002760
:1031C0000DF12C0906E0DDE90F1219F80700904710
:1031D000761C7F1C09988742F5DBE0030CD5DDE9FE
:1031E0000F2321460A9800F03EF8064404E0DDE98A
:1031F0000F1230209047761CBBF10001ABF1010BA0
:10320000F5DC05E0DDE90F121AF8010B9047761C9A
:103210000899481E08900029F4DC0A982146DDE947
:103220000F2300F00DF806446D1C287800287FF469
:1032300094AE11B03046BDE8F08F000009280100BF
:103240002DE9F0410446002517461E46880405D4A2
:1032500006E039462020B04705F10105641EF8D587
:103260002846BDE8F0812DE9F041044600253027CD
:1032700090461E46C80300D42027880405D506E0E2
:1032800041463846B04705F10105641EF8D5284689
:10329000BDE8F0810A68531C0B6010707047000095
:1032A00000B587B09DF818000690FCF7AFFFFDF75A
:1032B0005BFA0323002240210B48CDE9032300F1F0
:1032C000FC02CDE90030029100210848FDF764FDC1
:1032D000069006AA06A10320FDF7C8FDFDF7B8FC7D
:1032E000002007B000BD0000C400002085030008D6
:1032F0005374617274205461736B0000FDF7ECF835
:1033000000BF40211748FDF7E2F880211548FDF77E
:10331000DEF84FF480711348FDF7D9F84FF40071CF
:103320001048FDF7D4F86423002211461046FDF73B
:1033300027FF40210B48FDF7C8F880210948FDF719
:10334000C4F84FF480710748FDF7BFF84FF40071DF
:103350000448FDF7BAF86423002211461046FDF731
:103360000FFFCEE7001C01409AB000211CA0FEF721
:10337000DDFE34E06A4600211F480068FDF78AFA46
:1033800004462078312802D0322816D10AE01B48A2
:1033900002781BA101A8FFF7B5FD012101A8FEF7E6
:1033A000C5FE1BE01B4802781BA101A8FFF7AAFD80
:1033B000012101A8FEF7BAFE10E001211BA0FEF7D3
:1033C000B5FE01211DA0FEF7B1FE012120A0FEF7F0
:1033D000ADFE012102A0FEF7A9FE00BF00BFC9E7B4
:1033E0000A3F3A2048656C70202854686973206D44
:1033F000656E75290A000000000000203C000020D6
:103400000A435055205573616765203D202533756B
:1034100025250A00570000200A235461736B73208E
:103420002020203D202533750A0000000A0A4D693E
:10343000637269756D2C20496E632E000A313A2043
:1034400043505520557361676520282529000000E9
:103450000A323A20235461736B73000001000000AC
:10346000785634120100140001001800E001010038
:103470000100100014000200050001003F000100DF
:10348000010005000100180078000100040001009F
:103490000400180008000100040001000100010000
:1034A00020000100160001000100400001000100A1
:1034B00001004000580064000100230101001000D9
:1034C000010008000A0028008002080040003211B4
:1034D00000000100020001000300010002000100E1
:1034E00004000100020001000300010002000100CD
:1034F00005000100020001000300010002000100BC
:1035000004000100020001000300010002000100AC
:10351000060001000200010003000100020001009A
:10352000040001000200010003000100020001008C
:10353000050001000200010003000100020001007B
:10354000040001000200010003000100020001006C
:103550000700010002000100030001000200010059
:10356000040001000200010003000100020001004C
:10357000050001000200010003000100020001003B
:10358000040001000200010003000100020001002C
:10359000060001000200010003000100020001001A
:1035A000040001000200010003000100020001000C
:1035B00005000100020001000300010002000100FB
:1035C00004000100020001000300010002000100EC
:1035D000F035000800000020C40000002C2F000877
:1035E000B4360008C40000205C1D00003C2F000819
:1035F00000000000000000000102030401020304B7
:10360000060708090204060800A24A040000000098
:103610000000000001020304060708090000000082
:10362000000000000000000000000000000000009A
:10363000000000000000000000000000000000008A
:10364000000000000000000000000000000000007A
:10365000000000000000000000000000000000006A
:10366000000000000000000000000000000000005A
:10367000000000000000000000000000000000004A
:10368000000000000000000000000000000000003A
:10369000000000000000000000000000000000002A
:1036A000000000000000000000000000000000001A
:0436B0000000000016
:0400000508000131BD
:00000001FF
