:020000040800F2
:10000000A0060020450100086506000867060008F4
:100010006B0600086F060008730600080000000069
:10002000000000000000000000000000770600084B
:1000300079060008000000007B0600087D06000825
:100040005F0100085F0100085F0100085F01000810
:100050005F0100085F0100085F0100085F01000800
:100060005F0100085F0100085F0100085F010008F0
:100070005F0100085F0100085F0100085F010008E0
:100080005F0100085F0100085F0100085F010008D0
:100090005F0100085F0100085F0100085F010008C0
:1000A0005F0100085F0100085F0100085F010008B0
:1000B0005F0100085F0100085F0100085F010008A0
:1000C0005F0100085F0100085F0100085F01000890
:1000D0005F0100085F0100085F0100085F01000880
:1000E0005F0100085F0100085F0100085F01000870
:1000F0005F0100085F0100085F0100085F01000860
:100100005F0100085F0100085F0100085F0100084F
:100110005F0100085F0100085F0100085F0100083F
:100120005F0100085F0100085F0100085F0100082F
:10013000DFF80CD001F0FCFD0048004797010008F3
:10014000A00600200648804706480047FEE7FEE775
:10015000FEE7FEE7FEE7FEE7FEE7FEE7FEE7FEE777
:10016000CD1B00083101000810B5034607E01878E0
:100170000C78A04201D0002010BD5B1C491C10006F
:10018000A2F10104A2B2F2D10120F5E700E0401E85
:100190000028FCD1704700F073FA8CA001F02AFE11
:1001A00000F06EFB00F03AFD8F490860C820FFF7B1
:1001B000EDFF00F00EFD8D4908608B48026808468F
:1001C00001688BA001F016FE8848006896498842B5
:1001D0002CD196A001F00EFE002000F0E5FB40F2CD
:1001E000331200219A4800F03DFC994999A001F092
:1001F00001FE40F2331200219C4800F0C4FC9449F7
:100200009BA001F0F7FD40F2331298499048FFF7A8
:10021000ABFF9D49087008460078012803D19BA0D8
:1002200001F0E8FD02E0A1A001F0E4FD6F480068E4
:100230007D49891E88422CD1A4A001F0DBFD00205D
:1002400000F0B2FB40F233120021814800F00AFCBA
:100250007F4980A001F0CEFD40F233120021834897
:1002600000F091FC7A4982A001F0C4FD40F2331203
:100270007E497748FFF778FF834908700846007881
:10028000012803D19AA001F0B5FD02E0A0A001F081
:10029000B1FD564800686449491E88422CD1A4A08B
:1002A00001F0A8FD002000F07FFB40F23312002196
:1002B000674800F0D7FB664966A001F09BFD40F25D
:1002C00033120021694800F05EFC614968A001F02A
:1002D00091FD40F2331265495D48FFF745FF6A49D9
:1002E000087008460078012803D19AA001F082FD29
:1002F00002E0A0A001F07EFD3C4800684A49491C8C
:1003000088422CD1A3A001F075FD002000F04CFB29
:1003100040F2331200214E4800F0A4FB4C494DA09E
:1003200001F068FD40F233120021504800F02BFC30
:1003300047494FA001F05EFD40F233124B4944485B
:10034000FFF712FF5049087008460078012803D1D2
:1003500099A001F04FFD02E09FA001F04BFD234862
:1003600000683149C91C88422CD1A3A001F042FD8C
:10037000002000F019FB40F233120021344800F055
:1003800071FB334933A001F035FD40F233120021F7
:10039000364800F0F8FB2E4935A001F02BFD40F265
:1003A000331232492A48FFF7DFFE37490870084602
:1003B0000078012803D199A001F01CFD02E0A0A063
:1003C00001F018FD00F07CFC00BFFEE70D0A20D50F
:1003D000E2CAC7D2BBB8F6B4AED0D0666C6173685F
:1003E000CAB5D1E9200D0A003401002038010020EF
:1003F0000D0A20466C617368494420697320307887
:1004000025582C20204D616E756661637475726588
:100410007220446576696365204944206973203001
:100420007825580D0A0000001540EF000D0A20BC89
:10043000ECB2E2B5BDBBAAB0EEB4AED0D0666C6192
:1004400073682057323551313620210D0A000000E3
:10045000000000200D0A20D0B4C8EBB5C4CAFDBE10
:10046000DDCEAAA3BA2573200D0900006C0100207F
:100470000D0A20B6C1B3F6B5C4CAFDBEDDCEAAA32F
:10048000BA2573200D0A00003C0100200D0A20B49B
:10049000AED0D0666C617368285732355131362939
:1004A000B2E2CAD4B3C9B9A6210A0D000D0A20B41C
:1004B000AED0D0666C617368285732355131362919
:1004C000B2E2CAD4CAA7B0DC210A0D000D0A20BCD2
:1004D000ECB2E2B5BDBBAAB0EEB4AED0D0666C61F2
:1004E00073682057323551343020210D0A00000046
:1004F0000D0A20B4AED0D0666C61736828573235CF
:1005000051343029B2E2CAD4B3C9B9A6210A0D00C8
:100510000D0A20B4AED0D0666C61736828573235AE
:1005200051343029B2E2CAD4CAA7B0DC210A0D0086
:100530000D0A20BCECB2E2B5BDBBAAB0EEB4AED0A1
:10054000D0666C6173682057323551383020210DE8
:100550000A0000000D0A20B4AED0D0666C6173684A
:100560002857323551383029B2E2CAD4B3C9B9A6B6
:10057000210A0D000D0A20B4AED0D0666C617368FC
:100580002857323551383029B2E2CAD4CAA7B0DC74
:10059000210A0D000D0A20BCECB2E2B5BDBBAAB029
:1005A000EEB4AED0D0666C617368205732355133EB
:1005B0003220210D0A0000000D0A20B4AED0D06612
:1005C0006C6173682857323551333229B2E2CAD48C
:1005D000B3C9B9A6210A0D000D0A20B4AED0D06669
:1005E0006C6173682857323551333229B2E2CAD46C
:1005F000CAA7B0DC210A0D000D0A20BCECB2E2B59E
:10060000BDBBAAB0EEB4AED0D0666C6173682057A3
:1006100032355131323820210D0A00000D0A20B444
:10062000AED0D0666C61736828573235513132389C
:1006300029B2E2CAD4B3C9B9A6210A0D000000004C
:100640000D0A20B4AED0D0666C617368285732357D
:100650005131323829B2E2CAD4CAA7B0DC210A0D1E
:1006600000000000704700BFFEE700BFFEE700BFCC
:10067000FEE700BFFEE77047704770477047000015
:1006800000B585B0012144F2040000F09DFC4FF458
:100690000070ADF8100018208DF8130003208DF8BD
:1006A000120004A9744800F057FD4FF48060ADF8C3
:1006B000100004208DF8130004A96F4800F04CFDD1
:1006C0004FF4E13000900020ADF80400ADF80600D2
:1006D000ADF80800ADF80C000C20ADF80A00694632
:1006E000664800F0C8FE0121644800F050FF05B0E4
:1006F00000BD70B504460D46E1B2604800F0B4FF9D
:1007000000BF5E48008810F0800FFAD0204670BD10
:10071000F0B503460D461646002729460A2E03D09B
:10072000002008702846F0BD33B9302001F8010BD5
:10073000002008702846F6E7002B03DA2D2001F888
:10074000010B5B4242F210720DE093FBF2F404B92C
:1007500037B104F1300001F8010B04FB123301271B
:100760000A2092FBF0F2002AEFDC002008702846F5
:10077000D9E70FB470B586B006460CA8019073E0B7
:100780000B9800785C281CD10B98401C0B900078CB
:100790006E2809D072280FD10D21304600F064FF79
:1007A0000B98401C0B900BE00A21304600F05CFFD8
:1007B0000B98401C0B9003E00B98401C0B9000BF63
:1007C0004BE00B980078252840D10B98401C0B90EB
:1007D0000078642818D0732833D1019810C801908C
:1007E0000BE02178304600F03FFF00BF402130464B
:1007F00000F0A8FF0028F9D0641C20780028F0D170
:100800000B98401C0B9020E0019820C801900A2210
:1008100002A92846FFF77CFF02AC0BE021783046A6
:1008200000F022FF00BF4021304600F08BFF00287F
:10083000F9D0641C20780028F0D10B98401C0B9054
:1008400003E00B98401C0B9000BF06E00B9810F8DB
:10085000011B0B90304600F007FF00BF40213046DF
:1008600000F070FF0028F9D00B980078002887D19D
:1008700006B070BC5DF814FB000801400038014070
:1008800000B587B00121242000F09EFB0121080360
:1008900000F09AFB2020ADF8040003208DF806003C
:1008A00018208DF8070001A9F74800F055FC4020FA
:1008B000ADF8040001A9F44800F04EFC8020ADF82A
:1008C000040001A9F04800F047FC1020ADF8040036
:1008D0008DF8070001A9EC4800F03EFC1021EA4821
:1008E00000F0E5FC0020ADF808004FF48270ADF890
:1008F0000A000020ADF80C000220ADF80E00012027
:10090000ADF810004002ADF812000820ADF8140058
:100910000020ADF816000720ADF8180002A9DB484A
:1009200000F090FF0121D94801F031F807B000BD77
:1009300010B5044600BF0221D44801F0ACF80028ED
:10094000F9D02146D14801F053F800BF0121CF482A
:1009500001F0A1F80028F9D0CC4801F04BF8C0B262
:1009600010BD10B500241021C74800F0A2FC0520DE
:10097000FFF7DEFF00BFFF20FFF7DAFF044614F0A9
:10098000010FF8D11021C04800F091FC10BD10B546
:100990001021BD4800F08DFC0620FFF7C9FF102193
:1009A000B94800F084FC10BD10B50446FFF7EFFF16
:1009B000FFF7D7FF1021B44800F07BFC2020FFF7A1
:1009C000B7FFC4F30740FFF7B3FFC4F30720FFF7F7
:1009D000AFFFE0B2FFF7ACFF1021AB4800F067FCBF
:1009E000FFF7BFFF10BD10B5FFF7D1FF1021A648DC
:1009F00000F05FFCC720FFF79BFF1021A24800F02A
:100A000056FCFFF7AEFF10BD70B505460C46164606
:100A1000FFF7BDFF10219C4800F04BFC0220FFF7C0
:100A200087FFC4F30740FFF783FFC4F30720FFF7F6
:100A30007FFFE0B2FFF77CFFB6F5807F01DD4FF46A
:100A4000807603E02878FFF773FF6D1C3000A6F175
:100A500001018EB2F6D110218B4800F028FCFFF77F
:100A600080FF70BD2DE9F05F07460E4614464FF03B
:100A70000008C146C2460025AB4606F0FF0ACAF18F
:100A80000000C5B22046E11704EB1161C1F307284D
:100A9000E11704EB11610912A4EB012101F0FF0938
:100AA000BAF1000F20D1B8F1000F05D1224631462E
:100AB0003846FFF7A9FF64E009E04FF48072314641
:100AC0003846FFF7A1FF06F5807607F580775FEAE5
:100AD0000800A8F1010101F0FF08EED14A463146B5
:100AE0003846FFF791FF4CE0B8F1000F18D1A94547
:100AF00010DDA9EB050000F0FF0B2A463146384611
:100B0000FFF782FF2E442F445A4631463846FFF7FE
:100B10007BFF36E0224631463846FFF775FF30E06E
:100B2000601B84B22046E11704EB1161C1F3072872
:100B3000E11704EB11610912A4EB012101F0FF0997
:100B40002A4631463846FFF75FFF2E442F4409E01E
:100B50004FF4807231463846FFF756FF06F580762F
:100B600007F580775FEA0800A8F1010101F0FF08AE
:100B7000EED1B9F1000F04D04A4631463846FFF7AE
:100B800043FFBDE8F09F70B505460C4616461021A0
:100B90003D4800F08EFB0320FFF7CAFEC4F3074078
:100BA000FFF7C6FEC4F30720FFF7C2FEE0B2FFF76F
:100BB000BFFE04E0FF20FFF7BBFE28706D1C300075
:100BC000A6F101018EB2F5D110212F4800F06FFB84
:100BD00070BD2DE9F04100240025002600271021DA
:100BE000294800F066FB9F20FFF7A2FEFF20FFF7D9
:100BF0009FFE0546FF20FFF79BFE0646FF20FFF7FE
:100C000097FE07461021204800F051FB280440EAD7
:100C1000062040EA07042046BDE8F08110B5002414
:100C20001021194800F045FBAB20FFF781FEFF20A3
:100C3000FFF77EFEFF20FFF77BFEFF20FFF778FE29
:100C4000FF20FFF775FE044610210F4800F02FFB30
:100C5000204610BD10B5044610210B4800F029FBBA
:100C60000320FFF765FEC4F30740FFF761FEC4F3FE
:100C70000720FFF75DFEE0B2FFF75AFE10BD10B58A
:100C8000FF20FFF755FE10BD000801400030014075
:100C900010B5044600BF0221164800F0FCFE0028F3
:100CA000F9D02146134800F0A3FE00BF01211148EE
:100CB00000F0F1FE0028F9D00E4800F09BFE10BDB8
:100CC00010B510210C4800F0F4FAB920FFF730FEFF
:100CD0001021094800F0EBFA10BD10B510210648AC
:100CE00000F0E7FAAB20FFF723FE1021024800F0E6
:100CF000DEFA10BD0030014000080140DB4800680A
:100D000040F00100D949086008464068D8490840C9
:100D1000D649486008460068D6490840D34908606B
:100D20000846006820F4802008600846406820F4E7
:100D3000FE0048604FF41F0088607047CB49096887
:100D400021F48031C94A11601146096821F48021DB
:100D50001160B0F5803F03D0B0F5802F0ED106E0D2
:100D6000C249096841F48031C04A116007E0BF49B7
:100D7000096841F4A021BD4A116000E000BF00BF36
:100D8000704710B501460022002300204A11012AB5
:100D900002D1B64C236806E0022A02D1B34C236A82
:100DA00001E0B24C636A01F01F02012494401C422E
:100DB00001D0012000E0002010BD70B50024002506
:100DC000002600BF3120FFF7DCFF0646641CB4F5A7
:100DD000A06F01D0002EF5D03120FFF7D2FF08B16F
:100DE000012500E00025284670BD014600209F4AED
:100DF000106820F0F80040EAC100106070479E497A
:100E00000860704702460020984B586820F47C1018
:100E100042EA01031843954B5860704796490866AB
:100E2000704701460020914A506820F003000843B3
:100E3000506070478D48406800F00C0070470146D4
:100E400000208A4A506820F0F00008435060704744
:100E500001460020854A506820F4E0600843506055
:100E6000704701460020814A506820F4605040EAF3
:100E7000C1005060704729B17C4A527A02437B4BD3
:100E80005A7204E0794A527A8243784B5A72704718
:100E90007A490860704701460020744A506820F47F
:100EA00040400843506070470021754A11706F4AF6
:100EB00082F82010012802D0042808D103E0012183
:100EC0006F4A117004E005216D4A117000E000BF07
:100ED00000BF70476B49086070476449096A014365
:100EE000624A11627047674944390860704730B5FB
:100EF00000210022002400235C4D6D6805F00C01E8
:100F000021B1042905D0082923D105E05E4D0560F3
:100F100022E05D4D05601FE0544D6D6805F47012D0
:100F2000524D6D6805F48034022505EB92421CB9E0
:100F3000564D554305600BE04C4D6D6815F4003F70
:100F400003D0524D5543056002E04F4D55430560B7
:100F500002E04D4D056000BF00BF444D6D6805F0D7
:100F6000F00109094A4D6B5C0568DD4045603F4D65
:100F70006D6805F4E061090A454D6B5C4568DD402C
:100F800085603A4D6D6805F46051C90A404D6B5C4F
:100F90004568DD40C560354D6D6805F44041890BFD
:100FA0003C4D6B5CC568B5FBF3F5056130BD29B1FF
:100FB0002E4A526902432D4B5A6104E02B4A526972
:100FC00082432A4B5A61704729B1284A92690243E9
:100FD000264B9A6104E0254A92698243234B9A6129
:100FE000704729B1214AD2690243204BDA6104E0FB
:100FF0001E4AD26982431D4BDA61704729B11B4AF0
:10100000D2680243194BDA6004E0184AD26882437E
:10101000164BDA60704729B1144A12690243134B28
:101020001A6104E0114A12698243104B1A61704739
:1010300014494039086070470F49C86470470B492C
:10104000C87170470948406A40F08070074948629B
:10105000704701460020054A92680A4201D00120EB
:1010600000E000207047014988727047001002407C
:101070000000FFF8FFFFF6FE00004242D8004242A7
:10108000201002408004424200127A0000093D0014
:101090003D0100204D01002010B50446CA4884429D
:1010A00008D101210420FFF7A9FF00210420FFF748
:1010B000A5FF46E0C548844208D101210820FFF77A
:1010C0009DFF00210820FFF799FF3AE0C0488442C5
:1010D00008D101211020FFF791FF00211020FFF718
:1010E0008DFF2EE0BB48844208D101212020FFF76C
:1010F00085FF00212020FFF781FF22E0B6488442CF
:1011000008D101214020FFF779FF00214020FFF79F
:1011100075FF16E0B148844208D101218020FFF715
:101120006DFF00218020FFF769FF0AE0AC48844290
:1011300007D101218015FFF761FF0021A015FFF7FE
:101140005DFF10BD10B501210846FFF757FF0021D4
:101150000120FFF753FF10BD2DE9F04102460025A5
:101160000026002000230024002791F803C00CF083
:101170000F0591F803C01CF0100F03D091F802C0C6
:101180004CEA050591F800C0BCF1000F31D014689D
:1011900000202BE04FF0010C0CFA00F3B1F800C076
:1011A0000CEA03069E4220D183004FF00F0C0CFA8C
:1011B00003F7BC4305FA03FC4CEA040491F803C0AE
:1011C000BCF1280F06D14FF0010C0CFA00FCC2F85C
:1011D00014C00AE091F803C0BCF1480F05D14FF0EC
:1011E000010C0CFA00FCC2F810C0401C0828D1D336
:1011F0001460B1F800C0BCF1FF0F34DD546800206A
:101200002EE000F1080C4FF0010808FA0CF3B1F8D9
:1012100000C00CEA03069E4221D183004FF00F0C60
:101220000CFA03F7BC4305FA03FC4CEA040491F8FA
:1012300003C0BCF1280F05D100F1080C08FA0CF826
:10124000C2F8148091F803C0BCF1480F07D100F137
:10125000080C4FF0010808FA0CF8C2F81080401C86
:101260000828CED35460BDE8F0814FF6FF710180AD
:10127000022181700421C1707047024600209368EA
:101280000B4201D0012000E0002070470146886831
:1012900080B2704702460020D3680B4201D0012083
:1012A00000E0002070470146C86880B270470161C5
:1012B0007047416170470AB1016100E041617047C8
:1012C000C16070474FF480320A438261816182615C
:1012D00082698269704702460020424B18684FF6C7
:1012E0008073184040EA021008433E4B1860704774
:1012F0003D49C8617047F0B50A460023002400212B
:10130000002500F00046B6F1004F02D1354EF169DC
:1013100001E0344E7168C0F3034583B200F4401617
:10132000B6F5401F08D121F070612E4E766826F088
:1013300070662C4F7E6012E000F48016B6F5801FB8
:1013400006D1032606FA05F4A14341F0706106E0D8
:10135000460D360103FA06F6B14341F0706122B141
:10136000460D360103FA06F6314300F00046B6F1A9
:10137000004F02D11B4EF16101E01A4E7160F0BDC9
:1013800030B500228B071C0F0F2303FA04F2154B14
:1013900008338C1053F824309343124C08348D10CA
:1013A00044F8253023468C1053F824308C07240F42
:1013B00000FA04F423430B4C08348D1044F8253014
:1013C00030BD0A490860704700080140000C014028
:1013D000001001400014014000180140001C0140B1
:1013E000002001400000014000002042DC002042BB
:1013F00010B50446FB48844209D101218803FFF758
:10140000FDFD00214FF48040FFF7F8FD32E0F64883
:10141000844209D101214804FFF7FDFD00214FF46A
:101420000030FFF7F8FD25E0F048844209D10121A2
:101430008804FFF7F0FD00214FF48020FFF7EBFD5B
:1014400018E0EB48844209D10121C804FFF7E3FD0D
:1014500000214FF40020FFF7DEFD0BE0E548844259
:1014600008D101210805FFF7D6FD00214FF48010B7
:10147000FFF7D1FD10BD2DE9F04786B005460E46B9
:101480000024A24600BFA1460027B08900B100BFDA
:101490002F462C8A4CF6FF700440F08804432C82BF
:1014A000AC894EF6F3100440B08831890843718945
:1014B00008430443AC81AC8A4FF6FF400440B08936
:1014C0000443AC8201A8FFF712FDC648874202D14F
:1014D000DDF810A001E0DDF80CA0A88910F4004FA1
:1014E00008D00AEBCA0000EB0A1031684900B0FBD3
:1014F000F1F807E00AEBCA0000EB0A103168890036
:10150000B0FBF1F86420B8FBF0F00401200964217D
:1015100001FB1089A88910F4004F08D0322000EB9D
:10152000C900B0FBF1F000F00700044308E03220EE
:1015300000EB09106421B0FBF1F000F00F00044350
:101540002C8106B0BDE8F0874FF4165101600021F0
:101550008180C18001810C214181002181817047FE
:1015600010B502460020108A4FF2FF0318400B8886
:101570004C8823438C882343CC8823431843108210
:1015800010BD0021018041808180C180704721B160
:10159000828942F40052828104E082894DF6FF7311
:1015A0001A4082817047F0B50346002400260025CA
:1015B0000020A1F510676A3F00D100BF1846C1F3B3
:1015C000421401F01F06012707FA06F5012C01D18C
:1015D0000C3004E0022C01D1103000E014301AB1BC
:1015E00007682F43076002E00768AF430760F0BD5C
:1015F0001AB1838A0B43838202E0838A8B438382FE
:101600007047028A4FF6F0731A400282028A0A4338
:101610000282704782894FF2FF731A408281828969
:101620000A438281704721B1828942F0020282819D
:1016300004E082894FF6FD731A4082817047028A66
:101640004FF6DF731A400282028A0A430282704711
:1016500021B1028A42F48042028204E0028A4BF6FF
:10166000FF731A4002827047C1F3080282807047FC
:1016700001468888C0F308007047818941F0010164
:1016800081817047028BD2B20283028B42EA01222F
:1016900002837047028B02F47F420283028B0A436B
:1016A0000283704721B1828A42F02002828204E0E4
:1016B000828A4FF6DF731A408282704721B1828A94
:1016C00042F01002828204E0828A4FF6EF731A40E1
:1016D0008282704721B1828A42F00802828204E04D
:1016E000828A4FF6F7731A408282704721B182894D
:1016F00042F40042828103E08289C2F30E028281B9
:10170000704721B1828A42F40062828204E0828AB8
:101710004FF2FF731A4082827047828A4FF6FB7342
:101720001A408282828A0A438282704721B1828A69
:1017300042F00202828204E0828A4FF6FD731A4070
:101740008282704702460020B1F5007F00D100BFC1
:1017500013880B4201D0012000E00020704701F403
:101760000072B2F5007F00D100BFCA43028070470B
:1017700070B502460024002300250020A1F5106664
:101780006A3E00D100BFC1F3421501F01F030126DC
:1017900006FA03F3012D02D19689334006E0022DAB
:1017A00002D1168A334001E0968A33400C1201269A
:1017B00006FA04F41688344013B10CB1012000E09D
:1017C000002070BD10B500220023A1F510646A3C12
:1017D00000D100BF0A1201249440A3B2DC4304806C
:1017E00010BD0000003801400044004000480040A7
:1017F000004C00400050004010B50446BE488442F2
:1018000008D101218014FFF7F9FB0021A014FFF794
:10181000F5FB16E0B948844208D101210014FFF716
:10182000FAFB00212014FFF7F6FB0AE0B4488442DB
:1018300007D10121C013FFF7EEFB0021E013FFF7F2
:10184000EAFB10BD10B50022028802F441520B8859
:101850004C8823438C882343CC8823430C8923431F
:101860004C8923438C892343CC8923431A43028028
:10187000838B4FF2FF74234083830B8A038210BD56
:101880002DE9F04F85B005460C464FF000090227C0
:101890004FF000084FF0010B0026B246A88B4FF224
:1018A00040010840A88302202884B5F81C90A06855
:1018B000022801D100BF38E0A08810B94FF0010B19
:1018C00001E04FF0020B8D48854200D100E000BFDF
:1018D0006846FFF70CFBDDF800A0E088B0F5007F5C
:1018E0000AD14FEA1A2000EB80004000A168B0FB4B
:1018F000F1F0401D86B20BE04FEA4B10BAFBF0F05E
:1019000000EB80004000A168B0FBF1F0401D86B202
:101910000A20B6FBF0F606F00108A6EB0800C0F3BB
:101920004F074FF6FF7000EA0828022F01DBFF2F58
:1019300002DD02274FF00008E08840EA0800384343
:101940002884A088A1890843618808432188084326
:1019500040F4006040EA0909A5F81C9005B0BDE814
:10196000F08F0021018041808180C180018141810F
:101970008181C1810721018270470021018041805E
:101980008180C1800221816000218181704721B165
:10199000028842F04002028004E002884FF6BF73E2
:1019A0001A400280704721B1828B42F480628283A8
:1019B00004E0828B4FF6FF331A408283704730B5C4
:1019C000002400230C110125A540ABB21AB1858873
:1019D0001D43858002E085889D43858030BD1AB116
:1019E00083880B43838002E083888B438380704726
:1019F00081817047014688897047A1F57E42FF3A90
:101A000004D0028842F48072028004E002884FF61B
:101A1000FF631A400280704721B1828842F00402BD
:101A2000828004E082884FF6FB731A408280704700
:101A300002884FF2FF731A40028002880A43028034
:101A40007047018841F480510180704721B10288BC
:101A500042F40052028004E002884DF6FF731A40FF
:101A60000280704702460020012901D0108B00E05F
:101A7000908A70470146088A7047B1F5804F04D1BB
:101A8000028842F48042028004E002884BF6FF7331
:101A90001A40028070470246002013890B4201D091
:101AA000012000E000207047CA4302817047F0B572
:101AB0000246002000240023002501F00F07012624
:101AC000BE40B4B20B1101269E40B3B2968806EA1E
:101AD00003051689264202D00DB1012000E0002046
:101AE000F0BD10B5002201F00F040123A3409AB20B
:101AF000D343038110BD0000003001400038004096
:101B0000003C004000210020674A126842F4803205
:101B1000654B1A6000BF644A126802F40030491C29
:101B200010B9B1F5A06FF6D15F4A126812F4003F08
:101B300001D0012000E00020012842D15B4A126858
:101B400042F01002594B1A601A46126822F0030242
:101B50001A601A46126842F002021A60524A52682B
:101B6000514B5A601A4652685A601A46526842F4FB
:101B700080625A601A46526822F47C125A601A46F1
:101B8000526842F4E8125A601A46126842F08072B3
:101B90001A6000BF444A126812F0007FFAD0424A2D
:101BA000526822F00302404B5A601A46526842F0D3
:101BB00002025A6000BF3C4A526802F00C02082A36
:101BC000F9D1704710B5FFF79DFF10BD10B536482D
:101BD000006840F001003449086008464068344914
:101BE00008403149486008460068324908402E499B
:101BF00008600846006820F48020086008464068B5
:101C000020F4FE0048604FF41F008860FFF7DAFF01
:101C10004FF000602849086010BD10B50021002079
:101C20000022214B5B6803F00C0121B1042906D08E
:101C3000082928D107E0214B214C236027E01F4BC6
:101C40001F4C236023E0184B5B6803F47010164BA5
:101C50005B6803F48032022303EB904022B9194BF6
:101C60004343174C23600DE00F4B5B6813F4003FB8
:101C700004D0144B4343124C236003E00F4B434307
:101C80000F4C236003E00D4B0D4C236000BF00BFE1
:101C9000054B5B68C3F303130B4CE15C084B1B68FB
:101CA000CB40074C236010BD0010024000200240D2
:101CB0000000FFF8FFFFF6FE08ED00E000127A00DA
:101CC0005401002000093D00580100202DE9F05F7B
:101CD0000546002092469B4688460646814640249B
:101CE0001BE0284641464746224600F042F853464C
:101CF0005A46C01A914110D311461846224600F0A8
:101D000029F82D1A67EB01084F46224601200021D1
:101D100000F020F817EB00094E41201EA4F1010449
:101D2000DFDC484631462A464346BDE8F09F0000C6
:101D3000064C074D06E0E06840F0010394E8070018
:101D400098471034AC42F6D3FEF7F6F9F4200008B9
:101D500014210008202A04DB203A00FA02F10020B6
:101D600070479140C2F1200320FA03F319439040D9
:101D70007047202A04DB203A21FA02F00021704744
:101D800021FA02F3D040C2F12002914008431946E3
:101D9000704770B58D1810F8014B14F0030201D193
:101DA00010F8012B231106D110F8013B03E010F8C5
:101DB000016B01F8016B521EF9D1B3B110F8012B80
:101DC00004F00C048A1A0C2C04D0A2EB841203F148
:101DD000020308E010F8014BA2EB0422F7E712F827
:101DE000014B01F8014B5B1EF9D5A942D3D300206A
:101DF00070BD00000FB4054B10B503A9044A02984A
:101E000000F018F810BC5DF814FB0000F3060008A1
:101E10006801002002E008C8121F08C1002AFAD198
:101E200070477047002001E001C1121F002AFBD15A
:101E3000704700002DE9FF4F8DB09B460F460446CA
:101E4000002639E1252801D00F9959E00025641CAE
:101E50009D49A84601222378203B02FA03F008425C
:101E600002D00543641CF6E720782E2817D114F819
:101E7000010F45F004052A280ED06FF02F022078BC
:101E8000A0F1300109290AD808EB880102EB4101D1
:101E900000EB0108641CF2E757F8048B641C2078FF
:101EA0006C280DD004DC4C2812D06A2811D104E033
:101EB00074280DD07A280CD10AE045F4001507E00B
:101EC000617845F48015814202D1641C05F58015C6
:101ED000641C2278692A46D008DC002A70D0582A6F
:101EE00069D0632A11D0642A08D13CE0702A69D0F5
:101EF000732A14D0752A5CD0782A5CD00F991046CA
:101F00005A46904706F10106D5E017F8040B8DF804
:101F1000000000208DF80100E946012003E057F899
:101F2000049B4FF0FF3069074FF0000501D40AE031
:101F30006D1C45450DDA8542FADB19F805100029BC
:101F4000F6D106E06D1C8542FCDB19F8051000296E
:101F5000F8D12E4404E019F8010B5A460F99904726
:101F60006D1EF8D2A7E00A200021CDE90801C5F3D3
:101F7000025002280BD001CFC11700290EDA4FF012
:101F8000000CD0EB0C006CEB01012D2309E007F1F4
:101F9000070727F00707F7E80201EEE72B0504D54E
:101FA0002B238DF82830012330E0EB072ED020239F
:101FB000F7E70A2000E010200021CDE9080109E040
:101FC0007EE0FFE71020002145F00405CDE908017F
:101FD0004FF00808C5F3025002281BD001CF0021A2
:101FE0004FF0000A2B0712D5702A19D0DDE908C37B
:101FF0008CF0100C5CEA030C09D150EA010306D006
:1020000030238DF828308DF8292002239A46582A4B
:1020100010D00AE0FF1D27F00707F7E80201DFE70D
:1020200040228DF828204FF0010A28A20DF1200946
:102030000B9209E02AA2F9E7DDE90823FFF746FE43
:102040000B9B9B5C09F8013D50EA0102F4D1ADEB1A
:10205000090000F120000890680701D44FF0010842
:102060000898804503DD0899A8EB010000E00020F6
:102070008046002506E00AA85A46405D0F99904721
:10208000761C6D1C5545F6DB04E030205A460F994E
:102090009047761CB8F10001A8F10108F5DC05E0D5
:1020A00019F8010B5A460F999047761C0899481E5B
:1020B00008900029F4DC641C207800287FF4C2AE6C
:1020C00011B03046BDE8F08F0928010030313233BD
:1020D0003435363738396162636465660000000064
:1020E000303132333435363738394142434445464E
:1020F0000000000014210008000000206C01000016
:10210000921D00083C2200086C01002034050000EC
:10211000241E0008202F20B8D0D0BBC4FAD1A1D3F0
:10212000C3B0ACB6FBC8FCB2FAC6B7BCD9C8E7BDF1
:10213000F8C8EBB2BBC1CB4A54414720BBF2D5DF54
:10214000CAB6B1F011000510D0BEC6AC112027B739
:10215000B4D5FDCAC7C9D5D0B4B2BBB3C9B9A6B549
:10216000C4C7E9BFF6A3ACD3C3CDF2D3C3B1EDB2BC
:10217000E2CEC8D1B93C200F414D5331BFB431BA82
:10218000C5BDC5BACD32072023CAC7B2BBCAC7B6C0
:10219000CCBDD3D4DAD2BBC6F0C1CB20D2B2BECD37
:1021A000CAC7332E3376BACD474E441C111621537D
:1021B000200632A3BAC4DC68100420B5C6A0200BE8
:1021C000C1A1A320D4DAC8B7B6A85C4009D2FDBD2E
:1021D000C5CCF9BAC37E4015CFC220BBBB35304D4C
:1021E00020CCF9C6ACBEA7D5F120BFB46C210D1030
:1021F00008BBB5C1CBD2FDC6D413C6F01BC101B01C
:102200001E687474703A2F2F6C63746563682D694F
:102210006E632E74616F62616F2E636F6D000120BB
:102220000501020304042009060708090204060840
:0C22300014A004A24A041F211B21350049
:0400000508000131BD
:00000001FF
