:020000040800F2
:100000004855002045010008455B00084B3F0008AB
:100010000D500008A71D0008DDC100080000000009
:10002000000000000000000000000000A1A7000880
:100030003921000800000000AB010008E1B9000808
:100040005F0100085F0100085F0100085F01000810
:100050005F0100085F0100085F0100085F01000800
:100060005F0100085F0100085F0100085F010008F0
:100070005F0100085F0100085F0100085F010008E0
:100080005F0100085F0100085F0100085F010008D0
:100090005F0100085F0100085F0100085F010008C0
:1000A0005F0100085F0100085F0100085F010008B0
:1000B0005F0100085F0100085F0100085F010008A0
:1000C0005F0100085F0100085F0100085F01000890
:1000D0005F010008E5BF00085F0100085F0100083C
:1000E0005F0100085F0100085F0100085F01000870
:1000F0005F0100085F0100085F0100085F01000860
:100100005F010008158F00085F0100085F0100080B
:100110005F0100085F0100085F0100085F0100083F
:100120005F0100085F0100085F0100085F0100082F
:10013000DFF80CD000F0BAFC00480047E1D7000817
:10014000485500200648804706480047FEE7FEE77E
:10015000FEE7FEE7FEE7FEE7FEE7FEE7FEE7FEE777
:1001600009BA000831010008EFF3108072B6704739
:1001700080F3108870471D484FF0FF010170002088
:1001800080F309881A48012101701A484FF0805104
:10019000016062B6FEE717484FF08051016070477A
:1001A00014484FF080510160704772B6EFF3098038
:1001B00028B1203880E8F00F0F490968086000B5C1
:1001C0000E4880475DF804EB0D480E490A7802702E
:1001D00009480D490A680260106890E8F00F203065
:1001E00080F309884EF0040E62B6704722ED00E0FD
:1001F000EA00002004ED00E0F0000020B16B0008F0
:10020000DF000020E0000020F800002072B67047F8
:1002100062B67047EFF3108072B6704780F31088B3
:100220007047B0FA80F0704790FAA0F0704730BF86
:10023000704720BF704710B5431A934209D2831804
:10024000881803E010F8011D03F8011D521EF9D2B1
:1002500010BD40EA01039B0703D009E008C9121F43
:1002600008C0042AFAD203E011F8013B00F8013B70
:10027000521EF9D210BDD2B201E000F8012B491E86
:10028000FBD270470022F6E710B504460846114637
:1002900002462046FFF7EFFF204610BD034600E070
:1002A000401C0278002AFBD111F8012B00F8012B29
:1002B000002AF9D11846704730B50EE003460A46C9
:1002C00001E05B1C521C1C781578AC4201D1002C5B
:1002D000F7D115F0FF0F04D0401C0278002AEDD1B1
:1002E000002030BD10B5044604E00B7800F8013B57
:1002F00003B1491C521EF8D2204610BD0146002011
:1003000000E0401C0A5C002AFBD17047034611F84C
:10031000012B00F8012B002AF9D11846704730B59F
:1003200005460020034600E05B1C934205D2EC5CCE
:10033000C85C201A01D1002CF6D130BDF0B480EA9F
:100340000102D20F4300B3EB410F02D2034608462D
:1003500019464B0042D0C30DDDB2C1F3C7542C1B6C
:10036000202C35DAC1F3160141F4000502B16D42CB
:10037000C4F1200605FA06F125412844B3EBD05F0D
:1003800023D0C2B1012CA0EBC35009DCF0BC4FF06C
:10039000004202EAC35200F50000DBB200F0F6BAF8
:1003A000400000F1807000EBC350A0F1807040EA83
:1003B000D170490009E0490841EAC071A0EBC3507F
:1003C00000F50000400800EBC350F0BC00F0D5BAC7
:1003D0005142012303EB4101801AF6E7F0BC70475C
:1003E00081F00041AAE780F00040A7E780EA01021F
:1003F00010B502F00042400026D04B0023D04FEA57
:10040000106101EB1361C0F35600C3F3560340F4CF
:10041000000043F40003A0FB0330A1F17F014FEA89
:1004200000401C0401D000F1010050EA134001D447
:100430004000491EC3B20C0604EBD010401C40081B
:10044000802B02D003E0002010BD20F00100002925
:1004500000DA0020104310BD80EA010202F00043E0
:1004600030B430F0004221F0004015D0A0B1C0F30C
:10047000C755C2F3C754C2F31601C0F31600651B7B
:1004800041F4000140F400007D35814201D36D1C30
:1004900000E04900002D02DA30BC002070474FF424
:1004A00000020024814201D3091A144352084FEA82
:1004B0004101F7D151B1814202D14FF0004105E035
:1004C00002D24FF0010101E06FF0010104EBC550D1
:1004D00030BC184400F051BA2DE9FE4F074681EABE
:1004E0000300C00F0E46019021F0004123F00044AC
:1004F000B81AA14105D23846314617461E460B466A
:10050000024623F00040104304D13846314603B080
:10051000BDE8F08F350DC5F30A00C3F30A51029010
:10052000401A0090402867DAC3F3130040F4801BA0
:100530000198924620B10023D2EB030A63EB0B0B28
:1005400000985946C0F14002504600F0E5F9804657
:100550000C4650465946009A00F0FDF9C019714109
:10056000EF1785EA11533B433FD0019A4AB3009AF3
:10057000012A11DC0022801A61EB05514FF0004383
:1005800003EA0555CDE90025801841F58011424662
:10059000234600F037FABAE72E050025401B61EB31
:1005A0000601401941F58012001852412818A6F59D
:1005B000001343EB020140EAD47018EB08086441D1
:1005C00013E064084FEA38084FF0000244EAC074B0
:1005D0004FEA0553801A61EB0301801841F5801141
:1005E00049084FEA3000801859414246234603B07B
:1005F000BDE8F04F00F0F9B9019801224000002356
:10060000D0EB020263EBE07301984FEAE074381A12
:1006100066EB0401EBE783F000435DE781F0004106
:100620005AE72DE9FE4F81EA030421F0004504F06A
:10063000004423F000414FF0000A009450EA050303
:1006400002D052EA010304D10020014603B0BDE804
:10065000F08FC1F30A53C5F30A542344A3F2F333D2
:100660000193A0FB02B3C5F3130545F4801CC1F34D
:10067000130141F480180CFB023300FB083E810A91
:10068000930A41EA8C5143EA8853A1FB03474FEA9E
:100690009C2505FB03734FEA982601FB06373D05B1
:1006A000260545EA1435BBEB06016EEB0503850E06
:1006B000920E45EA8C1542EA8812A5FB0206261E18
:1006C00067EB00070C0D44EA0334A61947EB1350FF
:1006D000C1F313044FF000031946E5FB02014FEA92
:1006E000033545EA1455019B4FEA0432009CA3F1FF
:1006F0000C03CDE900A445EA060502932B4600F061
:1007000081F9A3E72DE9F04D81EA030404F0004BE1
:1007100021F0004714464FF0000A23F0004150EA50
:10072000070220D054EA01021DD0C1F30A55024647
:10073000C1F31300C7F30A56C7F3130340F4801143
:1007400043F48013A6EB0508101BD64608F2FD38CB
:1007500073EB010002D308F1010801E092185B413C
:10076000B8F1000F03DA00200146BDE8F08D00204B
:100770004FF48015064607460EE0B2EB040C73EB0F
:10078000010C04D3121B064363EB01032F436D08D6
:100790004FEA300092185B4150EA050CEDD152EA65
:1007A000030012D082EA040083EA0105284303D142
:1007B00000224FF0004308E0101B8B4102D20122BF
:1007C000002302E06FF0010253101AEB060047EB22
:1007D000085110EB0A0041EB0B01BDE8F04D00F0B1
:1007E00004B9C10F80EAE0700844CA0796230021CB
:1007F00000F0CCB896230022114600F0C7B80EB521
:10080000C10F80EAE0700844CA07002140F2334378
:100810008DE80E000A460B4600F0F4F803B000BD68
:100820000EB5002240F23343CDE900220293134675
:10083000114600F0E7F803B000BD00F0004220F0E0
:100840000040C10DC0F3160040F400007F2901DA1A
:1008500000207047962903DCC1F19601C84001E0F1
:1008600096398840002AF4D04042704720F000407A
:10087000C10DC0F3160040F400007F2901DA00200A
:100880007047962903DCC1F19601C840704796393C
:1008900088407047C1F30A52C1F3130140F2FF339D
:1008A00041F480119A4201DA0020704740F233434C
:1008B0009A42A2F2334202DC524200F03CB890402D
:1008C0007047000030B5002904DB4FF0004440427F
:1008D00064EB0101002B04DB4FF00044524264EB57
:1008E00003038B4208BF824230BD000030B50B4687
:1008F000014600202022012409E021FA02F59D4250
:1009000005D303FA02F5491B04FA02F52844151E23
:10091000A2F10102F1DC30BD202A04DB203A00FA0A
:1009200002F1002070479140C2F1200320FA03F346
:10093000194390407047202A04DB203A21FA02F044
:100940000021704721FA02F3D040C2F12002914009
:10095000084319467047202A06DBCB17203A41FA94
:1009600002F043EAE07306E041FA02F3D040C2F13C
:10097000200291400843194670470029A8BF7047DC
:10098000401C490008BF20F00100704710B4B0FAC5
:1009900080FC00FA0CF050EA010404BF10BC704760
:1009A00049B1CCF1200421FA04F411FA0CF118BF7A
:1009B000012121430843A3EB0C01CB1D4FEA006149
:1009C0004FEA102048BF0020BCBF10BC704700EBAE
:1009D000C35010440029A4BF10BC7047401C4900FC
:1009E00008BF20F0010010BC704710B5002B08DADA
:1009F000401C41F1000192185B411A4301D120F0E3
:100A0000010010BD2DE9FF4D934611B1B1FA81F2FD
:100A100002E0B0FA80F220329246FFF77DFF039A9F
:100A20000746884640EA0B0011435B46084304D161
:100A30003846414604B0BDE8F08D114653EA020045
:100A400016D0CAF140025846FFF775FF04460D461E
:100A50004FF00106584652460399FFF75DFF0843E1
:100A600000D10026344345EAE675274345EA0808E5
:100A70000E984FF00005A0EB0A014FEAD7200A318B
:100A80004FEA47532A4640EA48504FEAD82402D555
:100A900000200146CEE7281844EB0151DDE90C4562
:100AA000001904B06941BDE8F04D9EE7064C074DC2
:100AB00006E0E06840F0010394E80700984710342E
:100AC000AC42F6D3FFF738FBD03E0208F03E0208F6
:100AD00070B501EB020410F8015B15F0070301D1BA
:100AE00010F8013B2A1106D110F8012B03E010F891
:100AF000016B01F8016B5B1EF9D12B0705D40023B4
:100B0000521E0FD401F8013BFAE710F8013B02F145
:100B10000202A1EB030303E013F8015B01F8015BA0
:100B2000521EF9D5A142D6D3002070BD00B585B0C4
:100B30000121880307F08AFD0021144809F06AFAB0
:100B40000020ADF800004FF48270ADF802000020E4
:100B5000ADF80400ADF80600ADF808004FF40070E1
:100B6000ADF80A002820ADF80C000020ADF80E000A
:100B70000720ADF810006946044809F0FDFA01218C
:100B8000024809F047FA05B000BD000000380040F7
:100B900000200249087002490860704728000020C0
:100BA0003000002008B59DF80000009003230B4A98
:100BB00000210B4805F0F8FD00906A4609A10320CA
:100BC00005F0B0FE002005F0C9FC0C4908600020CB
:100BD00005F07AFB0A49086008BD0000C40C00203B
:100BE00089DA00085461736B20756374736B5F4D11
:100BF00050334465636F64650000000018000020F6
:100C00001400002000B587B09DF81800069003235B
:100C10000022D9010A48CDE90323CDE901010523CA
:100C200000F2FC5200210748009305F011FE0690E7
:100C300006AA05A1052005F075FE07B000BD00005D
:100C4000C8120020D9DA00085461736B204D696323
:100C5000726F6368697047554900000008B59DF8D8
:100C6000000000900623064A0021064805F09CFD7E
:100C700000906A4604A1062005F054FE08BD00005D
:100C8000C40E002019DB00085461736B20526561AB
:100C900064427574746F6E00704710B5FFF7B2FF51
:100CA00000F02EF8FFF7DAFFFFF77CFF00F048F8BE
:100CB00010BD70477047000008B506F0D1F905F087
:100CC00047FD6946002005F081F80A490860FFF7F2
:100CD000E4FF002301221946184605F0ADFF0AF093
:100CE0000BFF00BF00231A460121184605F0A4FFA0
:100CF000F8E70000000000207047704770470000D0
:100D000008B59DF8000000900423064A002106481B
:100D100005F04AFD00906A4604A1042005F002FE99
:100D200008BD0000C412002049DB00085461736B49
:100D300020546F75636853637265656E0000000030
:100D400008B59DF8000000900723104A00211048C4
:100D500005F02AFD00906A460EA1072005F0E2FD8D
:100D6000002005F0FBFB10490860002005F0F6FBB1
:100D70000E490860002005F0F1FB0D4908600020D5
:100D800005F0A2FA0B49086008BD0000C406002067
:100D900091DB00085461736B20756374736B5F762D
:100DA0007331303033000000080000200C000020B8
:100DB00010000020040000202DE9F84F04460D46E5
:100DC00016461F46DDE90A9ADDF830806AE3F848E6
:100DD000007812287ED2DFE800F009F2F1F0EFEEA1
:100DE000EDECEBEAE9E8E7E6E5E4E35E4BF205501B
:100DF00009FB00F00090BDF8020000B2ED49088048
:100E00004BF205500AFB00F00090BDF8020000B262
:100E1000E94908804FF4A030A0EB09400090BDF8EC
:100E2000020000B2E54908804FF4A030A0EB0A4070
:100E30000090BDF8020000B2E1490880E148A0F846
:100E40000090E148A0F800A00020E0490880E049B7
:100E50000880DC48B0F90000DE490880DB48B0F9C2
:100E60000000DD490880D948B0F90000DB4908805E
:100E7000D548B0F90000DA490880D548B0F900003B
:100E8000D8490880D248B0F90000D749088011201D
:100E9000C749087000BF00BFCD48B0F90000C6497F
:100EA000B1F90010884203DD0220C149087038E220
:100EB000C648B0F90000C9490880C548B0F900002B
:100EC000C9490880C148B0F90000BA49B1F9001019
:100ED000884200E023E233DCB848B0F90000002883
:100EE00018DDB8480088401E00B2B6490880B348F3
:100EF0000088401D00B2B1490880B4480088B1495B
:100F00000988401AAD49098801EB400000B2AB499D
:100F100008800EE0A9480088C01C00B2A7490880DC
:100F200008460088A949098800EB410000B2A3499E
:100F30000880A6480088401C00B2A449088011E03F
:100F4000A2480088401C00B2A04908809D48B0F922
:100F50000000B1F90010884204DA9C48B0F90000A2
:100F6000984908809648B0F90000002828DD964886
:100F70000088401E00B29449088091480088401DB6
:100F800000B28F490880924800888F490988401A2A
:100F90008B49098801EB400000B2894908801EE0B6
:100FA00007E27DE1F0E14FE133E223E116E2D9E02F
:100FB00061E2AFE042E285E0D1E159E0B0E118E062
:100FC0007F480088C01C00B27D4908800846008820
:100FD0007F49098800EB410000B2794908807C48CC
:100FE0000088401C00B27A490880012070490870CE
:100FF00057E27848B0F900007249B1F90010884210
:1010000007D17748B0F900006F49B1F90010884264
:1010100026D018F0010F27D0DFF8B8C1BCF800C007
:10102000A5EB0C0C0FFA8CF3DFF8B0C1BCF800C0D4
:10103000B4440FFA8CF2DFF8A8C1BCF800C0A5EBED
:101040000C0C0FFA8CF1DFF89CC1BCF800C0B44462
:101050000FFA8CF000F03EFA30B90020BDE8F88FAE
:1010600011205349087017E703205149087018E20E
:1010700018F0020F22D0DFF86CC1BCF800C0A5EB5D
:101080000C0C0FFA8CF3DFF858C1BCF800C0B44464
:101090000FFA8CF2DFF844C1BCF800C0A5EB0C0CD1
:1010A0000FFA8CF1DFF82CC1BCF800C0B4440FFA81
:1010B0008CF000F00FFA08B90020CFE705203C497A
:1010C0000870EEE118F0040F20D0DFF81CC1BCF866
:1010D00000C0BC440FFA8CF3DFF804C1BCF800C0B8
:1010E000B4440FFA8CF2DFF8F0C0BCF800C0BC4486
:1010F0000FFA8CF1DFF8DCC0BCF800C0B4440FFA82
:101100008CF000F0E7F908B90020A7E7072028498C
:101110000870C6E118F0080F20D0DFF8C4C0BCF892
:1011200000C0BC440FFA8CF3DFF8BCC0BCF800C0B0
:10113000B4440FFA8CF2DFF89CC0BCF800C0BC4489
:101140000FFA8CF1DFF890C0BCF800C0B4440FFA7D
:101150008CF000F0BFF908B900207FE7092014499E
:1011600008709EE118F0100F40D0DFF874C0BCF892
:1011700000C0BC440FFA8CF3DFF868C0BCF800C0B4
:10118000A4EB0C0C0FFA8CF2DFF848C0BCF800C0DE
:10119000BC440FFA8CF1DFF844C0BCF800C0A4EBEB
:1011A0000C0C0FFA8CF000F095F9F8B9002055E717
:1011B0008C01002070010020720100207C010020C1
:1011C0007E010020740100207601002078010020BB
:1011D0007A0100208001002082010020840100208B
:1011E00086010020880100208A0100200B20AE49E2
:1011F000087056E118F0200F22D0DFF8B0C2BCF81A
:1012000000C0BC440FFA8CF3DFF8A4C2BCF800C0E5
:10121000A4EB0C0C0FFA8CF2DFF898C2BCF800C0FB
:10122000BC440FFA8CF1DFF890C2BCF800C0A4EB0C
:101230000C0C0FFA8CF000F04DF908B900200DE706
:101240000D20994908702CE118F0400F24D0DFF8E8
:101250006CC2BCF800C0A5EB0C0C0FFA8CF3DFF8E5
:1012600050C2BCF800C0A4EB0C0C0FFA8CF2DFF8F3
:1012700050C2BCF800C0A5EB0C0C0FFA8CF1DFF8E3
:1012800038C2BCF800C0A4EB0C0C0FFA8CF000F0D4
:1012900021F908B90020E1E60F208349087000E138
:1012A00018F0800F24D0DFF808C2BCF800C0A5EB0E
:1012B0000C0C0FFA8CF3DFF804C2BCF800C0A4EBEE
:1012C0000C0C0FFA8CF2DFF8F0C1BCF800C0A5EBF3
:1012D0000C0C0FFA8CF1DFF8E8C1BCF800C0A4EBED
:1012E0000C0C0FFA8CF000F0F5F808B90020B5E608
:1012F0007448B0F900006E4908807348B0F90000E6
:101300006E4908807148B0F900006B490880704848
:10131000B0F9000067490880112063490870C0E0F7
:1013200000BF301B01D1781B10D018F0020F12D073
:1013300079194B1006EB0A010AB206EB090108B253
:10134000294600F0C7F830B9002087E6002056494A
:101350000870012082E6042053490870A1E018F0CB
:10136000040F0DD006EB0A031AB27B19591006EBD5
:10137000090318B23B4600F0ADF808B900206DE64D
:101380000E20494908708CE018F0100F0DD007EBC3
:101390000A0003B23019421007EB090001B22046DF
:1013A00000F098F808B9002058E610203E4908706F
:1013B00077E018F0080F0DD007EB0A0213B207EB25
:1013C000090211B232195010324600F083F808B900
:1013D000002043E60A203449087062E0301B14D034
:1013E00018F0800F0DD0A5EB090003B230194210A0
:1013F000A5EB0A0001B2204600F06CF808B9002005
:101400002CE60C202849087002E0062026490870C6
:1014100047E018F0010F0DD0A5EB090213B2A5EBC0
:101420000A0211B232195010324600F053F808B9CE
:10143000002013E606201C49087032E0E81B14D097
:1014400018F0400F0DD079194B10A4EB09010AB226
:10145000A4EB0A0108B2294600F03CF808B90020C4
:10146000FCE508201049087004E000200E490870CF
:101470000120F3E515E018F0200F0DD0A4EB0903CF
:101480001AB27B195910A4EB0A0318B23B4600F0BC
:1014900021F808B90020E1E5002003490870012087
:1014A000DCE500BF93E400008C01002084010020F3
:1014B0008001002088010020860100208201002098
:1014C0008A010020740100207801002076010020AC
:1014D0007A0100202DE9F04706460F4690469946CE
:1014E0003D460FE0344607E00A480288A9B2A0B2A0
:1014F00002F0B1FF601C04B208F101008442F3DB8A
:10150000681C05B209F101008542EBDB0120BDE852
:10151000F0870000DA0100202DE9FF5F06460F4644
:1015200090469946DDF838A04BF205500AFB00F0D2
:101530000090BDF80200401C00B201904FF4A030B2
:10154000A0EB0A400090BDF802000FFA80FB554660
:101550000020039001200290BAF1000F7ED00024F9
:1015600015E10398401C00B2AD490390B1F9001099
:10157000884205D1029880F001000290002003907B
:10158000029800286BD07A1B91B208EB040290B24B
:10159000A44A128802F05FFF3A1B91B208EB0502E1
:1015A00090B2A04A128802F056FF09EB050291B2F0
:1015B00008EB040290B29B4A128802F04CFF09EB40
:1015C000040291B208EB050290B2964A128802F02A
:1015D00042FF09EB050291B2321B90B2914A128888
:1015E00002F039FF09EB040291B2721B90B28D4AEE
:1015F000128802F030FF3A1B91B2721B90B2894AF6
:10160000128802F028FF7A1B91B2321B90B2854AF1
:10161000128802F020FF844800780028B2D07A1B9C
:10162000521E91B208EB040290B27E4A128802F078
:1016300012FF7A1B521C91B208EB040290B2794A55
:10164000128802F008FF3A1B91B208EB0502521C07
:1016500090B2744A128802F0FEFE01E09BE081E045
:101660003A1B91B208EB0502521E90B26D4A1288E5
:1016700002F0F1FE09EB0502521E91B208EB0402E2
:1016800090B2684A128802F0E6FE09EB0502521C8D
:1016900091B208EB040290B2624A128802F0DBFEBB
:1016A00009EB040291B208EB0502521C90B25D4AAC
:1016B000128802F0D0FE09EB040291B208EB050299
:1016C000521E90B2574A128802F0C5FE09EB05027D
:1016D000521E91B2321B90B2524A128802F0BBFEE7
:1016E00009EB0502521C91B2321B90B24D4A12888E
:1016F00002F0B1FE09EB040291B2721B521C90B2CF
:10170000484A128802F0A7FE09EB040291B2721B4C
:10171000521E90B2434A128802F09DFE3A1B91B2CB
:10172000721B521C90B23F4A128802F094FE3A1B80
:1017300091B2721B521E90B23A4A128802F08BFE8E
:101740007A1B521C91B2321B90B2364A128802F0B8
:1017500082FE7A1B521E91B2321B90B2314A12881D
:1017600002F079FEBBF1000F09DD681E05B2601BB7
:10177000052101EB400058440FFA80FB05E00320EF
:1017800000EB440058440FFA80FB601C04B201983F
:1017900084427FF7E6AEB8EB06000CD000BFA7EBA3
:1017A0000A0003B2A7EB0A0001B24246304603F03A
:1017B000EBFA0028F3D0B9EB07000CD000BFA6EB82
:1017C0000A010AB2A6EB0A0108B24B46394603F0F9
:1017D000DBFA0028F3D0B8EB060002D1B9EB070022
:1017E00019D000BF08EB0A010AB208EB0A0108B2DF
:1017F0004B46394603F0C8FA0028F3D000BF09EB86
:101800000A0003B209EB0A0001B24246304603F077
:10181000BBFA0028F3D0012004B0BDE8F09F00001F
:10182000A8010020DA010020AB0100202DE9F05FC3
:1018300005460E4617469846DDF828B0DDE90E9AB3
:10184000002428200BF0FAFF044614B90020BDE85C
:10185000F09F2580002060602072A681E781A4F8B7
:101860001080A4F812B00B9820830D986062C4F821
:1018700020900C986081BAF1000F03D109480068EC
:10188000606101E0C4F814A000206083A083206A96
:1018900018B14946204600F0E1F9204601F024FA4B
:1018A0002046D4E7300100202DE9F84F0446CA480D
:1018B000B0F90000C8490880C848B0F90000C7491D
:1018C0000880C748007806287ED2DFE800F003369B
:1018D0008A9CFEFD608910F4004F13D06069008A75
:1018E000C0490880B4F91230B4F91020B4F90E10D0
:1018F000B4F90C00FFF7EEFD10B90020BDE8F88F39
:101900000120FBE7208BB8490880208AA189411A71
:10191000B5480088A1EB400000B2AF490880608A5A
:10192000E189411AB0480088A1EB400000B2AB4900
:1019300008800120AA49087000BF608910F0020FDA
:1019400011D1608910F0040F06D060694788606982
:101950000688606985890CE0606946886069078847
:101960006069458905E06069468860690788606943
:10197000C58900209D4908709D490880A0899A4921
:101980000988084400B29B490880E0899649098883
:10199000084400B298490880208A93490988401A6F
:1019A00000B296490880608A8F490988401A00B2BF
:1019B000934908808C48B0F9000092490880924809
:1019C00005809248068000E003E191480780914934
:1019D000606A0860032090490880022080490870EE
:1019E00000BF608910F4807F04D001F0BDFC30B9E5
:1019F000002083E701F0BCFA08B900207EE703204D
:101A00007749087000BF206A002864D0608910F010
:101A1000020F0DD1608910F0040F04D06069C088F6
:101A20007049088008E0606980886E49088003E09A
:101A3000606900896B4908806169486909F01EF88E
:101A4000608910F0100F06D0218A608B401D081AA3
:101A50001FFA80F812E0608910F0200F04D0A089EE
:101A6000401D1FFA80F809E0B4F90C00B4F9101019
:101A70000844B4F91A10401AC0F34F08608910F0F6
:101A8000800F04D0E089401D1FFA80F914E06089BE
:101A900010F0400F06D0618AA08BC01C081A1FFAF4
:101AA00080F909E0B4F91200B4F90E100844B4F951
:101AB0001C10401AC0F34F090FFA88F057490880EC
:101AC0000FFA89F0564901E014E009E0088004208B
:101AD0004349087003E00520414908700BE000BF4E
:101AE000206A06F08BF808B9002007E705203C497A
:101AF000087000BF00BF608910F0010F64D00220A1
:101B00003B490880608910F0040F04D06069C088E8
:101B10003449088003E06069808832490880208B5E
:101B2000F0B900230093B4F812C0ACF1050C0FFA21
:101B30008CF3B4F810C0ACF1050C0FFA8CF2B4F8C9
:101B40000EC00CF1050C0FFA8CF1B4F80CC00CF1BE
:101B5000050C0FFA8CF0FFF7DFFC88BB0020CDE608
:101B600021480088401F03B20093B4F812C0DFF888
:101B700078A0BAF800A0ACEB0A0C0FFA8CF3B4F81A
:101B800010C0DFF864A0BAF800A0ACEB0A0C0FFAA2
:101B90008CF2B4F80EC0DFF850A0BAF800A0D4441C
:101BA0000FFA8CF1B4F80CC0DFF83CA0BAF800A032
:101BB000D4440FFA8CF0FFF7AFFC08B900209DE683
:101BC000FFE700200A49088000200549087001202D
:101BD00094E6012092E60000260100202801002062
:101BE00024010020DA0100202A010020AB0100209E
:101BF000A8010020480100204A0100204C010020DB
:101C00004E0100205001002052010020540100200C
:101C1000560100203801002058010020AE010020AC
:101C2000B001002010B51346062804D0082808D0BB
:101C3000092810D106E04A8944F2040422434A816B
:101C40000AE000BF4A8922F004024A814A8942F42C
:101C500080424A8100E000BF00BF10BD70B504465D
:101C60000D46256260694169284602F019F96083D2
:101C70006169486902F0FEF8A08370BD0246508990
:101C800010F0020F01D0002070470878022849D1D7
:101C9000B2F90C00B1F90230984234DAB2F910000E
:101CA000B1F9023098422EDDB2F90E00B1F90430DC
:101CB000984228DAB2F91200B1F90430984222DDD4
:101CC000508910F0080F0AD04878042828D150898C
:101CD00010F0040F01D00820D6E70620D4E748789A
:101CE000042801D10820CFE74878032805D150897E
:101CF00010F0040F01D00720C6E7508910F0040F40
:101D00000ED10620C0E7508910F0080F08D148789E
:101D1000012805D1508910F0040F01D00920B3E744
:101D20000020B1E7087801283BD1B1F902001388FF
:101D3000984234D14878052831D1508910F0080FE5
:101D40000DD08888B92802D088889C2817D150895E
:101D500010F0040F01D0082096E7062094E7888849
:101D6000392802D088881C2801D106208CE7888871
:101D7000B92802D088889C2801D1082084E7888867
:101D8000392802D088882C2801D106207CE7888851
:101D9000B92802D08888AC2801D1082074E7002037
:101DA00072E7002070E700BFFEE7000010B500BF3B
:101DB00040F23F13EF2200210846FFF78BFB00287B
:101DC000F6D00020024908800249088010BD0000BA
:101DD000AE010020B001002070B52A254FF48034F8
:101DE00000E0641E24B1802007F06CF80028F8D0D1
:101DF00014B90325284670BD40F2FF5007F01AF8C9
:101E00002846F8E72DE9F04106462A274748456B62
:101E100001E04648456B15F0450FFAD015F0040F68
:101E200006D00327042007F005F83846BDE8F08106
:101E300015F0010F05D00127012006F0FBFF384601
:101E4000F4E707F039F8B04202D010273846EDE742
:101E500040F2FF5006F0EEFF002007F053F8044672
:101E60003348044201D13846E0E714F0004F01D076
:101E70001C20DBE714F0804F01D00920D6E714F0D6
:101E8000005F01D00A20D1E714F0805F01D00B2061
:101E9000CCE714F0006F01D00C20C7E714F0806F7E
:101EA00001D00D20C2E714F0807F01D00E20BDE7E5
:101EB00014F4000F01D00F20B8E714F4800F01D004
:101EC0001020B3E714F4001F01D01120AEE714F482
:101ED000801F01D01220A9E714F4002F01D0132095
:101EE000A4E714F4802F01D014209FE714F4003FDE
:101EF00001D015209AE714F4803F01D0162095E711
:101F000014F4004F01D0172090E714F4804F01D053
:101F100018208BE714F4005F01D0192086E714F035
:101F2000080F01D01A2081E738467FE70080014082
:101F300008E0FFFD70B52A250F48446B01E00E480C
:101F4000446B14F0450FFAD014F0040F05D00325AC
:101F5000042006F06FFF284670BD14F0010F05D075
:101F60000125012006F066FF2846F5E740F2FF5004
:101F700006F060FF2846EFE70080014070B52A2593
:101F80000B48446B01E00A48446B14F0450FFAD04B
:101F900014F0040F05D00325042006F04BFF28465B
:101FA00070BD40F2FF5006F045FF2846F8E70000FC
:101FB000008001402DE9F04106460F464FF02A0807
:101FC0002248456B01E02148456B15F0450FFAD0DA
:101FD00015F0040F07D04FF00308042006F02AFF85
:101FE0004046BDE8F08115F0010F06D04FF0010822
:101FF000012006F01FFF4046F3E706F05DFFB04208
:1020000003D04FF010084046EBE740F2FF5006F0D7
:1020100011FF002006F076FF044614F4604F03D150
:10202000200C38804046DCE714F4005F01D0132018
:10203000D7E714F4804F01D01020D2E714F4004FFA
:1020400001D00F20CDE74046CBE7000000800140E3
:1020500070B52A264FF480350F48446B02E06D1EA0
:102060000D48446B14F0450F01D1002DF7D115B187
:1020700014F0040F05D00326042006F0DBFE3046E2
:1020800070BD14F0400F05D02A26402006F0D2FE85
:102090003046F5E73046F3E70080014010F0805FFE
:1020A00002D00349086001E002494860704700001F
:1020B000040402400000024021B1026842F0010223
:1020C000026004E002684FF6FE731A400260704737
:1020D00001460020002211F0805F02D0054B1A68F3
:1020E00001E0054B1A680A4201D0012000E00020FF
:1020F00070470000000402400000024010B50022BA
:10210000026847F6F0739A430C6A8B6823430C69A4
:1021100023434C6923438C692343CC6923434C6A92
:1021200023438C6A23431A430260CB6843600B68E5
:1021300083604B68C36010BD704710B5002108E094
:102140000C2200BF1300A2F10104E2B2FAD14A1C32
:1021500091B28142F4D310BD2DE9FC5F0D2000F057
:102160005FFE0646E548007800287ED10021304613
:1021700002F016FDC0B90020E14908800920FEF7F1
:1021800039FB82464FF08241FEF730F98146DD4946
:10219000FEF729F98046FEF750FB07B2DAA21E21AE
:1021A000384605F063FDA3E1022000F039FE044645
:1021B0000021304602F0F4FCD8490968884224D056
:1021C0000021304602F0ECFCD4490860132000F0F6
:1021D00027FE0190019805F09DFDD1480078012867
:1021E00008D10020C6490880CEA23C21782005F005
:1021F0003DFD0AE0CA48007838B90020C04908808F
:10220000CAA23C21782005F031FDC5480078C949B3
:102210000968884222D0132000F002FE0190019844
:1022200005F078FDBE480078012808D10020B449A7
:102230000880BCA23C21782005F018FD0AE0B848CF
:10224000007838B90020AE490880B8A23C21782037
:1022500005F00CFDB2480078B64908600B2000F08C
:10226000DFFD0546B449C96800E042E1B34A526E59
:10227000881AFEF7BFFA8246B1480068FEF7BAFA3C
:1022800083465146FEF7E8F88146AE49FEF7AEF8C0
:102290008046FEF7EBFAC7B23946284609F0F4F853
:1022A000688940F4805068819D48007860B9A648EC
:1022B0000068012808D1A549606A884204D1A44871
:1022C00060622046FFF7F0FA9C49086DFEF789FA34
:1022D00081469949C968994A526E881AFEF78AFA66
:1022E000824697480068FEF785FA83465146FEF716
:1022F000B3F880464946FEF779F80746FEF7B6FA86
:102300008E49496D88427ED08C49086DFEF769FA86
:1023100081468949C968894A526E881AFEF76AFA65
:10232000824687480068FEF765FA83465146FEF705
:1023300093F880464946FEF759F80746FEF796FAA5
:102340007E494865122000F06BFD0190019805F070
:10235000E1FC00206A4908807848406D3C2190FBF0
:10236000F1F00A2190FBF1F03030C0B200906A46E3
:102370003C21462005F07AFC7048406D3C2190FBE2
:10238000F1F00A2190FBF1F201FB12003030C0B2F3
:1023900000906A463C214E2005F068FC6DA23C216D
:1023A000562005F063FC6548406D3C2190FBF1F23E
:1023B00001FB12000A2190FBF1F03030C0B2009016
:1023C0006A463C215E2005F051FC5C48406D3C2192
:1023D00090FBF1F201FB12000A2190FBF1F201FBEC
:1023E00012003030C0B200906A463C21662005F0F1
:1023F0003DFC5248406D01287AD1142000F010FDB8
:102400000190019800E073E005F084FC00203C4955
:10241000088009F0E5FE4FF47A7148434749C865E2
:102420000846C06D4FF47A71B0FBF1F06421B0FB47
:10243000F1F03030C0B200906A463C21B22005F085
:1024400015FC3E48C06D4FF47A71B0FBF1F0642189
:10245000B0FBF1F201FB12000A21B0FBF1F03030C9
:10246000C0B200906A463C21BA2005F0FFFB334819
:10247000C06D4FF47A71B0FBF1F06421B0FBF1F262
:1024800001FB12000A21B0FBF1F201FB1200303017
:10249000C0B200906A463C21C22005F0E7FB2EA2A4
:1024A0003C21CA2005F0E2FB112000F0B9FC0190AC
:1024B000019805F02FFC0020114908801F48FDF706
:1024C0001DFF4FEA500B5846FEF794F982464FF035
:1024D0008241FDF78BFF81460A49FDF784FF804664
:1024E000FEF7ABF907B2154A1E21384605F0BEFBD0
:1024F00000E000BF00BFBDE8FC9F0000E601002037
:10250000DA01002000001643C7EBD1A1D4F1C4E3E7
:10251000CFB2BBB6B5C4B8E8C7FA0000F0010020DE
:1025200028000020B2A5B7C5D6D00000D2D1CDA3D7
:10253000D6B90000EC010020EC1A0020BC1F0020DE
:102540003000002000004843240000203C0200200E
:102550000C0200203A0000004B6270730000000083
:10256000F8B504460D464FF6FF73A11E8AB20D3929
:1025700088B200932B46294601F074FD4FF6FF7395
:1025800000932B4604F10F0082B22946A01C80B2B2
:1025900001F068FD4FF6FF73A81E009383B20D385B
:1025A00081B22246204601F05DFD4FF6FF7305F132
:1025B0000F00009383B22246A81C81B2204601F08E
:1025C00051FD4BF6F043E11F8AB2083988B205F19C
:1025D0000F0100938BB289B201F044FD4BF6F0433A
:1025E000A4F10F018AB288B205F10F0100938BB2FA
:1025F000E91D89B201F036FD4BF6F043A5F10F0657
:102600000093B3B2E61FB2B2A5F10F06B1B2A4F1C6
:102610000F06B0B201F026FD4BF6F043A5F10F0610
:102620000093B3B2A4F10F06B2B2EE1FB1B2A4F19F
:102630000F06B0B201F016FD4BF6F04305F10F00A6
:10264000009383B204F10F0082B205F10F0081B252
:10265000E01D80B201F006FD4BF6F04305F10F00DE
:10266000009383B204F10F0082B2E81D81B204F13D
:102670000F0080B201F0F6FC4BF6F043A5F10F001D
:10268000009383B281B204F10F0082B2E01D80B2E8
:1026900001F0E8FC4BF6F043E81F009383B20838E2
:1026A00081B204F10F0082B280B201F0DBFCF8BD10
:1026B00010B50446012010BD51B14FF0204252F830
:1026C000202042F001024FF0204343F8202009E08F
:1026D0004FF0204252F82020034B1A404FF0204385
:1026E00043F8202070470000FEFF0F00D0E90112E0
:1026F0001143C2681143026911434269114382695F
:102700001143C2691143026A1143426A1143826A4A
:102710001143C26A1143026B11434FF02043026818
:1027200043F822108168082908D11A46016852F836
:10273000211041F04001026843F82210416B096802
:10274000426B526841EA0211426B926841EA0221EF
:10275000426BD26841EA0241426B126941EA02517E
:10276000426B526941EA0261426B9269114302680D
:10277000521C4FF0204343F82210C16AB1F5804F3C
:102780001AD1816B0968826B526841EA0211826B2F
:10279000926841EA0221826B126941EA0251826B1E
:1027A000526941EA0261826B92691143026803EB4C
:1027B0008202C2F8041108E06FF070414FF020432C
:1027C000026803EB8202C2F8041170472DE9F84356
:1027D00006460C4617469846089D8AE1C54800788B
:1027E000082809D2DFE800F00434D7FE74ACFDFC01
:1027F0001DB90720BF4908707AE14BF205506843C4
:102800000090BDF8020000B2BB4908804FF4A03030
:10281000A0EB05400090BDF8020000B2B749086087
:10282000B74805800020B7490880B548B0F90000D6
:10283000B5490880B348B0F90000B4490880B148F0
:10284000B0F90000B24908800120AA49087000BF11
:1028500000BFAC48B0F90000A749B1F900108842A8
:1028600003DD0720A349087042E1A648B0F9000043
:10287000A7490880A1480068002814DDA048008806
:10288000401E00B29E4908809E48B0F90000B1F990
:102890000010401A052101EB4000984909680844DE
:1028A000964908600AE09748B0F90000032101EB5F
:1028B000400092490968084490490860914800889E
:1028C000401C00B28F49088004208A49087000BF6C
:1028D0008D48B0F900008A49B1F9001088422BD028
:1028E0008C48007810F00F0F22D0DFF824C2BCF81B
:1028F00000C0C4440FFA8CF3DFF80CC2BCF800C06F
:10290000BC440FFA8CF2DFF804C2BCF800C0C44427
:102910000FFA8CF1DFF8F0C1BCF800C0A6EB0C0C8C
:102920000FFA8CF0FEF7D6FD10B90020BDE8F88351
:10293000052070490870DBE001206E49087088E7C7
:102940007448007810F00F0F21D0DFF8BCC1BCF83C
:1029500000C0C4440FFA8CF3DFF8B4C1BCF800C067
:10296000BC440FFA8CF2DFF898C1BCF800C0C44434
:102970000FFA8CF1DFF898C1BCF800C0A6EB0C0C84
:102980000FFA8CF0FEF7A6FD08B90020CEE7022072
:1029900058490870ACE05F48007810F0F00F27D07D
:1029A000DFF85CC1BCF800C0A4EB0C0C0FFA8CF390
:1029B000DFF85CC1BCF800C0BC440FFA8CF2DFF851
:1029C00048C1BCF800C0A4EB0C0C0FFA8CF1DFF886
:1029D00040C1BCF800C0A6EB0C0C0FFA8CF002E072
:1029E00041E080E008E0FEF775FD08B900209DE7B2
:1029F0000320404908707BE04648007810F0F00F53
:102A000023D0DFF808C1BCF800C0A4EB0C0C0FFA0F
:102A10008CF3DFF8F4C0BCF800C0BC440FFA8CF2B1
:102A2000DFF8ECC0BCF800C0A4EB0C0C0FFA8CF182
:102A3000DFF8D4C0BCF800C0A6EB0C0C0FFA8CF089
:102A4000FEF748FD08B9002070E72D48B0F90000F6
:102A50002D4908802B48B0F900002C49088001203E
:102A60002449087044E0B81B02D1B8EB040034D00C
:102A700028480078FF280AD179190AB2711B08B2D8
:102A800043462146FEF726FD18BB00204EE72148AD
:102A90000078F0280ED1A8EB040104EB61010BB221
:102AA00079190AB2711B08B22146FEF713FD80B9ED
:102AB00000203BE77B191AB2A8EB040304EB630385
:102AC00019B2731B18B24346FEF704FD08B9002083
:102AD0002CE706200749087004E00020054908702B
:102AE000012023E700BF00200249087001201DE7F4
:102AF00000BF73E6A0010020940100209001002097
:102B000096010020980100209A0100209C010020DD
:102B10009E010020BE0100202DE9FC4107460D4624
:102B200000262A2400200090019008205B490860BC
:102B300010204860402088600020C8604FF480600A
:102B40000861084606F028FA1020FFF75BF90446F2
:102B50002A2C02D02046BDE8FC81514800680004C0
:102B60004E49086037204860402088600020C860D7
:102B70004FF480600861084606F00EFA3720FFF730
:102B800041F904462A2C01D02046E4E7454846494D
:102B9000086008204860302088600220C86000205B
:102BA000086101204861084606F05CF900203B49B5
:102BB000086033204860402088600020C8604FF4DF
:102BC00080600861084606F0E7F93320FFF71AF93C
:102BD00004462A2C01D02046BDE709E04FF400103E
:102BE00006F070F920B106F0D1F94DF82600761CF8
:102BF0002E48406B40F22A610842EFD0082006F0D0
:102C000061F928B1082006F015F904242046A2E74E
:102C1000022006F057F928B1022006F00BF9022431
:102C2000204698E7202006F04DF928B1202006F034
:102C300001F9062420468EE74FF4007006F042F9B1
:102C400030B14FF4007006F0F5F80724204682E713
:102C500040F2FF5006F0EEF800980006009901F4EB
:102C60007F4140EA0120009901F47F0140EA1120F0
:102C7000009940EA1160686001980006019901F42A
:102C80007F4140EA0120019901F47F0140EA1120CF
:102C9000019940EA1160286020465CE7901F0020FF
:102CA00040000020FFFF0F00A41F00200080014013
:102CB00010B5044600BF02210A4807F04FFA002869
:102CC000F9D02146074807F055FA00BF0121054811
:102CD00007F044FA0028F9D0024807F048FAC0B2D9
:102CE00010BD0000003800400146084A126812B9C1
:102CF000064A116007E0054A106800E04068426833
:102D0000002AFBD1416000224A6070472C0100205C
:102D100010B518200AF092FD0446DCB142F6B0204E
:102D200020804DF23E706080E920A0804FF6FF7059
:102D3000E0804FF2BB7020814AF6DD60608142F294
:102D40003E60A0814BF29F60E0814DF27E70208258
:102D500001486061204610BD28E4000810B52848ED
:102D6000006848B900F050F820B1264800682449AE
:102D7000086001E0002010BD00243BE0204800680E
:102D8000408910F47C4F30D01D480068007A30B183
:102D900005280AD006280ED0092818D111E01848B5
:102DA0000068FEF781FD04B212E01548006801F0EA
:102DB00031FC04B20CE01248006807F02FFF04B2A7
:102DC00006E00F48006804F0A5FF04B200E000BF71
:102DD00000BF44B10A4800684089C0F309000849AF
:102DE0000968488101E00020C5E70548006840689F
:102DF00003490860024800680028BFD10120BAE7F3
:102E00003C0100202C01002010B50448007818B9BE
:102E1000FFF7A2F9012010BD0120FCE7E601002028
:102E200002460648016805E00888904201D108463C
:102E3000704749680029F7D10020F9E72C010020EC
:102E400070B50B4804680AE06568207A052802D14D
:102E5000204601F0D1FB20460AF068FB2C46002CEE
:102E6000F2D10020024908600249086070BD0000EC
:102E70002C0100203401002010B501F069F8FFF7A3
:102E800047FF0149086010BD3001002070B50646BB
:102E9000707800B970BD2C48046851E0207A30B1D8
:102EA000052817D0062828D0092846D138E0314611
:102EB0002046FEF7E3FE054605B93FE032462146CF
:102EC000284600F043F820B1324621462846FEF756
:102ED000A9FE33E03146204601F010FF054605B952
:102EE0002CE032462146284600F030F820B1324628
:102EF0002146284601F063FE20E03146204608F0D6
:102F000023FB054605B919E032462146284600F064
:102F10001DF820B132462146284608F027FA0DE078
:102F20003146204604F0F8FF054605B906E0324672
:102F30002146284600F00AF800E000BF00BF6468A0
:102F4000002CABD100BFA5E72C01002070B50446D2
:102F50000D4616460548007830B9324629462046C7
:102F600002F056F8012070BD0120FCE7E6010020C8
:102F70003EB5DEE1EF48007809287CD2DFE800F0BA
:102F80000534588EBEF6F4F3F200EB48008818B30F
:102F9000EA480088EA490880E123E748B0F90020C0
:102FA0000088E8490988401A01B2E7488DE80E0018
:102FB000B0F90030E548B0F90020E548B0F900105C
:102FC000E448B0F90000FDF7F7FE08B900203EBD67
:102FD0000120D849087006E00220D6490870012077
:102FE000DD49088025E000BFDC480088D44908801E
:102FF0001E23D148B0F900200088D2490988401A20
:1030000001B2D1488DE80E00B0F90030CF48B0F9D8
:103010000020CF48B0F90010CE48B0F90000FDF70D
:10302000CBFE08B90020D2E70620C2490870CBE0E9
:1030300000BFC2480088C249088022E0C44C2488EE
:10304000C54D2D882C4423B2C04C2488C24D2D88F8
:10305000641B22B2BE4C2488BF4D2D882C4421B263
:10306000BC4C2488BC4D2D882C4420B2FEF732FA8B
:1030700010B90020ABE75BE1B7480088401CB649B7
:103080000880B5480088AF4909888842D6DB01200E
:10309000B14908800320A749087049E121E0AA4C02
:1030A0002488AD4D2D88641B23B2AA4C2488AA4DD8
:1030B0002D882C4422B2A64C2488A74D2D882C4460
:1030C00021B2A44C2488A44D2D882C4420B2FEF7B4
:1030D00001FA08B900207AE79F480088401C9E4901
:1030E00008809D480088974909888842D7DB0120DD
:1030F0009949088004208F49087019E19748008891
:103100008F49088021E0904C2488934D2D88641BC2
:1031100023B28E4C2488904D2D88641B22B28A4C99
:1031200024888D4D2D88641B21B28A4C24888A4DB9
:103130002D882C4420B2FEF7CDF908B9002046E7CF
:1031400085480088401C84490880834800887D4960
:1031500009888842D7DB01207F490880052075490E
:103160000870E5E070E0A0E02DE0FFE721E0764C9C
:103170002488794D2D88641B23B2744C2488764DA5
:103180002D88641B22B2724C2488734D2D882C44E8
:1031900021B26E4C2488704D2D88641B20B2FEF73E
:1031A00099F908B9002012E76B480088401C6A4969
:1031B000088069480088634909888842D7DB06206F
:1031C0005C490870B4E000BF654800885C4908802D
:1031D00059480088B8B1584800885A490988401AA7
:1031E00003B259480093B0F900305848B0F90020B4
:1031F0005748B0F900105748B0F90000FFF7E6FA59
:10320000F0B90020E3E6504C24884E4D2D88641B15
:1032100023B24E4C24884B4D2D88641B22B24C4C5B
:103220002488484D2D882C4421B24A4C2488454D91
:103230002D882C4420B2FEF74DF908B90020C6E6CF
:1032400008203C49087073E04648006848B3454888
:10325000006800F0DDFC3C49B1F900103C4AB2F9CD
:1032600000201144081A012101EB600004B23D481E
:10327000006800F0D6FC3549B1F90010354AB2F9C2
:1032800000201144081A012101EB600005B20B4631
:10329000344821460268284604F0E0FF08B90020BF
:1032A00095E607202349087042E02E48006808B3DD
:1032B0002C48006800F0B5FC2449B1F90010254AFB
:1032C000B2F90020891A1C4AB2F900201144884240
:1032D00029DC2448006800F09BFC1B49B1F9001070
:1032E0001B4AB2F90020891A134AB2F9002011448E
:1032F000884218DC19480088114908800E48B0F946
:10330000003011480093B0F900301048B0F90020A7
:103310000F48B0F900100F48B0F90000FEF7FCF8B4
:1033200008B9002053E600200249087001204EE64B
:1033300000BF1FE640010020500100205401002082
:10334000DA010020580100204E0100204C0100202D
:103350004A010020480100204201002056010020BF
:1033600052010020380100203EB5C5E1E348007855
:10337000082867D2DFE800F004326797C7F7F5F452
:10338000DF48008818B3DF480088DF490880FF2342
:10339000DB48B0F900200088DC490988401A01B2F6
:1033A000DB488DE80E00B0F90030DA48B0F90020B3
:1033B000D948B0F90010D948B0F90000FDF7FCFC7D
:1033C00008B900203EBD0520CC49087005E0012069
:1033D000CA490870D249088001E000BF00BFC9484F
:1033E0000088C949088021E0CB4C2488CC4D2D8829
:1033F0002C4423B2C74C2488C94D2D88641B22B2AB
:10340000C54C2488C64D2D882C4421B2C34C248839
:10341000C34D2D882C4420B2FEF75CF808B900207B
:10342000D0E7BF480088401CBD490880BC480088E0
:10343000B64909888842D7DB0120B94908800220B3
:10344000AE49087057E121E0B14C2488B44D2D8875
:10345000641B23B2B14C2488B14D2D882C4422B278
:10346000AD4C2488AE4D2D882C4421B2AB4C248821
:10347000AB4D2D882C4420B2FEF72CF808B9002063
:10348000A0E7A7480088401CA5490880A4480088F8
:103490009E4909888842D7DB0120A1490880032082
:1034A0009649087027E121E0994C24889C4D2D888D
:1034B000641B23B2974C2488994D2D88641B22B23B
:1034C000934C2488964D2D88641B21B2934C2488FC
:1034D000934D2D882C4420B2FDF7FCFF08B9002045
:1034E00070E78F480088401C8D4908808C48008810
:1034F000864909888842D7DB012089490880042051
:103500007E490870F7E021E0814C2488844D2D88A5
:10351000641B23B27F4C2488814D2D88641B22B20A
:103520007D4C24887E4D2D882C4421B2794C2488F2
:103530007B4D2D88641B20B2FDF7CCFF08B900201D
:1035400040E777480088401C754908807448008827
:103550006E4909888842D7DB052068490870CAE0AF
:1035600097E049E0FFE76F480088674908806448B2
:103570000088D0B1F0206C49087061480088634928
:103580000988401A03B262480093B0F900306148DC
:10359000B0F900206048B0F900106048B0F90000B0
:1035A000FFF714F920BB00200CE7594CB4F9004098
:1035B000594DB5F90050641B574D2D8805EB640437
:1035C00023B2544C2488514D2D88641B22B2524C96
:1035D00024884E4D2D882C4421B2504C24884B4DCC
:1035E0002D882C4420B2FDF775FF08B90020E9E6CC
:1035F0000620424908707EE04C4800884249088015
:103600003F480088D0B10F20474908703C480088E7
:103610003E490988401A03B23D480093B0F9003092
:103620003C48B0F900203C48B0F900103B48B0F9E4
:103630000000FFF7CBF828BB0020C3E6344C2488F9
:10364000324D2D88641B23B2324C24882F4D2D8897
:10365000641B22B22E4CB4F900402F4DB5F9005036
:10366000641B2D4D2D8805EB6404641C21B22B4C8A
:103670002488264D2D882C4420B2FDF72BFF08B955
:1036800000209FE6FF202849087007201B4908708A
:1036900031E02748006848B32548006800F0B8FAD0
:1036A0001B49B1F900101C4AB2F900201144081A54
:1036B000012101EB600004B21D48006800F0B1FA7E
:1036C0001449B1F90010154AB2F900201144081A42
:1036D000012101EB600005B20B4615482146026846
:1036E000284604F0BBFD08B900206BE60020034922
:1036F0000870012066E600BF38E6000044010020A3
:103700005001002052010020DA0100205801002061
:103710004E0100204C0100204A01002048010020F9
:103720004601002054010020BE0100205601002067
:103730003801002008B50121802004F097FF4FF4E4
:103740008060ADF8000003208DF8020048208DF85D
:1037500003006946014800F03BF808BD001C014029
:1037600008B501214FF4CA7004F080FF40F2011047
:10377000ADF8000003208DF8020004208DF803004E
:103780006946104800F024F84FF40050ADF80000EE
:1037900003208DF8020004208DF8030069460A48D2
:1037A00000F016F84FF4D340ADF8000003208DF878
:1037B000020004208DF803006946044800F008F870
:1037C00008BD000000080140001001400020014039
:1037D0002DE9F041024600250026002000230024A8
:1037E000002791F803C00CF00F0591F803C01CF0FE
:1037F000100F03D091F802C04CEA0505B1F800C0E3
:103800001CF0FF0F31D0146800202BE04FF0010CAA
:103810000CFA00F3B1F800C00CEA03069E4220D176
:1038200083004FF00F0C0CFA03F7BC4305FA03FCBE
:103830004CEA040491F803C0BCF1280F06D14FF004
:10384000010C0CFA00FCC2F814C00AE091F803C0A5
:10385000BCF1480F05D14FF0010C0CFA00FCC2F886
:1038600010C0401C0828D1D31460B1F800C0BCF1CE
:10387000FF0F34DD546800202EE000F1080C4FF0FB
:10388000010808FA0CF3B1F800C00CEA03069E42E6
:1038900021D183004FF00F0C0CFA03F7BC4305FA5B
:1038A00003FC4CEA040491F803C0BCF1280F05D1D5
:1038B00000F1080C08FA0CF8C2F8148091F803C063
:1038C000BCF1480F07D100F1080C4FF0010808FACD
:1038D0000CF8C2F81080401C0828CED35460BDE814
:1038E000F0810246002093680B4201D0012000E0E5
:1038F0000020704741617047016170472DE9F04732
:103900000D20FFF78DFA05464FF480419D48FFF7E3
:10391000E8FF30BB642300221146104603F08CF907
:103920004FF480419748FFF7DCFFD0B90C20FFF738
:1039300077FA0446284601F01DF9401C06B23146CC
:10394000284601F0BBF9688940F480506881E08B1B
:10395000401E01B2204607F097FD608940F4805078
:1039600060814FF400518748FFF7BBFF30BB6423F1
:1039700000221146104603F05FF94FF400518148D0
:10398000FFF7AFFFD0B90C20FFF74AFA04462846EC
:1039900001F0F0F8401E06B23146284601F08EF9DB
:1039A000688940F480506881E08B401C01B2204659
:1039B00007F06AFD608940F4805060814FF48071A7
:1039C0007048FFF78EFF002861D164230022114662
:1039D000104603F031F94FF480716A48FFF781FF18
:1039E000002854D10021284601F0DAF800284ED0F2
:1039F0006548006801284AD00B20FFF711FA0446F9
:103A0000E08B801E01B2204607F03EFD5F49C96889
:103A10005F4A526E881AFCF7EDFE8046E08BFCF799
:103A2000E9FE81465B49FCF717FD07464146FCF776
:103A3000DDFC0646FCF71AFF80465449C968544A23
:103A4000526E881AFCF7D6FE8146E08BFCF7D2FE58
:103A500082465049FCF700FD07464946FCF7C6FC84
:103A60000646FCF703FFC0F30800A8EB00004A4934
:103A700008604748406E0A4612688118434809F0BA
:103A8000EDFA46490870608940F4805060814FF437
:103A900000613C48FFF725FF002861D16423002224
:103AA0001146104603F0C8F84FF400613548FFF79F
:103AB00018FF002854D10021284601F071F8002891
:103AC0004ED03148006801284AD00B20FFF7A8F9F2
:103AD0000446E08B801C01B2204607F0D5FC2B4940
:103AE000C9682B4A526E881AFCF784FE8046E08B28
:103AF000FCF780FE81462749FCF7AEFC07464146AD
:103B0000FCF774FC0646FCF7B1FE80461F49C96805
:103B10001F4A526E881AFCF76DFE8146E08BFCF757
:103B200069FE82461B49FCF797FC07464946FCF7AD
:103B30005DFC0646FCF79AFEC0F30800A8EB000007
:103B4000154908601248406E0A46126881180F48ED
:103B500009F084FA11490870608940F4805060814E
:103B600080210848FFF7BDFE48B9642300221146B2
:103B7000104603F061F880210248FFF7B2FEBDE86D
:103B8000F08700000020014024000020EC1A0020F3
:103B9000BC1F002000004843300000202900002006
:103BA0002DE9F84305460E4614469846DDF8209068
:103BB00000BF14F8017B43463A4631462846CDF80B
:103BC000009004F019FBB5F59C7F03DA05F10800BD
:103BD00085B208E0E02E04DA002506F1100086B276
:103BE00001E00025002620780028E2D1BDE8F88316
:103BF00070B505460C46A4F12000044A02EB001102
:103C000010222846FCF717FB70BD000036DC0008C8
:103C10000146088818B94868408800B270470020FB
:103C2000FCE70146088818B94868808800B27047E8
:103C30000020FCE72DE9F74F82B003460C46002137
:103C4000012000900020DFF894E18EF80000DFF8FA
:103C500090E1CEF800000098E8B3187830280CD135
:103C60005878262809D19878B22806D1D8787528AE
:103C700003D1012005B0BDE8F08F1878492805D19F
:103C80005878442802D19878332800D02AE0D87890
:103C9000032801D00120EDE7987900F07F004FF074
:103CA0000A0E0EEB405ED87900F07F000EEB802EFE
:103CB000187A00F07F000EEBC01093F809E00EF0C8
:103CC0007F0E00EB0E0A5146601E884209D2081B87
:103CD000DFF80CE100E004E0CEF8000000200090E6
:103CE000C8E700BF5D5C05E02806050C481C0146DE
:103CF000185C05434FF6FA702840A0F57E4EBEF5DD
:103D0000FD7E02D0601E8842EED8601E884209D82F
:103D1000185CFF2804D10120DFF8C0E08EF8000015
:103D20000020A7E7601E01F12F0E704506D8302055
:103D3000DFF8A8E08EF8000000209BE7491C585CE3
:103D40000711585CC0F3810C585CC0F34008891C13
:103D50008AB212E0985C58280DD1501C185C692872
:103D600009D1901C185C6E2805D1D01C185C6728FE
:103D700001D1012607E0501C82B201F124008242E9
:103D8000E8D3002600BF8EB9164850F8270000EB94
:103D9000C0000001DFF850E05EF82CE090FBFEF080
:103DA00000EB080B0498B0FBFBF90FE02831C81CAE
:103DB00013F800E0881C185C0EEB002E481C185C01
:103DC0000EEB004013F801E000EB0E694FF01A0E05
:103DD00009FB0EF0019000BF01984BE76400002042
:103DE0006800002078E2000868E2000870B5064626
:103DF0000024002501223146184809F0D3F918495A
:103E000008701648C06830B320E016480078281AB9
:103E100015490968084485B2144B4FF400721449DF
:103E20000E4809F039FA0E49087044B90B484FF4AE
:103E30000071C2680E48FFF7FDFE044603E0012C46
:103E400000D107E006E005F5007085B20348C068C0
:103E5000A842DAD800BF204670BD0000EC1A00204E
:103E60002900002064000020680000202C000020B1
:103E7000081D002038B50446B4F9000010B101282F
:103E80000CD102E06068807938BD6B4601220621C2
:103E90002046FEF70DFC9DF80000F5E70020F3E753
:103EA0002DE9FE4F06468846B8F9000010B10128FA
:103EB00049D11FE0D8F80490B9F80200C5B2B9F8AA
:103EC000040000F0FF0A09F1080B00270BE0AC42E8
:103ED00000DA08E0544500DD05E0601B1BF8200017
:103EE000384407B200BF16F8014B0F2CEFDC384600
:103EF000BDE8FE8F6B46082200214046FEF7D8FB46
:103F0000BDF80200C5B2BDF8040000F0FF0A0027AA
:103F100013E0AC4200DA10E0544500DD0DE0601B18
:103F2000800000F1080102AB04224046FEF7C0FB0E
:103F30009DF80800384407B200BF16F8014B0F2C5B
:103F4000E7DC3846D4E70020D2E700BFFEE70000F8
:103F500010B500200D4908800D4908700D490880F2
:103F60000D49088004F0D2FE00200C490880FDF7BE
:103F70001DFF4FF6FF70094908800020084908809E
:103F800008490870FF200849087010BDA8010020EA
:103F9000AB010020AE010020B0010020DA010020BA
:103FA000DC010020AC010020BE01002070B50546F8
:103FB000EF2340F23F120021084600F00EFA2C20B9
:103FC00000F068FA002403E0284600F067FA641C59
:103FD000B4F5963FF8D370BD10B500F003F800F0CB
:103FE000BEF810BD08B50121080204F01FFB012135
:103FF00040F2E11004F03AFB4CF23370ADF80000EF
:1040000003208DF8020018208DF80300694611483E
:10401000FFF7DEFB4FF68070ADF8000069460E48F2
:10402000FFF7D6FB6020ADF8000069460A48FFF7AD
:10403000CFFB0120ADF8000069460848FFF7C8FB38
:104040004FF48050ADF8000069460548FFF7C0FB0B
:1040500008BD00000014014000180140001C014090
:10406000002001402DE9F05F04460D4691469A4636
:10407000DDF828B04C4503DD0FFA89F7A146BCB244
:10408000554503DD0FFA8AF7AA46BDB2A9EB040035
:104090000FFA80F8AAEB050006B2B8F1000F0BD1B9
:1040A00000BF5A462946204600F0D5F9681C85B263
:1040B000AA45F6DABDE8F09F56B900BF5A46294630
:1040C000204600F0C8F9601C84B2A145F6DAF1E799
:1040D000B04521DDC8EB460007B215E05A46294637
:1040E000204600F0B8F9601C84B2002F08DD681C7F
:1040F00085B27000022101FB1800384407B203E0CA
:10410000022000FB067007B24C45E7D15A4629460B
:10411000204600F0A0F920E0C6EB480007B215E009
:104120005A462946204600F096F9681C85B2002FB1
:1041300008DD601C84B27000022101FB18003844C5
:1041400007B203E0022000FB067007B25545E7D135
:104150005A462946204600F07EF900BFAAE700B57E
:1041600097B00520019000200290052003900020C8
:104170000490059006900790062008900020099072
:104180000A9010200B9000200C900E900F90109031
:104190004FF480501190002012900D9013901490C5
:1041A00001A8159008A8FEF7A1FA032001900020AD
:1041B0000290032003900020049005900690079041
:1041C00001A8169008A8FEF791FA01210620FEF733
:1041D00073FA17B000BD10B5FFF7FEFEE22000F045
:1041E00059F9232000F05AF9022000F057F9542021
:1041F00000F054F9E02000F04DF9012000F04EF9F4
:104200000A2008F083FDE02000F044F9032000F0CC
:1042100045F9012000F03EF90A2008F077FDE6207C
:1042200000F038F9002000F039F9DD2000F036F90F
:10423000DC2000F033F9B02000F02CF9202000F051
:104240002DF9002000F02AF9012000F027F93F2085
:1042500000F024F9002000F021F9EF2000F01EF911
:10426000002000F01BF9B42000F014F9012000F048
:1042700015F94FF4CD7000F011F9002000F00EF99F
:10428000462000F00BF9132000F008F9002000F0A0
:1042900005F9002000F002F9002000F0FFF8B62038
:1042A00000F0F8F8012000F0F9F840F2011000F0F9
:1042B000F5F8002000F0F2F80D2000F0EFF80120F2
:1042C00000F0ECF8002000F0E9F8002000F0E6F83B
:1042D000F02000F0DFF8032000F0E0F8B82000F054
:1042E000D9F80F2000F0DAF8012000F0D7F801210A
:1042F000084605F05FFF0121022005F05BFF012168
:10430000042005F057FF0121082005F053FF00218C
:10431000082005F04FFF012008F0F8FC01210820DB
:1043200005F048FF0721002005F07DFF0021012056
:1043300005F079FF0321022005F075FFCC21032051
:1043400005F071FF4621042005F06DFF0D210520C9
:1043500005F069FF0021062005F065FF0021072018
:1043600005F061FF0821084605F05DFF40210920A6
:1043700005F059FF88210A2005F055FF88210B2000
:1043800005F051FF30210C2005F04DFF20210D20BC
:1043900005F049FF6A210E2005F045FFA4210F20FA
:1043A00005F041FF0421102005F03DFF24211120DC
:1043B00005F039FF2421122005F035FF00211E20D1
:1043C00005F031FF0021202005F02DFF292000F00D
:1043D00061F8FF2000F027F810BD2DE9F0410746F5
:1043E0000C4615461E462A2000F054F8381200F0FC
:1043F00055F8384600F052F8281200F04FF82846D9
:1044000000F04CF82B2000F045F8201200F046F8A0
:10441000204600F043F8301200F040F8304600F03B
:104420003DF8BDE8F08110B50446BE2000F032F83A
:104430000E2000F033F8204600F030F8012000F0A4
:104440002DF8002000F02AF8002000F027F80020C6
:1044500000F024F810BD2DE9F04104460D46164643
:104460002746F02C02DAB5F5A07F01DBBDE8F0812C
:104470002C46C7F1EF0085B22B462246294620463E
:10448000FFF7ABFF2C2000F005F8304600F006F8EF
:1044900000BFEBE74FF0D841088070474FF0D8419C
:1044A000488070472DE9F05F06460F4690469946D2
:1044B000DDE90AAB182009F0C1F9044614B900205F
:1044C000BDE8F09F308C401C3084B06920B9B461E5
:1044D0000020606020600CE037B9B56900E06D68CD
:1044E00068680028FBD100E03D4668686060256090
:1044F0006C60C4F80C80C4F81090A4F808A0A4F86C
:1045000014B02046DCE70246538913F0100F10D098
:1045100090690CE0038913F0010F07D0038923F0A1
:1045200001030381038943F00203038140680028EB
:10453000F0D10B8983F001030B810B8943F0020357
:104540000B8170472DE9FC5F0746884691469A46E5
:10455000DDF83CB00024282009F070F9044614B9B5
:104560002046BDE8FC9F2780002060600520207267
:10457000A4F80C80A4F80E90A4F810A00C98608207
:104580000D9860810020A06160842084BBF1000F41
:1045900003D118480068606101E0C4F814B0616993
:1045A0004869FFF767FCA0842046FEF79DFB0E9844
:1045B000E0B10E9D002615E000221346CDE900264D
:1045C0002A4600212046FFF76DFF00B90DE000BF2D
:1045D00015F8011B1F29FBDC15F8010C00B904E0DC
:1045E000701C86B228780028E6D100BFA069E0617F
:1045F0002046B6E73001002070B50446A56904E006
:104600002E466D68304608F091FF002DF8D100204D
:10461000A06170BD38B50446F948007806287ED2FE
:10462000DFE800F003FEFDFCFBFA608910F4004FA8
:1046300012D06069008AF3490880B4F91230B4F9E5
:104640001020B4F90E10B4F90C00FCF743FF08B9C0
:10465000002038BD0120FCE7608910F4005F0BD01A
:10466000E06928B1E069008940F00200E169088151
:10467000608940F480506081608910F4804F37D0A9
:10468000608910F0020F05D06069C08900B2DE4970
:10469000088004E06069408900B2DB490880A08995
:1046A000DA490880E089DA490880208AD9490880F7
:1046B000608AD94908800020D8490880D2480088FB
:1046C000D749088060690088D649088060694088B9
:1046D000D54908800020D54908600320D4490880C6
:1046E0000120C7490870FEF743FC08B90020B0E775
:1046F00000BF0120CF490880A089401D00B2CE49EB
:104700000880E089401D00B2CC490880208A401F03
:1047100000B2CB490880608A401F00B200E01AE274
:10472000C84908806169486906F0A8F9A089401D58
:1047300000B2C5490880E089401D618C084400B280
:10474000C2490880C249A069086000BFC04800682B
:1047500030B90020AA490870B6490880012078E7DE
:10476000B4F91200401FB949B1F9001088427EDD4A
:10477000B4F92400B549B1F900100144B4F90E00B0
:10478000401D814273DB608910F4804F06D1B04830
:104790000068008910F0020F00D119E1AC480068F0
:1047A000008920F00200AA49096808810220944982
:1047B0000870608910F0020F04D06069C0899149C7
:1047C00008800FE0606940898E490880A048006831
:1047D00040B19F480068008910F0010F02D0606965
:1047E00080890880B4F90E009849B1F90010884218
:1047F00017DCA18C954D2D8829440BB2218A491FC5
:104800000AB2A189491D08B29049B1F90010FCF71C
:1048100061FE30B900201CE7E1E0DFE0E0E0DCE031
:10482000DAE0608910F00C0F0AD1A089401D00B2B7
:10483000854908808548B0F90000844908803EE039
:1048400062695169824A1268D068FFF729FB6E4994
:1048500008807F480068006968B17D490968086977
:10486000FFF7DFF9801C68490988084400E0AEE0E2
:1048700000B265490880608910F0040F0DD0208ACD
:1048800061490988401A401F00B26F4908806F488B
:10489000B0F900006D49088011E0B4F90C00B4F9DA
:1048A000101008445849B1F90010401A401000B2E5
:1048B000654908806548B0F900006449088060894E
:1048C00010F0020F04D0606900894E4908800EE0A4
:1048D0005F480068008910F0010F04D06069C0884B
:1048E0004849088003E060698088464908800420C0
:1048F00043490870564800680069E0B354490968A4
:104900000869FFF785F9B4F92410081A4F49B1F97D
:10491000001001EB6000B4F90E1088422CDD4C4908
:1049200009680869FFF774F9B4F92410081A4749AF
:10493000B1F9001001EB6001B4F9120010388142A6
:104940001ADA434909680869FFF762F9B4F92410D3
:10495000081A3E49098801EB600005B23C4800682E
:104960000123294602693848B0F9000003F076FCBB
:1049700010B900206DE610E0354909680869FFF7B5
:1049800050F9801C30490988084400B22E4908803B
:104990002E48B0F900002D490880052018490870FC
:1049A000B4F90E002949B1F9001088420FDCB4F9BE
:1049B000120010382549B1F90010884207DB24495C
:1049C0000968C86803F01AF908B9002041E600BF79
:1049D00003200B49087004E085E6EAE68AE7DFE792
:1049E00000BF1B49E069096888427ED1608910F0E8
:1049F000010F2FD06069C088024908802EE00000B6
:104A00005C010020DA010020640100204801002040
:104A10004A0100204C0100204E01002050010020DE
:104A200052010020540100205601002038010020CE
:104A300058010020DC010020DE010020E001002000
:104A4000E2010020E4010020AE010020B0010020BE
:104A50006001002060698088404908800220404948
:104A600008804048B0F900003F490880B4F90E00C2
:104A70003C49B1F9001088421DDCB4F91200401F16
:104A80003849B1F90010884215DD00230093A18C4C
:104A9000344D2D882944491E0BB2218A491F0AB280
:104AA000A189491D08B22F49B1F90010FCF734FD66
:104AB00008B90020CDE500202C4908802A48B0F92B
:104AC000000028490880002025490880B4F90E001C
:104AD000401D2449B1F9001088420FDD618CE08946
:104AE000401D204A1288801A00E022E0084400B2EB
:104AF0006084608940F480406081FAE5B4F9240064
:104B00001849B1F900100144B4F91200401F814264
:104B10000FDD608A13490988401AA18C401A401F92
:104B2000618C084400B26084608940F480406081F8
:104B3000DFE50F48006840680D4908600B48B0F990
:104B400000000A490880A08C06490988084400B280
:104B500004490880FAE501207BE50000DA01002025
:104B6000A8010020B001002064010020AE01002057
:104B7000600100200146C86910B94FF0FF3070474E
:104B800000238A6906E0C869904200D105E0581CFC
:104B900003B2526850680028F5D100BF1846EEE70E
:104BA000024601B9916905E0088910F0010F00D0B3
:104BB00002E049680029F7D100BF084670472DE997
:104BC000F04380460C4616463078022837D170787C
:104BD000022834D1B6F90400B4F92210401AB4F90D
:104BE0000E10401A401FB4F9241090FBF1F007B2E8
:104BF000A56907E005B907E0686800B904E06D68D9
:104C0000781E07B2002FF5D100BFE069A8420ED090
:104C1000288940F002002881E069008940F0020004
:104C2000E1690881E561608940F48050608129462E
:104C30002046FFF768FC608940F48050608130783E
:104C4000012839D1B8F1180F03D0B8F1190F32D1BA
:104C50000AE0E06918B12046E169FFF754FC608979
:104C600040F48050608126E0B6F90400482802D064
:104C700050281ED10EE02046FFF77CFF401E0FFAA1
:104C800080F94946204600F019F8608940F48050C8
:104C900060810EE02046FFF76DFF401C0FFA80F99F
:104CA0004946204600F00AF8608940F4805060814F
:104CB00000BF00BF00BF00BFBDE8F08310B50246D3
:104CC000906900B910BD05E0002900DC05E04B1E2D
:104CD00019B240684368002BF6D100BF60B1D369B8
:104CE0002BB1D3691B8943F00203D4692381D061BE
:104CF000038943F00203038100BFE3E702465089C2
:104D000010F0020F01D000207047087802281BD154
:104D1000B2F90C00B1F90230984213DAB2F910007E
:104D2000B1F9023098420DDDB2F90E00B1F904304C
:104D3000984207DAB2F91200B1F90430984201DD65
:104D40001A20E1E70020DFE70878012819D1B1F93E
:104D500002001388984214D1487805280FD188881A
:104D6000482802D08888502801D11920CCE78888AB
:104D7000392802D088881C2801D11820C4E70020D7
:104D8000C2E70020C0E700002DE9F04F87B00446DD
:104D90000D4691469A469848A0F800909748A0F88A
:104DA00000A04C4538D1554502DD2E465546B24649
:104DB0000020009001272E4626E00098401C00B2FB
:104DC0008F490090B1F90010884203D187F00107A4
:104DD00000200090B7B18B480288B1B2A0B2FFF7B3
:104DE0003AFB8948007868B186480288B1B2601CF5
:104DF00080B2FFF730FB611E88B282490A88B1B2E7
:104E0000FFF729FB701C06B20AF101008642D4DBD1
:104E1000012007B0BDE8F08F554536D14C4502DD85
:104E200026464C46B146002000900127264626E043
:104E30000098401C00B272490090B1F900108842FD
:104E400003D187F0010700200090B7B16D480288B8
:104E5000A9B2B0B2FFF7FFFA6B48007868B16948B1
:104E60000288681C81B2B0B2FFF7F5FA681E81B201
:104E700064480288B0B2FFF7EEFA701C06B209F17E
:104E800001008642D4DB0120C3E700200390A9EB98
:104E900004000FFA80F8B8F1000F08DAC8F100003A
:104EA0000FFA80F80398401E00B2039003E00398C5
:104EB000401C00B2039000200290AAEB05000FFAFC
:104EC00080FBBBF1000F08DACBF100000FFA80FB8A
:104ED0000298401E00B2029003E00298401C00B20B
:104EE000029000200190D84514DA0198401C00B2CD
:104EF00001904646D846B34626462C463546039E84
:104F00000298039002963F480288A1B2A8B2FFF728
:104F1000A2FA05E03B480288A9B2A0B2FFF79BFACB
:104F20004FEA480000B204904FEA4B0000B20590EF
:104F30000598A0EB080000B2069000200090012721
:104F400051E00698002807DB0298284405B204992E
:104F50000698401A00B206900398204404B2DDE996
:104F60000510084400B206900098401C00B2244985
:104F70000090B1F90010884203D187F001070020AA
:104F8000009087B30198B8B11E480288A1B2A8B2B8
:104F9000FFF761FA1C48007828B31A480288A1B2CA
:104FA000681C80B2FFF757FA691E88B215490A8853
:104FB000A1B2FFF750FA16E012480288A9B2A0B2D7
:104FC000FFF749FA1048007868B10E480288681C5B
:104FD00081B2A0B2FFF73FFA681E81B20948028889
:104FE000A0B2FFF738FAA8F1010000B2B0F1000852
:104FF000A7DA01200DE70000AE010020B00100207B
:10500000A8010020DA010020AB01002000BFFEE76C
:105010002DE9F04F91B080460F4692460D20FDF7E6
:10502000FFFE0546388811287DD2DFE810F07C00AD
:105030004501050254038E037E041A0548057C00D1
:105040007C00AD04CD001F0111007C00D004F504EC
:105050009AF80100022867D1B8F11A0FFBD1524625
:1050600039464046FFF7ABFD00212846FFF798FD83
:105070000646002E58D0FF48006838B1FD48006849
:10508000B04203D0FC48FB49096808610C20FDF7D9
:10509000C7FE04462846FFF76DFD298C081A401EFE
:1050A0000FFA80FB5946204606F0EEF9608940F47D
:1050B00080506081204605F0B1FD0220FDF7B0FE72
:1050C0008146EE49D9F82400884214D1EC480068A2
:1050D000401C10D0EA48006801280CD0E94800685C
:1050E00001F0E2FA642300221146104601F0A4FD0B
:1050F0000120E5490870E548C9F824004846FCF756
:10510000D3FBDC480660E2483061688940F4805097
:1051100068812846FFF77EFA282105A8FBF7B2F838
:10512000DCA105A801E0FFE34AE0FBF7EFF8DCA112
:1051300005A8FBF7B3F805A8F168FBF7AFF805A9D8
:10514000D8A007F097FADDA105A8FBF7B5F828B9B4
:10515000DBA105A8FBF7B0F8002831D0D7A105A83E
:10516000FBF7AAF848B1D5A105A8FBF7A5F805A952
:10517000401AC01C00220A540DE0D1A105A8FBF77B
:105180009BF840B1CDA105A8FBF796F805A9401AF8
:10519000C01C00220A54BC480078012805D1C94827
:1051A000006801F081FAFBF7F3FC002301221946A5
:1051B000184601F041FD05A9C348006801F038F91F
:1051C000012011B0BDE8F08FB8F10D0F02D0B8F199
:1051D0000E0F49D10B20FDF723FE044652463946F7
:1051E000404606F0C3F8B949C968B94A526E881AF0
:1051F000FBF700FB0390E08BFBF7FCFAB54902904C
:10520000FBF72AF983460399FBF7F0F80490FBF7C4
:105210002DFB8346AD49C968AD4A526E881AFBF72B
:10522000E9FA0390E08BFBF7E5FAAA490190FBF756
:1052300013F902900399FBF7D9F80490FBF716FBDA
:10524000C0F30800ABEB0000A3490860A048406E23
:105250000A46126881189D4807F000FF9F490870B0
:10526000608940F4805060810120AAE7B8F10D0FF9
:1052700002D0B8F10E0F1DD10C20FDF7D1FD044670
:1052800052463946404606F071F82846FFF772FC50
:10529000298CE28B891A491E88420BD0288CE28B1C
:1052A000801A401E01B22846FFF708FD688940F4C5
:1052B00080506881012084E7B8F1060F7DD100217C
:1052C0002846FFF76DFC0646002E76D00220FDF73B
:1052D000A7FD81466949D9F82400884209D1694867
:1052E000006801F0E1F9642300221146104601F044
:1052F000A3FC6648C9F824004846FCF7D5FA0C2000
:10530000FDF78EFD0446306828B900212846FFF7D6
:1053100047FC064602E05848306136682846FFF7E9
:1053200029FC401E0FFA80FB59462846FFF7C6FCB1
:105330005748E96908612846E969FFF7E4F8688990
:1053400040F4805068812846FFF714FC298CE28BDA
:10535000891A491E88420FD02846FFF70BFC298C7A
:10536000081A401E0FFA80FB5946204606F08CF8BA
:10537000608940F48050608100212846FFF710FCCE
:105380000646282105A8FAF77DFF42A105A8FAF7ED
:10539000BDFF43A105A8FAF781FF05A8F168FAF758
:1053A0007DFF05A93FA007F065F944A105A8FAF71C
:1053B00083FF30B942A105A800E03BE0FAF77CFF8B
:1053C000C0B33EA105A8FAF777FF48B13BA105A8F5
:1053D000FAF772FF05A9401AC01C00220A540DE01A
:1053E00037A105A8FAF768FF40B134A105A8FAF77C
:1053F00063FF05A9401AC01C00220A542048006817
:10540000012805D02F48006801F04EF9FBF7C0FBDA
:10541000334878623846FCF747FA002301221946E0
:10542000184601F009FC2F48786205A92648006853
:1054300000F0FEFF0120C4E6B8F1060F59D10F4974
:10544000786A88427ED11048007888B90C48006894
:1054500001284FD00D4878623846FCF725FAC8235A
:1054600000221146104601F0E7FB064800683BE0C9
:1054700040E00000E80100206C0200200C02002047
:10548000240000200C000020280000203C02002006
:1054900064020020303A2F4D7573696300000000EC
:1054A0002F0000002D2D2073656C656374206D75D1
:1054B000736963202573200D0A0000004D503300EE
:1054C0006D7033001800002014000020EC1A00203A
:1054D000BC1F0020000048433000002029000020AD
:1054E000240200200402002001F0DEF80120FB4924
:1054F0000870EEE0F94800780028FAD1F848006812
:105500000128F6D1F74878623846FCF7CDF900213A
:105510002846FFF745FB0646282105A8FAF7B2FE04
:10552000AFF2900105A8FAF7F1FEAFF28C0105A8E1
:10553000FAF7B4FE05A8F168FAF7B0FE05A9AFF2D4
:105540009C0000E03BE007F095F8AFF2900105A861
:10555000FAF7B2FE30B9AFF2980105A8FAF7ACFE3F
:105560000028C6D0AFF2AC0105A8FAF7A5FE50B1ED
:10557000AFF2B80105A8FAF79FFE05A9401AC01CB2
:1055800000220A540FE0AFF2C80105A8FAF794FE12
:1055900048B1AFF2D80105A8FAF78EFE05A9401A66
:1055A000C01C00220A54002301221946184601F0AB
:1055B00043FB05A9CC48006800F03AFF89E0CB48DE
:1055C00078623846FCF770F9C8230022114610466D
:1055D00001F032FBC648006801F066F80020BF49C0
:1055E00008701420FDF71CFC1090109802F092FB3C
:1055F0000020C049088006F0F3FD4FF47A7148435B
:10560000BD49C8650846C06D4FF47A71B0FBF1F032
:105610006421B0FBF1F03030C0B20F900FAA3C21F2
:10562000B22002F023FBB448C06D4FF47A71B0FB96
:10563000F1F06421B0FBF1F201FB12000A21B0FB92
:10564000F1F03030C0B20F900FAA3C21BA2002F026
:105650000DFBA948C06D4FF47A71B0FBF1F06421E5
:10566000B0FBF1F201FB12000A21B0FBF1F201FBE9
:1056700012003030C0B20F900FAA3C21C22002F0BD
:10568000F5FA9EA23C21CA2002F0F0FA1120FDF7A3
:10569000C7FB1090109802F03DFB00209549088050
:1056A0009548FAF72BFE40080190FBF7A3F84FF05E
:1056B00082410290FAF79AFE83469249FAF793FEE6
:1056C0000390FBF7BAF800B28B4A1E21049002F057
:1056D000CDFA012075E5B8F1060F34D10021284636
:1056E000FFF75EFA064676B30220FDF799FB814686
:1056F0007E49D9F82400884209D18348006800F027
:10570000D3FF642300221146104601F095FA774832
:10571000C9F824004846FCF7C7F87C487862384648
:10572000FCF7C2F8C82300221146104601F084FAA3
:105730007748786201206A490860FBF729FA7548C2
:10574000006800F0B1FF01203BE5B8F1060F7ED103
:1057500000212846FFF724FA0646002E77D00220C3
:10576000FDF75EFB81466149D9F82400884209D1E2
:105770006548006800F098FF642300221146104637
:1057800001F05AFA5748C9F824004846FCF78CF84B
:105790000C20FDF745FB0446706828B90021284617
:1057A000FFF7FEF9064602E05B483061766828465E
:1057B000FFF7E0F9401C0FFA80FB59462846FFF737
:1057C0007DFA5648E96908612846E969FEF79BFEBB
:1057D000688940F4805068812846FFF7CBF9298C0E
:1057E000E28B891A491E88420FD02846FFF7C2F97A
:1057F000298C081A401E0FFA80FB5946204605F0F6
:1058000043FE608940F48050608100212846FFF704
:10581000C7F90646282105A8FAF734FDAFF28C3106
:1058200005A8FAF773FDAFF2883105A8FAF736FD3F
:1058300005A8F168FAF732FD05A9AFF2983006F035
:1058400019FFAFF2883105A8FAF736FD00E043E012
:1058500028B9AFF2943105A8FAF72EFDE0B3AFF204
:10586000A43105A8FAF728FD50B1AFF2B03105A870
:10587000FAF722FD05A9401AC01C00220A540FE0C5
:10588000AFF2C43105A8FAF717FD48B1AFF2D43131
:1058900005A8FAF711FD05A9401AC01C00220A54F8
:1058A0000F480068012805D01A48006800F0FCFE87
:1058B000FBF76EF91A4878623846FBF7F5FF0023CC
:1058C00001221946184601F0B7F91648786205A971
:1058D0000548006800F0ACFD012072E428000020BB
:1058E000240000203C020020140000200C020020B4
:1058F00010000020DA010020BC1F00204B627073F2
:1059000000000000000016430C00002034020020BC
:1059100014020020180000206C0200206402002005
:105920002C0200201C020020F7E0B8F1060F29D15C
:105930007B49786A884207D17A48786200207A49A0
:10594000087106F09BFD17E0754878620A20FDF7A4
:1059500067FA0446E08BFAF74DFF74490390FAF7B3
:105960007BFD73490490FAF741FD8346FAF77EFF09
:105970006D49087106F082FD32230022114610465F
:1059800001F05AF901201CE4B8F10D0F02D0B8F172
:105990000E0F1AD10A20FDF743FA04465246394643
:1059A000404605F0E3FCE08BFAF724FF5F490390E3
:1059B000FAF752FD5E490490FAF718FD8346FAF7AC
:1059C00055FF5949087106F059FD01204DE4B8F121
:1059D0000A0F1FD10A20FDF723FA0446E08B401C72
:1059E00001B2204605F050FD608940F4805060818E
:1059F000E08BFAF7FFFE4D490390FAF72DFD4C4975
:105A00000490FAF7F3FC8346FAF730FF4649087131
:105A100006F034FD012028E4B8F10A0F1FD10A2056
:105A2000FDF7FEF90446E08B401E01B2204605F06A
:105A30002BFD608940F480506081E08BFAF7DAFE3C
:105A40003A490390FAF708FD39490490FAF7CEFC79
:105A50008346FAF70BFF3449087106F00FFD012069
:105A600029E4B8F1060F28D10C20FDF7D9F9044636
:105A7000304878623846FBF717FFC82300221146EA
:105A8000104601F0D9F82846FFF774F8401E0FFAC7
:105A900080FB59462846FFF711F9688940F4805089
:105AA0006881E08B401C01B2204605F0EDFC608966
:105AB00040F480506081204878620120BBE4B8F156
:105AC000060F28D10C20FDF7ABF904461B4878627D
:105AD0003846FBF7E9FEC82300221146104601F0C4
