:020000040800F2
:1000000020450020CD010008AB030008A303000831
:10001000A70300085502000845050008000000007D
:100020000000000000000000000000004501000882
:10003000590200080000000075010008C50400080E
:10004000E7010008E7010008E7010008E7010008F0
:10005000E7010008E7010008E7010008E7010008E0
:10006000E7010008E7010008E7010008E7010008D0
:10007000E7010008E7010008E7010008E7010008C0
:10008000E7010008E7010008E7010008E7010008B0
:10009000E7010008E7010008E7010008E7010008A0
:1000A000E7010008E7010008E7010008E701000890
:1000B000E7010008E7010008E7010008E701000880
:1000C000E7010008E7010008E7010008E701000870
:1000D000E7010008E7010008E7010008E701000860
:1000E000E7010008E7010008E7010008E701000850
:1000F000E7010008E7010008E7010008E701000840
:10010000E7010008E7010008E7010008E70100082F
:10011000E7010008E7010008E7010008E70100081F
:10012000E7010008E7010008E7010008E70100080F
:10013000DFF80CD000F07CF80048004769050008A3
:1001400020450020194B19680868B0E8F00F80F3CB
:1001500009884FF0000080F311884EF00D0E7047B3
:100160000000000002480068006880F3088800DF93
:1001700008ED00E0EFF309800C4B1A6820E9F00F5E
:10018000106008B54FF0BF0080F3118800F0CAFC82
:100190004FF0000080F31188BDE808401968086836
:1001A000B0E8F00F80F30988704700BF000000201E
:1001B00001B44FF0BF0080F3118801BC704701B457
:1001C0004FF0000080F3118801BC7047064880475B
:1001D00006480047FEE7FEE7FEE7FEE7FEE7FEE72C
:1001E000FEE7FEE7FEE7FEE7E50400083101000850
:1001F000D2B201E000F8012B491EFBD27047002269
:10020000F6E710B504460846114602462046FFF7B9
:10021000EFFF204610BD10B5044604E00B7800F84F
:10022000013B03B1491C521EF8D2204610BD00000C
:10023000064C074D06E0E06840F0010394E8070033
:1002400098471034AC42F6D3FFF776FFB80D00089C
:10025000D80D000800BFFEE77047000008B5012177
:10026000802000F0A3F84FF47070ADF80000032078
:100270008DF8020010208DF803006946014800F057
:1002800003F808BD001C01402DE9F041024600259D
:100290000026002000230024002791F803C00CF062
:1002A0000F0591F803C01CF0100F03D091F802C0A5
:1002B0004CEA0505B1F800C01CF0FF0F31D01468FE
:1002C00000202BE04FF0010C0CFA00F3B1F800C055
:1002D0000CEA03069E4220D183004FF00F0C0CFA6B
:1002E00003F7BC4305FA03FC4CEA040491F803C08D
:1002F000BCF1280F06D14FF0010C0CFA00FCC2F83B
:1003000014C00AE091F803C0BCF1480F05D14FF0CA
:10031000010C0CFA00FCC2F810C0401C0828D1D314
:100320001460B1F800C0BCF1FF0F34DD5468002048
:100330002EE000F1080C4FF0010808FA0CF3B1F8B8
:1003400000C00CEA03069E4221D183004FF00F0C3F
:100350000CFA03F7BC4305FA03FC4CEA040491F8D9
:1003600003C0BCF1280F05D100F1080C08FA0CF805
:10037000C2F8148091F803C0BCF1480F07D100F116
:10038000080C4FF0010808FA0CF8C2F81080401C65
:100390000828CED35460BDE8F08141617047016107
:1003A000704700BFFEE700BFFEE7704729B1064A6D
:1003B00092690243044B9A6104E0034A92698243C2
:1003C000014B9A61704700000010024010B500F028
:1003D00001F810BD002100202E4A126842F480323C
:1003E0002C4B1A6000BF2B4A126802F40030491CE3
:1003F00010B9B1F5A06FF6D1264A126812F4003F89
:1004000001D0012000E00020012842D1224A1268D8
:1004100042F01002204B1A601A46126822F00302C2
:100420001A601A46126842F002021A60194A5268AB
:10043000184B5A601A4652685A601A46526842F47B
:1004400080625A601A46526822F47C125A601A4638
:10045000526842F4E8125A601A46126842F08072FA
:100460001A6000BF0B4A126812F0007FFAD0094AE6
:10047000526822F00302074B5A601A46526842F053
:1004800002025A6000BF034A526802F00C02082AB6
:10049000F9D170470010024000200240042808D122
:1004A0004FF0E021096941F004014FF0E0221161B1
:1004B00007E04FF0E021096921F004014FF0E0224C
:1004C0001161704710B54FF08050054908604FF03A
:1004D0000004FFF76DFE00F099FAFFF770FE10BD03
:1004E00004ED00E010B51348006840F00100114928
:1004F000086008464068104908400E4948600846B0
:1005000000680E4908400B4908600846006820F45E
:10051000802008600846406820F4FE0048604FF4E0
:100520001F008860FFF752FF4FF000600449086029
:1005300010BD0000001002400000FFF8FFFFF6FEB3
:1005400008ED00E000BFFEE702E008C8121F08C186
:10055000002AFAD170477047002001E001C1121F44
:10056000002AFBD1704700001FB500F0D3F800232C
:100570000120CDE900030293802219460448039329
:1005800000F026FB00F0A2FA002004B010BD00002D
:100590002908000870B505460E46442000F0CAF848
:1005A000044694B11EB9A80000F0C4F800E030463B
:1005B0002063206B20B9204600F0CCF9002404E031
:1005C000A900A522206BFFF713FE204670BD000096
:1005D00070B51748006848B300F09CFA15480068E9
:1005E00008B9012000E00020054600F077FBEDB9D6
:1005F00000F096F90F48006818B10E48C068C0684E
:1006000000E000200446201D00F078F90A48006848
:10061000401E0949086006480068401E04490860F9
:1006200000F08AF9204600F009F800BF70BD000014
:1006300004000020F40000200800002010B504464B
:10064000206B00F087F9204600F084F910BD00000F
:1006500000BFFFF7BDFF034800680128F9D900F08B
:1006600099F9F6E7540000202DE9F04104460E46C2
:1006700015469846069F1022314604F13400FFF7D4
:10068000CAFD002143200155052D00D30425E56254
:10069000201D00F008F904F1180000F004F92461AD
:1006A000C5F10500A0616462BDE8F08110B50024C9
:1006B00007E004EB84010F4A02EB810000F0E6F84A
:1006C000641C052CF5D30C4800F0E0F80B4800F052
:1006D000DDF80B4800F0DAF80A4800F0D7F80A48CD
:1006E00000F0D4F804480949086004480849086043
:1006F00010BD000054000020B8000020CC000020F5
:10070000E0000020F400002008010020300000205C
:100710003400002010B50420FFF7C0FE10BD00001B
:1007200003484FF0E021486107200861704700004E
:100730003F1901002DE9F04104464FF0000800F098
:10074000E9F92D48006898B92C492D4A116000211B
:1007500051604FF470512B4A5160002111602748BD
:100760004FF4705141601146016001202249086038
:1007700044B1103414F0070F04D004F00700C0F1A6
:1007800008000444002C31D0B4F5705F2ED21C4F09
:100790003846056801E02F462D686868A04202D2FD
:1007A00028680028F7D1174885421FD0386800F123
:1007B0001008286838606868001B202810D92E1996
:1007C0006868001B70606C6071680D4800E000682C
:1007D000026852688A42FAD302683260066000BF3B
:1007E000094968680968081A0749086000F076FA3C
:1007F0004046BDE8F08100003C00002020010020C0
:10080000400000204800002038000020001F4FF06A
:1008100080730360001F0160001F00230360143811
:100820000260203870470000FFF718FD2BE04021E0
:100830001548FFF7B4FD80211348FFF7B0FD4FF4D2
:1008400080711148FFF7ABFD4FF400710E48FFF7C0
:10085000A6FD4FF4FA7000F0A5F840210A48FFF712
:100860009CFD80210848FFF798FD4FF480710648F1
:10087000FFF793FD4FF400710348FFF78EFD4FF42F
:10088000FA7000F08FF8D2E7001C014000F1080177
:1008900041604FF0FF31816000F10801C1600161EA
:1008A00000210160704700210161704710B50246C8
:1008B0000B685C1C01D1106907E002F1080000E040
:1008C0004068446824689C42FAD944684C604C688B
:1008D000A160886041600A611468641C146010BDE6
:1008E000426853684B6043688B60536899605160FD
:1008F0004160086103685B1C03607047D0E9013206
:100900009A60D0E901235A6001694A68824201D1A4
:1009100082684A60002202610A68521E0A607047BB
:1009200010B5FFF745FC03480068401C014908600A
:1009300010BD00005000002010B505480068401EA2
:10094000034908600846006808B9FFF738FC10BD85
:100950005000002070B506463546B6B1103D2C4615
:1009600000F0D8F86168094800E000680268526841
:100970008A42FAD302682260046005496068096807
:1009800008440349086000F0A9F970BD4000002048
:10099000380000204FF08050014908607047000087
:1009A00004ED00E070B50446002614B300F0B2F880
:1009B00012480068051912480068001DFFF79EFFE5
:1009C0000F48006845600D480068854207D20C4812
:1009D0000168091D0B480068FFF768FF06E008483A
:1009E0000168091D08480068FFF760FF00F076F90C
:1009F00006460EB9FFF7CEFF70BD00000C000020C8
:100A000000000020340000203000002010B52748EE
:100A10000068002844D126480068401C244908602A
:100A20000846006868B92349086823490968214ACB
:100A300011602149086021490968491C1F4A116059
:100A400000BF1FE01A4960680968884200D925E0A4
:100A5000201DFFF753FFA06A18B104F11800FFF73B
:100A60004DFF1749E06A0968884202D91449E06AD3
:100A70000860E16A01EB8101124A02EB8100211D4D
:100A8000FFF72EFF0B480068006820B10948006896
:100A9000C068C06800E000200400D3D100BF04E0BB
:100AA00009480068401C0849086010BD1C0000206F
:100AB0000C0000203000002034000020280000201E
:100AC0001400002054000020200000201FB5002347
:100AD000009301930293802209A10B48039300F035
:100AE00077F80446012C09D1FFF762FB0120074982
:100AF000086000200649086000F04CF81FBD0000A7
:100B000049444C4500000000510600081800002030
:100B10000C00002002480068401C01490860704732
:100B20001C0000201648006818B101201549086013
:100B3000704704E014480068401E134908601248DA
:100B4000006800EB8000114951F820000028F1D026
:100B50000D49096801EB81010C4A02EB81004168F3
:100B60004968416000F1080142688A4202D1416847
:100B7000496841604168C968054A116000BFD7E70C
:100B80001C0000202400002014000020540000203D
:100B90000000002010B50C48006840F47F004FF0C2
:100BA000E021C1F8200D0846D0F8200D40F07F402C
:100BB000C1F8200DFFF7B4FD002004490860FFF7DD
:100BC000D1FA002010BD000020ED00E05000002010
:100BD0002DE9FF4F81B0804615469946DDE90E7A32
:100BE00028461099FFF7D6FC0446002C56D0681E04
:100BF000216B01EB800B2BF0070B00953A4620464A
:100C0000119B0299FFF730FD4A4641465846FFF7CF
:100C1000FDFD2060BAF1000F01D0CAF80040FFF7D7
:100C20007FFE27480068401C254908602548006869
:100C300040B9244804600846006801280CD1FFF739
:100C400035FD09E02048006830B91E480068C06AD8
:100C5000B84201D81B4804601C49E06A0968884210
:100C600002D91A49E06A086019480068401C18490E
:100C700008601849E06A0968884202D91549E06AA3
:100C80000860E16A01EB8101134A02EB8100211D3A
:100C9000FFF726FE0126FFF74FFE01E04FF0FF367B
:100CA000012E09D10848006830B106480068C06AC2
:100CB000B84201D2FFF76EFE304605B0BDE8F08FB6
:100CC0000800002000000020180000201000002074
:100CD0002C000020140000205400002070B50025D6
:100CE000FFF71EFE2C480068401E2B49086008468E
:100CF000006800284BD129480068002847D000260A
:100D00001EE004F11800FFF7F9FD201DFFF7F6FDC6
:100D10002349E06A0968884202D92149E06A0860EB
:100D2000E16A01EB81011F4A02EB8100211DFFF7FF
:100D3000D7FD1D49E06A0968C96A884200D30126C7
:100D40001A48006818B11948C068C06800E000205F
:100D50000400D6D11648006860B106E0FFF756FEE1
:100D600013480068401E12490860114800680028B6
:100D7000F4D10126012E03D00E480068012805D1C8
:100D8000012500200B490860FFF704FE00BFFFF7B4
:100D9000D3FD284670BD00001C0000200800002084
:100DA000140000205400002000000020E00000207B
:100DB0002000002024000020D80D000800000020A2
:100DC00054000000480500082C0E000854000020C4
:100DD000CC4400005805000800000000000000009E
:100DE0000000000000000000000000000000000003
:100DF00000000000000000000000000000000000F3
:100E000000000000000000000000000000000000E2
:100E1000003C000000000000000000000000000096
:0C0E20000000000000000000AAAAAAAA1E
:0400000508000131BD
:00000001FF
