:1008B50075A0FE1208D51208008F0AE50A60F7B484
:1008C50001F4050BE50BC3940240EBE4F50B80E660
:03000B0002086187
:0B086100C0E0C0D075D000C000C00790
:10086C00758A18758CFC0509E50970020508C39496
:10087C00F4E50894014029750800750900E50B7032
:10088C000DAFA07801EF08800123D8FDF5A0E50B92
:10089C00B4010DAFA07801EF08800103D8FDF5A0DD
:0908AC00D007D000D0D0D0E0321A
:1008D5005389F0438901758A18758CFCC28DD28CB9
:0708E500D2A9D2AFC2B92273
:10080000E4F50C20B1137F14FE1208EC30B1FD7F2B
:10081000147E001208EC750C0120B0147F147E00C9
:100820001208EC30B0FD7F147E001208EC750C024B
:1008300020B2147F147E001208EC30B2FD7F147ECB
:10084000001208EC750C0320B3147F147E0012080C
:10085000EC30B3FD7F147E001208EC750C04AF0C75
:010860002275
:1008EC00EF1FAC0670011E4C600A7D027CEFDCFE33
:0408FC00DDFC80ECB3
:0109000022D4
:03000000020901F1
:0C090100787FE4F6D8FD75810C0208B583
:00000001FF
