:020000040800F2
:100000009847002045010008A909000837080008A2
:10001000A5090008250200086D2600080000000060
:100020000000000000000000000000002523000880
:100030008905000800000000AB090008F92300084A
:100040005F0100085F0100085F0100085F01000810
:100050005F0100085F0100085F0100085F01000800
:100060005F0100085F0100085F0100085F010008F0
:100070005F0100085F0100085F0100085F010008E0
:100080005F0100085F0100085F0100085F010008D0
:100090005F0100085F0100085F0100085F010008C0
:1000A0005F0100085F0100085F0100085F010008B0
:1000B0005F0100085F0100085F0100085F010008A0
:1000C0005F0100085F0100085F0100085F01000890
:1000D0005F0100085F0100085F0100085F01000880
:1000E0005F0100085F0100085F0100085F01000870
:1000F0005F0100085F0100085F0100085F01000860
:100100005F0100085F0100085F0100085F0100084F
:100110005F0100085F0100085F0100085F0100083F
:100120005F0100085F0100085F0100085F0100082F
:10013000DFF80CD000F036F800480047C13B00085B
:10014000984700200648804706480047FEE7FEE73C
:10015000FEE7FEE7FEE7FEE7FEE7FEE7FEE7FEE777
:10016000FD230008310100080146002000E0401C8A
:100170000A5C002AFBD1704730B50B4601460020CF
:100180002022012409E021FA02F59D4205D303FA59
:1001900002F5491B04FA02F52844151EA2F10102DA
:1001A000F1DC30BD064C074D06E0E06840F001038D
:1001B00094E8070098471034AC42F6D3FFF7BCFF31
:1001C00084410008A441000870B501EB020410F856
:1001D000015B15F0070301D110F8013B2A1106D18C
:1001E00010F8012B03E010F8016B01F8016B5B1EA6
:1001F000F9D12B0705D40023521E0FD401F8013B7F
:10020000FAE710F8013B02F10202A1EB030303E05D
:1002100013F8015B01F8015B521EF9D5A142D6D358
:10022000002070BD00BFFEE770B52A254FF4803472
:1002300000E0641E24B1802000F014FD0028F8D0F6
:1002400014B90325284670BD40F2FF5000F0C8FCE9
:100250002846F8E72DE9F04106462A274748456B2E
:1002600001E04648456B15F0450FFAD015F0040F34
:1002700006D00327042000F0B3FC3846BDE8F08127
:1002800015F0010F05D00127012000F0A9FC384628
:10029000F4E700F0E1FCB04202D010273846EDE769
:1002A00040F2FF5000F09CFC002000F0EFFC044600
:1002B0003348044201D13846E0E714F0004F01D042
:1002C0001C20DBE714F0804F01D00920D6E714F0A2
:1002D000005F01D00A20D1E714F0805F01D00B202D
:1002E000CCE714F0006F01D00C20C7E714F0806F4A
:1002F00001D00D20C2E714F0807F01D00E20BDE7B1
:1003000014F4000F01D00F20B8E714F4800F01D0CF
:100310001020B3E714F4001F01D01120AEE714F44D
:10032000801F01D01220A9E714F4002F01D0132060
:10033000A4E714F4802F01D014209FE714F4003FA9
:1003400001D015209AE714F4803F01D0162095E7DC
:1003500014F4004F01D0172090E714F4804F01D01F
:1003600018208BE714F4005F01D0192086E714F001
:10037000080F01D01A2081E738467FE7008001404E
:1003800008E0FFFD70B52A250F48446B01E00E48D8
:10039000446B14F0450FFAD014F0040F05D0032578
:1003A000042000F01DFC284670BD14F0010F05D09C
:1003B0000125012000F014FC2846F5E740F2FF502B
:1003C00000F00EFC2846EFE70080014070B52A25BA
:1003D0000B48446B01E00A48446B14F0450FFAD017
:1003E00014F0040F05D00325042000F0F9FB284683
:1003F00070BD40F2FF5000F0F3FB2846F8E7000024
:10040000008001402DE9F04106460F464FF02A08D2
:100410002248456B01E02148456B15F0450FFAD0A5
:1004200015F0040F07D04FF00308042000F0D8FBAC
:100430004046BDE8F08115F0010F06D04FF00108ED
:10044000012000F0CDFB4046F3E700F005FCB04290
:1004500003D04FF010084046EBE740F2FF5000F0A9
:10046000BFFB002000F012FC044614F4604F03D1DF
:10047000200C38804046DCE714F4005F01D01320E4
:10048000D7E714F4804F01D01020D2E714F4004FC6
:1004900001D00F20CDE74046CBE7000000800140AF
:1004A00070B52A264FF480350F48446B02E06D1E6C
:1004B0000D48446B14F0450F01D1002DF7D115B153
:1004C00014F0040F05D00326042000F089FB304609
:1004D00070BD14F0400F05D02A26402000F080FBAC
:1004E0003046F5E73046F3E70080014010F0805FCA
:1004F00002D00349086001E00249486070470000EB
:10050000040402400000024021B1026842F00102EE
:10051000026004E002684FF6FE731A400260704702
:1005200001460020002211F0805F02D0054B1A68BE
:1005300001E0054B1A680A4201D0012000E00020CA
:1005400070470000000402400000024010B5002285
:10055000026847F6F0739A430C6A8B6823430C6970
:1005600023434C6923438C692343CC6923434C6A5E
:1005700023438C6A23431A430260CB6843600B68B1
:1005800083604B68C36010BD704700002DE9FC41DB
:1005900007460D4600262A240020009001900820DE
:1005A0005B49086010204860402088600020C860D7
:1005B0004FF480600861084600F09EFB1020FFF7B2
:1005C00049FE04462A2C02D02046BDE8FC81514851
:1005D000006800044E490860372048604020886069
:1005E0000020C8604FF480600861084600F084FB7A
:1005F0003720FFF72FFE04462A2C01D02046E4E7DF
:10060000454846490860082048603020886002203C
:10061000C8600020086101204861084600F0F2FA35
:1006200000203B490860332048604020886000205B
:10063000C8604FF480600861084600F05DFB33201D
:10064000FFF708FE04462A2C01D02046BDE709E04A
:100650004FF4001000F006FB20B100F047FB4DF80E
:100660002600761C2E48406B40F22A610842EFD0EB
:10067000082000F0F7FA28B1082000F0B1FA0424AD
:100680002046A2E7022000F0EDFA28B1022000F097
:10069000A7FA0224204698E7202000F0E3FA28B1C8
:1006A000202000F09DFA062420468EE74FF40070CB
:1006B00000F0D8FA30B14FF4007000F091FA07243E
:1006C000204682E740F2FF5000F08AFA00980006C8
:1006D000009901F47F4140EA0120009901F47F0173
:1006E00040EA1120009940EA116068600198000614
:1006F000019901F47F4140EA0120019901F47F0151
:1007000040EA1120019940EA1160286020465CE728
:100710006807002048020020FFFF0F007C07002030
:10072000008001402DE9F04102460025002600200E
:1007300000230024002791F803C00CF00F0591F866
:1007400003C01CF0100F03D091F802C04CEA05055D
:10075000B1F800C01CF0FF0F31D0146800202BE06E
:100760004FF0010C0CFA00F3B1F800C00CEA0306DC
:100770009E4220D183004FF00F0C0CFA03F7BC43CC
:1007800005FA03FC4CEA040491F803C0BCF1280FFD
:1007900006D14FF0010C0CFA00FCC2F814C00AE0BC
:1007A00091F803C0BCF1480F05D14FF0010C0CFAD1
:1007B00000FCC2F810C0401C0828D1D31460B1F866
:1007C00000C0BCF1FF0F34DD546800202EE000F1C2
:1007D000080C4FF0010808FA0CF3B1F800C00CEA5D
:1007E00003069E4221D183004FF00F0C0CFA03F751
:1007F000BC4305FA03FC4CEA040491F803C0BCF1C5
:10080000280F05D100F1080C08FA0CF8C2F8148082
:1008100091F803C0BCF1480F07D100F1080C4FF06C
:10082000010808FA0CF8C2F81080401C0828CED342
:100830005460BDE8F08100BFFEE700002DE9F04103
:1008400006462A2700240025524800680004524921
:1008500008600D204860402088600020C8604FF488
:1008600080600861084600F047FA4C48456B01E09B
:100870004A48456B15F0450FFAD015F0040F06D025
:100880000327042000F0ACF93846BDE8F08115F0EC
:10089000010F05D00127012000F0A2F93846F4E746
:1008A00000F0DAF905460D2D02D010273846ECE7A6
:1008B00040F2FF5000F094F9002000F0E7F9044600
:1008C000C4F3432030703648044201D13846DCE797
:1008D00014F0004F01D01C20D7E714F0804F01D056
:1008E0000920D2E714F0005F01D00A20CDE714F010
:1008F000805F01D00B20C8E714F0006F01D00C20FE
:10090000C3E714F0806F01D00D20BEE714F0807FA4
:1009100001D00E20B9E714F4000F01D00F20B4E786
:1009200014F4800F01D01020AFE714F4001F01D0A1
:100930001120AAE714F4801F01D01220A5E714F4B7
:10094000002F01D01320A0E714F4802F01D0142031
:100950009BE714F4003F01D0152096E714F4803F84
:1009600001D0162091E714F4004F01D017208CE736
:1009700014F4804F01D0182087E714F4005F01D0F1
:10098000192082E714F0080F01D01A207DE73846BD
:100990007BE700004802002068070020008001403B
:1009A00008E0FFFD00BFFEE77047704729B1064A27
:1009B00052690243044B5A6104E0034A526982437C
:1009C000014B5A61704700000010024029B1064AED
:1009D00092690243044B9A6104E0034A926982439C
:1009E000014B9A61704700000010024030B50021B1
:1009F0000022002400232D4D6D6805F00C0121B16B
:100A0000042905D0082923D105E0294D056022E0FD
:100A1000274D05601FE0254D6D6805F47012234DCC
:100A20006D6805F48034022505EB92421CB9214D16
:100A3000554305600BE01D4D6D6815F4003F03D074
:100A40001C4D5543056002E0194D5543056002E019
:100A5000174D056000BF00BF144D6D6805F0F00133
:100A60000909154D6B5C0568DD4045600F4D6D68EB
:100A700005F4E061090A104D6B5C4568DD40856056
:100A80000A4D6D6805F46051C90A0B4D6B5C4568F1
:100A9000DD40C560054D6D6805F44041890B074D8B
:100AA0006B5CC568B5FBF3F5056130BD0010024015
:100AB00000127A0000093D0072020020820200202C
:100AC0007CB505462A2400200090019000F0DEF855
:100AD00010F0007F02D00E2420467CBD69463E48BF
:100AE000006880B2FFF752FD04462A2C01D0204650
:100AF000F3E7012D37D1019810F4802F30D036481C
:100B0000006800043549086037204860402088604C
:100B10000020C860A8020861084600F0EDF8372000
:100B2000FFF798FB04462A2C01D02046D5E7022087
:100B30002A49086006204860402088600020C8607C
:100B40004FF480600861084600F0D6F80620FFF7F1
:100B500081FB04462A2C01D02046BEE72046BCE794
:100B600025242046B9E7019810F4803F31D01A4877
:100B700000680004194908603720486040208860F8
:100B80000020C8604FF480600861084600F0B4F8A7
:100B90003720FFF75FFB04462A2C01D020469CE754
:100BA00000200E4908600620486040208860002030
:100BB000C8604FF480600861084600F09DF8062088
:100BC000FFF748FB04462A2C01D0204685E7204643
:100BD00083E72524204680E748020020680700209C
:100BE00001498863704700000080014001490860A6
:100BF00070470000A00030420149086070470000C3
:100C00008C05304200210A4B02685A6242689A629F
:100C10001A46D16A21F0F701D0E902231A43036989
:100C20001A4343691A431143014AD16270470000D5
:100C30000080014000200649086048608860C86064
:100C400048628862C862034888630020C8637047AE
:100C500000800140FF07C00001480069C0B2704732
:100C60000080014001460020034A526B0A4201D035
:100C7000012000E000207047008001400248006829
:100C800000F0030070470000008001400146002290
:100C900001480A18106870471480014029B1064ABB
:100CA000D26B0243044BDA6304E0034AD26B824303
:100CB000014BDA63704700000080014000210A4ABE
:100CC000516847F6FF629143027D83681A43436887
:100CD0001A43C3681A4303681A4303691A4311434A
:100CE000014A5160704700000080014001480068DF
:100CF00070470000808001400021094B02689A6023
:100D00001A46D1686FF30A01D0E901231A43C36878
:100D10001A4303691A431143014AD1607047000026
:100D2000008001400549096821F00301034A116070
:100D300011460968014311607047000000800140BE
:100D400001490860704700008080014010B50248EA
:100D5000FFF7E6FB10BD00000020001070B5044650
:100D60002A2522480068032802D12725284670BD7D
:100D70001E48006838B11D480068012803D01B4890
:100D80000068022830D1B4F5805F02D127252846BB
:100D9000EDE7B4F5006F15D10120FFF791FE054690
:100DA0002A2D21D1012012490875002008604860D1
:100DB00088604FF40060C860002008610846FFF7B3
:100DC0007DFF11E00020FFF77BFE05462A2D0BD1A9
:100DD0000120074908750020086048608860C860E5
:100DE00008610846FFF76AFF2846C0E74402002072
:100DF0005007002030B501462A200022BC4B1B685A
:100E000081F84E30BB4B1B68A1F84C30BA4B1B68C5
:100E10001A0E93090B70C2F383034B7002F00303A5
:100E20008B70B54B1B68C3F30742CA70B24B1B688B
:100E3000C3F307220A71B04B1B68DAB24A71AE4B9A
:100E40005B681A0E1301CB80AB4B5B68C3F30742A0
:100E5000CB8843EA1213CB8002F00F030B72A64B30
:100E60005B68C3F30722D3094B72C2F380138B7202
:100E7000C2F34013CB72C2F300130B7300234B7306
:100E80009B4B1B681BB19A4B1B68012B3DD19307F1
:100E90001B0D0B61984B5B68DAB20B6943EA820366
:100EA0000B61954B9B681A0E0B6943EA92130B6119
:100EB000C2F3C2030B7502F007034B758E4B9B68A0
:100EC000C3F3074253098B75C2F38203CB759307B3
:100ED0005B0F0B76884B9B68C3F307220B7E43EABC
:100EE000D2130B760B695B1C4B640C7E4B6CA41C01
:100EF0000125A5406B434B640C7A0123A3408B640E
:100F0000D1E9113463434B6422E0794B1B68022B17
:100F10001ED1794B5B68DAB293069B0A0B61764B64
:100F20009B681A0E0B6943EA02230B61724B9B68A4
:100F3000C3F307420B6913430B616F4B9B68C3F309
:100F400007220B695B1CDB044B644FF400738B645A
:100F5000C2F3801301F8193F93065B0E4B70664B8A
:100F60009B68DAB24B7843EAD2134B7002F07F03EE
:100F70008B70614BDB681A0ED309CB70C2F341133F
:100F80000B71C2F382034B7193071B0F8B715A4B8A
:100F9000DB68C3F307428B7943EA92138B71C2F388
:100FA0004013CB7100230B7202F001034B72524BC2
:100FB000DB68C3F30722D3098B72C2F38013CB72B1
:100FC000C2F340130B73C2F300134B73C2F38103DC
:100FD0008B7302F00303CB73474BDB68DAB2530821
:100FE0000B7401234B74454B1B681A0ECA74A1F194
:100FF0001901424B1B68C3F307424FEA0223CB851A
:101000003E4B1B68C3F30722CB8D43EA0203CB851B
:101010003A4B1B68DAB24FEA02640C63374B5B68E9
:101020004FEA13620B6B43EA02440C63334B5B6879
:10103000C3F307420B6B43EA02240C632F4B5B683C
:10104000C3F307220B6B43EA02030B632B4B5B6872
:10105000DAB24FF034035A54284B9B684FEA1362BC
:101060004FF035035A54254B9B68C3F307424FEAB0
:1010700002648C63214B9B68C3F307228B6B43EAAA
:1010800002448C631D4B9B68DAB28B6B43EA0224EB
:101090008C631A4BDB684FEA13628B6B43EA0203E3
:1010A0008B63164BDB68C3F307424FF03C035B5C7A
:1010B00043EA12134FF03C0463544FEA02734FEAC1
:1010C0001353CB870D4BDB68C3F30722CB8F43EA67
:1010D0000203CB87094BDB68DAB24FEA52034FF0C9
:1010E000400463544FF001044FF041035C5430BDA1
:1010F0004402002048020020E0060020F006002004
:1011000010B52A2400F042F9FFF794FD00F072F9BF
:1011100004462A2C01D0204610BD00F033F80446C6
:101120002A2C01D02046F7E7012014490875002039
:10113000086048608860C86008610846FFF7BEFD27
:101140002A2C03D10E48FFF755FE04462A2C06D15F
:101150000B49B1F84C10080400F0CCFC04462A2CD2
:1011600004D14FF40060FFF7F9FD04462A2C03D1A7
:10117000002000F0D9FC04462046CDE750070020AF
:101180000007002038B52A2401200090FFF776FDE3
:1011900010B92524204638BD45480068042829D0C8
:1011A00000204449086002204860C0208860002078
:1011B000C8604FF4806008610846FFF79DFDFFF7A7
:1011C000E1F804462A2C01D02046E4E70020FFF78E
:1011D0005DFD394908600420FFF758FD3649486035
:1011E0000820FFF753FD344988600C20FFF74EFDBF
:1011F0003149C8602E48006858B12D480068012860
:1012000007D02B480068062803D029480068022828
:1012100017D10020274908600320486040208860DB
:101220000020C8604FF4806008610846FFF764FD45
:1012300069460320FFF7E6F804462A2C01D0204631
:10124000A9E71B48006804282FD0BDF800001B49FF
:101250000860BDF8000000041649086009204860D5
:10126000C02088600020C8604FF480600861084694
:10127000FFF742FDFFF786F804462A2C01D02046EE
:1012800089E70020FFF702FD0D4908600420FFF701
:10129000FDFC0B4948600820FFF7F8FC084988600E
:1012A0000C20FFF7F3FC0649C8602A24204672E7A9
:1012B0004402002068070020F006002048020020B9
:1012C000E006002030B58BB005460C461348FFF70A
:1012D0000DF900211248FFF717F912480090019507
:1012E00000200290A0080390002004908020059028
:1012F0008000069080000790002008904FF4005076
:10130000099000200A9069460548FFF71FF901215E
:101310000348FFF7F9F80BB030BD000000F00010F3
:10132000440402408080014030B58BB005460C4635
:101330001348FFF7DBF800211248FFF7E5F81248E1
:101340000090019510200290A008039000200490C6
:101350008020059080000690800007900020089073
:101360004FF40050099000200A9069460548FFF7A5
:10137000EDF801210348FFF7C7F80BB030BD0000BE
:1013800000F00010440402408080014008B50121B3
:10139000B020FFF71BFB4FF4F850ADF8000003201E
:1013A0008DF8020018208DF8030069460E48FFF7FB
:1013B000B9F90420ADF8000069460C48FFF7B2F90E
:1013C0004FF48060ADF8000048208DF803006946B6
:1013D0000748FFF7A7F901218802FFF7E7FA012183
:1013E0000220FFF7E3FA08BD00100140001401409D
:1013F000001C01402DE9F0412A2400260025002789
:101400004FF00008B2205B49087500200860486072
:101410008860C86008610846FFF750FC0320FFF7AA
:1014200081FC0120FFF7E2FB00205349086048607F
:101430008860C8604FF4806008610846FFF75CFC74
:10144000FEF7F2FE04462A2C02D02046BDE8F081C9
:101450004FF4D570484908600820486040208860F3
:101460000020C8604FF4806008610846FFF744FC24
:10147000FFF716F804462A2C05D101203F490860E1
:101480004FF0804812E000203B4908603720486058
:10149000402088600020C8604FF4806008610846E2
:1014A000FFF72AFC3720FEF7D5FE0446002032491C
:1014B000086037204860402088600020C8604FF4F2
:1014C000806008610846FFF717FC3720FEF7C2FE70
:1014D00004462A2C4CD138E00020274908603720E8
:1014E0004860402088600020C8604FF48060086138
:1014F0000846FFF701FC3720FEF7ACFE04462A2C15
:1015000001D02046A2E71E4848EA00001A490860B8
:1015100029204860402088600020C8604FF4806027
:1015200008610846FFF7E8FBFEF750FF04462A2C47
:1015300001D020468AE70020FFF7A8FB06460120DD
:1015400080EAD67080F001076D1C1FB94FF6FF705E
:101550008542C1D34FF6FF70854202D31B2420463B
:1015600074E706F08040060002D0022003490860BC
:1015700020466BE750070020680700204402002047
:10158000000010802DE9F04706460F4614464FF044
:101590002A084FF0000935464FF0000A26B94FF0EF
:1015A00026084046BDE8F0872A208A4908700020B6
:1015B000894908608949086089488A49086000208B
:1015C00048608860C860086148610846FFF71AFBF8
:1015D0000020FFF711FB0020FFF758FB10F0007F01
:1015E00003D04FF00E084046DCE77F480068022831
:1015F00001D104027F0A002C21DDB4F5006F1EDC4E
:10160000601E20421BD1204601F061FB82467748D4
:101610000460102075494860402088600020C86040
:101620004FF4806008610846FFF766FB1020FEF764
:1016300011FE8046B8F12A0F05D04046B2E74FF0C0
:1016400026084046AEE7664866490860084644609A
:101650004FEA0A1088600220C8600020086101205B
:1016600048610846FFF7CEFA5C48046000206049F4
:101670000860604806605D48076011205B4948606B
:10168000402088600020C8604FF4806008610846F0
:10169000FFF732FB1120FEF7DDFD8046B8F12A0F7F
:1016A00001D040467EE754480068022856D111E038
:1016B0004FF40040FFF7D6FA60B14FF0000905E0A3
:1016C000FFF714FB45F8290009F10109B9F1080FEA
:1016D000F6D320354948406B40F22A610842E7D0F2
:1016E0000820FFF7BFFA30B10820FFF779FA4FF072
:1016F0000408404656E70220FFF7B4FA30B1022052
:10170000FFF76EFA4FF0020840464BE72020FFF744
:10171000A9FA30B12020FFF763FA4FF006084046DF
:1017200040E74FF40070FFF79DFA38B14FF40070B6
:10173000FFF756FA4FF00708404633E703E0FFF79C
:10174000D5FA28602D1D4FF40010FFF78BFA002802
:10175000F5D140F2FF50FFF743FA38E02648006821
:10176000012813D1012148F22A30FFF797FA00BF70
:101770001948006818B9174800782A28F8D0154881
:1017800000782A2823D0134800780BE71A4800680D
:10179000E8B9012140F22A30FFF780FA0120FFF773
:1017A0002BFA21463046FFF78DFD00BFFFF7CEFA3A
:1017B00030B90948006818B9064800782A28F5D0D9
:1017C000044800782A2802D002480078EAE6404619
:1017D000E8E60000580200205C02002050020020D1
:1017E000FFFF0F007C070020440200206807002054
:1017F00054020020680200204C02002000800140BA
:101800002DE9F05F0746894614461D464FF02A0829
:101810004FF0000A3E464FF0000B27B94FF0260864
:101820004046BDE8F09F2A20A74908700020A7493C
:101830000860A7490860A748A749086000204860D9
:101840008860C860086148610846FFF7DBF900203E
:10185000FFF7D2F90020FFF719FA10F0007F03D04C
:101860004FF00E084046DCE79C480068022802D191
:1018700004024FEA5929002C21DDB4F5006F1EDC6B
:10188000601E20421BD1204601F021FA8346944875
:101890000460102092494860402088600020C860A1
:1018A0004FF4806008610846FFF726FA1020FEF723
:1018B000D1FC8046B8F12A0F05D04046B1E74FF081
:1018C00026084046ADE7012D6FD905FB04F0B0F1C5
:1018D000007F03D34FF026084046A2E705FB04F043
:1018E0007B49086001207F4908607F48076079488C
:1018F0007949086005FB04F048604FEA0B108860E6
:101900000220C86000200861012048610846FFF7F6
:1019100079F97348C0F8009012207149486040205E
:1019200088600020C8604FF4806008610846FFF7B7
:10193000E3F91220FEF78EFC8046B8F12A0F01D0A1
:1019400040466EE76948006802287AD111E04FF4FA
:101950000040FFF787F960B14FF0000A05E0FFF79C
:10196000C5F946F82A000AF1010ABAF1080FF6D3C0
:1019700020365F48406B40F22A310842E7D0082009
:10198000FFF770F930B10820FFF72AF94FF004088B
:10199000404646E70220FFF765F938B10220FFF71D
:1019A0001FF94FF0020840463BE78AE02020FFF78E
:1019B00059F930B12020FFF713F94FF006084046DF
:1019C0002FE74FF40070FFF74DF938B14FF4007076
:1019D000FFF706F94FF00708404622E703E0FFF75C
:1019E00085F93060361D4FF40010FFF73BF90028F1
:1019F000F5D14FF48070FFF735F918B33748006818
:101A000038B136480068022803D0344800680128FD
:101A100018D10020324908600C20486040208860BE
:101A20000020C8604FF4806008610846FFF764F941
:101A30000C20FEF70FFC8046B8F12A0F02D040467A
:101A4000EFE604E040F2FF50FFF7CAF839E027481C
:101A50000068012813D1012148F22A30FFF71EF94E
:101A600000BF1A48006818B9174800782A28F8D02B
:101A7000154800782A2824D013480078D1E61B485E
:101A80000068F0B9012140F22A30FFF707F9012080
:101A9000FFF7B2F805FB04F13846FFF713FC00BF6F
:101AA000FFF754F930B90948006818B906480078BA
:101AB0002A28F5D0044800782A2802D00248007865
:101AC000AFE64046ADE60000580200205C02002070
:101AD00050020020FFFF0F007C070020440200207E
:101AE0006807002054020020680200204C020020F9
:101AF0000080014070B504462A250A48046007208A
:101B000008494860402088600020C8604FF4806029
:101B100008610846FFF7F0F80720FEF79BFB054633
:101B2000284670BD6807002001462A2019B1012906
:101B300001D0022902D1024A116000E0262070473C
:101B40004C0200201CB501AA69460DA001F0FDFB66
:101B50000C4908700846007880B901988069801E99
:101B6000019B9B785843C10A01988078009B584399
:101B7000C20A05A000F07CFD01201CBD0020FCE78E
:101B8000303A00003F0200200D0A2564204D42201B
:101B9000746F74616C206472697665207370616320
:101BA000652E0D0A2564204D4220617661696C61C5
:101BB000626C652E0D0A00002DE9FF5F81468A46A2
:101BC00014462A25002003900290834600260190A7
:101BD00000270090C846B9F1000F04D126252846F9
:101BE00004B0BDE8F09F2A20C24908700020C24915
:101BF0000860C2490860C248C249086000204860C5
:101C00008860C860086148610846FEF7FBFF002055
:101C1000FEF7F2FF0020FFF739F810F0007F02D046
:101C20000E252846DCE7B8480068022802D10402E5
:101C30004FEA5A2A002C20DDB4F5006F1DDC601E2F
:101C400020421AD1204601F042F80390AF480460C8
:101C50001020AE494860402088600020C8604FF4E2
:101C6000806008610846FFF747F81020FEF7F2FA97
:101C700005462A2D04D02846B2E726252846AFE798
:101C8000A34800680004A14908600D204860402076
:101C900088600020C8604FF4806008610846FFF744
:101CA0002BF80D20FEF7D6FA05462A2D01D028463E
:101CB00096E70020FEF7EAFF0190DFF844B21EE04D
:101CC000ABF1010B924800680004904908600D20B8
:101CD0004860402088600020C8604FF48060086140
:101CE0000846FFF709F80D20FEF7B4FA05462A2D3D
:101CF00001D0284674E70020FEF7C8FF0190019844
:101D000010F4807F02D1BBF1000FD9D1BBF1000FDD
:101D100001D1292064E77D48C0F800A018207B4944
:101D20004860402088600020C8604FF480600861EF
:101D30000846FEF7E1FF1820FEF78CFA05462A2D2B
:101D400001D028464CE76D480460002071490860C6
:101D50007148C0F800906A486A49086008464460C3
:101D60000398000188600020C86008610120486174
:101D70000846FEF747FF69480068022865D134E04D
:101D80004FF48040FEF76EFF78B35C480068801B1C
:101D900020281ED259480068801B10F0030F04D180
:101DA00056480068801B800804E054480068801B87
:101DB0008008401C0090002707E0D8F80000FEF7DC
:101DC000BFFF7F1C08F10408361D009887420CD223
:101DD000F3E7002704E058F82700FEF7B1FF7F1C67
:101DE000082FF8D308F1200820364D48406B40F208
:101DF0001A610842C4D00820FEF734FF28B1082039
:101E0000FEF7EEFE04252846EAE60220FEF72AFF4A
:101E100028B10220FEF7E4FE02252846E0E6102065
:101E2000FEF720FF28B11020FEF7DAFE0525284630
:101E3000D6E64FF40070FEF715FFF0B34FF40070D4
:101E4000FEF7CEFE07252846CAE63448006801287A
:101E500013D1012144F21A30FEF720FF00BF2648BB
:101E6000006818B9234800782A28F8D0214800785B
:101E70002A2825D01F480078B2E628480068E0B933
:101E8000012140F21A30FEF709FF21464846FFF7CC
:101E90004BFA0120FEF7B0FE00BFFEF757FF30B946
:101EA0001548006818B9134800782A28F5D0114859
:101EB00000782A2804D00F4800E001E000788FE67F
:101EC00040F2FF50FEF78CFE02A8FEF7B7FC054675
:101ED00003E002A8FEF7B2FC05462A2D07D19DF8C3
:101EE00008000728F5D09DF808000628F1D02846FC
:101EF00076E60000580200205C020020500200201C
:101F0000FFFF0F007C07002044020020680700202C
:101F10004802002054020020640200204C020020ED
:101F2000008001402DE9FE4F82468B4614461E4636
:101F30002A2500200290019080460090D14600277B
:101F4000BAF1000F03D126252846BDE8FE8F2A20CE
:101F5000E84908700020E8490860E8490860E84856
:101F6000E8490860002048608860C86008614861EE
:101F70000846FEF747FE0020FEF73EFE0020FEF773
:101F800085FE10F0007F02D00E252846DDE7DE48F2
:101F90000068022802D104024FEA5B2B002C20DDEE
:101FA000B4F5006F1DDC601E20421AD1204600F0FF
:101FB0008EFE0290D54804601020D449486040202D
:101FC00088600020C8604FF4806008610846FEF712
:101FD00093FE1020FEF73EF905462A2D04D0284630
:101FE000B3E726252846B0E7C94800680004C7497A
:101FF00008600D204860402088600020C8604FF4D1
:10200000806008610846FEF777FE0D20FEF722F992
:1020100005462A2D01D0284697E7012E7AD906FBDE
:1020200004F0B0F1007F02D3262528468DE7B6489C
:10203000006838B1B4480068012803D0B24800688D
:1020400002282FD1B24800680004B0490860372048
:102050004860402088600020C8604FF480600861BC
:102060000846FEF749FE3720FEF7F4F805462A2D0C
:1020700001D0284669E7A54806601720A3494860B3
:10208000402088600020C8604FF4806008610846E6
:10209000FEF732FE1720FEF7DDF805462A2D01D0A7
:1020A000284652E79948C0F800B01920974948607F
:1020B000402088600020C8604FF4806008610846B6
:1020C000FEF71AFE1920FEF7C5F805462A2D01D0A5
:1020D00028463AE706FB04F08849086001208D494C
:1020E00008608D48C0F800A085488649086006FB56
:1020F00004F048600298000188600020C860086110
:10210000012048610846FEF77DFD844800680228EA
:102110007ED13BE0CEE04FF48040FEF7A3FDA8B3B4
:1021200076480068A0EB080020280DD3002704E0C3
:1021300059F82700FEF704FE7F1C082FF8D309F199
:10214000200908F1200821E06C480068A0EB080095
:1021500010F0030F05D169480068A0EB0800800863
:1021600005E066480068A0EB08008008401C00906D
:10217000002708E0D9F80000FEF7E2FD7F1C09F116
:10218000040908F1040800988742F3D36448406BBF
:1021900040F21A310842BED00820FEF763FD28B194
:1021A0000820FEF71DFD04252846CEE60220FEF796
:1021B00059FD28B10220FEF713FD02252846C4E68A
:1021C0001020FEF74FFD28B11020FEF709FD052570
:1021D0002846BAE64FF40070FEF744FD30B14FF4E4
:1021E0000070FEF7FDFC07252846AEE64FF4807030
:1021F000FEF738FD00285DD04348006838B14248FA
:102200000068012803D040480068022852D100E04D
:1022100016E000203D4908600C204860402088609E
:102220000020C8604FF4806008610846FEF764FD36
:102230000C20FEF70FF805462A2D3BD0284684E6F1
:1022400036480068012813D1012144F21A30FEF704
:1022500025FD00BF2848006818B9264800782A28BC
:10226000F8D0244800782A2824D0224800786CE648
:102270002A480068F0B9012140F21A30FEF70EFD3D
:102280000120FEF7B9FC06FB04F15046FFF74CF8BD
:1022900000BFFEF75BFD30B91748006818B9154854
:1022A00000782A28F5D0134800782A2802D011484F
:1022B00000784AE640F2FF50FEF792FC002700E06B
:1022C0007F1C4FF6FF708742FAD301A8FEF7B6FADB
:1022D000054603E001A8FEF7B1FA05462A2D07D10D
:1022E0009DF804000728F5D09DF804000628F1D0D9
:1022F00028462AE6580200205C02002050020020F6
:10230000FFFF0F007C070020440200206807002028
:102310004802002054020020640200204C020020E9
:1023200000800140704710B500F002F810BD0000B9
:10233000002100202E4A126842F480322C4B1A6091
:1023400000BF2B4A126802F40030491C10B9B1F5E5
:10235000A06FF6D1264A126812F4003F01D0012086
:1023600000E00020012842D1224A126842F0100207
:10237000204B1A601A46126822F003021A601A46AD
:10238000126842F002021A60194A5268184B5A60E9
:102390001A4652685A601A46526842F480625A607D
:1023A0001A46526822F47C125A601A46526842F465
:1023B000E8125A601A46126842F080721A6000BF32
:1023C0000B4A126812F0007FFAD0094A526822F0D4
:1023D0000302074B5A601A46526842F002025A60E2
:1023E00000BF034A526802F00C02082AF9D1704774
:1023F00000100240002002407047000010B5134852
:10240000006840F001001149086008464068104922
:1024100008400E494860084600680E4908400B49CC
:1024200008600846006820F480200860084640687C
:1024300020F4FE0048604FF41F008860FFF773FF30
:102440004FF000600449086010BD00000010024019
:102450000000FFF8FFFFF6FE08ED00E001F4007257
:10246000B2F5007F00D100BFCA430280704721B19E
:10247000828942F40052828104E082894DF6FF7322
:102480001A4082817047000000B585B0012144F2F6
:102490000400FEF79BFA4FF40070ADF8100018200E
:1024A0008DF8130003208DF8120004A91C48FEF7D4
:1024B00039F94FF48060ADF8100004208DF8130056
:1024C00003208DF8120004A91548FEF72BF94FF4EC
:1024D000E13000900020ADF80400ADF80600ADF842
:1024E0000800ADF80C000C20ADF80A0069460D4854
:1024F00000F04CF8012240F225510A4800F021F882
:10250000012240F22771074800F01BF840210548DE
:10251000FFF7A4FF01210348FFF7A9FF05B000BDA5
:10252000000801400038014002460020B1F5007F5C
:1025300000D100BF13880B4201D0012000E0002031
:102540007047F0B503460024002600250020A1F5C1
:1025500010676A3F00D100BF1846C1F3421401F072
:102560001F06012707FA06F5012C01D10C3004E003
:10257000022C01D1103000E014301AB107682F434B
:10258000076002E00768AF430760F0BD2DE9F04740
:1025900086B005460E460024A24600BFA14600278D
:1025A000B08900B100BF2F462C8A4CF6FF70044062
:1025B000F08804432C82AC894EF6F3100440B088B6
:1025C00031890843718908430443AC81AC8A4FF6D2
:1025D000FF400440B0890443AC8201A8FEF706FA2C
:1025E0001F48874202D1DDF810A001E0DDF80CA001
:1025F000A88910F4004F08D00AEBCA0000EB0A10BB
:1026000031684900B0FBF1F807E00AEBCA0000EBC3
:102610000A1031688900B0FBF1F86420B8FBF0F0D3
:1026200004012009642101FB1089A88910F4004FDE
:1026300008D0322000EBC900B0FBF1F000F0070039
:10264000044308E0322000EB09106421B0FBF1F0F4
:1026500000F00F0004432C8106B0BDE8F0870000B5
:1026600000380140C1F308028280704700BFFEE7D6
:102670000FB4054B10B503A9044A029800F02CF8DA
:1026800010BC5DF814FB00001D3A00088802002011
:102690000FB4084B10B504A902AA039800F01CF867
:1026A000044602A9002000F0F1F8204610BC5DF8B5
:1026B00014FB00008D28000802E008C8121F08C1A2
:1026C000002AFAD170477047002001E001C1121FB3
:1026D000002AFBD1704700002DE9FF4F8BB0054663
:1026E0009A460F460026C7E0252837D100246D1CE6
:1026F000654AA04601212B78203B01FA03F01042E5
:1027000002D004436D1CF6E728782E2817D115F85F
:10271000010F44F004042A280ED06FF02F0228780D
:10272000A0F1300109290AD808EB880102EB410128
:1027300000EB01086D1CF2E757F8048B6D1C28783C
:1027400069283ED006DC002873D063280CD06428AA
:1027500004D136E0732810D075284CD052460D991C
:10276000904706F1010686E001CF8DF800000020B9
:102770008DF80100E946012003E057F8049B4FF073
:10278000FF3061074FF0000401D40AE0641C4445A7
:102790000DDA8442FADB19F804100029F6D106E0BC
:1027A000641C8442FCDB19F804100029F8D126448B
:1027B00004E019F8010B52460D999047641EF8D2B7
:1027C00059E001CF4FF00A0B002804DAC0F10000F5
:1027D0004FF02D0102E0210504D52B218DF82410A6
:1027E000012104E0E10701D02021F7E700210DF1EC
:1027F000200908910AE001CF4FF00A0BF6E759468D
:10280000FDF7BAFC01F1300209F8012D0028F6D1DC
:10281000ADEB090000F1200B600701D44FF0010877
:1028200000204246D84501DDA2EB0B008046002483
:1028300007E025E009A85246005D0D999047761CF7
:10284000641C08988442F5DB04E0302052460D9960
:102850009047761CB8F10001A8F10108F5DC05E00D
:1028600019F8010B52460D999047761CBBF10001F7
:10287000ABF1010BF4DC6D1C287800287FF434AF39
:102880000FB03046BDE8F08F092801000A68531CDC
:102890000B6010707047000070B504460D466078FC
:1028A00001232A4604F1300100F0D0FC08B10320D6
:1028B00070BD94F82E1294F82F0241EA0020A0F582
:1028C0002A41553901D00220F2E794F86900010647
:1028D00094F8680041EA004194F8670041EA00205A
:1028E00094F86610084320F07F400E49884201D1D9
:1028F0000020DDE794F88500010694F8840041EAA1
:10290000004194F8830041EA002094F882100843C3
:1029100020F07F400349884201D10020C8E7012010
:10292000C6E7000046415400024600E0521C107801
:1029300010B110788842F9D1107870472DE9F74F1F
:1029400086B00698006800900098007830380590AE
:10295000059809280AD8009840783A2806D10098A6
:10296000801C009006990098086001E00020059006
:10297000059818B10B2009B0BDE8F08FC94905983A
:1029800051F82040079804600CB90C20F3E7207838
:1029900078B1607800F08CFC814619F0010F08D105
:1029A000089820B119F0040F01D00A20E3E70020B5
:1029B000E1E70020207005986070607800F001FC6D
:1029C000814619F0010F01D00320D4E7089820B107
:1029D00019F0040F01D00A20CDE74FF0000A51464C
:1029E0002046FFF759FF0546012D18D104F5F77869
:1029F00098F8040098B198F80B00010698F80A00BE
:102A000041EA004198F8090041EA002098F80810CE
:102A100040EA010A51462046FFF73EFF0546032DD6
:102A200001D10120A7E70DB10D20A4E73B20015DF6
:102A300094F83C0041EA0020B0F5007F01D00D2061
:102A400099E74620015D94F8470041EA002777B9ED
:102A500094F85700010694F8560041EA004194F8B2
:102A6000550041EA002094F8541040EA0107E7615C
:102A70004020065DE670012E03D0022E01D00D200D
:102A800079E777433D20005D0646A07016B1701EC1
:102A9000304201D00D206EE74120015D94F84200E4
:102AA00041EA00202081208910F00F0F01D00D2075
:102AB00061E74320015D94F8440041EA002004905E
:102AC000049870B994F85300010694F8520041EA52
:102AD000004194F8510041EA002094F85010084356
:102AE00004903E20015D94F83F0041EA002BBBF1C9
:102AF000000F01D10D203EE70BEB0700218900EB11
:102B000011100390DDE90301814201D20D2032E76B
:102B1000DDE90310401AA178B0FBF1F002900298B1
:102B200008B90D2027E7012540F6F6710298884282
:102B300000D302254FF6F6710298884200D3032590
:102B40000298801CA06103985044A0620AEB0B001D
:102B50002062032D16D1208908B10D200BE794F8CF
:102B60005F00010694F85E0041EA004194F85D00C0
:102B700041EA002094F85C1008436062A06980007C
:102B8000019014E0208908B90D20F4E6206A384449
:102B90006062022D02D1A069400007E0A06900F048
:102BA0000100A16901EB410100EB51000190E169D5
:102BB000019800F2FF10B1EB502F01D20D20DAE6A0
:102BC0004FF0FF3020610020E060032D5CD1607188
:102BD00094F8601094F8610041EA0020504460616C
:102BE0006078012304F13001626900F02FFBF0BB33
:102BF00094F82E1294F82F0241EA0020A0F52A4101
:102C0000553941D194F83300010694F8320041EA75
:102C1000004194F8310041EA002094F83010084354
:102C20002149884230D194F81702010694F816021F
:102C300041EA004194F8150241EA002094F8141288
:102C400008431A4988421FD194F81F02010694F8DC
:102C50001E0241EA004194F81D0241EA002094F866
:102C60001C120843E06094F81B02010600E00BE030
:102C700094F81A0241EA004194F8190241EA00204E
:102C800094F8181208432061257009480088401CF8
:102C900080B207490880E0800020E062207100BF18
:102CA00069E600006C02002052526141727241617B
:102CB000700200200246891E9069801E884201D859
:102CC000002070479378906A01FB0300F9E7014602
:102CD000002002E04910421CD0B20129FAD170470D
:102CE0002DE9F04704468946B9F1000F06D1E7689F
:102CF00017B1A069B84211D801270FE04946204614
:102D000000F09EFE0646022E02D20120BDE8F087AA
:102D1000A069B04201D93046F8E74F463D4600BFB2
:102D20006D1CA069A84204D80225BD4201D900202B
:102D3000ECE72946204600F083FE064606B909E086
:102D4000701C01D0012E01D13046DFE7BD42E7D132
:102D50000020DBE700BF6FF070422946204601F0FB
:102D600010F88046B8F1000F08D1B9F1000F05D076
:102D70002A464946204601F004F88046B8F1000F83
:102D800009D1E5602069401C0DD02069401E2061FA
:102D90000120607107E0B8F1010F02D14FF0FF3060
:102DA00000E0012005462846B0E700002DE9F35F6A
:102DB000009886690B222021304600F09FFF0020FA
:102DC0000546804682464FF008090198D0F800B0C9
:102DD00000BF50460AF1010A1BF80040202C03DD19
:102DE0002F2C01D05C2C00D152E02E2C01D0C845F4
:102DF0000ED3B9F1080F01D12E2C02D00620BDE868
:102E0000FC9F4FF008084FF00B09A806050EE0E7FD
:102E1000802C01DB45F00305812C1DDBFE2C1BDC27
:102E200050460AF1010A1BF80070402F01DB7E2F8B
:102E300003DD802F05DBFE2F03DCA9F101004045F7
:102E400001D80620DBE7404608F10108345440462B
:102E500008F1010837541AE0214622A0FFF764FD6B
:102E600008B10620CBE7412C04DB5A2C02DC45F0EC
:102E7000020508E0612C06DB7A2C04DC45F0010534
:102E8000A4F12000C4B2404608F101083454A0E780
:102E900000BF0BEB0A0101980160202C01DC04202B
:102EA00000E00020C4B2B8F1000F01D10620A6E76F
:102EB0003078E52801D105203070B9F1080F01D133
:102EC000A806050E05F00300012801D144F0100406
:102ED00005F00C00042801D144F00804F47200202D
:102EE0008DE70000222A2B2C3A3B3C3D3E3F5B5DA8
:102EF0007C7F00002DE9F04104460021204600F0CF
:102F000012F9054615B12846BDE8F08100BF2169D8
:102F1000206800F0FDFE054605B116E066693778C9
:102F20000FB9042511E0F07A10F0080F06D10B223A
:102F30003046A16900F0C2FE00B906E0002120463B
:102F400000F006F80546002DE1D000BF2846DBE77B
:102F50002DE9F04104468846E088401C86B20EB157
:102F6000206910B90420BDE8F08116F00F0F6ED172
:102F70002069401C2061E06828B920680089B042BF
:102F800065DC0420EFE720688078401E10EA161FF9
:102F90005DD1E168206800F053FD0546012D01D8A0
:102FA0000220E0E7681C01D10120DCE7206880698D
:102FB000A84246D8B8F1000F01D10420D3E7E16858
:102FC0002068FFF78DFE05460DB90720CBE7012DE0
:102FD00001D10220C7E7681C01D10120C3E700210D
:102FE000206800F095FE08B10120BCE7216801F1DE
:102FF00030004FF40072002100F080FE2946206866
:10300000FFF758FE2168C862002710E00120216800
:1030100008710021206800F07BFE08B10120A2E7C2
:103020002068C06A401C2168C862781CC7B220684A
:103030008078B842EADC2068C06AC01B2168C86298
:1030400000BFE56029462068FFF734FE2061E68076
:103050002068303006F00F0100EB41106061002065
:1030600081E72DE9F041044604251BE02169206831
:1030700000F04EFE054605B117E067693E780EB9CF
:10308000042512E0E52E06D02E2E04D0F87A10F09A
:10309000080F00D109E000212046FFF759FF05463F
:1030A00005B102E020690028E0D100BF0DB1002089
:1030B00020612846BDE8F0812DE9F0410446002159
:1030C000204600F030F80546ADB900BF2169206800
:1030D00000F01EFE054605B10CE060690678E52E9D
:1030E00000D006B906E001212046FFF731FF054672
:1030F000002DEBD000BF9DB92169206800F008FECB
:1031000005466DB9676920220021384600F0F6FDBA
:103110000B223846A16900F0E4FD01202168087106
:103120002846BDE8F0812DE9F04104460E46E680D0
:10313000A568012D03D020688069A84202D802202A
:10314000BDE8F0812DB920680078032801D12068FE
:10315000456A65B9E56020680089B04201DC02205B
:10316000EEE72068406A00EB1610206120E020683E
:103170008078070112E02946206800F061FC0546CE
:10318000681C01D10120DBE7022D03D32068806990
:10319000A84201D80220D3E7F01B86B2BE42EADA89
:1031A000E56029462068FFF785FD00EB16102061D9
:1031B0002068303006F00F0100EB41106061002004
:1031C000BEE770B5054625B1012D0BD0022D0DD1FE
:1031D0000AE0FDF795FF04462A2C01D1002070BDBE
:1031E0000120FCE70120FAE70120F8E70120F6E7DB
:1031F00010B503460BB1042010BD0F2921D2DFE822
:1032000001F0080A20132018191A20201B1C1D1E6B
:103210001F000020F0E70C48406C0B4CA46CB0FB86
:10322000F4F010600020E7E70748806C1080002071
:10323000E2E706E005E004E003E002E001E000E090
:1032400000BF00BF0420D7E7000700202DE9F041B0
:103250000746884615461E4616B90420BDE8F0818B
:1032600027B1012F1CD0022F1CD11AE0012E08D14A
:103270000E48806C82B269024046FEF783F904462C
:1032800008E00A48806C82B2690233464046FEF785
:10329000B7FA04462A2C01D10020DFE70120DDE740
:1032A00001E000E000BF00BF0120D7E700070020D9
:1032B000014621B1012904D0022906D103E00020F2
:1032C00070470020FCE70020FAE700BF00BF0120A4
:1032D000F6E700002DE9F0410746884615461E46F0
:1032E00016B90420BDE8F08117B1022F1BD119E0F7
:1032F000012E08D10E48806C82B269024046FEF76A
:103300005BFC044608E00A48806C82B269023346DE
:103310004046FEF707FE04462A2C01D10020E1E7D3
:103320000120DFE700E000BF00BF0120DAE7000076
:103330000007002070B50446204600F0BEF905469F
:103340000DB900202060284670BD2DE9F74F82B0EE
:103350008B4614460022214602A8FFF7EFFA01909F
:103360000198002877D1206801698069801E814218
:1033700004D820680069CBF800006CE0206890F861
:1033800000A00026BAF1010F1DD1022700BF394667
:10339000206800F055FB804618F1010002D10120A1
:1033A00001900FE0B8F1010F02D10220019009E075
:1033B000B8F1000F00D1761C781C07462168896996
:1033C0008842E4D33DE0206887692068006A009065
:1033D0004FF00009002500BFB9F1000F0FD1009A8E
:1033E000531C11460093206800F092FC0190019854
:1033F00000B125E0206800F130054FF40079BAF102
:10340000020F09D12878697850EA012000D1761C92
:10341000AD1CA9F1020910E0E8780006A97840EA9D
:103420000140697840EA01202978084330F0704073
:1034300000D1761C2D1DA9F10409781E0700CBD1FF
:1034400000BF20680661BAF1030F02D10120216894
:103450004871CBF80060019805B0BDE8F08F00001E
:103460000246012A01DB0B207047074850F8223042
:103470000BB10020187009B100200870024840F814
:1034800022100020F0E700006C0200202DE9F74335
:103490008AB0054616460020286006F01F0626F072
:1034A000010203A90BA8FFF749FA0746CDF824D07B
:1034B00027B903A80B9900F061FA0746089C0FB9D9
:1034C00004B9062716F01C0F57D04FB1042F03D1B3
:1034D00003A8FFF7F1FD074646F00806089C09E03F
:1034E00016F0040F01D0082704E0E07A10F0110F65
:1034F00000D00727002F3FD116F0080F3CD000F076
:1035000011FB804684F80E804FEA1820E0734FEAE2
:10351000184121744FEA186060740020E07220772F
:1035200000216177A177E177A17EE07E41EA00206A
:10353000227D617D42EA012140EA01490020A07616
:103540000021E17620756175012003990871B9F1B8
:10355000000F11D00398D0F82C804946039800F052
:10356000ABFC074647B9A9F101000399C860414681
:10357000039800F0CDFB07460EE06FB9E07A10F03B
:10358000100F01D0042707E016F0020F04D0E07AF4
:1035900010F0010F00D0072747B916F0080F01D02F
:1035A00046F020060398C06AE8612C62F7B9AE7154
:1035B000A17EE07E41EA0020227D617D42EA012178
:1035C00040EA01402861E07F0106A07F41EA004116
:1035D000607F41EA0020217F0843E8600020A86066
:1035E000A861039828600398C088A88038460DB069
:1035F000BDE8F08333B583B004460022214604A819
:10360000FFF79CF905464DBBC4F818D02046049935
:1036100000F0B4F90546F5B9606998B16069C07AFF
:1036200010F0100F0DD06069817EC07E41EA00204D
:1036300061690A7D497D42EA012140EA0140A060BA
:1036400000E005253DB92068C088A0800021204603
:10365000FFF769FD0546042D00D10525284605B074
:1036600030BDFEB504460E46A188206800F00EFD70
:10367000054605BB2EB900212046FFF754FD05463F
:1036800019E0C4F818D02046FFF7EBFC0546042DDE
:1036900002D10020206100256DB93146204600F09E
:1036A00043FA00212046FFF753FC0546042D02D1C2
:1036B0000020206100252846FEBD2DE9F04104468A
:1036C000A188206800F0E2FC0746002F4ED1A079C7
:1036D00010F0200F4AD0A07910F0400F0FD02168D1
:1036E0004878012304F12401A269FFF7F3FD10B12A
:1036F0000120BDE8F081A07920F04000A071E169CF
:10370000206800F005FB0746002F2FD1256AE87AD4
:1037100040F02000E872E0682877E068000A6877E7
:10372000E068010CA977E068000EE8772069A876C8
:103730002069000AE8762069000C28752069000ECF
:10374000687500F0EFF90646AE75300AE875310C81
:103750002976300E6876A07920F02000A071012033
:1037600021680871206800F02DFC07463846C0E744
:103770002DE9FF4F83B0044615469B4604980190FF
:103780000020CBF80000A188206800F07FFC0290A8
:10379000029818B1029807B0BDE8F08FA07910F038
:1037A000800F01D00220F6E7A07910F0020F01D1BE
:1037B0000720F0E7E0682844E168884200D200254D
:1037C000CCE0A068C005C00D77D120688078401E8D
:1037D000A16800EA512000F0FF0ABAF1000F2AD1D7
:1037E000A06858B9D4F81080B8F1000F0BD10021AF
:1037F0002068FFF775FA8046206104E0616920685F
:10380000FFF76EFA8046B8F1000F00D1A9E0B8F1D9
:10381000010F05D1A07940F08000A0710220BAE725
:1038200018F1010005D1A07940F08000A0710120BD
:10383000B1E7C4F81480A07910F0400F12D02168CD
:103840004878012304F12401A269FFF743FD28B160
:10385000A07940F08000A07101209CE7A07920F0C1
:103860004000A07161692068FFF724FA06462EB96E
:10387000A07940F08000A07102208CE756444FEA06
:103880005529B9F1000F2FD00AEB0900216889787A
:10389000884203D920688078A0EB0A09216848781B
:1038A00009F0FF0332460199FFF714FD30B1A0790A
:1038B00040F08000A07101206DE72CE0A069801B22
:1038C00048450ED2A069801B019A02EB40214FF4BB
:1038D000007204F1240000F004FAA07920F0400006
:1038E000A0714FEA49272DE0A069B04212D0D4E977
:1038F000020188420ED2216848780123324604F141
:103900002401FFF7A3FC28B1A07940F08000A0714A
:10391000012040E7A661A068C0F30800C0F5007769
:10392000AF4200D92F46A168C1F3080204F1240177
:1039300050183A46019900F0D4F9A07940F04000BF
:10394000A07100BF019838440190A0683844A0607D
:10395000DBF800003844CBF80000ED1B002D7FF4AD
:1039600030AF00BFD4E90201884201D9A068E0600D
:10397000A07940F02000A07100200CE72DE9F34170
:103980000446019800782F2803D0019800785C281D
:1039900002D10198401C01900020A060019800789D
:1039A000202807D200212046FFF7BDFB0646002055
:1039B00060612FE000BF01A92046FFF7F7F9064636
:1039C00006B126E02046FFF795FA0646A069C77AB9
:1039D00046B1042E00D01CE000BF17F0040F00D148
:1039E000052616E017F0040F00D012E06569E87AAA
:1039F00010F0100F01D105260BE0A97EE87E41EA08
:103A000000202A7D697D42EA012140EA0140A06050
:103A1000D1E700BF3046BDE8FC81000070B5044628
:103A20000D46E1B20548FEF71DFE00BF40210348E8
:103A3000FEF77AFD0028F9D0204670BD003801401D
:103A40002DE9F04105460C46022C02D3A869A0429C
:103A500002D80120BDE8F0812878012804D002288E
:103A60002CD003285AD13DE0274607EB5707286A98
:103A700000EB5721284600F04BF900B14EE0C7F3A8
:103A8000080105F1300010F801807F1C286A00EB66
:103A90005721284600F03CF900B13FE0C7F3080188
:103AA00005F13000405C48EA002814F0010F02D014
:103AB0004FEA1810CEE7C8F30B00CBE7286A00EBFB
:103AC0001421284600F024F900B127E040F2FF104D
:103AD00000EA440105F130000E183078717840EAB0
:103AE0000120B7E7286A00EBD411284600F010F94E
:103AF00000B113E040F2FF1000EA840105F130004C
:103B00000E18F0780006B17840EA0140717840EA7A
:103B100001203178084320F070409BE700BF4FF050
:103B2000FF3097E700207047F0B505460B4603F1DC
:103B300009022F69002F40D06869067B00210AE046
:103B4000445C202C00D108E0052C00D1E52400BF06
:103B500002F8014B491C0829F2D300BF077A202F35
:103B60000FD02E2702F8017B082107E0445C202CAF
:103B700000D105E000BF02F8014B491C0B29F5D329
:103B800000BFC77A1F72C77F4FEA076C877F4CEA76
:103B9000074C477F4CEA072790F81CC047EA0C0700
:103BA0001F6090F818C0477E4CEA07279F8090F866
:103BB00016C0C77D4CEA0727DF8000271770F0BDCD
:103BC000FDF7E4FBFEF760FC1E48FEF751FD1D48C3
:103BD0004430FEF74DFD1B488830FEF749FD19487B
:103BE0004430FEF745FD1748FEF742FD1649002018
:103BF000FFF736FC062215A11748FFF747FC1749C7
:103C000008700846007870B9154B3F2215491248D4
:103C1000FFF7AEFD1149087013A0FEF729FD0E480D
:103C2000FFF788FB06E00D480078082802D118A0AD
:103C3000FEF71EFD204800F073F9FDF783FF00BF7B
:103C4000FEE70000B84000088C020020303A2F4404
:103C5000656D6F2E54585400BC0400203F020020B4
:103C6000400200200002002044656D6F2E5458541D
:103C7000207375636365737366756C6C792063720A
:103C8000656174656420202020202020200D0A001A
:103C900044656D6F2E545854206372656174656479
:103CA00020696E20746865206469736B2020202071
:103CB00020200D0A0000000000000020F0B503469F
:103CC0001C460D46002000BF1600A2F1010207D0DD
:103CD00014F8017B15F801CBA7EB0C063000F3D0EC
:103CE000F0BD70B503460C4603E014F8015B03F821
:103CF000015B1500A2F10102F7D170BD30B503469A
:103D000001E003F8011B1400A2F10102F9D130BD5A
:103D10002DE9F04104460D46E66AAE422FD02079E7
:103D200008B360780123324604F13001FFF7D2FA7C
:103D300010B10120BDE8F08100202071D4E9071006
:103D40000844B0420FD9E7780AE0E0690644607899
:103D50000123324604F13001FFF7BCFA781EC7B2E6
:103D6000012FF2DC00BF55B1607801232A4604F12F
:103D70003001FFF76BFA08B10120DBE7E5620020B4
:103D8000D8E72DE9F04705460E461746022E02D326
:103D9000A869B04202D84FF002088AE028780128CA
:103DA00004D0022841D003287DD154E0B14609EB6C
:103DB0005909286A00EB59212846FFF7A9FF8046D8
:103DC000B8F1000F00D071E0C9F3080105F130002F
:103DD0000C1816F0010F04D0F9B2207861F31F100F
:103DE00000E0F8B2207009F1010901202871286A69
:103DF00000EB59212846FFF78BFF8046B8F1000FF2
:103E000000D053E0C9F3080105F130000C1816F09A
:103E1000010F02D0C7F3071005E0207800F0F00092
:103E2000C7F303210843207040E0286A00EB162105
:103E30002846FFF76DFF8046B8F1000F00D035E04F
:103E400040F2FF1000EA460105F130000C1827701F
:103E5000380A60702AE0286A00EBD6112846FFF77E
:103E600057FF8046B8F1000F00D01FE040F2FF106E
:103E700000EA860105F130000C18E0780006A17810
:103E800040EA0140617840EA01202178084300F0CF
:103E9000704007432770380A6070380CA070380EE5
:103EA000E07003E0FFE74FF0020800BF00BF012011
:103EB00028714046BDE8F0872DE9F04104460E46E2
:103EC000022E02D3A069B04201D8022725E00027C4
:103ED0001FE031462046FFF7B3FD054605B91BE05C
:103EE000012D01D1022717E0681C01D1012713E041
:103EF000002231462046FFF744FF074607B10BE09A
:103F00002069401C04D02069401C206101206071A0
:103F10002E46A069B042DCD800BF3846BDE8F0812B
:103F200070B58EB00446214601A8FFF763FB204917
:103F3000087008460078002835D12046FCF714F9AF
:103F4000054600BF08A901A8FFF78BFB18490870B8
:103F50000846007810B99DF8290000B922E09DF8C4
:103F600029002E2800D1EDE70DF129069DF8280043
:103F700010F0100F10D0601932460EA1FEF788FB2A
:103F80002046FFF7CDFF0A4908700846007800B1C7
:103F900008E00020605504E03246214606A0FEF706
:103FA00067FBCFE700BF024800780EB070BD00008D
:103FB0003F0200202F25730025732F2573200D0A43
:103FC0000000000070B5044600212046FFF7A0FE67
:103FD0000546002D58D1207803284ED1607900285D
:103FE0004BD00020E0624FF40072002104F1300059
:103FF000FFF784FE552184F82E12AA2184F82F128F
:1040000052213020015584F83110612184F832109A
:10401000412184F83310722184F8141284F81512A7
:10402000412184F81612612184F81712206984F85E
:1040300018022069010A84F819122069010C84F819
:104040001A122069010E84F81B12E06884F81C0221
:10405000E068010A84F81D12E068010C84F81E1261
:10406000E068010E84F81F126078012304F130012A
:104070006269FFF72FF90020607160780022114615
:10408000FFF7B6F800B10125284670BD70B50446AB
:104090000D4624B1207810B1E088A84201D0092053
:1040A00070BD6078FFF704F910F0010F01D0032014
:1040B000F6E70020F4E700002A2A2A2A2A2A2A2AD8
:1040C0002A2A2A2A2A2A2A2A2A2A2A2A2A2A2A2A50
:1040D0002A2A2A2A2A2A2A2A2A2A2A2A2A2A2A2A40
:1040E0002A2A2A2A2A2A2A2A2A2A2A2A2A2A2A2A30
:1040F0002A2A2A2A2A2A2A2A2A0D0A002A202020A5
:1041000020202020202020202020202020202020AF
:10411000202020202020202020202020202020209F
:10412000202020202020202020202020202020208F
:104130002020202020202020202020202A0D0A00BE
:104140002A20205468616E6B20796F7520666F722B
:10415000207573696E672048592D52656442756CED
:104160006C2056332E3020446576656C6F706D651B
:104170006E7420426F6172642021205E5F5E202099
:104180002A0D0A00A4410008000000208C02000053
:10419000C8010008004200088C0200200C45000005
:1041A000C826000803FF303A01FFE03F5468616E03
:1041B0006B20796F7520666F72207573696E67204A
:1041C00048592D52656442756C6C2056332E302050
:1041D000446576656C6F706D656E7420426F6172B8
:1041E0006420A3A15E5F5E200D0AB202021D2A2D8B
:1041F0000102030404600906070809020406080016
:0400000508000131BD
:00000001FF
