:10000E0012006AE4F50A850A087F0A7E0012008152
:10001E00050AE50AC3946440ED750A64E50AD394B3
:10002E000040E0850A087F0A7E00120081150A80D2
:01003E00EBD6
:03000B0002003FB1
:10003F00C0E0C0F0C0D0758A9C758CFF0509E5093A
:10004F0075F0648485F009E509C395085004D2A1C1
:0B005F008002C2A1D0D0D0F0D0E0326F
:10008100EF1FAC0670011E4C600A7D027CEFDCFEA6
:04009100DDFC80EC26
:010095002248
:10006A005389F0438901758A9C758CFFC28DD28CA5
:07007A00D2A9D2AFC2B922E6
:0300000002009665
:0C009600787FE4F6D8FD75810A02000EA8
:00000001FF
